:020000040000FA
:1000000078540010290200002D0200002F02000089
:100010003102000033020000350200000000000041
:100020000000000000000000000000003702000097
:1000300039020000000000003B02000059CD000022
:100040003F0200009B040000CF0500003F020000BB
:100050003F0200002B3A01003F0200003F02000077
:100060003F0200003F0200003F0200003F0200008C
:100070003F0200003F0200003F0200003F0200007C
:100080003F0200003F0200003F0200003F0200006C
:100090003F0200003F020000033300003F02000067
:1000A0003F020000114F01003F0200003F0200002C
:1000B000490A00003F0200003F0200003F0200002A
:1000C0003F0200003F0200003F02000000F002F883
:1000D00000F09BF80AA090E8000C82448344AAF147
:1000E0000107DA4501D100F090F8AFF2090EBAE845
:1000F0000F0013F0010F18BFFB1A43F0010318475C
:10010000D0290400102A04000A444FF0000C10F813
:10011000013B13F0070408BF10F8014B1D1108BF85
:1001200010F8015B641E05D010F8016B641E01F825
:10013000016BF9D113F0080F1EBF10F8014BAD1C75
:100140000C1B09D16D1E58BF01F801CBFAD505E093
:1001500014F8016B01F8016B6D1EF9D59142D6D3ED
:10016000704700000023002400250026103A28BF15
:1001700078C1FBD8520728BF30C148BF0B60704719
:100180006E2915F0B985702915F08C8666291BF04B
:10019000798465291BF0768467291BF073846129B3
:1001A0001BF07284692915F06B85642915F0688548
:1001B000752915F065856F2915F01286782915F0D7
:1001C00064860368DB0928BF41F08001632916F0CB
:1001D0001885732916F01D85E32916F0288500205F
:1001E00070471FB51BF047FC16F0DAFD0400002035
:1001F00000211BF09FFA401C6060002000211BF0D2
:1002000083FAE0601FBD10B510BD17F0DFF811468E
:10021000FFF7E7FF0CF0A1FD17F0FDF803B4FFF7BF
:10022000F2FF03BC17F002F908480047FEE7FEE7BB
:10023000FEE7FEE7FEE7FEE7FEE7FEE7FEE7FEE796
:1002400003480449024A044B70470000CD000000F7
:10025000781408207854001078520010FEE710B58A
:1002600019F044F919F0D0F919F0C2F919F050F960
:10027000AFF30080BDE8104019F08CB910B519F04B
:100280009DFF1AF00DFE19F0F1FFBDE810401AF0C5
:1002900069B919F0B1BE19F079BC09B100207047F5
:1002A00018F082B9002070470FB41CB5084B06AA9D
:1002B0007B4469460090059816F081FC04460020B6
:1002C000694616F08FFC20461CBC5DF814FB00004C
:1002D0003169010009684A0501D540B27047C90576
:1002E000FCD500B2704709684A0501D5C0B2704715
:1002F000C905FCD580B2704770477047FFFFFFFF0C
:1003000030B54E482021C0F8A01100BFD0F8A01190
:100310004906FBD500F180000322C0F884204FF489
:100320000031C0F828114FF00001C0F82C114FF037
:100330000103C0F88C30424C446003604FF0AA03C4
:10034000C3604FF05504C460A0F18000D0F888501D
:100350006D01FBD540F8802FC360C460C0F88810E1
:10036000384A4264C0F848118168A0F180006FEA01
:1003700011618A073449D0F80C2102F0030207D03A
:1003800092B3012A46D0022A4AD0032A51D13BE037
:100390002AB1012A11D0022A27D0032A49D150F8C4
:1003A000882FC2F30E02521C53000268C2F30742A8
:1003B000521CB3FBF2F2254B0CE050F8882FC2F32D
:1003C0000E02521C53000268C2F30742521CB3FBD8
:1003D000F2F21F4B5A43C36FA0F18800DBB203F166
:1003E0000103B2FBF3F223E00EE050F8882FC2F3D2
:1003F0000E02521C53000268C2F30742521CB3FBA8
:10040000F2F24FF4FA43E5E7D0F804210F4BD2B2F1
:10041000521C0BE0D0F804210D4BD2B2521C05E067
:10042000D0F804214FF4FA43D2B2521CB3FBF2F2DB
:100430000A6043F23A01016030BD000000C00F4085
:100440004F0003004AF144400C00001000093D0039
:100450008096980070B542F227346143002202234F
:10046000FF240425012660B1012809D17B4843609F
:10047000C26081610460456146604168C907FCD182
:1004800070BD4FF040204360C260816104604561EF
:1004900046604168C907FCD170BD2DE9F0414FF0BD
:1004A0004020012505606E480168491C01606D48C7
:1004B00000246E4E04806C48057070696D4AC0F36C
:1004C00080216B48017013786B48994202D00388F1
:1004D0005B1C0380117069490A88521C12B20A80A1
:1004E000142A02DB0C8066490D7066490A88521C8A
:1004F00012B20A80092A02DB0C8063490D7063493D
:100500000A88521C12B20A800A2A5ADB0C806049FF
:100510000D7060490A88521C12B20A80B2F5FA7F47
:1005200004DB5D4A0C800188118004805B4F3888B1
:10053000401C00B238800A2804DB59483C80057012
:1005400001F096F93888052801D101F091F9554854
:100550000188491C09B20180142918DB0480524823
:1005600005705248017809B1047000E005705048E8
:10057000007860B14F48016821F0F00101603068F7
:1005800040F004003060706980F0040070614A48F7
:100590000188491C09B20180322908DB04804748E0
:1005A00005704748017809B1047000E005704548BE
:1005B0000188491C09B20180642902DB0480424899
:1005C0000570F06940F00100F061BDE8F081234959
:1005D0000120086022484168491C416070470121A0
:1005E00010B11E48416070474FF04020FAE70021EB
:1005F00010B11A48416070474FF04020FAE728B127
:100600001648416841F00201416070474FF04020B8
:10061000F7E710B50022124C032318B1012808D0C7
:10062000002010BD22604FF0402081614361012015
:1006300004E06260094881614361022000F002F831
:10064000012010BD00F01F020121914040094FF030
:10065000E02202EB8000C0F80011704700800040EB
:1006600008C00720360000103000001000C009202C
:100670003C00001032C2072030C207202CC20720E5
:1006800025C20720380000102EC0072026C20720F0
:1006900028C007202EC207203A00001032000010A8
:1006A00029C0072028C207202AC007202FC0072002
:1006B0001FC0072000C00240340000102BC00720DC
:1006C00030C007202AC207202CC00720C1F1200219
:1006D000904010B5FC4A4FF4007453150EE000280A
:1006E00001DA946500E0D46500BF00BF00BF9365E8
:1006F00000BF00BF00BFD3654000491E0029EED1F6
:1007000010BD70B50546F1480078012813D04FF0B0
:10071000A04045F4807181620121416200210213F1
:10072000436BDB0702D0491C9142F9D3002141629F
:10073000056BA8B270BDE44C206C40F400702064DE
:1007400020214FF0FF30FFF7C1FF04210620FFF703
:10075000BDFF05210120FFF7B9FF05212846FFF75E
:10076000B5FF00F0CBF94FF0000528464FF480713B
:100770004FEA4505A16500BF00BF00BFE165626D9E
:10078000920501D545F00105401C1028F0D300F07A
:10079000B5F9CEE770B50546CC480C46007801287F
:1007A0000ED04FF0A04245F480709062D4620020D9
:1007B0001113536BDB0702D0401C8842F9D370BD84
:1007C000C148016C41F40071016420214FF0FF30F9
:1007D000FFF77CFF04210520FFF778FF05210120AA
:1007E000FFF774FF05212846FFF770FF0221084636
:1007F000FFF76CFF10212046FFF768FFBDE870404F
:1008000000F07CB92DE9FC47B04C0025362025705E
:100810000090694662680846904701982521B1EB2F
:10082000106F01D101202070A948016841F080417A
:100830000160A948A74981602178002960D0016939
:1008400021F470210161A048016C41F480710164C0
:100850004FF0A0444FF44F4020607820C4F80001CE
:100860006420401EFDD14FF00208C4F80080302003
:1008700060604001606143F20F7020611227E76001
:100880007801C4F800014FF40060A0616426761E70
:10089000FDD1A5614FF400410020FFF77BFF4FF42D
:1008A00080190020FFF72DFF10F4084F02D0761CAE
:1008B0004E45F6D30220FFF724FF06460320FFF73C
:1008C00020FF4FF6F0710840844940EA0640884214
:1008D0000DD14FF440510020FFF75CFF00260120AE
:1008E000FFF70FFF800602D4761C4E45F7D3002693
:1008F0004FF480391020FFF704FFC10709D105E04C
:10090000C16821F00F01491DC160A1E7761C4E4569
:10091000F0D341070CD5616841F001016160D4F862
:10092000001141F48061C4F800111521A16000E0BC
:10093000A760800701D5A56102E04FF48070A06137
:10094000674881882164418861640088A064654BA0
:10095000654EA3F16401002001F1200200EB400785
:1009600003EB472741F8307001EBC0077E6042F887
:10097000305002EBC007401C7D600428EED3C4F861
:100980000811C4F80C210320C4F81001C4F8185150
:1009900054490020554E243901F1180200EB400360
:1009A00006EB432341F8303001EBC0035D6042F8B1
:1009B0002050401C0328F1D304F1AC042167626786
:1009C000C4F87880E5674FF02600C4F854014FF072
:1009D0008800C4F8380F4FF6FF70C4F83C0F606D04
:1009E00040F00300606554F8AC0D40F00100206059
:1009F000BDE8FC873E484FF08051016070473D489C
:100A00004FF0805101607047F0B54FF0A045D5F828
:100A10002811344E0388243E021D56F83140DB1C59
:100A20009B0803D080CA5B1E80C4FBD1008806EB04
:100A3000C102401E40F04040491C5060032900D1D3
:100A40000021C5F82811F0BD70B54FF0A04533E086
:100A5000C5F8E80F00072FD5D5F8184128E0214840
:100A6000443850F8340041001CD5C0F30A06F61E85
:100A700040F2EA518E4215D81F49084212D146F081
:100A8000004017F04FF968B1164A011D643AF61C90
:100A900052F83420B30803D040CA5B1E40C1FBD1DA
:100AA00019F00CFB641C042C00D10024C5F818417B
:100AB000D5F81401A042D2D1D5F8E00FD5F8E41F43
:100AC0000840C5D170BD000000C0092010C007203B
:100AD000C4C00F400501155000C00240905C0020CA
:100AE00000C00720B4220010FF050080B43A0010B7
:100AF00000E100E080E100E00000901B0748016C8D
:100B000021F4007101644FF48071816500BF00BF62
:100B100000BFC16500BF00BF00BF704700C0092013
:100B2000FF49886048680006FCD58868C0B27047F5
:100B3000FC48016841F040410160416821F0030137
:100B40004160416841F00C014160416841F0300171
:100B50004160F3480821C160202101607047F148DD
:100B6000016821F040410160416821F003014160CA
:100B7000416821F00C014160416821F03001416081
:100B8000E74900200860704700B5FFF7D1FFE64A4B
:100B9000106840F000601060D06940F00060D061E3
:100BA0000620FFF7BDFF106840F0006010609069FC
:100BB00040F0006090615DF804EBD0E700B5FFF70E
:100BC000B7FFD94A106840F000601060D06940F06B
:100BD0000060D0610520FFF7A3FFFF20FFF7A0FF13
:100BE0000346106840F000601060906940F00060BB
:100BF0009061FFF7B4FF184600BD01B5FFF7DEFFB7
:100C0000C007FBD1FFF794FFC74A106840F00060AF
:100C10001060D06940F00060D061106840F0006062
:100C20001060D06940F00060D0610320FFF778FFCA
:100C30009DF80100FFF774FF9DF80000FFF770FFBB
:100C4000FF20FFF76DFF0346106840F00060106062
:100C5000906940F000609061106840F000601060A2
:100C6000906940F000609061FFF779FF184608BD79
:100C700011B5AD4C206840F002002060A06940F042
:100C80000200A061FFF79AFFC007FBD1FFF750FFFA
:100C9000206840F000602060E06940F00060E061A2
:100CA0000320FFF73DFF9DF80100FFF739FF9DF896
:100CB0000000FFF735FFFF20FFF732FF0246FF205D
:100CC000FFF72EFF02EB0022206840F0006020605A
:100CD000A06940F00060A061206840F000602060E2
:100CE000A06940F00060A061FFF739FFE06940F0C3
:100CF0000200E061104618BD2DE93140FFF75EFFAC
:100D0000C007FBD1FFF714FF874A106840F000606E
:100D10001060D06940F00060D0610320FFF700FF51
:100D20009DF80100FFF7FCFE9DF80000FFF7F8FEBC
:100D3000FF20FFF7F5FE0346FF20FFF7F1FE044614
:100D4000FF20FFF7EDFE0546FF20FFF7E9FE05EB6C
:100D5000002004EB002003EB0023106840F000604B
:100D60001060906940F000609061106840F0006091
:100D70001060906940F000609061FFF7F0FE184647
:100D800038BD13B54FEA0104FFF718FFC007FBD1C8
:100D9000FFF7CEFE644A106840F000601060D06932
:100DA00040F00060D0610320FFF7BAFE9DF801001B
:100DB000FFF7B6FE9DF80000FFF7B2FEFF20FFF739
:100DC000AFFE2070FF20FFF7ABFE6070FF20FFF743
:100DD000A7FEA070FF20FFF7A3FEE070106840F0B0
:100DE00000601060906940F000609061106840F011
:100DF00000601060906940F000609061BDE81C40A8
:100E0000ADE677B50D461646FFF7D8FEC007FBD115
:100E1000FFF78EFE444B186840F000601860D869F8
:100E200040F00060D8610320FFF77AFE9DF80100D2
:100E3000FFF776FE9DF80000FFF772FE002406E043
:100E4000FF20FFF76DFE641C05F8010BE4B2B4420D
:100E5000F6D3186840F000601860986940F00060B0
:100E60009861186840F000601860986940F0006070
:100E70009861BDE87E4072E613B50C46FFF79EFE12
:100E8000C007FBD1FFF780FEFFF752FE264A10682D
:100E900040F000601060D06940F00060D061022036
:100EA000FFF73EFE9DF80100FFF73AFE9DF80000B7
:100EB000FFF736FE2046FFF733FE0346106840F08A
:100EC00000601060906940F000609061106840F030
:100ED00000601060906940F000609061FFF73FFE95
:100EE00018461CBD2DE90340FFF768FEC007FBD183
:100EF000FFF74AFEFFF71CFE0B4A106840F0006047
:100F00001060D06940F00060D0610220FFF708FE59
:100F10009DF80100FFF704FE9DF8000006E00000C8
:100F20000000024000C0024000C00920FFF7F8FDA9
:100F30009DF80400FFF7F4FD9DF805301846FFF713
:100F4000EFFD106840F000601060906940F00060B4
:100F50009061106840F000601060906940F000609F
:100F60009061FFF7FCFD18460CBD03B5FFF726FEA8
:100F7000C007FBD1FFF708FEFFF7DAFD3C4A106817
:100F800040F000601060D06940F00060D061022045
:100F9000FFF7C6FD9DF80100FFF7C2FD9DF80000B8
:100FA000FFF7BEFD9DF80400FFF7BAFD9DF80500B0
:100FB000FFF7B6FD9DF80600FFF7B2FD9DF807307C
:100FC0001846FFF7ADFD106840F0006010609069B2
:100FD00040F000609061106840F00060106090691F
:100FE00040F000609061FFF7BAFD18460CBD13B5E4
:100FF0004FEA0104FFF7E2FDC007FBD1FFF7C4FD94
:10100000FFF796FD1A4A106840F000601060D06942
:1010100040F00060D0610220FFF782FD9DF80100E2
:10102000FFF77EFD9DF80000FFF77AFD2078FFF7BF
:1010300077FD6078FFF774FDA078FFF771FDE37826
:101040001846FFF76DFD106840F000601060906971
:1010500040F000609061106840F00060106090699E
:1010600040F000609061FFF77AFD18461CBD00005B
:1010700000C009202DE9F84F02F0D3F9FE4BDFF84C
:10108000FCA30020C1018E4600247A214143009137
:101090000099002501EBC40109B28B460EEB051146
:1010A00021440EB200219955DFF8D4C359460722D6
:1010B0001AF80170B946FF0705D09F5D1CF8028041
:1010C00047EA08079F554FEA59080AF80180491C6A
:1010D000521E52B209B2002AEADA6D1CEDB2082D96
:1010E000DCD3641C64B20F2CD2DB401CC0B20428D9
:1010F000C8D3BDE8F88FE348016A21F07F7101622F
:10110000816941F40001816100BF00BF00BF00BFE1
:1011100000BF00BF00BF00BF00BF00BFC16941F0FA
:101120000051C16100BF00BF00BF00BF00BF00BFD2
:1011300000BF00BF00BF00BF816941F080418161F5
:101140004FF01101491EFDD1416B8901FCD470475C
:10115000CC4A00B50346106840F0C04010601068EB
:1011600040F400001060FFF7C6FF00BF00BF00BFE3
:1011700000BF00BF00BF00BF00BF00BF00BF90693D
:1011800040F00050906100BF00BF00BF00BF00BF33
:1011900000BF00BF00BF00BF00BFD06940F4000027
:1011A000D06100BF00BF00BF00BF00BF00BF00BFD5
:1011B00000BF00BF00BF106A40F07F701062906BEC
:1011C00040EA83409063D06B6FEA0301C9B240EA02
:1011D0008140D06300BF00BF00BF00BF00BF00BFA1
:1011E00000BF00BF00BF00BFD06940F08040D061A9
:1011F00000BF00BF00BF00BF00BF00BF00BF00BFF7
:1012000000BF00BF184600BD9E4A00B503461068E7
:1012100040F0C1401060FFF76EFF00BF00BF00BF8D
:1012200000BF00BF00BF00BF00BF00BF00BFD0694C
:1012300040F00050D06100BF00BF00BF00BF00BF42
:1012400000BF00BF00BF00BF00BFD06940F4000076
:10125000D06100BF00BF00BF00BF00BF00BF00BF24
:1012600000BF00BF00BF106A40F07F701062906B3B
:1012700040EA83409063D06B6FEA0301C9B240EA51
:101280008140D06300BF00BF00BF00BF00BF00BFF0
:1012900000BF00BF00BF00BFD06940F08040D061F8
:1012A00000BF00BF00BF00BF00BF00BF00BF00BF46
:1012B00000BF00BF00BD30B55FF0000404F1800046
:1012C000C0B2FFF7A1FF8020FFF79EFF002501209D
:1012D000FFF73EFF0120FFF73BFF6D1CEDB2082D2D
:1012E000F5D3641CE4B2202CE8D330BD70B5664859
:1012F000416821F440114160816821F040518160D2
:10130000816821F440318160816821F04061816011
:10131000816821F440418160416821F030014160E1
:10132000416821F0C0014160416821F44071416091
:10133000416821F440614160416821F440514160BD
:10134000416821F440414160416821F440314160ED
:10135000416821F4402141604A48016A4B4A1143E7
:101360000162016841F0C3410160C16B41F08061DD
:10137000C16340F252342146491EFDD1816B41F0D8
:10138000806181632046401EFDD13F20FFF73CFF76
:1013900040F6F61635466D1EFDD13F20FFF734FFAF
:1013A000641EFDD10C20FFF72FFF761EFDD170BD0E
:1013B00000B5FFF79BFF5DF804EB7CE72DE9F041FA
:1013C000FFF758FE3248017809B1002100E0012101
:1013D0000026294F0170344604F18000C0B2FFF7A7
:1013E00013FF8020FFF710FF0025B85D761C36B292
:1013F000FFF7AEFE6D1CEDB2102DF6D3641CE4B207
:10140000202CE9D3BDE8F08110B52248401EFDD163
:1014100021A327A22CA132A000F010FEBDE81040AD
:101420000020CBE71748016A21F07F7101628169D2
:1014300041F40001816100BF00BF00BF00BF00BFD9
:1014400000BF00BF00BF00BF00BFC16941F0005135
:10145000C16100BF00BF00BF00BF00BF00BF00BF31
:1014600000BF00BF00BF816941F080718161416BA5
:101470008901FCD470470000B44C0010DA03082046
:10148000FFBB010000C0092000C002400000FC07B3
:1014900018C0072080841E0033342020C8EDE8F6F1
:1014A000E8E0EBE8E7E0F6E8FF2020380000000085
:1014B00035202020EDE520EFEEE4EAEBFEF7E5ED48
:1014C000E0202036000000003320202020C1E0F280
:1014D000E0F0E5FF20B923202020203400000000A8
:1014E00031202020202020C0C2C0D0C8DF212020F1
:1014F0002020203200000000B94A00B503461068E1
:1015000040F000501060106840F0C0701060FFF7AD
:1015100089FF00BF00BF00BF00BF00BF00BF00BF0A
:1015200000BF00BF00BFD06940F00050D06100BFD5
:1015300000BF00BF00BF00BF00BF00BF00BF00BFB3
:1015400000BFD06940F40000D06100BF00BF00BF01
:1015500000BF00BF00BF00BF00BF00BF00BF106AD8
:1015600040F07F701062906B40EA83409063D06BD4
:101570006FEA0301C9B240EA8140D06300BF00BFF7
:1015800000BF00BF00BF00BF00BF00BF00BF00BF63
:10159000D06940F08070D06100BF00BF00BF00BFC5
:1015A00000BF00BF00BF00BF00BF00BF00BD8C4A2E
:1015B00000B50346106840F000501060106840F01D
:1015C000C0701060FFF72EFF00BF00BF00BF00BF5C
:1015D00000BF00BF00BF00BF00BF00BF906940F068
:1015E0000050906100BF00BF00BF00BF00BF00BF40
:1015F00000BF00BF00BF00BFD06940F40000D06151
:1016000000BF00BF00BF00BF00BF00BF00BF00BFE2
:1016100000BF00BF106A40F07F701062906B40EA1C
:1016200083409063D06B6FEA0301C9B240EA814006
:10163000D06300BF00BF00BF00BF00BF00BF00BF3E
:1016400000BF00BF00BFD06940F08070D06100BF14
:1016500000BF00BF00BF00BF00BF00BF00BF00BF92
:1016600000BF00BD10B540F0B8042046FFF7CCFD28
:101670002046BDE810403FE710B50446FFF7C4FD23
:101680002046BDE8104037E710B540F0C0042046C2
:10169000FFF7BAFD2046BDE810402DE750484FF057
:1016A0000051C1614FF4000181614FF080418161BF
:1016B00000BF00BF00BF00BF426B9201F9D4C161FF
:1016C000D8E64FF0000000BF401C00B26428FADBEF
:1016D000D0E630B50346FFF7E1FF41494FF4000083
:1016E00088618201CA61C2018A6144008C618D6B8C
:1016F00045EA83458D63CD6BDB43DBB245EA83432B
:10170000CB63CA61CC61C86130BD3648416821F401
:1017100040114160816821F040618160816821F061
:1017200040518160816821F440318160816821F4F9
:1017300040418160416821F030014160416821F001
:10174000C0014160416821F440714160416821F469
:1017500040614160416821F440514160416821F499
:1017600040414160416821F440314160416821F4C9
:10177000402141601A48016A1B4A11430162016815
:1017800041F0C34101600021C26B42F08062C2633C
:10179000491C0A29F8DB4FF000014FF4FA7200BF30
:1017A000491C9142FBDB00214CF25032836B43F029
:1017B00080638363491C9142F8DBE22089E700B52E
:1017C000AF20FFF721FDAF205DF804EB94E600B5F4
:1017D000AE20FFF719FDAE205DF804EB8CE60000AB
:1017E00000C0092000C002400000FC071E4BDA6068
:1017F0001870597070471C48C16800290DD0491EE7
:10180000C1600AD1194902780A7042784A700A7197
:101810000021C1700171417181717047124A1161DB
:10182000907070471048016900290BD0491E016172
:1018300008D10E4A8178117000215170C170017178
:101840004171817170470849088170470648B0F9B5
:101850000810002907D0491E09B20181002902D1D0
:10186000084601F0EDB87047100000105CC1072079
:101870001D48016A41F0006101621C494A68D307B2
:1018800009D01B4B1B8833B1836B43F00063836328
:101890000620487003E0C36B43F00063C363500845
:1018A00048600878401E10F0FF00087003D1202027
:1018B000087088684860704710B50C4A00232024DF
:1018C0004F2908D0412909D052290BD0532908D1DA
:1018D0005360936004E0C2E9010301E0506090604E
:1018E000147010BD906010BD00C0092024000010CD
:1018F0006CC007200020FB4A20211154401CC0B2BC
:10190000C828FAD370470146F64A0020401CC0B2EE
:10191000135C8B4201D0C828F8D3704710B5002162
:10192000F14C0A22B0FBF2F302FB13006054491C95
:10193000C9B218460529F5D310BDF0B5EB4B01210E
:10194000202719700521E84A002601E01C7844B1DF
:10195000541814F8015C25B9814202D904F8017CBD
:1019600005E0541814F8015D303525701E70491ECD
:1019700011F0FF01EAD1F0BD70B50D461446002804
:1019800002DAC043401C00B2FFF7C8FF601CC0B2BF
:10199000FFF7D3FF2846FFF7B6FFFF2819D0D24A3A
:1019A000D04B0021A14201D2555C13E004D14FF08D
:1019B0002E051D54555C03E0555C202D03D04CB121
:1019C0001E1806F8015C401E491CC9B2C0B20529A8
:1019D000E8D370BD1D54F6E7F0B50D461446002857
:1019E00001DA404200B2FFF799FF601CC0B2FFF776
:1019F000A4FF2846FFF787FFBB4ABA4B002164B912
:101A0000555C202D09D056187678202E03D12D262E
:101A10001F1807F8016C1D540FE0A14201D2555C5C
:101A2000F9E704D14FF02E051D54555C02E0555CDA
:101A3000202D02D01E1806F8015C401E491CC9B2B8
:101A4000C0B20529DBD3F0BDFEB52B23002802DA96
:101A5000404200B22D2300250A266C4690FBF6F783
:101A600006FB170060556D1C6DB238B20A2DF5DB10
:101A7000012600250920202700E046B114F800C007
:101A8000BCF1000F03D1904201DD275405E0265C34
:101A90003036265400266D1CEDB2401E40B20028A0
:101AA000EBDA2D2B02D163556D1CEDB26AB168B231
:101AB00005E0231813F8013C2354401E40B2904225
:101AC000F7DC2E206D1CA054EDB20846FFF71BFF7B
:101AD0000021844A04E0635C461A491C935549B2CC
:101AE000A942F8DBFEBDFEB52B23002801DA4042F7
:101AF0002D2300250A266C46074690FBF6F006FBD0
:101B0000107767556D1C6DB20A2DF5DB0126002597
:101B10000920202700E046B114F800C0BCF1000FF6
:101B200003D1904201DD275405E0265C303626546F
:101B300000266D1CEDB2401E40B20028EBDA2D2BC2
:101B400002D163556D1CEDB26AB168B205E023188D
:101B500013F8013C2354401E40B29042F7DC2E2083
:101B60006D1CA054EDB20846FFF7CDFE00215D4A82
:101B700004E0635C461A491C935549B2A942F8DB5C
:101B8000FEBDFEB52B26002801DA40422D2600249A
:101B90000A276D46844690FBF7F007FB10CC05F84A
:101BA00004C0641C64B20A2CF4DB01270020092461
:101BB0004FF0200C00E04FB115F804E0BEF1000F2B
:101BC00004D19C4202DD05F804C005E02F5D3037EA
:101BD0002F550027401CC0B2641E64B2002CEADA04
:101BE0002D2E02D12E54401CC0B26BB144B205E080
:101BF0002E1916F8016C2E55641E64B29C42F7DC57
:101C00002E24401CEC54C0B201EB810102EB810197
:101C1000CAB20021334B04E06C5C561A491C9C5537
:101C200049B28142F8DBFEBD70B50D4616461C4632
:101C3000FFF774FE601CC0B2FFF77FFE05EB850066
:101C400006EB8000C1B2284A264B0020A04201D2F8
:101C5000155C5D5406D3155C202D03D04CB15E1885
:101C600006F8015C491E401CC0B2C9B20528EDD37C
:101C700070BD5D54F6E770B50446084615461E462D
:101C8000FFF741FE174B0146FF2804D106E01A5426
:101C9000641C401CC0B22278002AF8D11448007895
:101CA000002804D0002E02D029445F20585470BD73
:101CB000F0B5074614460E460846FFF724FE0546D3
:101CC000002231463846FFF70EFF002C08D00848A6
:101CD0000078002804D05F20024A291B1144487074
:101CE000F0BD0000120308204100001036C207209A
:101CF00030C007202DE9FF4F8146DDE90D048A46FB
:101D00009346FFF700FE2022DFF8DC83F7490A2321
:101D10004FF0640C012C09D198F8005035B10D1822
:101D2000A5F10E05AA706A702A7020E099FBF3F6FF
:101D300003FB16970D183037A5F10E05022CAF7076
:101D400096FBF3F703FB176606F130066E7099FBFE
:101D5000FCF606F1300605F80E6B08D198F8006025
:101D60002EB1A5F10A05AA706A702A7021E09AFBCB
:101D7000F3F603FB16A70D183037A5F10A05032C5F
:101D8000AF7096FBF3F703FB176606F130066E7033
:101D90009AFBFCF606F13006674605F80A6B08D197
:101DA00098F800602EB1A5F10605AA706A702A7035
:101DB00022E09BFBF3F603FB16B70D183037A5F1B5
:101DC0000605042CAF7096FBF3F703FB176606F1CC
:101DD00030066E709BFBFCF606F13006674605F890
:101DE000066B09D198F8004034B1A5F102050A54F8
:101DF0006A702A70BDE8FF8F039C94FBF3F203FB2B
:101E0000124430340C5492FBF3F403FB14220844C4
:101E1000A0F1020030324270039991FBF7F101F119
:101E200030010170E6E770B50D461446FFF776FD08
:101E3000601CC0B2FFF781FD2846FFF764FDAC4B84
:101E4000AA4A002124B95D5C202D01D015540FE071
:101E5000A14201D25D5CF9E704D14FF02E05155483
:101E60005D5C02E05D5C202D02D0161806F8015C76
:101E7000401E491CC9B2C0B20529E3D370BD17B5D5
:101E800001EB810002EB8000C2B29DF8003099485E
:101E900003F00F0100EB1313445C94498C54521E61
:101EA000D2B21B788B549DF80130521E03F00F0400
:101EB000D2B2045D8C54521E00EB1313D2B21B78C5
:101EC0008B549DF80230521E03F00F04D2B2045D11
:101ED0008C54521E00EB1313D2B21B788B549DF816
:101EE0000330521E03F00F04D2B2045D8C54521E14
:101EF00000EB1310D2B2007888541EBD10B5044612
:101F00000846FFF700FD7B4904F00F028B5C774A1F
:101F100001EB14111354401EC0B20978115410BDC6
:101F200001EB810102EB8101724A10B500F00F0351
:101F3000C9B2D45C6D4B02EB10105C54491EC9B29F
:101F40000078585410BD01EB810130B502EB8101DE
:101F5000CBB2C11700EB117424F00F01401A654990
:101F6000624A405CD0542011C41700EB147424F072
:101F70000F055B1E401BDBB2405CD0542011C41720
:101F800000EB147424F00F055B1E401BDBB2405CB9
:101F9000D0545B1ED8B22311C95C115430BD01EB83
:101FA000810102EB8101CBB2524910B500F0010270
:101FB0008C5C4E4AD45444085B1E04F00100DBB232
:101FC000085CD0545B1ED8B2630803F001045B08C0
:101FD0000C5D1454401E03F00104C0B20C5D145497
:101FE0005B08401E03F00104C0B20C5D14545B0892
:101FF000401E03F00104C0B20C5D14545B08401E87
:1020000003F00104C0B20C5D1454401EC4B2580861
:10201000085C105510BD104400B2002801DA0844D5
:1020200002E0884201DB401A00B2704732490020CA
:10203000087048708870314948707047F0B505469F
:102040000E461746FFF756FC284C0020401C15F89A
:10205000011BC0B204F8011B1428F7D35FF0000085
:10206000401C16F8011BC0B204F8011B1428F7D35A
:102070005FF00000401C17F8011BC0B204F8011B00
:102080001428F7D35FF00000401C13F8011BC0B206
:1020900004F8011B1428F7D322E630B5044608469D
:1020A0001546FFF730FCFF2809D0104A2178002997
:1020B00005D04319641C401CD154C0B2F6E730BDB2
:1020C000F0B50F4D0F4F95F9004004EB8406641CEA
:1020D0002C700A4C3E442568356025793571207096
:1020E00061702271A370FBE530C007201203082045
:1020F00041000010ABC3010018C107205CC10720DC
:102100001CC00720E002082010B5029CFFF796FFD4
:10211000FF48C378827841784920FFF7D1FF6420D7
:1021200094FBF0F0BDE81040C0B2FFF78CBB00EBB1
:10213000800001EB8000F7490870F7480270704793
:102140002DE9FE4340010D4600F58060044602A9DA
:10215000FEF717FE694604F10800FEF712FE01A91A
:1021600004F10C00FEF70DFE2846FFF7CCFBEB4C0C
:10217000202630252654401CC0B24FF0210825549B
:10218000401CC0B22F2104F80080401CC0B24FF0A8
:1021900040092154401CC0B24FF0230C04F80090B9
:1021A000401CC0B200222654401CC0B22654401C21
:1021B000C0B22154401CC0B221212554401CC0B2E1
:1021C00004F800C0401CC7B29DF80200FFF72BFEC8
:1021D0009DF8000000222321FFF725FE9DF8010055
:1021E000401E0C2802D301208DF801009DF801004B
:1021F000CB49002201EB80004021FFF74EFFE6555E
:102200007F1CF8B23A212554401CC0B2002204F8C9
:102210000080401CC0B22154401CC0B22554401C58
:10222000C0B204F80090401CC0B22154401CC0B29F
:1022300021212554401CC0B204F800C09DF80400C0
:10224000FFF7F1FD9DF8050000224021FFF7EBFDAF
:102250009DF8060000222321FFF7E5FDBDE8FE837F
:102260002DE9FE4F04460D464FF46060FEF700FD79
:102270006242402100B2FFF7CEFE400100F58060CF
:10228000044602A9FEF77DFD694604F10800FEF749
:1022900078FD01A904F10C00FEF773FD2846FFF755
:1022A00032FB06469DF8080040273025DFF874B25F
:1022B000DFF868A220244FF0210C4FF023095528A5
:1022C00020D0CF22D123502873D0422872D0532857
:1022D00071D049286BD1C8210AF80610761CF1B2DA
:1022E000ED220AF80120491CC9B2E2220AF80120B5
:1022F000491C9DF809205046C9B2092A7ED23132C4
:10230000425495E39DF80A0052280ED1C2210AF8E2
:102310000610761CF1B2EA220AF80120491CC9B263
:10232000EB220AF80120491CCEB250460AF80640BA
:10233000761CF1B20AF80140491CC9B226E300BF7D
:102340009DF8012096F838309A4267D19DF8022016
:1023500096F82C309A42F8D14554491CC9B23A2219
:1023600000F801C0491CC9B24254491CC9B24554C5
:10237000491CC9B24754491CC9B24254491CC9B28C
:1023800000224554491CC9B20AF801909DF8040086
:102390002121FFF748FD9DF8050000224021FFF7AD
:1023A00042FD9DF8060000222321FFF73CFDBDE819
:1023B000FE8F0BE033E0B6E29DF801105848002292
:1023C00000EB81004021FFF768FEF0E70AF80620E5
:1023D000761CF1B250460AF80130491CC9B20AF81D
:1023E0000140491CC9B20AF80140491CC9B20AF8A7
:1023F0000140491CC9B20AF8014000E005E3491C4C
:10240000C9B284E29DF8013092F83860B3429CD1A1
:102410009DF8023092F82C2093429DD0C4E29DF8A2
:102420000A00432873D1C1210AF80610761CF1B2C4
:10243000E0220AF80120491CC9B2F2220AF8012060
:10244000491C9DF80900C9B24FF0C00E09280BD2F3
:1024500031300AF80100491CC8B20AF800E0401CFB
:10246000C0B20AF8004016E0A0F109025A2A15D2BB
:10247000401C0A23B0FBF3F2904630320AF80120E8
:10248000491C03FB1800C9B230300AF80100491C8E
:10249000C8B20AF800E0401CC1B20BE00AF80140E3
:1024A000491CC9B20AF80140491CC9B20AF80140E6
:1024B000491CC9B250460AF80140491C9DF8002049
:1024C000BBF83C30C9B25E469A4247D19DF8012024
:1024D00096F838309A4241D19DF8022096F82C3077
:1024E0009A423BD14554491CC9B23A2200F801C076
:1024F000491CC9B24254491CC9B24554491CC9B20D
:102500004754491CC9B24254491CC9B20CE05CE0B2
:102510005CC1072031C0072032C007201203082009
:10252000F0C30100004002404554491CC9B20022DA
:102530000AF80190491CCEB29DF804002121FFF752
:1025400072FC9DF8050000224021FFF76CFC9DF80D
:10255000060000222321FFF766FC36E04454491CA4
:10256000C9B200224554491CC9B200F801C0491C37
:10257000C9B24754491CC9B24454491CC9B2445455
:10258000491CC9B24554491CC9B20AF80190491CFA
:10259000CEB29DF802002121FFF745FC9DF8000016
:1025A00000222321FFF73FFC9DF80100401E0C286C
:1025B00002D301208DF801009DF80110FF48002290
:1025C00000EB81004021FFF768FD9DF80A005A28C2
:1025D0005CD1C2210AF80610761CF1B2C7220AF8B3
:1025E0000120491CC9B250460AF80140491CC9B231
:1025F0005E460AF80140491CC9B20AF80140491C6C
:10260000C9B24454491CC9B24454491C9DF8002025
:10261000BBF83C30C9B29A4239D19DF8012096F8F6
:1026200038309A4233D19DF8022096F82C309A42E5
:102630002DD14554491CC9B23A2200F801C0491CA9
:10264000C9B24254491CC9B24554491CC9B2475485
:10265000491CC9B24254491CC9B200224554491C04
:10266000C9B20AF80190491CCEB29DF8040021219C
:10267000FFF7D9FB9DF8050000224021FFF7D3FBAF
:102680009DF8060000222321FFF7CDFB36E04454DD
:10269000491CC9B200224554491CC9B200F801C006
:1026A000491CC9B24754491CC9B24454491CC9B257
:1026B0004454491CC9B24554491CC9B20AF8019096
:1026C000491CCEB29DF802002121FFF7ACFB9DF81A
:1026D000000000222321FFF7A6FB9DF80100401E09
:1026E0000C2802D301208DF801009DF80110B34899
:1026F000002200EB81004021FFF7CFFC9DF80A008B
:1027000057287DD1C1210AF80610761CF1B2E022CB
:102710000AF80120491CC9B2F2220AF80120491C1A
:10272000CEB29DF8091050464FF0F00E092906D29E
:1027300031318155761CF1B200F801E019E0A1F1C8
:1027400009025A2A11D2491C0A23B1FBF3F290461E
:1027500030328255761C03FB1811F6B230318155A8
:10276000761CF1B200F801E006E08455761CF1B267
:102770004454491CC9B24454491CC9B25E4644542D
:10278000491C9DF80020BBF83C30C9B29A423BD1AD
:102790009DF8012096F838309A4235D19DF80220F4
:1027A00096F82C309A422FD14554491CC9B23A228E
:1027B00000F801C0491CC9B24254491CC9B2455471
:1027C000491CC9B24754491CC9B24254491CC9B238
:1027D00000224554491CC9B20AF80190491CCEB2E6
:1027E0009DF804002121FFF71EFB9DF80500002243
:1027F0004021FFF718FB00229DF80600232100E08E
:1028000039E0FFF710FB36E04454491CC9B20022FE
:102810004554491CC9B200F801C0491CC9B247540B
:10282000491CC9B24454491CC9B24454491CC9B2D8
:102830004554491CC9B20AF80190491CCEB29DF812
:1028400002002121FFF7EFFA9DF80000002223216A
:10285000FFF7E9FA9DF80100401E0C2802D3012081
:102860008DF801009DF801105448002200EB810012
:102870004021FFF712FC9DF80A004B287FF4A5AD1C
:10288000C1210AF80610761CF1B2E0220AF80120F4
:10289000491CC9B2F2220AF80120491C9DF809001E
:1028A000C9B209280BD231300AF80100491CC8B25C
:1028B000EA210AF80010401CC0B2E52115E0A0F1A1
:1028C00009025A2A16D2401C0A23B0FBF3F29046A2
:1028D00030320AF80120491C03FB1800C9B230301D
:1028E0000AF80100491CC8B2EA210AF80010401C8D
:1028F000C1B20BE00AF80140491CC9B20AF8014014
:10290000491CC9B20AF80140491CC9B250465A468E
:102910004454491C9DF80030BBF83C60C9B2B34236
:102920003FF470AD40E0C1210AF80610761CF1B208
:102930000AF80120491CC9B20AF80130491CC8B282
:102940009DF80910092903D231310AF8001016E068
:10295000A1F109025A2A10D2491C4FF00A08B1FB12
:10296000F8F606F130020AF80020401C08FB1611A8
:10297000C0B230310AF8001005E00AF80040401CEF
:10298000C0B20AF80040401CC1B250465E464454F2
:10299000491CC9B24454491C9DF80020BBF83C3086
:1029A000C9B29A423FF4CCAC4454491CC9B2455414
:1029B000491CC9B200F801C0491C01E0F0C3010084
:1029C000C9B200224754491CC9B24454491CC9B277
:1029D0004454491CC9B24554491CC9B20AF8019073
:1029E0009DF802002121FFF71EFA9DF80000002249
:1029F0002321FFF718FA9DF80100401E0C28FFF470
:102A0000DBAC01208DF80100D6E4A2F109035A2BBA
:102A10000DD2521C0A25B2FBF5F303F130064654E1
:102A2000491C05FB1322C9B23032425403E044541E
:102A3000491CC9B24454491CC9B20AF80140B6E461
:102A40002A4B1A78521E104440B21870002801DA3E
:102A50000020187093F90000254A00EB8000024422
:102A6000244813680360127902714278114441705E
:102A7000704730B51F4901231F4D91F9012091F98D
:102A8000041000EB80048A4202D105F8243030BDE6
:102A9000194D4C1C00EB800005EB8000A24201D1D7
:102AA000037530BD8C1CA24202D180F8283030BDA5
:102AB000CC1CA24202D180F83C3030BD0C1DA24299
:102AC00002D180F8503030BD4C1DA24202D180F8B6
:102AD000643030BD8C1DA24202D180F8783030BD08
:102AE000C91D8A42FBD180F88C3030BD1CC0072044
:102AF000E00208205CC107201203082090F9003092
:102B00008B4200DA027090F90030934200DD0170D0
:102B1000704790F900308B4200DA017090F9001094
:102B2000914200DD02707047B0F900308B4200DA4C
:102B30000180B0F90010914200DD02807047B0F9C9
:102B400000308B4200DA0280B0F90030934200DDA1
:102B50000180704703688B4201DB194600E0016089
:102B6000914200DD0260704703688B4200DA026028
:102B70000368934200DD0160704700002DE9F84FC3
:102B80009E460A9B202931D2CC1701EB5475EC10DC
:102B900026466FF03C077C4325F0070500EB440414
:102BA0004D1BDFF84CA704F5B774002A34D0A0B24F
:102BB000C5F10701C9B24FF0010404FA01F402445F
:102BC000514611DC25E023B1012B05D0022B06D0A4
:102BD00008E00D5C254304E00D5C654001E00D5C00
:102BE00025400D54401C80B28242ECDCBDE8F88FD9
:102BF00023B1012B05D0022B06D008E00D5C254344
:102C000004E00D5C654001E00D5C25400D54401E64
:102C100080B28242ECDBE9E7BEF1000FE6D0B2B24F
:102C200001EB0E064FEAE67406EB5477ADB2A94607
:102C300027F00705C7F3CF04A6EB0505AFB277DD94
:102C4000A24244D1C8463FE023B1012B13D0022B4E
:102C500024D035E0C2F1030101EB4105C5EB811140
:102C600000EB4106C8F1070C1AF80610012505FA19
:102C70000CF529430FE0C2F1030101EB4105C5EB5F
:102C8000811100EB4106C8F1070C1AF80610012566
:102C900005FA0CF569400AF8061011E0C2F10301CB
:102CA00001EB4105C5EB811100EB4105C8F1070CB3
:102CB0001AF80560012101FA0CF18E430AF805604B
:102CC00008F101081FFA88F8B845BDD38CE0CD178C
:102CD00001EB557CCCF3CF05C5F1030505EB4506AB
:102CE000C6EB851500EB45082CF007054E1BFF25AC
:102CF000F5407144CE1701EB56760096C6F3CF0629
:102D0000C6F1030606EB460CCCEB861600EB460636
:102D1000B346009E26F00706891B89B2C1F108065A
:102D2000FF21B1402BB1012B0ED0022B19D023E093
:102D30005EE01AF808C04CEA050C0AF808C01AF858
:102D40000BC04CEA010C09E01AF808C08CEA050C2B
:102D50000AF808C01AF80BC08CEA010C0AF80BC07C
:102D60000AE01AF808C02CEA050C0AF808C01AF89C
:102D70000B608E430AF80B60A11A01297FF74BAF55
:102D8000511C1FFA81FC2DE023B1012B0DD0022B29
:102D900019D023E0CCF1030101EB4105C5EB811112
:102DA00000EB41054FF0FF360AE0CCF1030101EBE7
:102DB0004105C5EB811100EB41051AF80560F643AA
:102DC0000AF805600AE0CCF1030505EB4506C6EB01
:102DD000851500EB450600210AF806100CF1010CE0
:102DE0001FFA8CFCA445CFD3BEF1000FBFF613AF82
:102DF000A24240D1A9F1010139E023B1012B12D047
:102E0000022B22D032E0C2F1030404EB4405C5EBEF
:102E1000841400EB440CC1F107061AF80C4001259C
:102E2000B5402C430EE0C2F1030404EB4405C5EBAE
:102E3000841400EB440CC1F107061AF80C4001257C
:102E4000B5406C400AF80C4010E0C2F1030404EBFA
:102E50004405C5EB841400EB440CC1F107061AF8D5
:102E60000C500124B440A5430AF80C50491E89B205
:102E7000B942C2D2BAE623B1012B26D0022B43D0ED
:102E800062E0C2F1030101EB4105C5EB811100EBEA
:102E9000410CC9F108061AF80C504FF0FF0909FA65
:102EA00006F10D430AF80C50C4F1030101EB410592
:102EB000C5EB811100EB410129FA07F91AF801501D
:102EC00045EA09050AF801503EE0C2F1030101EBB1
:102ED0004105C5EB811100EB410CC9F108061AF858
:102EE0000C50FF2101FA06F675400AF80C50C4F1A7
:102EF000030505EB4506C6EB851500EB4505F940D6
:102F00001AF805604E401DE0C2F1030101EB4105D6
:102F1000C5EB811100EB410CC9F108061AF80C5001
:102F2000FF2101FA06F6B5430AF80C50C4F1030577
:102F300005EB4506C6EB851500EB4505F9401AF88B
:102F400005608E430AF80560111B012992DD521EAF
:102F500091B22BE023B1012B0DD0022B19D023E02D
:102F6000C1F1030202EB4205C5EB821200EB420500
:102F70004FF0FF360AE0C1F1030202EB4205C5EB58
:102F8000821200EB42051AF80560F6430AF8056064
:102F90000AE0C1F1030505EB4506C6EB851500EB1C
:102FA000450600220AF80620491E89B2A142D1D85E
:102FB0001CE62DE9F8470446DDE9090517468A466F
:102FC0009946E61948B90CE04B4600225146204686
:102FD0000095FFF7D3FD641C24B2A642F4DABDE8E5
:102FE000F887002220460095FFF7C8FD0AEB09008C
:102FF0008046401E01B200233A4620460095FFF766
:10300000BDFD761EC9F1000034B203B20FFA88F19B
:10301000002220460095FFF7B1FD784202B200235E
:10302000514620460095FFF7A9FDD8E72DE9F84362
:1030300081460E461D46002022B1022A1AD10024E4
:1030400080462CE00024804612E03719621B0023E2
:1030500039464846CDF80080FFF790FD2A1B002333
:1030600039464846CDF80080FFF788FD641CE4B27D
:10307000AC42EAD3BDE8F883371B621B0023394614
:103080004846CDF80080FFF779FD2A1B002339461A
:103090004846CDF80080FFF771FD641CE4B2AC42F5
:1030A000EAD3E7E72DE9F8474FF0FF35C3F12003F6
:1030B0009D4005EA020323FA01F200929DF80210F6
:1030C000DFF82C8289469DF80310099C8A4608EB9C
:1030D00000019DF800709DF801C018F8002091F8DB
:1030E0007A3091F8F45091F86E6184B17A4008F822
:1030F000002083EA0C0381F87A3085EA090581F81B
:10310000F45086EA0A0600BF81F86E6167E73A4329
:1031100008F8002043EA0C0381F87A3045EA0905F3
:1031200081F8F45046EA0A06EEE72DE9FC4F07461F
:103130000CA88A46B0E8100316469B4600251CE002
:1031400005FB0480611E5B46415C8DF80710A11EE3
:10315000415C8DF80610E11E415C8DF80510211FC1
:10316000405C8DF80400781900B2CDF8009051460B
:10317000019AFFF797FF6D1C2DB2B542E0DBBDE869
:10318000FC8F2DE9FF4F9AB08346DDE928592B24A7
:103190000020DDF89CC0202614A90E54401C00B26B
:1031A0000A28FADB00208A4604E0175C0AF800705F
:1031B000401C00B29842F8DBBCF1000F04DACCF1FD
:1031C00000000FFA80FC2D2400204FF00A0811AFF8
:1031D0009CFBF8F108FB11C23A54401C40B20FFAB4
:1031E00081FC0A28F4DB01220020092100E042B121
:1031F00017F801C0BCF1000F03D1A94201DD7E54D4
:1032000005E07A5C30327A540022401CC0B2491E7C
:1032100049B20029EBDA2D2C02D13C54401CC0B23B
:103220006DB141B205E07A1812F8012C7A54491EAA
:1032300049B2A942F7DC2E21401C7955C0B20021C9
:10324000D44607E0A9EB01057A5C6544491C05F802
:10325000012C49B28142F5DB2D2C06D1A9EB0100EE
:1032600060445B1C00F8014C1BB2002002AD1AE068
:103270001CF800101F4F01EB410600EB400217F84D
:10328000161005F8121007EB460105EB42024E78C6
:1032900056708E789670CE78D6700E791671497900
:1032A000401C517100B29842E2DB2D2C06D1A9EBF3
:1032B000000050445B1C00F8014C1BB2002403EBDF
:1032C00043060EE0285D8DF863002A9800900BEB12
:1032D000040000B20823189A1B99FFF7E3FE641C50
:1032E00024B2B4EB460FEDDB1EB0BDE8F08F00005A
:1032F000DA030820ABBD0100002801DA404200B229
:10330000704710B5FF48016821F0E0610160416835
:10331000C1F30B12FC4901F17E044A800B885B1C4F
:103320000B80A1F1F803D97F24F81120491CC9B200
:10333000D977032903D2016841F08071016010BD83
:1033400010B54FF40270FDF793FCF04C207040F282
:103350000A20FDF78DFC60704FF40370FDF788FCC8
:10336000A07040F20E20FDF783FCE0704FF4047073
:10337000FDF77EFC207240F21220FDF779FC6072AE
:103380004FF40570FDF774FCA07240F21620FDF7B3
:103390006FFCE0724FF41170FDF76AFC207140F28F
:1033A0004620FDF765FC60714FF41270FDF760FC7C
:1033B000A07140F24A20FDF75BFCE07110BDD24ADB
:1033C0000832D16BD36B5B1A8342FBD37047D04971
:1033D000112008727047CF48C16941F44021C16192
:1033E000C16941F44011C161CB480021C1604FF473
:1033F0004061C164022141614FF47A7282614FF4ED
:10340000487202624FF49672426201220265416084
:10341000092141607047BC490120F83981F8320028
:1034200070472DE9F04F0020BC4A85B04FF4F4718D
:1034300004461454401C00B28842FADBB248F83803
:10344000417871B100214FF0140C7A2301FB03F095
:1034500001EB81039B0001EB81041BB20CEB8404A4
:103460006AE2804690F820004FF00205C0074FF056
:1034700003061BD098F81400002816D0A84832275D
:10348000CDE90204CDE90076032118233A46084627
:10349000FFF74BFEA348CDE90204CDE900760321F6
:1034A000182332220846FFF740FEB8E0B8F966005C
:1034B000DFF85492DFF870A20F27DFF870B2A9F19D
:1034C0000E09012853DB1423002100941A460846F4
:1034D0000194FFF76EFD1223012100941A4608465D
:1034E0000194FFF766FD99F8000010F03C0F0BD037
:1034F000C10611D598F81400F0B10F23CDE902A44C
:1035000002211A46032013E08948CDE902040F2363
:1035100002211A4603200BE010F00C0F0CD098F893
:10352000140048B10F23CDE902B402211A4608461F
:10353000CDE90075FFF7F9FD7E484069C00516D456
:103540000B230022142109200094FFF717FB00230E
:103550005B221F2109200094FFF710FB98F805005B
:1035600004231330C1B200220920FFF75FFDB8F930
:103570006600022853DB142300941A46002117200A
:103580000194FFF716FD122300941A46012118201A
:103590000194FFF70EFD99F8010010F03C0F0BD0DD
:1035A000C10611D598F81400F0B10F23CDE902A49B
:1035B00002211A46192013E05F48CDE902040F23C7
:1035C00002211A4619200BE010F00C0F0CD098F8CD
:1035D000140048B10F23CDE902B402211A46192084
:1035E000CDE90075FFF7A1FD52484069800516D46A
:1035F0000B230022142120200094FFF7BFFA0023A0
:1036000044221F2120200094FFF7B8FA98F8050003
:1036100004231330C1B200222020FFF707FDB8F8C1
:103620006400DFF8E4A0C1464FF00A0B4FF0010838
:10363000AAF1780A00282CD0009414232322002118
:1036400032200194FFF7B5FC0094022303221421D9
:1036500035200194FFF7ADFC0094022303221421CE
:103660004F200194FFF7A5FC99F820004F468007F2
:1036700010D599F8140000280BD032212948CDE943
:103680000016CDE902040A46182300212B20FFF77B
:103690004CFD88E00B230022142142200094FFF708
:1036A0006DFA002322221F2142200094FFF766FAC0
:1036B000BAF96600002805DA78790423002213306D
:1036C000C1B205E078790423C0F12200C1B2022220
:1036D0004220FFF7ABFC387A0A287ED2B7F96C009B
:1036E000A0F5AA4155395ED097F92100052190FB3C
:1036F000F1F0ADF81000B9461422002104A8FFF73C
:1037000013FA1BE00040034014C107203C140820BA
:103710000040024000C0024000800140DA0308205F
:1037200007BC01009DBC01006FBD01008DBD010003
:1037300033BD010000C0092051BD0100CDE9008466
:103740004746BDF91030202200213320FFF731FC1D
:1037500099F921000A2811DACDE9007509230C2214
:1037600005213D20FFF725FC99F9210002238DE872
:1037700091000521FEA23D20039712E064284FF03E
:1037800009035EDACDE90075122205213A20FFF720
:1037900010FC99F9210003238DE8B100F5A2052161
:1037A0007BE0FFF7EEFC00940E231B2202215C203D
:1037B0000194FFF7FEFB00231A1F08215C200094F0
:1037C000FFF7DCF900230422082176200094FFF79C
:1037D000D5F9002327221F2100E042E04320009476
:1037E000FFF7CCF96FF00F0300221F21692000942E
:1037F000FFF7C4F999F807004D46C0F12200C1B2A5
:10380000042302226920FFF711FC4746BAF9700031
:103810000421CDE90007CDE90217D0460523D6A241
:1038200016214620FFF7ADFCB8F96E00642836DAA1
:10383000CDE9000704230521D1A25D20CDE902676F
:1038400036E0CDE90075182205213720FFF7B1FBDE
:1038500099F9210004238DE8D1000521CAA237205F
:103860009FE7BAF96600B0F57A7F02DA10F57A7F41
:1038700009DC642190FBF1F000B28DE851010423D2
:10388000BFA2052109E090FBFBF001B2CDE90018D1
:10389000CDE902680423BAA205213A2081E790FB12
:1038A000FBF000B28DE8D1000423B5A205215A2017
:1038B000FFF767FC2879401CC0B2287103281CD38D
:1038C0002C716879401CC0B268710D2800D36C71EE
:1038D000A879401CC0B2A871202800D3AC71E87947
:1038E000401CC0B2E871112800D3EC71287A401C4A
:1038F000C0B22872142800D32C7205B0BDE8F08F36
:10390000A34DA44FED5C05EB450517F81560165463
:1039100007EB4505401C6E781654401CAE781654D3
:10392000401CEE781654401C2E791654401C6D79BC
:103930001554401C5B1C1BB29C42E1DC491C09B2C3
:103940000429FFF682ADD8E72DE9F04F924ACDB0B9
:103950000521127800200124914625AE052A03D0C6
:10396000B9F1210F02D005E08CA000E091A02590D4
:1039700001200621954F97F82020D30708D094A363
:1039800046F8203000F1010001F10101C0B2C9B2D6
:10399000930706D594A346F82030401C491CC0B2BA
:1039A000C9B28A4BEA331D7815F01C0F06D094A5D6
:1039B00046F82050401C491CC0B2C9B2834BEA33C0
:1039C0005B7813F01C0F06D093A346F82030401C00
:1039D000491CC0B2C9B2964B1D786533012DB3F9AD
:1039E000003002D0022D03D00AE04BB991A301E0D0
:1039F00033B996A346F82030401C491CC0B2C9B266
:103A00008B4B9B1D1D78552D0AD103F18F052D88F9
:103A100035B994A546F82050401C491CC0B2C9B223
:103A20005B78552B08D1824B95335B8823B993A3E0
:103A3000491C46F82030C9B2BB7ABA465B1CDBB2DF
:103A40003846BB72142B09D300258572437A5B1C60
:103A5000DBB243728B4201D38AF80950DFF8D08180
:103A60000DF1080B08F13B08414698F8000091F968
:103A700001102A2877D04346002893F9045073D0C8
:103A8000524B042893F814C06FD0464696F9043080
:103A900096F9017096F90260FB1AB646052865D0C2
:103AA000112801F03E804646022801F04F80424630
:103AB0005278921E4FFA82FC0C2801F06280142882
:103AC00001F06A82102801F07882152801F09682B0
:103AD000422801F0A982452801F01E83462801F002
:103AE00087836C4A96F90460352812880BEB8606AA
:103AF00092B29146354AB2F9722002F035814746BA
:103B0000372802F0EA83032802F04C852F4A252843
:103B100092F8139002F0F787567E4FF05E0828283F
:103B200003F0188002F5A0725278521E57B229286D
:103B300003F090803E4A3B321A2803F02D811F2863
:103B400003F0E082202803F01383212803F0398357
:103B5000222803F08383232803F0CC83172803F063
:103B60003E843F2898E0F8E0FEE3FEE3FEE3000039
:103B700020250000202025002020202042000000D9
:103B8000202020410000000020202025000000000F
:103B900012030820ABBD01008700001020C2FBF01B
:103BA000E0E2ED2EE7E0F0FFE420207A3A305A2000
:103BB000000000002020CAEEEDF2F0EEEBFC20E564
:103BC000ECEAEEF1F2E82020000000001CC0072023
:103BD000202020C0E2E0F0E8FF20F1E5F2E821211A
:103BE000212020200000000020C0E2E0F0E8FF20BB
:103BF000E1E0F2E0F0E5E8212121202000000000D2
:103C000020C0E2E0F0E8FF20E8F1F2EEF7EDE8EAAC
:103C1000E0204E310000000020C0E2E0F0E8FF208C
:103C2000E8F1F2EEF7EDE8EAE0204E3200000000A5
:103C300021C10720C2EDE5F82EF2E5ECEF2E4E3162
:103C4000E7E0E2FBF8E5EDE000000000C2EDE5F89A
:103C50002EF2E5ECEF2E4E31E7E0EDE8E6E5EDE0A3
:103C60000000000020D1F0E0E1EEF2E0EB20F8EB04
:103C7000E5E9F4204E3120200000000020D1F0E0E2
:103C8000E1EEF2E0EB20F8EBE5E9F4204E32202003
:103C9000000000007024040003F0DB83472803F0D9
:103CA000778502F13C08402804F07180412804F037
:103CB0000E81272804F0B4810A2804F0B6811C285C
:103CC00004F0D3811B2804F0938316461E2804F0C9
:103CD0004F841D2804F06F84382804F0A184A2F5D5
:103CE000A0722B28D27E04F0F0842C2804F03A85B0
:103CF000FF4AB046DFF8FC93B2F93820561EB446AE
:103D000009F10106392804F095863A2804F0BA86AC
:103D10003B2804F06E873C2804F08F873D2805F08F
:103D2000408046463E2805F0EA80072805F0A58138
:103D30000828FBD01228F9D01328F7D03628F5D060
:103D40001928F3D0092805F0BD812D2805F0BF8181
:103D50004A2805F0C38105F0EEB9E74CA9B9E7A000
:103D60000290ECA00390EBA00490EAA002AD034601
:103D7000059007CDFEF762F9002221214FF47D70F6
:103D8000FEF751F898F8010090B198F90100012868
:103D900061D002287ED003287DD04FF480640428AF
:103DA0007AD0052879D0062878D0072877D0D2E7AE
:103DB000D8A3D8A2D7A1D7A0FEF740F90023208826
:103DC00003221946FDF730FF6088002303220121FA
:103DD000FDF72AFFA088002303220221FDF724FF1C
:103DE0000322E08800231146FDF71EFF00232089EF
:103DF00009221946FDF718FF6089002309220121D5
:103E0000FDF712FFA089002309220221FDF70CFF14
:103E1000E089002309220321FDF706FF208A002301
:103E200013220121FDF700FF608A002313220321E2
:103E3000FDF7FAFEBD4C00230F2220881946FDF73E
:103E4000F3FE208800230F220121FDF7EDFE002361
:103E500020880F22CFE0AFA3AEA2AEA1ADA0FEF7A7
:103E6000EDF898F90200002380B21A461946FDF7D2
:103E7000DBFEA04C98F90200403404EB4010002314
:103E8000008804221946FDF7CFFE98F9020004EBE2
:103E9000401005E095E0B0E0BAE06EE11FE2C4E258
:103EA0004088002304220121FDF7BEFE98F902009C
:103EB000002304EB4010042280880221FDF7B4FEA9
:103EC00098F90200002304EB40100422C08803216B
:103ED000FDF7AAFE98F90200002304EB4010092226
:103EE00000891946FDF7A0FE98F90200002304EBB3
:103EF0004010092240890121FDF796FE98F9020041
:103F0000002304EB4010092280890221FDF78CFE7A
:103F100098F90200002304EB40100922C089032114
:103F2000FDF782FE98F90200002304EB40100E22F8
:103F3000008A1946FDF778FE98F90200002304EB89
:103F400040100E22408A0121FDF76EFE98F9020012
:103F5000002304EB40100E22808A0221FDF764FE4C
:103F600098F90200002304EB40100E22C08A0321BE
:103F7000FDF75AFE98F90200002304EB40101322CB
:103F8000008B1946FDF750FE98F90200002304EB60
:103F900040101322408B0121FDF746FE98F90200E4
:103FA000002304EB40101322808B0221FDF73CFE1E
:103FB00098F90200002304EB40101322C08B032168
:103FC0008AE154A353A253A152A0FEF737F8484800
:103FD0000023803004221946B0F87600FDF724FE55
:103FE000BAF83C0000230422012180B2FDF71CFE38
:103FF00020890023042202216EE146A345A245A1A7
:1040000044A0FEF71BF800231A461946092063E175
:1040100040A340A23FA13FA0FEF710F84FF4606616
:104020003046FCF725FE05463046FCF721FE04EB42
:1040300040142046FCF7E1FDC0B203220021FDF749
:104040006FFF601CFCF7D9FDC0B206220021FDF70E
:1040500067FFA01CFCF7D1FDC0B209220021FDF7CB
:104060005FFFE01CFCF7C9FDC0B20C220021FDF788
:1040700057FF201DFCF7C1FDC0B20F220021FDF744
:104080004FFF601DFCF7B9FDC0B212220021FDF701
:1040900047FFA01DFCF7B1FDC0B203220121FDF7CF
:1040A0003FFFE01DFCF7A9FDC0B206220121FDF78C
:1040B00037FF04F10800FCF7A0FDC0B2092201217E
:1040C000FDF72EFF04F10900FCF797FDC0B20C22AA
:1040D0000121FDF725FF04F10A00FCF78EFDC0B2B7
:1040E0000F220121FDF71CFF04F10B0020E000006E
:1040F0001CC00720DA0708209A09082020202D2D4F
:104100002D2D2D2D2D2D2020202120202020202060
:10411000000000002020202020202020202020201F
:1041200020202020202020200000000092C1072015
:10413000FCF763FDC0B212220121FDF7F1FE04F18C
:104140000C00FCF75AFDC0B203220221FDF7E8FE85
:1041500004F10D00FCF751FDC0B206220221FDF76B
:10416000DFFE04F10E00FCF748FDC0B20922022177
:10417000FDF7D6FE04F10F009DE0AFF26803AFF249
:104180006C02AFF27001AFF27400FDF757FF4FF40D
:1041900060663046FCF76CFD05463046FCF768FD6E
:1041A00004EB401404F11000FCF727FDC0B2032219
:1041B0000021FDF7B5FE04F11100FCF71EFDC0B2B1
:1041C00006220021FDF7ACFE04F11200FCF715FDFC
:1041D000C0B209220021FDF7A3FE04F11300FCF791
:1041E0000CFDC0B20C220021FDF79AFE04F1140070
:1041F000FCF703FDC0B20F220021FDF791FE04F190
:104200001500FCF7FAFCC0B212220021FDF788FE6F
:1042100004F11600FCF7F1FCC0B203220121FDF706
:104220007FFE04F11700FCF7E8FCC0B20622012172
:10423000FDF776FE04F11800FCF7DFFCC0B209229E
:104240000121FDF76DFE04F11900FCF7D6FCC0B2A8
:104250000C220121FDF764FE04F11A00FCF7CDFCED
:10426000C0B20F220121FDF75BFE04F11B00FCF739
:10427000C4FCC0B212220121FDF752FE04F11C0061
:10428000FCF7BBFCC0B203220221FDF749FE04F19A
:104290001D00FCF7B2FCC0B206220221FDF740FE71
:1042A00004F11E00FCF7A9FCC0B209220221FDF7AF
:1042B00037FE04F11F00FCF7A0FCC0B20C22022163
:1042C000FDF72EFE00230A220321A8B2FDF7ACFC65
:1042D000002312220321A0B2FDF7A6FC3BE5E1A0DA
:1042E0000290E6A00390EBA00490F0A00590F5A04A
:1042F0000690FAA00790FFA0089098F904500BEBE5
:104300008500001D0EC85BF82500FDF797FEFF48ED
:1043100002223F21B0F96600FDF796FBFC4C606974
:104320000022C0F300202421FDF77DFDF74D23215D
:104330006A352878FDF7E2FD60690022C0F340206D
:104340004021FDF770FD68782121FDF7D7FD05F1CB
:104350003E04002220884A21FDF765FD6088002286
:104360006A21FDF760FD02E08BE068E151E3E94C72
:10437000002259212078FDF756FD6078002279212E
:10438000FDF751FDE44E00226821306880B2FDF750
:104390004AFDE24800226D21006880B2FDF743FD2E
:1043A000DF4D002251212888FDF73DFDDD4C002224
:1043B00071212088FDF737FD688800225A21FDF71A
:1043C00032FD608800227A21FDF72DFDD64C0022B7
:1043D00041212078FDF727FDD44D00226121287866
:1043E000FDF721FD607800224221FDF71CFD687871
:1043F00000226221FDF717FD3068002280B24321C0
:10440000FDF711FD7068002280B24421FDF70BFD1D
:10441000C74C00226321206880B2FDF704FD60686C
:10442000002280B2642104F025BEC24B1A46114618
:104430000846FDF703FEC04C20784FF000034FF014
:1044400006021946FDF7F0FB0023062201219AF827
:104450001A00FDF7E9FB6820FCF70AFC80B2002394
:1044600006220221FDF7E0FBA08800231022194656
:10447000FDF7DAFB6A20FCF7FBFB002380B2102279
:10448000B9E5AEA00290A148A830B0F90020B0F97B
:104490000200C82A05DDC82801DDAEA00BE0B3A0EC
:1044A00009E0C82801DDB7A005E09848B0F964002C
:1044B000C82801DDB9A00290BEA00390C3A004905B
:1044C000C8A00590CDA00690D2A00790D7A00890D4
:1044D000DCA00990E1A00A90E6A00B90EBA00C9064
:1044E000F0A00D90F5A00E90FAA00F90FFA01090F4
:1044F00090481530119021B1681A022805DD891CF9
:1045000005E0002088F8040003E0A94201DD88F8F6
:1045100004109AF809005546052807D298F90410A6
:104520000BEB8100001D0EC8029809E098F90420E9
:1045300006EB80000BEB8201091D50F8140C0EC92C
:10454000FDF77CFD98F90400A0B198F9011089B13C
:10455000884203D1EB4880F83C400BE0401A012828
:1045600002D0022804D005E0E64880F8284001E0A7
:10457000E4480475654C012264346C21208880B2C3
:10458000FDF751FC02224021B4F90200FDF75CFA6C
:10459000A0890122232180B2FDF745FC6089012218
:1045A000242180B2FDF73FFCD74C20784FF0000269
:1045B0004FF02601FDF737FC207900225E21FDF740
:1045C00032FC207A00222521FDF72DFC207B0022E1
:1045D0003C21FDF728FC217E564800222A3000EBC2
:1045E00081003E21FDF759FDA08B00227B21FDF7C4
:1045F0001AFC287D68B13A20FDF785F9C14C2025C9
:1046000025543A20FDF77FF925543A20FDF77BF930
:104610002554BE4C4FF4616100222068B0FBF1F0DC
:1046200080B27A21FDF7FFFB21683C20B1FBF0F15D
:10463000B1FBF0F200FB121000225A21F3E6BAF8A7
:104640006400554650B1900709D53A4BBCF1000FB4
:1046500006D0AFA2B4A1BAA004F03DBD7CE184E1D4
:104660007FE10000202020203F202020202020204B
:104670002024202320402021000000002020202092
:1046800020202020202020202020204A2020206AB6
:10469000000000002020202020202020202020209A
:1046A00020202059202020790000000020202068B0
:1046B0002020206D2020202020512071205A207A97
:1046C00000000000202020732020205320202020E4
:1046D00020202043202020440000000020202066CD
:1046E000202020462020202020202063202020641D
:1046F000000000002020202020202020202020203A
:104700002041206120422062000000009CC0072060
:1047100000C00920A4000010DC000010F40000100C
:10472000C8000010C400001078C207207AC2072019
:10473000E4000010C6C30100384002402020CDE54F
:10474000EEEFF0E5E4E5EBE5EDEDEEF1F2FC202037
:104750000000000020C220F0E0E1EEF2E520C1CF31
:10476000D1312CC1CFD132200000000020202020E8
:10477000C220F0E0E1EEF2E520C1CFD131202020CF
:104780000000000020202020C220F0E0E1EEF2E551
:1047900020C1CFD132202020000000002020D0E016
:1047A000E1EEF2E020EEF220E1E0F2E0F0E5E820D8
:1047B000000000002055E13D2020206CC22049E18E
:1047C0003D2020202040C020000000002055ED3D6D
:1047D00020202023C22049ED3D2020202024C0207D
:1047E000000000002030253A305E3A302620303C70
:1047F0002F3E20202F307B200000000020C1E0F25F
:10480000E0F0E5FF20202020202020202020202074
:104810000000000020C1CFD1312020202020202006
:1048200020202020202020200000000020C1CFD107
:104830003220202020202020202020202020202066
:104840000000000020CDE0E3F0F3E7EAE0202020C4
:1048500020202020202020200000000020D1E5F290
:10486000FC2020202020202020202020202020206C
:104870000000000020D1EFE5F6F4F3EDEAF6E8E8F9
:1048800020202020202020200000000020C6F3F05F
:10489000EDE0EB20F1EEE1FBF2E8E9202020202022
:1048A0000000000020C1E0F2E0F0E5E9EDFBE920C6
:1048B000E6F3F0EDE0EB20200000000020C2E5F080
:1048C000F1E8FF20CFCE2020202020202020202013
:1048D0000000000020D3F1F2E0EDEEE2EAE8202053
:1048E00020202020202020200000000020D1E1F006
:1048F000EEF120E0E2E0F0E8E92020202020202076
:10490000000000001203082020400240CC000010EC
:1049100020202020EDE520EFEEE4EAEBFEF7E5EDC8
:10492000E02020202020000020202020202020C166
:10493000E0F2E0F0E5FF20202020202020200000F1
:1049400020202020202020C0C2C0D0C8DF2121206C
:10495000202020202020000099A39FA2A4A1AAA08B
:104960007AE6AF4A1146084676E6AEA00290B34812
:10497000007850B1B2A00390B7A00590BCA00490FD
:1049800095F8240028B1C0A004E0C5A00390CAA0F7
:10499000F3E7CFA00690D4A00790D9A00890A04834
:1049A000153009900BEB8100001D0EC89DA0FDF78E
:1049B00045FBD94E01224021708880B2FDF733FAC1
:1049C00002222121B6F90400FDF73EF830880022CA
:1049D000242180B2FDF727FA95F9210000227721E2
:1049E00080B2FDF720FAB5F96C00A0F5AA4155395F
:1049F00005D14A1E5121C9A0FDF74FFB04E0012259
:104A0000512180B2FDF70FFA98F8010004287ED0FA
:104A100064E4C44840692EB1C0F34020BEF1010FE8
:104A200003D006E0C0F3002003E0BAF86660012E70
:104A300002D048B1BCA008E0C7A20292CCA2039267
:104A4000774ABFA004922BE0CFA0D20701D0D4A216
:104A500013E0B14A083212F80E20D60601D5D6A2CC
:104A60000BE0160701D5DAA207E0560701D5DEA252
:104A700003E012F03C0F0CD0E1A20292E6A2A64E97
:104A80000392EBA20A36049216F80E201AB1EEA297
:104A900002E0F3A2F1E7F8A20592614A153206920C
:104AA000002B01DCA94201DA88F8041098F90450BF
:104AB0000BEB8501D1E901235BF82510FDF7BEFA68
:104AC00098F902000022401C80B22121FDF7ABF9C9
:104AD000914898F902104630012230F81100402127
:104AE000FDF7A1F98C4898F902104A30012230F8FC
:104AF00011002321FDF797F9874898F902104230F9
:104B0000002230F811002421FDF78DF900E004E0C7
:104B100098F80100022844F00E83DD4880F83C40FC
:104B200076E7DCA3E1A2E7A1ECA0FDF787FAD8487D
:104B30000122212180F83C40774C0C34608880B2FF
:104B4000FDF771F90122402103F068BD5546D007F9
:104B500013D0BCF1000F01D0E6A000E03048AFF662
:104B60004C23CCA2E8A10290FDF768FAC8480022C5
:104B7000232180F82840E88E01E0E9A0EFE780B229
:104B800051E4EDA00290F2A00390F7A00490244815
:104B900015300590AFF684200690022B02DD86F8D2
:104BA00004C002E0A94200DA317198F904400BEB2D
:104BB0008400D0E901235BF82410F1A0F6E10000A5
:104BC000E220E1E0F2E0F0E5E9EDEEEC20E6F3F0E2
:104BD000EDE0EBE5000000002020202020E2E2E5EF
:104BE000E4E8F2E520E5B8202020202000000000C5
:104BF00020CFF0E82020EDE5EEE1F5EEE4E8ECEE84
:104C0000F1F2E8200000000020C1C0D2C0D0C5DF12
:104C100020CDC520C2C2C5C4C5CDC0200000000043
:104C2000C6C30100202020202020C1C0D2C0D0C592
:104C3000DF2020202020202000000000960000100F
:104C4000202020F0E0E7F0FFE6E0E5F2F1FF202091
:104C5000202020200000000020202049F0E0E7F084
:104C60003D2020202021C020202020200000000006
:104C700020202055E1E0F23D202020202040C220CD
:104C8000202020200000000020202020C4D22E2040
:104C9000EDE5E8F1EFF0E0E2E5ED202000000000B6
:104CA00020202020E7E0F0FFE6E0E5F2F1FF202001
:104CB000202020200000000020202049E7E0F03DD7
:104CC000202020202021C0202020202000000000C3
:104CD00020202074E1E0F2203D20202024B0432059
:104CE0002020202000000000202020C7E0F0FFE46A
:104CF0003D202020207725202020202000000000BB
:104D000020202043E1E0F23D202020202051C02A35
:104D1000F720202000000000FEC007202D2D2D2DA3
:104D20002D2D000000C0092020202020C1CFD1213E
:104D300020C2DBCACBDED7C5CD202020000000007A
:104D40002020202020202020C1CFD1322020202050
:104D5000202020200000000020202020CED2D1D30F
:104D6000D2D1D2C2D3C5D220202020200000000002
:104D70002020C220D1D2D0D3CAD2D3D0C520C8C11E
:104D8000DDCF20200000000020202020C1CFD12135
:104D900020C2CACBDED7C5CD2020202000000000D5
:104DA00020E0E2E0F0E8FF20F1E5F2E8202020201A
:104DB000202020200000000020E0E2E0F0E8FF20BA
:104DC000EFE5F0E5E3F0E5E2202020200000000020
:104DD00020E0E2E0F0E8FF2055E2FBF53C55ECE88E
:104DE000ED2020200000000020E0E2E0F0E8FF20BD
:104DF00055E2FBF53E55ECE0EAF120200000000012
:104E000020E7E0E1EBEEEAE8F0EEE2E0ED20E8E7B3
:104E1000E2EDE520000000002055E8F1F2203D2001
:104E200020202040C2202020202020200000000040
:104E30002049E8F1F2203D2020202023C02020201E
:104E4000202020200000000020C4D220EDE5E8F161
:104E5000EFF0E0E2E5ED202020202020000000001F
:104E600020F1EEF1F2EEFFEDE8E5202D20EDEEF081
:104E7000ECE02020000000002074E8F1F2203D204A
:104E8000202024B0432020202020202000000000EB
:104E90001203082020C2FBF5EEE420202020202071
:104EA0002020202020202020000000002049EDE0CC
:104EB000E3F03D2020202020202040412020202001
:104EC000000000002055EDE0E3F03D2020202020F0
:104ED000202021C2202020200000000020202020AF
:104EE0002020CDC0C3D0D3C7CAC02020202020207E
:104EF00000000000202020C0C2C0D0C8DF20D1C5E3
:104F0000D2C82121212020002055F1E5F2E83D20E2
:104F100020202020202023C220202020000000006C
:104F200020202020202020D1C5D2DC2020202020BD
:104F3000202020200000000020CAEEEDF2F0EEEB71
:104F4000FC20E5ECEAEEF1F2E82020200000000071
:104F500020C2FBF0E0E2EDE8E2E0FEF9E8E920E75C
:104F6000E0F0FFE40000000020C0E2F22EE2FBF0DF
:104F7000E0E2EDE8E22E20E7E0F0FFE400000000D0
:104F800020202020D1CFC5D6D4D3CDCAD6C8C820A2
:104F90002020202000000000B9F1210F0BD0B7A085
:104FA000BC4B0146029003F11502BBA0FDF746F889
:104FB000012001F0D3BEBEA0F2E7C3480290C3A017
:104FC000039031B1012908D002290AD003290CD05D
:104FD0000FE0C4A00290C9A00AE0CEA00290D3A026
:104FE00006E0D8A00290DDA002E0D6A00290E1A0E9
:104FF00003900346B5A1B448029AB1E4B9F1050F94
:1050000010D09EA0A34B024602901533DFA1E5A06D
:10501000FDF714F80120FDF72CFD00222121BAF83C
:105020006000ACE5A2A0EDE7DEA3DEA2DDA1DDA07D
:10503000FDF704F804208AF818009AF81A0055467B
:10504000012820D0022820D003282BD006282BD0DE
:105050000C282BD0D9A002908E482C7615300390C6
:1050600096F90410E1A00BEB810253685BF8212054
:10507000D8A1FCF7E3FF96F9010096F904108842E5
:1050800016DA307119E0DFA000E0E4A00290E9A098
:105090000390EEA00490AFF6B40005907D48153063
:1050A0000690DDE7EFA0F1E7F4A0EFE7F9A0EDE768
:1050B000411A012901DD411E3171022800D13071F0
:1050C0000220FDF7D6FC0022252135F87C0FFCF7E5
:1050D000AAFE00225E216888FCF7A5FEF34C0022A0
:1050E00026212088FCF79FFE00223C216088FCF7E7
:1050F0009AFE6848A1882A3000EB810000223E21F8
:10510000FCF7CBFF00227B21E088FCF78CFE00221D
:105110002821208933E500BF40F60260FBF7A8FD97
:1051200001B25046AAF83810402901DD002101875C
:10513000BAF9380060B101280FD0022817D043DD3A
:1051400096F9011096F9042091422ADA31712DE086
:10515000504BD7A103F1150203E04E4ADAA31532F2
:10516000DFA1E5A0FCF76AFF002030712CE096F982
:10517000010096F90410884201DA307104E0411A06
:10518000022901DD801EF8E796F9040010B101281C
:1051900003D019E03F4B153311E03E4ACAA3153244
:1051A0000EE08A1A022A01DD891ECFE796F9041063
:1051B000421E9142F1D0801E8142EBD0D4A3DAA2EC
:1051C000C7A1CDA0FCF73AFF0120FDF752FC3079D2
:1051D0002821FDF745F830795B21401CC0B2FDF76E
:1051E0003FF830797B21801CC0B2FDF739F80FE41D
:1051F000284B1A4611460846FCF720FF4FF4606022
:10520000FBF736FD98F9021045464A42402100B2AC
:10521000FCF701FF400100F5806086B246A93046E8
:10522000FBF7AFFD4CA9301DFBF7ABFD43A906F121
:105230000800FBF7A6FD44A906F10C00FBF7A1FD51
:10524000694606F11000FBF79CFD01A906F1140068
:10525000FBF797FD47A906F11800FBF792FD9DF8B3
:105260001801552806D0502805D0422804D05328CC
:1052700003D055E464E1A0E13AE244E320C2FBEA52
:10528000EBFEF7E5ED20202020202020202020200C
:1052900000000000C6C301002020CACECDD2D0CE6F
:1052A000CBDC20C5CCCACED1D2C820200000000063
:1052B00020C2EAEBFEF7E5ED202020202020202070
:1052C0002020202000000000B43B0000202020ED22
:1052D000E5E2EEE7ECEEE6E5ED21212120202020BD
:1052E0000000000020202020CEF2F1F3F2F1F2E2E3
:1052F000F3E5F220202020200000000020202020C4
:105300002020E1E0F2E0F0E5FF2020202020202016
:105310000000000020202020202020C0E2E0F0E853
:10532000FF2020202020202000000000202020201E
:1053300020202020F1E5F2E820202020202020203D
:1053400000000000202020202020C1E0F2E0F0E555
:10535000FF202020202020200000000020202020EE
:10536000F0E0E7F0FFE6E0E5F2F1FF20202020206A
:10537000000000002020202020E7E0F0FFE6E0E52C
:10538000F2F1FF20202020200000000020E4EBE8C4
:10539000F2E5EBFCEDEEF1F2FC202D202021F72EC2
:1053A0000000000020C2DBD0C0C2CDC8C2C0DED920
:1053B000C8C920C7C0D0DFC40000000020E2FBEA5B
:1053C000EBFEF7E5ED2020202020202020202020CB
:1053D00000000000C2DBD0C0C2CDC8C2C0DED9C848
:1053E000C920C7C0D0DFC42000000000202020C09A
:1053F000C2D2CECCC0D2C8D7C5D1CAC8C9202020FD
:105400000000000020F0E0E720E220ECE5F1FFF6EC
:1054100020202020202020200000000020F0E0E7B5
:1054200020E2203220ECE5F1FFF6E02020202020D1
:105430000000000020E4EBE8F2E5EBFCEDEEF1F219
:10544000FC20202028F72E200000000020EEF7E5A9
:10545000F0E5E4EDEEE520E2EAEBFEF7E5EDE8E568
:105460000000000020F0E0E720E2203320ECE5F12E
:10547000FFF6E020202020200000000020F0E0E7E0
:1054800020E220EFEEEBE3EEE4E0202020202020DD
:105490000000000020F0E0E720E220E3EEE420201E
:1054A0002020202020202020000000009CC0072079
:1054B00020C6F3F0EDE0EB20EFF3F1F22020202006
:1054C000202020200000000020CEF7E8F1F2E8F2D2
:1054D000FC20E6F3F0EDE0EB2020202000000000AF
:1054E00020282020202020202020202020202020B4
:1054F0002020202000000000202020C6D3D0CDC0D6
:10550000CB20D1CEC1DBD2C8C920202000000000B2
:10551000207B202020202020202020202020202030
:105520002020202000000000205B202020202020C0
:1055300020202020202020202020202000000000EB
:105540009DF81A01522843F0F685EFA3F4A2FAA1C0
:10555000FFA0FCF773FD9DF8100100224021FCF72D
:1055600062FC9DF8110100222321FCF75CFC9DF8F0
:10557000120100222421FCF756FC9DF80E010022A6
:105580002521FCF750FC9DF80C0100225E21FCF760
:105590004AFC9DF80D01401E0C2801D38DF80D41E9
:1055A0009DF80D11F048002200EB81002821FCF746
:1055B00074FD0020AAF8380019E69DF81A01412868
:1055C000FAD1EA480290D0A003909DF8000041284B
:1055D00003D19DF8010041284AD001220021281D55
:1055E000FDF797FAE2A00490E7A00590ECA00690E2
:1055F00095F904000BEB8001091D5BF820000EC932
:10560000FCF71CFD9DF8040000223E21FCF70BFC7A
:105610009DF8050000223D21FCF705FC9DF80600E1
:1056200000222921FCF7FFFB9DF8020000225B21EC
:10563000FCF7F9FB9DF8000000223C21FCF7F3FB8E
:105640009DF80100401E0C2801D38DF801409DF803
:105650000110C548002200EB81005D21FCF71DFD13
:105660009DF81C019DF81D1100EB012080B2CEE0D9
:10567000D1A00490D6A002AD0346059007CDFCF75B
:10568000DDFCBAF8360000222B2180B2FCF7CBFB00
:105690009DF8100100224021FCF7C5FB9DF8110187
:1056A00000222321FCF7BFFB9DF8120100222421D8
:1056B000FCF7B9FB9DF80E0100222521FCF7B3FB96
:1056C0009DF80C0100225E21FCF7ADFB9DF80D0159
:1056D000401E0C287ED200BF9DF80D11A24800226A
:1056E00000EB81002821FCF7D8FCAAF838407EE5C1
:1056F0009DF81A01432807D05A2833D00526572889
:1057000069D04B2868D072E5AFF2F8300290B6A0AD
:1057100003907DA004909DF80000412803D19DF8DE
:105720000100412811D001220021281DFDF7F1F9C7
:105730008FA0059094A0069095F904500BEB85007E
:10574000001D0EC85BF825002BE09BA056E000BFB3
:105750009DF801108448002200EB81005D21FCF7D8
:105760009CFC51E0A6A00290ABA00390B0A00490D6
:105770009DF80000412803D19DF8010041283CD04C
:1057800001220021281DFDF7C4F9AFA00590B4A0A7
:10579000069095F904600BEB8600001D0EC85BF8BF
:1057A0002600FCF74BFC9DF8040000223E21FCF78C
:1057B0003AFB9DF8050000223D21FCF734FB9DF8E3
:1057C000060000222921FCF72EFB00229DF8020092
:1057D0005B2102E01EE020E060E0FCF724FB9DF886
:1057E000000000223C21FCF71EFB9DF80100401E3A
:1057F0000C28ADD38DF80140AAE79FA002AD034667
:10580000059007CDFCF71AFC9DF81901401C0022F9
:105810002B213BE78DF80D415EE79DA00290A2A0F1
:105820000390A7A0049082A00590ABA00690B0A022
:105830000790B5A00890BAA00990BFA00A9095F96A
:1058400004000BEB8001091D5BF820000EC940E04D
:105850008DF80D41B4E100BF9DF80100002205EB79
:1058600080007721FCF719FCBDF8300101227A2174
:10587000FCF7D9FA9DF80F019DF81311012200EBF6
:10588000012080B23C21FCF7CEFABDF832010122A2
:105890003E21FCF7C8FAAAF83860A8E433481C385F
:1058A000029081A0039086A0049061A00590A8A01A
:1058B00006908FA0079094A00890ABA00990B0A08C
:1058C0000A9095F904700BEB8700001D0EC85BF879
:1058D0002700FCF7B3FB9DF819010022401C212191
:1058E000FCF7A1FA9DF8100100224021FCF79BFA79
:1058F0009DF8110100222321FCF795FA00229DF862
:105900001201242148E18BE120203025282020307D
:105910005E2030403A30233A30242020000000003E
:105920002020202020202020C8C1DDCF20202020C2
:105930002020202000000000202020E8EBE820E2CA
:10594000EAEBFEF7E5EDE8E520202020000000006E
:1059500020202020CFE5F0E5E7E0E3F0F3E7EAE000
:105960002020202000000000F0C30100D03B0000F8
:10597000202020202020F3F1F2F0E0EDE5EDE02002
:1059800020202020000000002020305B5D202030FF
:105990003C20303E3A303D3A3029202000000000C3
:1059A000202020202055ECE8ED3D20202BC2202097
:1059B000202020200000000020202020EDE520F302
:1059C000F1F2F0E0EDE5EDE0202020200000000005
:1059D000202020202055F1E5F2E83D20202BC22098
:1059E0002020202000000000202020202020E1E0B6
:1059F000F2E0F0E5E8202020202020200000000038
:105A0000202020C2FBF0E0E2EDE8E2E0FEF9E8E968
:105A1000202020200000000020202020202020E73F
:105A2000E0F0FFE4202020202020202000000000C3
:105A30002030252F2820202F305E2030403A302380
:105A40003A30242000000000202020202020E7E021
:105A5000E2E5F0F8E5ED2020202020200000000005
:105A600020305B2F5D20202F303C20303E3A303DEF
:105A70003A3029200000000020202020EDE520E71A
:105A8000E0E2E5F0F8E5ED20202020200000000015
:105A900020202020202020D0E0E7F0FFE42020205C
:105AA000202020200000000020202020202020E1B5
:105AB000E0F2E0F0E5E820202020202000000000B7
:105AC00020CDE0F7E0EBEE20202020202020202039
:105AD0002020202000000000202020202020202046
