:020000040000FA
:1000000070530010290200002D0200002F02000092
:100010003102000033020000350200000000000041
:100020000000000000000000000000003702000097
:1000300039020000000000003B0200008BCD0000F0
:100040003F0200009B040000CF0500003F020000BB
:100050003F020000373B01003F0200003F0200006A
:100060003F0200003F0200003F0200003F0200008C
:100070003F0200003F0200003F0200003F0200007C
:100080003F0200003F0200003F0200003F0200006C
:100090003F0200003F020000833100003F020000E9
:1000A0003F0200001D5001003F0200003F0200001F
:1000B000490A00003F0200003F0200003F0200002A
:1000C0003F0200003F0200003F02000000F002F883
:1000D00000F09BF80AA090E8000C82448344AAF147
:1000E0000107DA4501D100F090F8AFF2090EBAE845
:1000F0000F0013F0010F18BFFB1A43F0010318475C
:10010000542C0400942C04000A444FF0000C10F806
:10011000013B13F0070408BF10F8014B1D1108BF85
:1001200010F8015B641E05D010F8016B641E01F825
:10013000016BF9D113F0080F1EBF10F8014BAD1C75
:100140000C1B09D16D1E58BF01F801CBFAD505E093
:1001500014F8016B01F8016B6D1EF9D59142D6D3ED
:10016000704700000023002400250026103A28BF15
:1001700078C1FBD8520728BF30C148BF0B60704719
:100180006E2915F03F86702915F0128766291BF03D
:10019000FF8465291BF0FC8467291BF0F984612921
:1001A0001BF0F884692915F0F185642915F0EE85B6
:1001B000752915F0EB856F2915F09886782915F0CB
:1001C000EA860368DB0928BF41F08001632916F045
:1001D0009E85732916F0A385E32916F0AE850020CD
:1001E00070471FB51BF0CDFC16F060FE0400002028
:1001F00000211BF025FB401C6060002000211BF04B
:1002000009FBE0601FBD10B510BD17F065F9114680
:10021000FFF7E7FF0CF0BAFD17F083F903B4FFF71F
:10022000F2FF03BC17F088F908480047FEE7FEE735
:10023000FEE7FEE7FEE7FEE7FEE7FEE7FEE7FEE796
:1002400003480449024A044B70470000CD000000F7
:10025000705100107053001070510010FEE710B57F
:1002600019F0CAF919F056FA19F048FA19F0D6F946
:10027000AFF30080BDE8104019F012BA10B51AF0C3
:1002800023F81AF093FE1AF077F8BDE810401AF040
:10029000EFB919F037BF19F0FFBC09B10020704762
:1002A00018F008BA002070470FB41CB5084B06AA16
:1002B0007B4469460090059816F007FD044600202F
:1002C000694616F015FD20461CBC5DF814FB0000C5
:1002D0003D6A010009684A0501D540B27047C90569
:1002E000FCD500B2704709684A0501D5C0B2704715
:1002F000C905FCD580B2704770477047FFFFFFFF0C
:1003000030B54E482021C0F8A01100BFD0F8A01190
:100310004906FBD500F180000322C0F884204FF489
:100320000031C0F828114FF00001C0F82C114FF037
:100330000103C0F88C30424C446003604FF0AA03C4
:10034000C3604FF05504C460A0F18000D0F888501D
:100350006D01FBD540F8802FC360C460C0F88810E1
:10036000384A4264C0F848118168A0F180006FEA01
:1003700011618A073449D0F80C2102F0030207D03A
:1003800092B3012A46D0022A4AD0032A51D13BE037
:100390002AB1012A11D0022A27D0032A49D150F8C4
:1003A000882FC2F30E02521C53000268C2F30742A8
:1003B000521CB3FBF2F2254B0CE050F8882FC2F32D
:1003C0000E02521C53000268C2F30742521CB3FBD8
:1003D000F2F21F4B5A43C36FA0F18800DBB203F166
:1003E0000103B2FBF3F223E00EE050F8882FC2F3D2
:1003F0000E02521C53000268C2F30742521CB3FBA8
:10040000F2F24FF4FA43E5E7D0F804210F4BD2B2F1
:10041000521C0BE0D0F804210D4BD2B2521C05E067
:10042000D0F804214FF4FA43D2B2521CB3FBF2F2DB
:100430000A6043F23A01016030BD000000C00F4085
:100440004F0003004AF144400CC0072000093D0062
:100450008096980070B542F227346143002202234F
:10046000FF240425012660B1012809D17B4843609F
:10047000C26081610460456146604168C907FCD182
:1004800070BD4FF040204360C260816104604561EF
:1004900046604168C907FCD170BD2DE9F0414FF0BD
:1004A0004020012505606E480168491C01606D48C7
:1004B00000246E4E04806C48057070696D4AC0F36C
:1004C00080216B48017013786B48994202D00388F1
:1004D0005B1C0380117069490A88521C12B20A80A1
:1004E000142A02DB0C8066490D7066490A88521C8A
:1004F00012B20A80092A02DB0C8063490D7063493D
:100500000A88521C12B20A800A2A5ADB0C806049FF
:100510000D7060490A88521C12B20A80B2F5FA7F47
:1005200004DB5D4A0C800188118004805B4F3888B1
:10053000401C00B238800A2804DB59483C80057012
:1005400001F0FAF83888052801D101F0F5F855488E
:100550000188491C09B20180142918DB0480524823
:1005600005705248017809B1047000E005705048E8
:10057000007860B14F48016821F0F00101603068F7
:1005800040F004003060706980F0040070614A48F7
:100590000188491C09B20180322908DB04804748E0
:1005A00005704748017809B1047000E005704548BE
:1005B0000188491C09B20180642902DB0480424899
:1005C0000570F06940F00100F061BDE8F081234959
:1005D0000120086022484168491C416070470121A0
:1005E00010B11E48416070474FF04020FAE70021EB
:1005F00010B11A48416070474FF04020FAE728B127
:100600001648416841F00201416070474FF04020B8
:10061000F7E710B50022124C032318B1012808D0C7
:10062000002010BD22604FF0402081614361012015
:1006300004E06260094881614361022000F002F831
:10064000012010BD00F01F020121914040094FF030
:10065000E02202EB8000C0F80011704700800040EB
:10066000080000105C000010FBC1072000C009203A
:1006700006C20720620000106000001002C20720BE
:10068000560000105E0000104AC00720FCC1072081
:1006900044C0072004C207206EC007205800001085
:1006A00045C00720FEC1072046C007204BC00720D9
:1006B0003BC0072000C002405A00001047C007207E
:1006C0004CC0072000C2072048C00720C1F120020B
:1006D000904010B5FC4A4FF4007453150EE000280A
:1006E00001DA946500E0D46500BF00BF00BF9365E8
:1006F00000BF00BF00BFD3654000491E0029EED1F6
:1007000010BD70B50546F1480078012813D04FF0B0
:10071000A04045F4807181620121416200210213F1
:10072000436BDB0702D0491C9142F9D3002141629F
:10073000056BA8B270BDE44C206C40F400702064DE
:1007400020214FF0FF30FFF7C1FF04210620FFF703
:10075000BDFF05210120FFF7B9FF05212846FFF75E
:10076000B5FF00F0CBF94FF0000528464FF480713B
:100770004FEA4505A16500BF00BF00BFE165626D9E
:10078000920501D545F00105401C1028F0D300F07A
:10079000B5F9CEE770B50546CC480C46007801287F
:1007A0000ED04FF0A04245F480709062D4620020D9
:1007B0001113536BDB0702D0401C8842F9D370BD84
:1007C000C148016C41F40071016420214FF0FF30F9
:1007D000FFF77CFF04210520FFF778FF05210120AA
:1007E000FFF774FF05212846FFF770FF0221084636
:1007F000FFF76CFF10212046FFF768FFBDE870404F
:1008000000F07CB92DE9FC47B04C0025362025705E
:100810000090694662680846904701982521B1EB2F
:10082000106F01D101202070A948016841F080417A
:100830000160A948A74981602178002960D0016939
:1008400021F470210161A048016C41F480710164C0
:100850004FF0A0444FF44F4020607820C4F80001CE
:100860006420401EFDD14FF00208C4F80080302003
:1008700060604001606143F20F7020611227E76001
:100880007801C4F800014FF40060A0616426761E70
:10089000FDD1A5614FF400410020FFF77BFF4FF42D
:1008A00080190020FFF72DFF10F4084F02D0761CAE
:1008B0004E45F6D30220FFF724FF06460320FFF73C
:1008C00020FF4FF6F0710840844940EA0640884214
:1008D0000DD14FF440510020FFF75CFF00260120AE
:1008E000FFF70FFF800602D4761C4E45F7D3002693
:1008F0004FF480391020FFF704FFC10709D105E04C
:10090000C16821F00F01491DC160A1E7761C4E4569
:10091000F0D341070CD5616841F001016160D4F862
:10092000001141F48061C4F800111521A16000E0BC
:10093000A760800701D5A56102E04FF48070A06137
:10094000674881882164418861640088A064654BA0
:10095000654EA3F16401002001F1200200EB400785
:1009600003EB472741F8307001EBC0077E6042F887
:10097000305002EBC007401C7D600428EED3C4F861
:100980000811C4F80C210320C4F81001C4F8185150
:1009900054490020554E243901F1180200EB400360
:1009A00006EB432341F8303001EBC0035D6042F8B1
:1009B0002050401C0328F1D304F1AC042167626786
:1009C000C4F87880E5674FF02600C4F854014FF072
:1009D0008800C4F8380F4FF6FF70C4F83C0F606D04
:1009E00040F00300606554F8AC0D40F00100206059
:1009F000BDE8FC873E484FF08051016070473D489C
:100A00004FF0805101607047F0B54FF0A045D5F828
:100A10002811344E0388243E021D56F83140DB1C59
:100A20009B0803D080CA5B1E80C4FBD1008806EB04
:100A3000C102401E40F04040491C5060032900D1D3
:100A40000021C5F82811F0BD70B54FF0A04533E086
:100A5000C5F8E80F00072FD5D5F8184128E0214840
:100A6000443850F8340041001CD5C0F30A06F61E85
:100A700040F2EA518E4215D81F49084212D146F081
:100A8000004017F0D5F968B1164A011D643AF61C0A
:100A900052F83420B30803D040CA5B1E40C1FBD1DA
:100AA00019F092FB641C042C00D10024C5F81841F5
:100AB000D5F81401A042D2D1D5F8E00FD5F8E41F43
:100AC0000840C5D170BD000000C0092010C007203B
:100AD000C4C00F400501155000C00240905C0020CA
:100AE0000000001044230010FF050080443B00106C
:100AF00000E100E080E100E00000901B0748016C8D
:100B000021F4007101644FF48071816500BF00BF62
:100B100000BFC16500BF00BF00BF704700C0092013
:100B2000FF49886048680006FCD58868C0B27047F5
:100B3000FC48016841F040410160416821F0030137
:100B40004160416841F00C014160416841F0300171
:100B50004160F3480821C160202101607047F148DD
:100B6000016821F040410160416821F003014160CA
:100B7000416821F00C014160416821F03001416081
:100B8000E74900200860704700B5FFF7D1FFE64A4B
:100B9000106840F000601060D06940F00060D061E3
:100BA0000620FFF7BDFF106840F0006010609069FC
:100BB00040F0006090615DF804EBD0E700B5FFF70E
:100BC000B7FFD94A106840F000601060D06940F06B
:100BD0000060D0610520FFF7A3FFFF20FFF7A0FF13
:100BE0000346106840F000601060906940F00060BB
:100BF0009061FFF7B4FF184600BD01B5FFF7DEFFB7
:100C0000C007FBD1FFF794FFC74A106840F00060AF
:100C10001060D06940F00060D061106840F0006062
:100C20001060D06940F00060D0610320FFF778FFCA
:100C30009DF80100FFF774FF9DF80000FFF770FFBB
:100C4000FF20FFF76DFF0346106840F00060106062
:100C5000906940F000609061106840F000601060A2
:100C6000906940F000609061FFF779FF184608BD79
:100C700011B5AD4C206840F002002060A06940F042
:100C80000200A061FFF79AFFC007FBD1FFF750FFFA
:100C9000206840F000602060E06940F00060E061A2
:100CA0000320FFF73DFF9DF80100FFF739FF9DF896
:100CB0000000FFF735FFFF20FFF732FF0246FF205D
:100CC000FFF72EFF02EB0022206840F0006020605A
:100CD000A06940F00060A061206840F000602060E2
:100CE000A06940F00060A061FFF739FFE06940F0C3
:100CF0000200E061104618BD2DE93140FFF75EFFAC
:100D0000C007FBD1FFF714FF874A106840F000606E
:100D10001060D06940F00060D0610320FFF700FF51
:100D20009DF80100FFF7FCFE9DF80000FFF7F8FEBC
:100D3000FF20FFF7F5FE0346FF20FFF7F1FE044614
:100D4000FF20FFF7EDFE0546FF20FFF7E9FE05EB6C
:100D5000002004EB002003EB0023106840F000604B
:100D60001060906940F000609061106840F0006091
:100D70001060906940F000609061FFF7F0FE184647
:100D800038BD13B54FEA0104FFF718FFC007FBD1C8
:100D9000FFF7CEFE644A106840F000601060D06932
:100DA00040F00060D0610320FFF7BAFE9DF801001B
:100DB000FFF7B6FE9DF80000FFF7B2FEFF20FFF739
:100DC000AFFE2070FF20FFF7ABFE6070FF20FFF743
:100DD000A7FEA070FF20FFF7A3FEE070106840F0B0
:100DE00000601060906940F000609061106840F011
:100DF00000601060906940F000609061BDE81C40A8
:100E0000ADE677B50D461646FFF7D8FEC007FBD115
:100E1000FFF78EFE444B186840F000601860D869F8
:100E200040F00060D8610320FFF77AFE9DF80100D2
:100E3000FFF776FE9DF80000FFF772FE002406E043
:100E4000FF20FFF76DFE641C05F8010BE4B2B4420D
:100E5000F6D3186840F000601860986940F00060B0
:100E60009861186840F000601860986940F0006070
:100E70009861BDE87E4072E613B50C46FFF79EFE12
:100E8000C007FBD1FFF780FEFFF752FE264A10682D
:100E900040F000601060D06940F00060D061022036
:100EA000FFF73EFE9DF80100FFF73AFE9DF80000B7
:100EB000FFF736FE2046FFF733FE0346106840F08A
:100EC00000601060906940F000609061106840F030
:100ED00000601060906940F000609061FFF73FFE95
:100EE00018461CBD2DE90340FFF768FEC007FBD183
:100EF000FFF74AFEFFF71CFE0B4A106840F0006047
:100F00001060D06940F00060D0610220FFF708FE59
:100F10009DF80100FFF704FE9DF8000006E00000C8
:100F20000000024000C0024000C00920FFF7F8FDA9
:100F30009DF80400FFF7F4FD9DF805301846FFF713
:100F4000EFFD106840F000601060906940F00060B4
:100F50009061106840F000601060906940F000609F
:100F60009061FFF7FCFD18460CBD03B5FFF726FEA8
:100F7000C007FBD1FFF708FEFFF7DAFD3C4A106817
:100F800040F000601060D06940F00060D061022045
:100F9000FFF7C6FD9DF80100FFF7C2FD9DF80000B8
:100FA000FFF7BEFD9DF80400FFF7BAFD9DF80500B0
:100FB000FFF7B6FD9DF80600FFF7B2FD9DF807307C
:100FC0001846FFF7ADFD106840F0006010609069B2
:100FD00040F000609061106840F00060106090691F
:100FE00040F000609061FFF7BAFD18460CBD13B5E4
:100FF0004FEA0104FFF7E2FDC007FBD1FFF7C4FD94
:10100000FFF796FD1A4A106840F000601060D06942
:1010100040F00060D0610220FFF782FD9DF80100E2
:10102000FFF77EFD9DF80000FFF77AFD2078FFF7BF
:1010300077FD6078FFF774FDA078FFF771FDE37826
:101040001846FFF76DFD106840F000601060906971
:1010500040F000609061106840F00060106090699E
:1010600040F000609061FFF77AFD18461CBD00005B
:1010700000C00920FF48016A21F07F710162816987
:1010800041F40001816100BF00BF00BF00BF00BF8D
:1010900000BF00BF00BF00BF00BFC16941F00051E9
:1010A000C16100BF00BF00BF00BF00BF00BF00BFE5
:1010B00000BF00BF00BF816941F080418161416B89
:1010C0008901FCD47047EB48016A21F07F7101620D
:1010D000816941F40001816100BF00BF00BF00BF12
:1010E00000BF00BF00BF00BF00BF00BFC16941F02B
:1010F0000051C16100BF00BF00BF00BF00BF00BF03
:1011000000BF00BF00BF00BF816941F080718161F5
:10111000416B8901FCD47047D64A00B5034610687C
:1011200040F0C1401060FFF7A5FF00BF00BF00BF47
:1011300000BF00BF00BF00BF00BF00BF00BFD0693D
:1011400040F00050D06100BF00BF00BF00BF00BF33
:1011500000BF00BF00BF00BF00BFD06940F4000067
:10116000D06100BF00BF00BF00BF00BF00BF00BF15
:1011700000BF00BF00BF106A40F07F701062906B2C
:1011800040EA83409063D06B6FEA0301C9B240EA42
:101190008140D06300BF00BF00BF00BF00BF00BFE1
:1011A00000BF00BF00BF00BFD06940F08040D061E9
:1011B00000BF00BF00BF00BF00BF00BF00BF00BF37
:1011C00000BF00BF00BDAB4A00B50346106840F049
:1011D00000501060106840F0C0701060FFF773FF9F
:1011E00000BF00BF00BF00BF00BF00BF00BF00BF07
:1011F00000BF00BFD06940F00050D06100BF00BF09
:1012000000BF00BF00BF00BF00BF00BF00BF00BFE6
:10121000D06940F40000D06100BF00BF00BF00BF34
:1012200000BF00BF00BF00BF00BF00BF106A40F09A
:101230007F701062906B40EA83409063D06B6FEADE
:101240000301C9B240EA8140D06300BF00BF00BFC4
:1012500000BF00BF00BF00BF00BF00BF00BFD0691C
:1012600040F08070D06100BF00BF00BF00BF00BF72
:1012700000BF00BF00BF00BF00BF00BD7D4A00B57A
:101280000346106840F0C0401060106840F4000051
:101290001060FFF7EFFE00BF00BF00BF00BF00BF40
:1012A00000BF00BF00BF00BF00BF906940F000500A
:1012B000906100BF00BF00BF00BF00BF00BF00BF04
:1012C00000BF00BF00BFD06940F40000D06100BF84
:1012D00000BF00BF00BF00BF00BF00BF00BF00BF16
:1012E00000BF106A40F07F701062906B40EA83404C
:1012F0009063D06B6FEA0301C9B240EA8140D063CA
:1013000000BF00BF00BF00BF00BF00BF00BF00BFE5
:1013100000BF00BFD06940F08040D06100BF00BF77
:1013200000BF00BF00BF00BF00BF00BF00BF00BFC5
:10133000184600BD4F4A00B50346106840F0005003
:101340001060106840F0C0701060FFF7BCFE00BF76
:1013500000BF00BF00BF00BF00BF00BF00BF00BF95
:1013600000BF906940F00050906100BF00BF00BF17
:1013700000BF00BF00BF00BF00BF00BF00BFD069FB
:1013800040F40000D06100BF00BF00BF00BF00BF3D
:1013900000BF00BF00BF00BF00BF106A40F07F70F9
:1013A0001062906B40EA83409063D06B6FEA030158
:1013B000C9B240EA8140D06300BF00BF00BF00BF98
:1013C00000BF00BF00BF00BF00BF00BFD06940F03A
:1013D0008070D06100BF00BF00BF00BF00BF00BF72
:1013E00000BF00BF00BF00BF00BD10B540F0B80493
:1013F0002046FFF791FE2046BDE81040E3E610B519
:101400000446FFF789FE2046BDE81040DBE610B534
:1014100040F0C0042046FFF77FFE2046BDE81040A4
:10142000D1E61548416821F440114160816821F0FE
:1014300040518160816821F440318160816821F0F0
:1014400040618160816821F440418160416821F000
:1014500030014160416821F0C0014160416821F4E0
:1014600040714160416821F440614160416821F46C
:10147000405103E000C0092000C0024041604168C3
:1014800021F440414160416821F4403141604168AC
:1014900021F4402141608348016A834A114301627B
:1014A000016841F0C34101600021C26B42F08062DB
:1014B000C263491C6429F8DB7C4A4FF0000100BF7D
:1014C000491C9142FBDB0021836B43F08063836303
:1014D000491C3229F8DB4FF0000000BF401C90424D
:1014E000FBDB70476F484FF00051C1614FF40001C2
:1014F00081614FF08041816100BF00BF00BF00BF2C
:10150000426B9201F9D4C16170474FF0000000BFF7
:10151000401C00B26428FADB704730B50346FFF781
:10152000E1FF60494FF4000088618201CA61C20195
:101530008A6144008C618D6B45EA83458D63CD6B78
:10154000DB43DBB245EA8343CB63CA61CC61C8614C
:1015500030BD5748416821F440114160816821F055
:1015600040618160816821F040518160816821F48F
:1015700040318160816821F440418160416821F0FF
:1015800030014160416821F0C0014160416821F4AF
:1015900040714160416821F440614160416821F43B
:1015A00040514160416821F440414160416821F46B
:1015B00040314160416821F4402141603948016A6D
:1015C000394A11430162016841F0C34101600021C1
:1015D000C26B42F08062C263491C0A29F8DB4FF0FB
:1015E00000014FF4FA7200BF491C9142FBDB00215D
:1015F0004CF25032836B43F080638363491C914209
:10160000F8DBE22089E730B500242046FFF7EDFE45
:101610000020FFF7F4FE00255820FFF72FFE7A2068
:10162000FFF788FE6D1CEDB23C2DF5D9641CE4B2C9
:10163000032CEAD930BD00B5AF20FFF76DFDAF2018
:101640005DF804EBBFE500B5AE20FFF765FDAE2009
:101650005DF804EBB7E5F0B584460020FFF7D7FE50
:101660005FF0000606EB4600C0EB86100CEB400472
:1016700004F13D053046FFF7B8FE0020FFF7BFFE3E
:1016800000272078FFF7FAFD2878FFF753FE7F1C2C
:10169000641C6D1CFFB23D2FF3D3761CF6B2032EF3
:1016A000E0D9F0BD00C009200000FC0770880200EE
:1016B00000C002401E4BDA601870597070471C4819
:1016C000C16800290DD0491EC1600AD119490278AC
:1016D0000A7042784A700A710021C170017141712B
:1016E00081717047124A116190707047104801690A
:1016F00000290BD0491E016108D10E4A8178117072
:1017000000215170C17001714171817170470849A8
:10171000088170470648B0F90810002907D0491E13
:1017200009B20181002902D1084601F0D0B8704702
:1017300018C0072078C107201D48016A41F00061E8
:1017400001621C494A68D30709D01B4B1B8833B17F
:10175000836B43F0006383630620487003E0C36B30
:1017600043F00063C363500848600878401E10F0DF
:10177000FF00087003D12020087088684860704717
:1017800010B50C4A002320244F2908D0412909D044
:1017900052290BD0532908D15360936004E0C2E969
:1017A000010301E050609060147010BD906010BDA6
:1017B00000C009202CC007208AC007200020FC4A56
:1017C00020211154401CC0B2C828FAD370470146EA
:1017D000F74A0020401CC0B2135C8B4201D0C828DD
:1017E000F8D3704710B50021F24C0A22B0FBF2F397
:1017F00002FB13006054491CC9B218460529F5D3F1
:1018000010BDF0B5EC4B0121202719700521E94AE4
:10181000002601E01C7844B1541814F8015C25B985
:10182000814202D904F8017C05E0541814F8015DE6
:10183000303525701E70491E11F0FF01EAD1F0BD50
:1018400070B50D461446002802DAC043401C00B2B1
:10185000FFF7C8FF601CC0B2FFF7D3FF2846FFF7B1
:10186000B6FFFF2819D0D34AD14B0021A14201D2A3
:10187000555C13E004D14FF02E051D54555C03E078
:10188000555C202D03D04CB11E1806F8015C401E9B
:10189000491CC9B2C0B20529E8D370BD1D54F6E792
:1018A000F0B50D461446002801DA404200B2FFF7B9
:1018B00099FF601CC0B2FFF7A4FF2846FFF787FF1F
:1018C000BC4ABB4B002164B9555C202D09D0561889
:1018D0007678202E03D12D261F1807F8016C1D5491
:1018E0000FE0A14201D2555CF9E704D14FF02E057B
:1018F0001D54555C02E0555C202D02D01E1806F8E0
:10190000015C401E491CC9B2C0B20529DBD3F0BD41
:10191000FEB52B23002802DA404200B22D23002519
:101920000A266C4690FBF6F706FB170060556D1C07
:101930006DB238B20A2DF5DB0126002509202027DB
:1019400000E046B114F800C0BCF1000F03D1904292
:1019500001DD275405E0265C3036265400266D1C38
:10196000EDB2401E40B20028EBDA2D2B02D16355B8
:101970006D1CEDB26AB168B205E0231813F8013CA2
:101980002354401E40B29042F7DC2E206D1CA05420
:10199000EDB20846FFF71BFF0021854A04E0635CB7
:1019A000461A491C935549B2A942F8DBFEBDFEB563
:1019B0002B23002801DA40422D2300250A266C46FD
:1019C000074690FBF6F006FB107767556D1C6DB26D
:1019D0000A2DF5DB012600250920202700E046B16D
:1019E00014F800C0BCF1000F03D1904201DD275470
:1019F00005E0265C3036265400266D1CEDB2401EF4
:101A000040B20028EBDA2D2B02D163556D1CEDB2EC
:101A10006AB168B205E0231813F8013C2354401E54
:101A200040B29042F7DC2E206D1CA054EDB2084667
:101A3000FFF7CDFE00215E4A04E0635C461A491CB4
:101A4000935549B2A942F8DBFEBDFEB52B2600280E
:101A500001DA40422D2600240A276D46844690FB79
:101A6000F7F007FB10CC05F804C0641C64B20A2C24
:101A7000F4DB0127002009244FF0200C00E04FB1D7
:101A800015F804E0BEF1000F04D19C4202DD05F818
:101A900004C005E02F5D30372F550027401CC0B231
:101AA000641E64B2002CEADA2D2E02D12E54401CA2
:101AB000C0B26BB144B205E02E1916F8016C2E5578
:101AC000641E64B29C42F7DC2E24401CEC54C0B26D
:101AD00001EB810102EB8101CAB20021344B04E029
:101AE0006C5C561A491C9C5549B28142F8DBFEBD1C
:101AF00070B50D4616461C46FFF774FE601CC0B25A
:101B0000FFF77FFE05EB850006EB8000C1B2294A96
:101B1000274B0020A04201D2155C5D5406D3155C12
:101B2000202D03D04CB15E1806F8015C491E401C04
:101B3000C0B2C9B20528EDD370BD5D54F6E770B5EB
:101B40000446084615461E46FFF741FE184B01465F
:101B5000FF2804D106E01A54641C401CC0B222784D
:101B6000002AF8D115480078002804D0002E02D0B1
:101B700029445F20585470BD2DE9FF4F8146DDE9AF
:101B80000D048A469346FFF722FE2022DFF82C80C0
:101B900007490A234FF0640C012C11D198F800502A
:101BA00075B10D18A5F10E05AA706A702A7028E0AB
:101BB0007A0208200AC20720630000104CC00720E8
:101BC00099FBF3F603FB16970D183037A5F10E05B8
:101BD000022CAF7096FBF3F703FB176606F1300695
:101BE0006E7099FBFCF606F1300605F80E6B08D115
:101BF00098F800602EB1A5F10A05AA706A702A70E3
:101C000021E09AFBF3F603FB16A70D183037A5F178
:101C10000A05032CAF7096FBF3F703FB176606F17A
:101C200030066E709AFBFCF606F13006674605F842
:101C30000A6B08D198F800602EB1A5F10605AA70CC
:101C40006A702A7022E09BFBF3F603FB16B70D18AF
:101C50003037A5F10605042CAF7096FBF3F703FBB4
:101C6000176606F130066E709BFBFCF606F1300637
:101C7000674605F8066B09D198F8004034B1A5F124
:101C800002050A546A702A70BDE8FF8F039C94FB1A
:101C9000F3F203FB124430340C5492FBF3F403FBD5
:101CA00014220844A0F1020030324270039991FBE3
:101CB000F7F101F130010170E6E770B50D46144609
:101CC000FFF790FD601CC0B2FFF79BFD2846FFF7B1
:101CD0007EFDFF4BFF4A002124B95D5C202D01D021
:101CE00015540FE0A14201D25D5CF9E704D14FF039
:101CF0002E0515545D5C02E05D5C202D02D01618A7
:101D000006F8015C401E491CC9B2C0B20529E3D3E4
:101D100070BD17B501EB810002EB8000C2B29DF8E7
:101D20000030ED4803F00F0100EB1313445CE94968
:101D30008C54521ED2B21B788B549DF80130521E27
:101D400003F00F04D2B2045D8C54521E00EB131347
:101D5000D2B21B788B549DF80230521E03F00F0450
:101D6000D2B2045D8C54521E00EB1313D2B21B7816
:101D70008B549DF80330521E03F00F04D2B2045D61
:101D80008C54521E00EB1310D2B2007888541EBD42
:101D900010B504460846FFF71AFDCF4904F00F02BC
:101DA0008B5CCC4A01EB14111354401EC0B209786D
:101DB000115410BD01EB810102EB8101C64A10B53F
:101DC00000F00F03C9B2D45CC24B02EB10105C549C
:101DD000491EC9B20078585410BD01EB810130B5DD
:101DE00002EB8101CBB2C11700EB117424F00F019B
:101DF000401AB949B74A405CD0542011C41700EBCF
:101E0000147424F00F055B1E401BDBB2405CD05401
:101E10002011C41700EB147424F00F055B1E401B47
:101E2000DBB2405CD0545B1ED8B22311C95C1154A4
:101E300030BD01EB810102EB8101CBB2A64910B5A7
:101E400000F001028C5CA34AD45444085B1E04F0E9
:101E50000100DBB2085CD0545B1ED8B2630803F00B
:101E600001045B080C5D1454401E03F00104C0B271
:101E70000C5D14545B08401E03F00104C0B20C5DFD
:101E800014545B08401E03F00104C0B20C5D1454EE
:101E90005B08401E03F00104C0B20C5D1454401EE8
:101EA000C4B25808085C105510BD104400B2002898
:101EB00001DA084402E0884201DB401A00B27047B0
:101EC00086490020087048708870854948707047BE
:101ED000F0B505460E461746FFF770FC7D4C002016
:101EE000401C15F8011BC0B204F8011B1428F7D3DD
:101EF0005FF00000401C16F8011BC0B204F8011B83
:101F00001428F7D35FF00000401C17F8011BC0B283
:101F100004F8011B1428F7D35FF00000401C13F8ED
:101F2000011BC0B204F8011B1428F7D3F0BD30B573
:101F3000044608461546FFF74AFCFF2809D0654AC3
:101F40002178002905D04319641C401CD154C0B22B
:101F5000F6E730BDF0B5634D634F95F9004004EBF3
:101F60008406641C2C705E4C3E44256835602579DF
:101F70003571207061702271A370F0BD10B5029CA4
:101F8000FFF7A6FF5648C378827841784920FFF7CB
:101F9000E1FF642094FBF0F0BDE81040C0B2FFF711
:101FA000B6BB00EB800001EB800050490870504840
:101FB000027070472DE9FE4340010D4600F5806038
:101FC000044602A9FEF7DDFE694604F10800FEF7AB
:101FD000D8FE01A904F10C00FEF7D3FE2846FFF756
:101FE000F6FB3C4C202630252654401CC0B24FF056
:101FF00021082554401CC0B22F2104F80080401C49
:10200000C0B24FF040092154401CC0B24FF0230C25
:1020100004F80090401CC0B200222654401CC0B2FC
:102020002654401CC0B22154401CC0B2212125546A
:10203000401CC0B204F800C0401CC7B29DF80200AA
:10204000FFF73BFE9DF8000000222321FFF735FE3D
:102050009DF80100401E0C2802D301208DF80100DC
:102060009DF801002349002201EB80004021FFF789
:102070005EFFE6557F1CF8B23A212554401CC0B2E1
:10208000002204F80080401CC0B22154401CC0B2A1
:102090002554401CC0B204F80090401CC0B221542A
:1020A000401CC0B221212554401CC0B204F800C01D
:1020B0009DF80400FFF701FE9DF805000022402175
:1020C000FFF7FBFD00229DF80600232114E000002D
:1020D0000AC207207A020820AFC4010034C10720D9
:1020E00078C1072038C00720480208204DC00720CB
:1020F0004EC00720F4C40100FFF7DFFDBDE8FE83FA
:102100002DE9FE4F04460D464FF46060FEF7B0FD2A
:102110006242402100B2FFF7C8FE400100F5806036
:10212000044602A9FEF72DFE694604F10800FEF7F9
:1021300028FE01A904F10C00FEF723FE2846FFF754
:1021400046FB06469DF8080040273025DFF804B519
:10215000DFF804A520244FF0210C4FF02309552867
:1021600020D0CF22D123502873D0422872D05328B8
:1021700071D049286BD1C8210AF80610761CF1B23B
:10218000ED220AF80120491CC9B2E2220AF8012016
:10219000491C9DF809205046C9B2092A7ED2313225
:1021A00042548CE39DF80A0052280ED1C2210AF84D
:1021B0000610761CF1B2EA220AF80120491CC9B2C5
:1021C000EB220AF80120491CCEB250460AF806401C
:1021D000761CF1B20AF80140491CC9B220E300BFE5
:1021E0009DF8012096F838309A4267D19DF8022078
:1021F00096F82C309A42F8D14554491CC9B23A227B
:1022000000F801C0491CC9B24254491CC9B2455426
:10221000491CC9B24754491CC9B24254491CC9B2ED
:1022200000224554491CC9B20AF801909DF80400E7
:102230002121FFF742FD9DF8050000224021FFF714
:102240003CFD9DF8060000222321FFF736FDBDE886
:10225000FE8F0BE033E0B0E29DF80110FF48002252
:1022600000EB81004021FFF762FEF0E70AF806204C
:10227000761CF1B250460AF80130491CC9B20AF87E
:102280000140491CC9B20AF80140491CC9B20AF808
:102290000140491CC9B20AF8014000E0FCE2491CB7
:1022A000C9B27EE29DF8013092F83860B3429CD109
:1022B0009DF8023092F82C2093429DD0BEE29DF80A
:1022C0000A0043287ED1C1210AF80610761CF1B21B
:1022D000E0220AF80120491CC9B2F2220AF80120C2
:1022E000491C9DF80900C9B24FF0C00E09280BD255
:1022F00031300AF80100491CC8B20AF800E0401C5D
:10230000C0B20AF8004016E0A0F109025A2A15D21C
:10231000401C0A23B0FBF3F2904630320AF8012049
:10232000491C03FB1800C9B230300AF80100491CEF
:10233000C8B20AF800E0401CC1B20BE00AF8014044
:10234000491CC9B20AF80140491CC9B20AF8014047
:10235000491CC9B250460AF80140491C9DF80020AA
:10236000BBF83C30C9B25E469A423BD19DF8012091
:1023700096F838309A4235D19DF8022096F82C30E4
:102380009A422FD14554491CC9B23A2200F801C0E3
:10239000491CC9B24254491CC9B24554491CC9B26E
:1023A0004754491CC9B24254491CC9B20022455481
:1023B000491CC9B20AF80190491CCEB29DF804002C
:1023C000212100E045E0FFF778FC9DF805000022A0
:1023D0004021FFF772FC9DF8060000222321FFF741
:1023E0006CFC36E04454491CC9B200224554491CD7
:1023F000C9B200F801C0491CC9B24754491CC9B24E
:102400004454491CC9B24454491CC9B24554491CDE
:10241000C9B20AF80190491CCEB29DF802002121F0
:10242000FFF74BFC9DF8000000222321FFF745FC3D
:102430009DF80100401E0C2802D301208DF80100F8
:102440009DF801108548002200EB81004021FFF734
:102450006EFD9DF80A005A285CD1C2210AF80610C8
:10246000761CF1B2C7220AF80120491CC9B25046B5
:102470000AF80140491CC9B25E460AF80140491CED
:10248000C9B20AF80140491CC9B24454491CC9B236
:102490004454491C9DF80020BBF83C30C9B29A4214
:1024A00039D19DF8012096F838309A4233D19DF801
:1024B000022096F82C309A422DD14554491CC9B2BD
:1024C0003A2200F801C0491CC9B24254491CC9B2A1
:1024D0004554491CC9B24754491CC9B24254491C0D
:1024E000C9B200224554491CC9B20AF80190491CDE
:1024F000CEB29DF804002121FFF7DFFB9DF8050017
:1025000000224021FFF7D9FB9DF80600002223217D
:10251000FFF7D3FB36E04454491CC9B200224554AE
:10252000491CC9B200F801C0491CC9B24754491C32
:10253000C9B24454491CC9B24454491CC9B2455497
:10254000491CC9B20AF80190491CCEB29DF802009C
:102550002121FFF7B2FB9DF8000000222321FFF7A5
:10256000ACFB9DF80100401E0C2802D301208DF821
:1025700001009DF801103948002200EB8100402144
:10258000FFF7D5FC9DF80A00572869D1C1210AF848
:102590000610761CF1B2E0220AF80120491CC9B2EB
:1025A000F2220AF80120491CCEB29DF809105046CB
:1025B0004FF0F00E092906D231318155761CF1B267
:1025C00000F801E019E0A1F109025A2A11D2491CD0
:1025D0000A23B1FBF3F2904630328255761C03FB9E
:1025E0001811F6B230318155761CF1B200F801E0D5
:1025F00006E08455761CF1B24454491CC9B24454D7
:10260000491CC9B25E464454491C9DF80020BBF8E1
:102610003C30C9B29A4241D19DF8012096F8383039
:102620009A423BD19DF8022096F82C309A4235D13F
:102630004554491CC9B23A2200F801C0491CC9B22C
:102640004254491CC9B24554491CC9B24754491C9B
:10265000C9B206E0004002407A020820F4C401003A
:1026600053E04254491CC9B200224554491CC9B226
:102670000AF80190491CCEB29DF804002121FFF711
:102680001CFB9DF8050000224021FFF716FB9DF87A
:10269000060000222321FFF710FB36E04454491CBA
:1026A000C9B200224554491CC9B200F801C0491CF6
:1026B000C9B24754491CC9B24454491CC9B2445414
:1026C000491CC9B24554491CC9B20AF80190491CB9
:1026D000CEB29DF802002121FFF7EFFA9DF800002D
:1026E00000222321FFF7E9FA9DF80100401E0C2883
:1026F00002D301208DF801009DF801109F480022AF
:1027000000EB81004021FFF712FC9DF80A004B28E6
:102710007FF4ABADC1210AF80610761CF1B2E022BD
:102720000AF80120491CC9B2F2220AF80120491C0A
:102730009DF80900C9B209280BD231300AF801000E
:10274000491CC8B2EA210AF80010401CC0B2E521B9
:1027500015E0A0F109025A2A16D2401C0A23B0FB48
:10276000F3F2904630320AF80120491C03FB1800AE
:10277000C9B230300AF80100491CC8B2EA210AF88F
:102780000010401CC1B20BE00AF80140491CC9B25C
:102790000AF80140491CC9B20AF80140491CC9B2F3
:1027A00050465A464454491C9DF80030BBF83C60E2
:1027B000C9B2B3423FF476AD40E0C1210AF8061039
:1027C000761CF1B20AF80120491CC9B20AF801309E
:1027D000491CC8B29DF80910092903D231310AF801
:1027E000001016E0A1F109025A2A10D2491C4FF03C
:1027F0000A08B1FBF8F606F130020AF80020401C86
:1028000008FB1611C0B230310AF8001005E00AF8D2
:102810000040401CC0B20AF80040401CC1B2504603
:102820005E464454491CC9B24454491C9DF80020DA
:10283000BBF83C30C9B29A423FF4D2AC4454491C74
:10284000C9B200224554491CC9B200F801C0491C54
:10285000C9B24754491CC9B24454491CC9B2445472
:10286000491CC9B24554491CC9B20AF801909DF8E7
:1028700002002121FFF721FA9DF800000022232108
:10288000FFF71BFA9DF80100401E0C28FFF4E4AC92
:1028900001208DF80100DFE4A2F109035A2B0DD2CB
:1028A000521C0A25B2FBF5F303F130064654491CCD
:1028B00005FB1322C9B23032425403E04454491C90
:1028C000C9B24454491CC9B20AF80140BFE42C4BB8
:1028D0001A78521E104440B21870002801DA002005
:1028E000187093F90000274A00EB80000244264844
:1028F0001368036012790271427811444170704785
:1029000030B521490123214D91F9012091F904109D
:1029100000EB80048A4202D105F8243030BD1B4D03
:102920004C1C00EB800005EB8000A24201D1037536
:1029300030BD8C1CA24202D180F8283030BDCC1CA6
:10294000A24202D180F83C3030BD0C1DA24202D11F
:1029500080F8503030BD4C1DA24202D180F8643066
:1029600030BD8C1DA24202D180F8783030BDC91D27
:102970008A42FBD180F88C3030BD0000F4C40100E5
:1029800038C007204802082078C107207A020820B2
:1029900090F900308B4200DA027090F900309342D7
:1029A00000DD0170704790F900308B4200DA017051
:1029B00090F90010914200DD02707047B0F90030CC
:1029C0008B4200DA0180B0F90010914200DD0280F4
:1029D0007047B0F900308B4200DA0280B0F9003065
:1029E000934200DD0180704703688B4200DA026089
:1029F0000368934200DD0160704700002DE9F84F45
:102A00009E460A9B202931D2CC1701EB5475EC105D
:102A100026466FF03C077C4325F0070500EB440495
:102A20004D1BDFF84CA704F5B774002A34D0A0B2D0
:102A3000C5F10701C9B24FF0010404FA01F40244E0
:102A4000514611DC25E023B1012B05D0022B06D025
:102A500008E00D5C254304E00D5C654001E00D5C81
:102A600025400D54401C80B28242ECDCBDE8F88F5A
:102A700023B1012B05D0022B06D008E00D5C2543C5
:102A800004E00D5C654001E00D5C25400D54401EE6
:102A900080B28242ECDBE9E7BEF1000FE6D0B2B2D1
:102AA00001EB0E064FEAE67406EB5477ADB2A94689
:102AB00027F00705C7F3CF04A6EB0505AFB277DD16
:102AC000A24244D1C8463FE023B1012B13D0022BD0
:102AD00024D035E0C2F1030101EB4105C5EB8111C2
:102AE00000EB4106C8F1070C1AF80610012505FA9B
:102AF0000CF529430FE0C2F1030101EB4105C5EBE1
:102B0000811100EB4106C8F1070C1AF806100125E7
:102B100005FA0CF569400AF8061011E0C2F103014C
:102B200001EB4105C5EB811100EB4105C8F1070C34
:102B30001AF80560012101FA0CF18E430AF80560CC
:102B400008F101081FFA88F8B845BDD38CE0CD170D
:102B500001EB557CCCF3CF05C5F1030505EB45062C
:102B6000C6EB851500EB45082CF007054E1BFF252D
:102B7000F5407144CE1701EB56760096C6F3CF06AA
:102B8000C6F1030606EB460CCCEB861600EB4606B8
:102B9000B346009E26F00706891B89B2C1F10806DC
:102BA000FF21B1402BB1012B0ED0022B19D023E015
:102BB0005EE01AF808C04CEA050C0AF808C01AF8DA
:102BC0000BC04CEA010C09E01AF808C08CEA050CAD
:102BD0000AF808C01AF80BC08CEA010C0AF80BC0FE
:102BE0000AE01AF808C02CEA050C0AF808C01AF81E
:102BF0000B608E430AF80B60A11A01297FF74BAFD7
:102C0000511C1FFA81FC2DE023B1012B0DD0022BAA
:102C100019D023E0CCF1030101EB4105C5EB811193
:102C200000EB41054FF0FF360AE0CCF1030101EB68
:102C30004105C5EB811100EB41051AF80560F6432B
:102C40000AF805600AE0CCF1030505EB4506C6EB82
:102C5000851500EB450600210AF806100CF1010C61
:102C60001FFA8CFCA445CFD3BEF1000FBFF613AF03
:102C7000A24240D1A9F1010139E023B1012B12D0C8
:102C8000022B22D032E0C2F1030404EB4405C5EB71
:102C9000841400EB440CC1F107061AF80C4001251E
:102CA000B5402C430EE0C2F1030404EB4405C5EB30
:102CB000841400EB440CC1F107061AF80C400125FE
:102CC000B5406C400AF80C4010E0C2F1030404EB7C
:102CD0004405C5EB841400EB440CC1F107061AF857
:102CE0000C500124B440A5430AF80C50491E89B287
:102CF000B942C2D2BAE623B1012B26D0022B43D06F
:102D000062E0C2F1030101EB4105C5EB811100EB6B
:102D1000410CC9F108061AF80C504FF0FF0909FAE6
:102D200006F10D430AF80C50C4F1030101EB410513
:102D3000C5EB811100EB410129FA07F91AF801509E
:102D400045EA09050AF801503EE0C2F1030101EB32
:102D50004105C5EB811100EB410CC9F108061AF8D9
:102D60000C50FF2101FA06F675400AF80C50C4F128
:102D7000030505EB4506C6EB851500EB4505F94057
:102D80001AF805604E401DE0C2F1030101EB410558
:102D9000C5EB811100EB410CC9F108061AF80C5083
:102DA000FF2101FA06F6B5430AF80C50C4F10305F9
:102DB00005EB4506C6EB851500EB4505F9401AF80D
:102DC00005608E430AF80560111B012992DD521E31
:102DD00091B22BE023B1012B0DD0022B19D023E0AF
:102DE000C1F1030202EB4205C5EB821200EB420582
:102DF0004FF0FF360AE0C1F1030202EB4205C5EBDA
:102E0000821200EB42051AF80560F6430AF80560E5
:102E10000AE0C1F1030505EB4506C6EB851500EB9D
:102E2000450600220AF80620491E89B2A142D1D8DF
:102E30001CE62DE9F8470446DDE9090517468A46F0
:102E40009946E61948B90CE04B4600225146204607
:102E50000095FFF7D3FD641C24B2A642F4DABDE866
:102E6000F887002220460095FFF7C8FD0AEB09000D
:102E70008046401E01B200233A4620460095FFF7E7
:102E8000BDFD761EC9F1000034B203B20FFA88F11D
:102E9000002220460095FFF7B1FD784202B20023E0
:102EA000514620460095FFF7A9FDD8E72DE9F843E4
:102EB00081460E461D46002022B1022A1AD1002466
:102EC00080462CE00024804612E03719621B002364
:102ED00039464846CDF80080FFF790FD2A1B0023B5
:102EE00039464846CDF80080FFF788FD641CE4B2FF
:102EF000AC42EAD3BDE8F883371B621B0023394696
:102F00004846CDF80080FFF779FD2A1B002339469B
:102F10004846CDF80080FFF771FD641CE4B2AC4276
:102F2000EAD3E7E72DE9F8474FF0FF35C3F1200377
:102F30009D4005EA020323FA01F200929DF8021077
:102F4000DFF82C8289469DF80310099C8A4608EB1D
:102F500000019DF800709DF801C018F8002091F85C
:102F60007A3091F8F45091F86E6184B17A4008F8A3
:102F7000002083EA0C0381F87A3085EA090581F89C
:102F8000F45086EA0A0600BF81F86E6167E73A43AB
:102F900008F8002043EA0C0381F87A3045EA090575
:102FA00081F8F45046EA0A06EEE72DE9FC4F0746A1
:102FB0000CA88A46B0E8100316469B4600251CE084
:102FC00005FB0480611E5B46415C8DF80710A11E65
:102FD000415C8DF80610E11E415C8DF80510211F43
:102FE000405C8DF80400781900B2CDF8009051468D
:102FF000019AFFF797FF6D1C2DB2B542E0DBBDE8EB
:10300000FC8F2DE9FF4F9AB08346DDE928592B2428
:103010000020DDF89CC0202614A90E54401C00B2EC
:103020000A28FADB00208A4604E0175C0AF80070E0
:10303000401C00B29842F8DBBCF1000F04DACCF17E
:1030400000000FFA80FC2D2400204FF00A0811AF79
:103050009CFBF8F108FB11C23A54401C40B20FFA35
:1030600081FC0A28F4DB01220020092100E042B1A2
:1030700017F801C0BCF1000F03D1A94201DD7E5455
:1030800005E07A5C30327A540022401CC0B2491EFE
:1030900049B20029EBDA2D2C02D13C54401CC0B2BD
:1030A0006DB141B205E07A1812F8012C7A54491E2C
:1030B00049B2A942F7DC2E21401C7955C0B200214B
:1030C000D44607E0A9EB01057A5C6544491C05F884
:1030D000012C49B28142F5DB2D2C06D1A9EB010070
:1030E00060445B1C00F8014C1BB2002002AD1AE0EA
:1030F0001CF800101F4F01EB410600EB400217F8CF
:10310000161005F8121007EB460105EB42024E7847
:1031100056708E789670CE78D6700E791671497981
:10312000401C517100B29842E2DB2D2C06D1A9EB74
:10313000000050445B1C00F8014C1BB2002403EB60
:1031400043060EE0285D8DF863002A9800900BEB93
:10315000040000B20823189A1B99FFF7E3FE641CD1
:1031600024B2B4EB460FEDDB1EB0BDE8F08F0000DB
:1031700042030820AFBE0100002801DA404200B23D
:10318000704710B5FF48016821F0E06101604168B7
:10319000C1F30B12FC4901F17E044A800B885B1CD1
:1031A0000B80A1F1F803D97F24F81120491CC9B282
:1031B000D977032903D2016841F08071016010BD05
:1031C00010B54FF40270FDF753FDF04C207040F243
:1031D0000A20FDF74DFD60704FF40370FDF748FDC8
:1031E000A07040F20E20FDF743FDE0704FF4047034
:1031F000FDF73EFD207240F21220FDF739FD6072AE
:103200004FF40570FDF734FDA07240F21620FDF773
:103210002FFDE0724FF41170FDF72AFD207140F28E
:103220004620FDF725FD60714FF41270FDF720FD7B
:10323000A07140F24A20FDF71BFDE07110BDD24A9B
:103240000832D16BD36B5B1A8342FBD37047D049F2
:10325000112008727047CF48C16941F44021C16113
:10326000C16941F44011C161CB480021C1604FF4F4
:103270004061C164022141614FF47A7282614FF46E
:10328000487202624FF49672426201220265416006
:10329000092141607047BC490120F83981F83200AA
:1032A00070472DE9F04F0020BC4A85B04FF4F4710F
:1032B00004461454401C00B28842FADBB248F83885
:1032C000417871B100214FF0140C7A2301FB03F017
:1032D00001EB81039B0001EB81041BB20CEB840426
:1032E0006AE2804690F820004FF00205C0074FF0D8
:1032F00003061BD098F81400002816D0A8483227DF
:10330000CDE90204CDE90076032118233A460846A8
:10331000FFF74BFEA348CDE90204CDE90076032177
:10332000182332220846FFF740FEB8E0B8F96800DB
:10333000DFF85492DFF870A20F27DFF870B2A9F11E
:103340000C09012853DB1423002100941A46084677
:103350000194FFF76EFD1223012100941A460846DE
:103360000194FFF766FD99F8000010F03C0F0BD0B8
:10337000C10611D598F81400F0B10F23CDE902A4CD
:1033800002211A46032013E08948CDE902040F23E5
:1033900002211A4603200BE010F00C0F0CD098F815
:1033A000140048B10F23CDE902B402211A460846A1
:1033B000CDE90075FFF7F9FD7E484069C00516D4D8
:1033C0000B230022142109200094FFF717FB002390
:1033D0005B221F2109200094FFF710FB98F80500DD
:1033E00004231330C1B200220920FFF75FFDB8F9B2
:1033F0006800022853DB142300941A46002117208A
:103400000194FFF716FD122300941A46012118209B
:103410000194FFF70EFD99F8010010F03C0F0BD05E
:10342000C10611D598F81400F0B10F23CDE902A41C
:1034300002211A46192013E05F48CDE902040F2348
:1034400002211A4619200BE010F00C0F0CD098F84E
:10345000140048B10F23CDE902B402211A46192005
:10346000CDE90075FFF7A1FD52484069800516D4EB
:103470000B230022142120200094FFF7BFFA002321
:1034800044221F2120200094FFF7B8FA98F8050085
:1034900004231330C1B200222020FFF707FDB8F843
:1034A0006600DFF8E4A0C1464FF00A0B4FF00108B8
:1034B000AAF1780A00282CD000941423232200219A
:1034C00032200194FFF7B5FC00940223032214215B
:1034D00035200194FFF7ADFC009402230322142150
:1034E0004F200194FFF7A5FC99F820004F46800774
:1034F00010D599F8140000280BD032212948CDE9C5
:103500000016CDE902040A46182300212B20FFF7FC
:103510004CFD88E00B230022142142200094FFF789
:103520006DFA002322221F2142200094FFF766FA41
:10353000BAF96800002805DA7879042300221330EC
:10354000C1B205E078790423C0F12200C1B20222A1
:103550004220FFF7ABFC387A0A287ED2B7F96E001A
:10356000A0F5AA4155395ED097F92100052190FBBD
:10357000F1F0ADF81000B9461422002104A8FFF7BD
:103580001DFA1BE00040034030C10720D412082080
:103590000040024000C00240008001404203082079
:1035A0000BBD0100A1BD010073BE010091BE010071
:1035B00037BE010000C0092055BE0100CDE90084DE
:1035C0004746BDF91030202200213320FFF731FC9F
:1035D00099F921000A2811DACDE9007509230C2296
:1035E00005213D20FFF725FC99F9210002238DE8F4
:1035F00091000521FEA23D20039712E064284FF0C0
:1036000009035EDACDE90075122205213A20FFF7A1
:1036100010FC99F9210003238DE8B100F5A20521E2
:103620007BE0FFF7EEFC00940E231B2202215C20BE
:103630000194FFF7FEFB00231A1F08215C20009471
:10364000FFF7DCF900230422082176200094FFF71D
:10365000D5F9002327221F2100E042E043200094F7
:10366000FFF7CCF96FF00F0300221F2169200094AF
:10367000FFF7C4F999F807004D46C0F12200C1B226
:10368000042302226920FFF711FC4746BAF97200B1
:103690000421CDE90007CDE90217D0460523D6A2C3
:1036A00016214620FFF7ADFCB8F97000642836DA21
:1036B000CDE9000704230521D1A25D20CDE90267F1
:1036C00036E0CDE90075182205213720FFF7B1FB60
:1036D00099F9210004238DE8D1000521CAA23720E1
:1036E0009FE7BAF96800B0F57A7F02DA10F57A7FC1
:1036F00009DC642190FBF1F000B28DE85101042354
:10370000BFA2052109E090FBFBF001B2CDE9001852
:10371000CDE902680423BAA205213A2081E790FB93
:10372000FBF000B28DE8D1000423B5A205215A2098
:10373000FFF767FC2879401CC0B2287103281CD30E
:103740002C716879401CC0B268710D2800D36C716F
:10375000A879401CC0B2A871202800D3AC71E879C8
:10376000401CC0B2E871112800D3EC71287A401CCB
:10377000C0B22872142800D32C7205B0BDE8F08FB7
:10378000A34DA44FED5C05EB450517F815601654E5
:1037900007EB4505401C6E781654401CAE78165455
:1037A000401CEE781654401C2E791654401C6D793E
:1037B0001554401C5B1C1BB29C42E1DC491C09B245
:1037C0000429FFF682ADD8E72DE9F04F924AC9B03F
:1037D0000521127800200124914620AE052A03D04D
:1037E000B9F1210F02D005E08CA000E091A020905B
:1037F00001200621954F97F82020D30708D094A3E5
:1038000046F8203000F1010001F10101C0B2C9B257
:10381000930706D594A346F82030401C491CC0B23B
:10382000C9B28A4BEC331D7815F01C0F06D094A555
:1038300046F82050401C491CC0B2C9B2834BEC333F
:103840005B7813F01C0F06D093A346F82030401C81
:10385000491CC0B2C9B2964B1D786533012DB3F92E
:10386000003002D0022D03D00AE04BB991A301E051
:1038700033B996A346F82030401C491CC0B2C9B2E7
:103880008B4B9B1D1D78552D0AD103F18F052D887B
:1038900035B994A546F82050401C491CC0B2C9B2A5
:1038A0005B78552B08D1824B95335B8823B993A362
:1038B000491C46F82030C9B2B87ABA46401CC0B29A
:1038C000B87214280CD300238AF80A309AF80950E9
:1038D0006D1CEDB28AF809508D4201D38AF8093087
:1038E000DFF8CC810DF1080B08F13B08414698F850
:1038F000000091F901102A2876D04346002893F958
:10390000045072D0514B042893F814C06ED0464630
:1039100096F9043096F9017096F90260FB1AB646E2
:10392000052864D0112801F046804646022801F09F
:10393000578042465278921E4FFA82FC0C2801F0C2
:103940005482142801F06E82102801F07C82152820
:1039500001F09A82422801F0AC82452801F01E83D2
:10396000C146462801F083836A4A514E12883B368D
:1039700092B29046354A96F904603528B2F974201F
:103980000BEB860602F0B6814F46372802F08C8496
:10399000032802F0E7852D4A252892F8139003F0BA
:1039A0002080567E282803F04F8002F5A072B8468A
:1039B0005278521E57B2292803F0CC8042461A286A
:1039C00003F01683DFF850811F2803F06C83202852
:1039D00003F0A083212803F0C783222803F00E847C
:1039E000232803F0548499E0FEE0FEE3FEE3FEE3C7
:1039F000202500002020250020202020420000005B
:103A00002020204100000000202020250000000090
:103A10007A020820AFBE0100B700001020C2FBF000
:103A2000E0E2ED2EE7E0F0FFE420207A3A305A2081
:103A3000000000002020CAEEEDF2F0EEEBFC20E5E5
:103A4000ECEAEEF1F2E820200000000038C0072088
:103A5000202020C0E2E0F0E8FF20F1E5F2E821219B
:103A6000212020200000000020C0E2E0F0E8FF203C
:103A7000E1E0F2E0F0E5E821212120200000000053
:103A800020C0E2E0F0E8FF20E8F1F2EEF7EDE8EA2E
:103A9000E0204E310000000020C0E2E0F0E8FF200E
:103AA000E8F1F2EEF7EDE8EAE0204E320000000027
:103AB0003DC10720C2EDE5F82EF2E5ECEF2E4E31C8
:103AC000E7E0E2FBF8E5EDE000000000C2EDE5F81C
:103AD0002EF2E5ECEF2E4E31E7E0EDE8E6E5EDE025
:103AE0000000000020D1F0E0E1EEF2E0EB20F8EB86
:103AF000E5E9F4204E3120200000000020D1F0E064
:103B0000E1EEF2E0EB20F8EBE5E9F4204E32202084
:103B100000000000F426040032090820172803F0F2
:103B20002B843F2803F0A0859046472803F0BF85EB
:103B3000DFF84884402804F01B81412804F0B78155
:103B4000272804F01A830A2804F01C831C2804F098
:103B50003A831B2804F0A58316461E2804F05E84D1
:103B60001D2804F07D84382804F0E685A8F5BE728F
:103B70002B28D27E04F033862C2804F07C86B046B5
:103B8000FF4ADFF80094B2F93C20561EB44609F112
:103B90000106392804F09A863A2804F0BD863B28AD
:103BA00004F076873C2805F08A803D2805F03B81AB
:103BB00046463E2805F07D81072805F03682082814
:103BC000FBD01228F9D01328F7D03628F5D01928C1
:103BD000F3D0092805F04F822D2805F051824A289C
:103BE00005F0558205F030BBE74CA9B9E7A002907B
:103BF000ECA00390EBA00490EAA002AD0346059070
:103C000007CDFEF765F9002221214FF47D70FEF704
:103C100054F898F8010090B198F90100012862D099
:103C200002287DD003287CD04FF48064042879D00A
:103C3000052878D0062877D0072876D0D2E7D9A3F0
:103C4000D8A2D8A1D7A0FEF743F9002320880322E9
:103C50001946FDF74DFF6088002303220121FDF77F
:103C600047FFA088002303220221FDF741FF032222
:103C7000E08800231146FDF73BFF0023208909223D
:103C80001946FDF735FF6089002309220121FDF760
:103C90002FFFA089002309220221FDF729FFE089D7
:103CA000002309220321FDF723FF208A002313228A
:103CB0000121FDF71DFF608A002313220321FDF778
:103CC00017FFAE4C0023A41F0F2220881946FDF7D2
:103CD0000FFF208800230F220121FDF709FF002399
:103CE00020880F221FE3AFA3AEA2AEA1ADA0FEF7C6
:103CF000EFF898F90200002380B21A461946FDF742
:103D0000F7FEA04C98F90200403404EB4010002369
:103D1000008804221946FDF7EBFE98F9020005E041
:103D200096E0C1E0CBE07EE12DE2D1E204EB401071
:103D30000023408804220121FDF7DAFE98F90200F1
:103D4000002304EB4010042280880221FDF7D0FEFE
:103D500098F90200002304EB40100422C0880321DC
:103D6000FDF7C6FE98F90200002304EB401009227B
:103D700000891946FDF7BCFE98F90200002304EB08
:103D80004010092240890121FDF7B2FE98F9020096
:103D9000002304EB4010092280890221FDF7A8FED0
:103DA00098F90200002304EB40100922C089032186
:103DB000FDF79EFE98F90200002304EB40100E224E
:103DC000008A1946FDF794FE98F90200002304EBDF
:103DD00040100E22408A0121FDF78AFE98F9020068
:103DE000002304EB40100E22808A0221FDF780FEA2
:103DF00098F90200002304EB40100E22C08A032130
:103E0000FDF776FE98F90200002304EB4010132220
:103E1000008B1946FDF76CFE98F90200002304EBB5
:103E200040101322408B0121FDF762FE98F9020039
:103E3000002304EB40101322808B0221FDF758FE73
:103E400098F90200002304EB40101322C08B29E0F4
:103E500054A354A253A153A0FEF73AF898F90200D4
:103E6000002380B21A461946FDF742FE98F9020077
:103E70000023042234F810000121FDF739FE4249E5
:103E800098F902001831002331F8100004220221B1
:103E9000FDF72EFE394998F902002E31002331F842
:103EA0001000042203213FE23EA33EA23DA13DA01B
:103EB000FEF70EF800231A461946092034E239A30A
:103EC00038A238A137A0FEF703F84FF460663046F9
:103ED000FCF7CEFE05463046FCF7CAFE04EB401464
:103EE0002046FCF78AFEC0B203220021FDF762FFE4
:103EF000601CFCF782FEC0B206220021FDF75AFFCB
:103F0000A01CFCF77AFEC0B209220021FDF752FF87
:103F1000E01CFCF772FEC0B20C220021FDF74AFF44
:103F2000201DFCF76AFEC0B20F220021FDF742FF00
:103F3000601DFCF762FEC0B212220021FDF73AFFBD
:103F4000A01DFCF75AFEC0B203220121FDF732FF8B
:103F5000E01DFCF752FEC0B206220121FDF72AFF48
:103F600004F10800FCF749FEC0B209220121FDF767
:103F700021FF04F10900FCF740FE1FE0B4C1072057
:103F800038C00720420708200209082020202D2DD4
:103F90002D2D2D2D2D2D20202021202020202020D2
:103FA0000000000020202020202020202020202091
:103FB000202020202020202000000000C0B20C2261
:103FC0000121FDF7F7FE04F10A00FCF716FEC0B26E
:103FD0000F220121FDF7EEFE04F10B00FCF70DFEB0
:103FE000C0B212220121FDF7E5FE04F10C00FCF73E
:103FF00004FEC0B203220221FDF7DCFE04F10D0035
:10400000FCF7FBFDC0B206220221FDF7D3FE04F14E
:104010000E00FCF7F2FDC0B209220221FDF7CAFE34
:1040200004F10F009DE0AFF28403AFF28802AFF21B
:104030008C01AFF29000FDF74BFF4FF46066304605
:10404000FCF716FE05463046FCF712FE04EB401462
:1040500004F11000FCF7D1FDC0B203220021FDF7EE
:10406000A9FE04F11100FCF7C8FDC0B20622002130
:10407000FDF7A0FE04F11200FCF7BFFDC0B209225B
:104080000021FDF797FE04F11300FCF7B6FDC0B266
:104090000C220021FDF78EFE04F11400FCF7ADFDAB
:1040A000C0B20F220021FDF785FE04F11500FCF7D8
:1040B000A4FDC0B212220021FDF77CFE04F116001F
:1040C000FCF79BFDC0B203220121FDF773FE04F152
:1040D0001700FCF792FDC0B206220121FDF76AFE2F
:1040E00004F11800FCF789FDC0B209220121FDF797
:1040F00061FE04F11900FCF780FDC0B20C22012121
:10410000FDF758FE04F11A00FCF777FDC0B20F224C
:104110000121FDF74FFE04F11B00FCF76EFDC0B25C
:1041200012220121FDF746FE04F11C00FCF765FD9B
:10413000C0B203220221FDF73DFE04F11D00FCF791
:104140005CFDC0B206220221FDF734FE04F11E0020
:10415000FCF753FDC0B209220221FDF72BFE04F14A
:104160001F00FCF74AFDC0B20C220221FDF722FE1F
:1041700000230A220321A8B2FDF7BAFC0023122271
:104180000321A0B21FE3E1A00290E6A00390EBA000
:104190000490F0A00590F5A00690FAA00790FFA06B
:1041A000089098F904000BEB8001091D5BF82000D2
:1041B0000EC9FDF78DFEFF4802223F21B0F96800CD
:1041C000FDF7A6FBFC4D68690022C0F30020242106
:1041D000FDF773FDF74C23216C342078FDF7D8FDF3
:1041E00068690022C0F3402002E09EE0EFE25AE35B
:1041F0004021FDF762FD60782121FDF7C9FD3C34C7
:10420000002220884A21FDF758FD608800226A219B
:10421000FDF753FDE94C002259212078FDF74DFDB3
:10422000607800227921FDF748FDE54C00226821E5
:10423000206880B2FDF741FDE24800226D21006850
:1042400080B2FDF73AFDE04E002251213088FDF7A3
:1042500034FDDE4D002271212888FDF72EFD708887
:1042600000225A21FDF729FD688800227A21FDF7F6
:1042700024FDD74E002241213078FDF71EFDD54D9B
:10428000002261212878FDF718FD70780022422174
:10429000FDF713FD687800226221FDF70EFD20680E
:1042A000002280B24321FDF708FD6068002280B241
:1042B0004421FDF702FDC84C00226321206880B232
:1042C000FDF7FBFC6068002280B2642104F0AABE06
:1042D000C24B1A4611460846FDF7FAFDC04C20783D
:1042E0004FF000034FF006021946FDF701FC0023D2
:1042F000062201219AF81A00FDF7FAFB6820FCF764
:10430000B7FC80B2002306220221FDF7F1FBA08852
:10431000002310221946FDF7EBFB6A20FCF7A8FCEE
:10432000002380B2102202214DE2AEA00290A148EB
:10433000A830B0F90020B0F90200C82A05DDC8286D
:1043400001DDAEA00BE0B3A009E0C82801DDB7A0F5
:1043500005E09848B0F96600C82801DDB9A00290D0
:10436000BEA00390C3A00490C8A00590CDA0069065
:10437000D2A00790D7A00890DCA00990E1A00A90F5
:10438000E6A00B90EBA00C90F0A00D90F5A00E9085
:10439000FAA00F90FFA0109090481530119021B115
:1043A000681A022805DD891C05E0002088F8040051
:1043B00003E0A94201DD88F804109AF80900554687
:1043C000052807D298F904100BEB8100001D0EC8D8
:1043D000029809E098F9042006EB80000BEB8201BB
:1043E000091D50F8140C0EC9FDF772FD98F9040070
:1043F000A0B198F9011089B1884203D1EB4880F847
:104400003C400BE0401A012802D0022804D005E00D
:10441000E64880F8284001E0E4480475654C012234
:1044200066346C21208880B2FDF747FC02224021CF
:10443000B4F90200FDF76CFAA0890122232180B2B1
:10444000FDF73BFC60890122242180B2FDF735FC99
:10445000D74C20784FF000024FF02601FDF72DFCDD
:10446000207900225E21FDF728FC207A00222521F8
:10447000FDF723FC207B00223C21FDF71EFC217E62
:10448000564800222A3000EB81003E21FDF74FFD07
:10449000A08B00227B21FDF710FC287D68B13A201B
:1044A000FDF795F9C14C202525543A20FDF78FF9E9
:1044B00025543A20FDF78BF92554BE4C4FF4616129
:1044C00000222068B0FBF1F080B27A21FDF7F5FB05
:1044D00021683C20B1FBF0F1B1FBF0F200FB1210BF
:1044E00000225A21FDF7E9FBB348002302221946B6
:1044F0000088FDF7FDFAB14800230922006819463B
:1045000080B2FDF7F5FA0023132259E12020202084
:104510003F20202020202020202420232040202154
:10452000000000002020202020202020202020200B
:104530002020204A2020206A000000002020202087
:1045400020202020202020202020205920202079D9
:1045500000000000202020682020206D2020202046
:1045600020512071205A207A000000002020207362
:1045700020202053202020202020204320202044C1
:10458000000000002020206620202046202020203F
:104590002020206320202064000000002020202014
:1045A0002020202020202020204120612042206245
:1045B00000000000B8C0072000C00920D40000108F
:1045C0000C01001050C20720F8000010F400001089
:1045D000A6000010A800001014010010CAC40100B9
:1045E000384002402020CDE5EEEFF0E5E4E5EBE5D4
:1045F000EDEDEEF1F2FC20200000000020C220F0E2
:10460000E0E1EEF2E520C1CFD1312CC1CFD1322093
:104610000000000020202020C220F0E0E1EEF2E5C2
:1046200020C1CFD1312020200000000020202020F8
:10463000C220F0E0E1EEF2E520C1CFD1322020200F
:10464000000000002020D0E0E1EEF2E020EEF220B9
:10465000E1E0F2E0F0E5E820000000002055E13D57
:104660002020206CC22049E13D2020202040C02095
:10467000000000002055ED3D20202023C22049ED00
:104680003D2020202024C020000000002030253ABA
:10469000305E3A302620303C2F3E20202F307B20C9
:1046A0000000000020C1E0F2E0F0E5FF2020202023
:1046B00020202020202020200000000020C1CFD179
:1046C00031202020202020202020202020202020D9
:1046D0000000000020C1CFD1322020202020202047
:1046E00020202020202020200000000020CDE0E31A
:1046F000F0F3E7EAE02020202020202020202020C6
:104700000000000020D1E5F2FC2020202020202005
:1047100020202020202020200000000020D1EFE5D4
:10472000F6F4F3EDEAF6E8E820202020202020200F
:104730000000000020C6F3F0EDE0EB20F1EEE1FB1D
:10474000F2E8E920202020200000000020C1E0F253
:10475000E0F0E5E9EDFBE920E6F3F0EDE0EB202009
:104760000000000020C2E5F0F1E8FF20CFCE2020BD
:1047700020202020202020200000000020D3F1F263
:10478000E0EDEEE2EAE8202020202020202020207A
:104790000000000020D1E1F0EEF120E0E2E0F0E8DE
:1047A000E920202020202020000000007A0208209C
:1047B00020400240FC000010BE210010D821001053
:1047C000964819460088FDF793F904F03DBDBAF804
:1047D0006600554650B1900711D5914BBCF1000FC2
:1047E00009D090A295A19BA004F04EBC9FA3A5A2C6
:1047F000AAA1B0A0F8E78A4A11460846F4E7B3A098
:104800000290B848007850B1B7A00390BCA00590C2
:10481000C1A0049095F8240028B1C5A004E0CAA066
:104820000390CFA0F3E7D4A00690D9A00790DEA014
:1048300008907B48153009900BEB8100001D0EC8D5
:10484000A2A0FDF745FBDE4E01224021708880B218
:10485000FDF733FA02222121B6F90400FDF758F8DA
:1048600030880022242180B2FDF727FA95F9210033
:104870000022772180B2FDF720FAB5F96E00A0F58D
:10488000AA41553905D14A1E5121CEA0FDF74FFB53
:1048900004E00122512180B2FDF70FFA98F80100DF
:1048A00004287ED091E7C94840692EB1C0F340206A
:1048B000BEF1010F03D006E0C0F3002003E0BAF818
:1048C0006860012E02D048B1C1A008E0CCA20292DB
:1048D000D1A20392524AC4A004922BE0D4A0D207E2
:1048E00001D0D9A213E0B64A083212F80E20D6063B
:1048F00001D5DBA20BE0160701D5DFA207E05607C2
:1049000001D5E3A203E012F03C0F0CD0E6A2029224
:10491000EBA2AB4E0392F0A20A36049216F80E20D8
:104920001AB1F3A202E0F8A2F1E7FDA205923C4A17
:1049300015320692002B01DCA94201DA88F8041036
:1049400098F904100BEB8102121D5BF821100CCAC0
:10495000FDF7BEFA98F902000022401C80B2212126
:10496000FDF7ABF9964898F902104430012230F86F
:1049700011004021FDF7A1F9914898F90210483043
:10498000012230F811002321FDF797F98C4898F99E
:1049900002104030002230F811002421FDF78DF97B
:1049A00000E004E098F80100022844F04D84E24859
:1049B00080F83C4009E7E1A3E6A2ECA1F1A0FDF7F5
:1049C00087FADD480122212180F83C407C4C0C34E0
:1049D000608880B2FDF771F90122402103F06EBDBD
:1049E0005546D00718D0BCF1000F01D0EBA000E075
:1049F0000B48D2A3EEA2F4A10290FDF769FACE48CB
:104A00000022232180F83C40688F80B2FDF755F9E1
:104A100001224021E88EE5E1E2E10000D221001010
:104A2000CAC4010020202020EDE520EFEEE4EAEBEF
:104A3000FEF7E5EDE02020202020000020202020AF
:104A4000202020C1E0F2E0F0E5FF202020202020FF
:104A50002020000020202020202020C0C2C0D0C85C
:104A6000DF2121202020202020200000E220E1E082
:104A7000F2E0F0E5E9EDEEEC20E6F3F0EDE0EBE559
:104A8000000000002020202020E2E2E5E4E8F2E53A
:104A900020E5B820202020200000000020CFF0E8F2
:104AA0002020EDE5EEE1F5EEE4E8ECEEF1F2E820B1
:104AB0000000000020C1C0D2C0D0C5DF20CDC5207D
:104AC000C2C2C5C4C5CDC0200000000020202020E7
:104AD0002020C1C0D2C0D0C5DF202020202020202F
:104AE00000000000C6000010202020F0E0E7F0FFEA
:104AF000E6E0E5F2F1FF2020202020200000000069
:104B000020202049F0E0E7F03D2020202021C02097
:104B1000202020200000000020202055E1E0F23D70
:104B2000202020202040C220202020200000000043
:104B300020202020C4D22E20EDE5E8F1EFF0E0E2C5
:104B4000E5ED20200000000020202020E7E0F0FF1D
:104B5000E6E0E5F2F1FF2020202020200000000008
:104B600020202049E7E0F03D202020202021C02007
:104B7000202020200000000020202074E1E0F2200E
:104B80003D20202024B043202020202000000000D1
:104B9000202020C7E0F0FFE43D20202020772520C2
:104BA000202020200000000020202043E1E0F23DF2
:104BB000202020202051C02AF720202000000000C3
:104BC0001CC107202D2D2D2D2D2D000000C00920EA
:104BD00020202020C1CFD12120C2DBCACBDED7C507
:104BE000CD20202000000000202020202020202098
:104BF000C1CFD13220202020202020200000000022
:104C000020202020CED2D1D3D2D1D2C2D3C5D2201F
:104C100020202020000000002020C220D1D2D0D3AC
:104C2000CAD2D3D0C520C8C1DDCF202000000000EB
:104C300020202020C1CFD12120C2CACBDED7C5CDB4
:104C4000202020200000000020E0E2E0F0E8FF202B
:104C5000F1E5F2E8202020202020202000000000A4
:104C600020E0E2E0F0E8FF20EFE5F0E5E3F0E5E248
:104C7000202020200000000020E0E2E0F0E8FF20FB
:104C800055E2FBF53C55ECE8ED202020000000004B
:104C900020E0E2E0F0E8FF2055E2FBF53E55ECE0D5
:104CA000EAF120200000000020E7E0E1EBEEEAE876
:104CB000F0EEE2E0ED20E8E7E2EDE52000000000A4
:104CC0002055E8F1F2203D2020202040C220202065
:104CD00020202020000000002049E8F1F2203D20A3
:104CE00020202023C02020202020202000000000A1
:104CF00020C4D220EDE5E8F1EFF0E0E2E5ED202080
:104D0000202020200000000020F1EEF1F2EEFFED67
:104D1000E8E5202D20EDEEF0ECE020200000000082
:104D20002074E8F1F2203D20202024B043202020F0
:104D300020202020000000007A02082020C2FBF57D
:104D4000EEE42020202020202020202020202020D1
:104D5000000000002049EDE0E3F03D20202020206D
:104D60002020404120202020000000002055EDE0C0
:104D7000E3F03D2020202020202021C220202020E0
:104D800000000000202020202020CDC0C3D0D3C7A9
:104D9000CAC020202020202000000000202020C0A9
:104DA000C2C0D0C8DF20D1C5D2C821212120200017
:104DB0002046F1E5F2E83D2020202020202040C3BD
:104DC000F6202020000000002055F1E5F2E83D200B
:104DD00020202020202023C22020202000000000AE
:104DE000AFA006E680B204F01DB9B3A00290B8A04F
:104DF0000390BDA00490C2480590AFF6586006909D
:104E0000022B02DD86F804C002E0A94200DA31710B
:104E100098F904400BEB8400D0E901235BF82410DF
:104E2000B8A009E0B9F1210F0BD0BCA0B44B0146EA
:104E30000290153BB24ABFA0FDF74AF8012002F0EC
:104E4000B9B8C2A0F2E7C7480290C7A0039031B139
:104E5000012908D002290AD003290CD00FE0C8A0EC
:104E60000290CDA00AE0D2A00290D7A006E0DCA07C
:104E70000290E1A002E0DAA00290E5A003900346D0
:104E8000B9A1B848029AAFE4B9F1050F0FD0A3A0B9
:104E9000024602909A4BE4A1E9A0FDF719F801201F
:104EA000FDF72EFD00222121BAF862009AE7A7A0A3
:104EB000EEE7E3A3E2A2E2A1E1A0FDF709F80420F6
:104EC0008AF818009AF81A00554601281FD00228BF
:104ED0001FD0032829D0062829D00C2829D0DEA0ED
:104EE00002902C768648039096F90410E6A00BEB0E
:104EF000810253685BF82120DDA1FCF7E9FF96F9F8
:104F0000010096F90410884215DA307118E0E4A027
:104F100000E0E9A00290EEA00390F3A00490AFF6A9
:104F20009400059076480690DEE7F5A0F2E7FAA037
:104F3000F0E7FFA0EEE7411A012901DD411E3171C2
:104F4000022800D130710220FDF7DAFC0022252171
:104F5000B5F87E00FCF7B1FEFB4C00225E212088F4
:104F6000FCF7ABFE002226216088FCF7A6FE00229B
:104F70003C21A088FCF7A1FE6148E188153000EBD8
:104F8000810000223E21FCF7D2FF00227B212089F4
:104F9000FCF793FE00222821608923E740F6026097
:104FA000FBF766FE00B25146AAF83C00402801DD3E
:104FB00000208887BAF93C0060B101280FD0022890
:104FC00016D040DD96F9011096F90420914227DAB7
:104FD00031712AE04A4B4A4A153BDCA102E0484ABB
:104FE000E0A3E6A1EBA0FCF773FF002030712AE0FC
:104FF00096F9010096F90410884201DA307104E054
:10500000411A022901DD801EF8E796F9040010B16B
:10501000012802D017E03A4B10E0D2A3384A0EE044
:105020008A1A022A01DD891ED2E796F90410421E6F
:105030009142F2D0801E8142EDD0DCA3E1A2CFA14B
:10504000D4A0FCF745FF0120FDF75AFC3079282158
:10505000FDF756F830795B21401CC0B2FDF750F8DF
:1050600030797B21801CC0B2FDF74AF81AE4244B4A
:10507000153B1A4611460846FCF72AFF4FF46060BC
:10508000FBF7F6FD99F902104D464A42402100B265
:10509000FCF70BFF400100F5806086B246A99DE158
:1050A00020202020202020D1C5D2DC20202020203C
:1050B000202020200000000020CAEEEDF2F0EEEBF0
:1050C000FC20E5ECEAEEF1F2E820202000000000F0
:1050D00020C2FBF0E0E2EDE8E2E0FEF9E8E920E7DB
:1050E000E0F0FFE40000000020C0E2F22EE2FBF05E
:1050F000E0E2EDE8E22E20E7E0F0FFE4000000004F
:10510000DFC4010020202020D1CFC5D6D4D3CDCA02
:10511000D6C8C820202020200000000020C2FBEAC2
:10512000EBFEF7E5ED20202020202020202020206D
:10513000000000002020CACECDD2D0CECBDC20C5CE
:10514000CCCACED1D2C820200000000020C2EAEB99
:10515000FEF7E5ED20202020202020202020202008
:1051600000000000343A0000202020EDE5E2EEE7E8
:10517000ECEEE6E5ED2121212020202000000000BA
:1051800020202020CEF2F1F3F2F1F2E2F3E5F2205A
:105190002020202000000000202020202020E1E00E
:1051A000F2E0F0E5FF202020202020200000000079
:1051B00020202020202020C0E2E0F0E8FF20202056
:1051C000202020200000000020202020202020205F
:1051D000F1E5F2E82020202020202020000000001F
:1051E000202020202020C1E0F2E0F0E5FF20202058
:1051F000202020200000000020202020F0E0E7F008
:10520000FFE6E0E5F2F1FF20202020200000000072
:105210002020202020E7E0F0FFE6E0E5F2F1FF208B
:10522000202020200000000020E4EBE8F2E5EBFC69
:10523000EDEEF1F2FC202D202021F72E00000000E1
:1052400020C2DBD0C0C2CDC8C2C0DED9C8C920C709
:10525000C0D0DFC40000000020E2FBEAEBFEF7E56F
:10526000ED202020202020202020202000000000F1
:10527000C2DBD0C0C2CDC8C2C0DED9C8C920C7C039
:10528000D0DFC42000000000202020C0C2D2CECC3D
:10529000C0D2C8D7C5D1CAC8C9202020000000008C
:1052A00020F0E0E720E220ECE5F1FFF620202020CE
:1052B000202020200000000020F0E0E720E2203243
:1052C00020ECE5F1FFF6E020202020200000000087
:1052D00020E4EBE8F2E5EBFCEDEEF1F2FC2020201F
:1052E00028F72E200000000020EEF7E5F0E5E4EDC1
:1052F000EEE520E2EAEBFEF7E5EDE8E50000000070
:1053000020F0E0E720E2203320ECE5F1FFF6E0209A
:10531000202020200000000020F0E0E720E220EF25
:10532000EEEBE3EEE4E0202020202020000000004F
:1053300020F0E0E720E220E3EEE4202020202020FF
:105340002020202000000000B8C0072020C6F3F075
:10535000EDE0EB20EFF3F1F22020202020202020B0
:105360000000000020CEF7E8F1F2E8F2FC20E6F3BE
:10537000F0EDE0EB2020202000000000202820207D
:10538000202020202020202020202020202020201D
:1053900000000000202020C6D3D0CDC0CB20D1CE2D
:1053A000C1DBD2C8C920202000000000207B2020C3
:1053B00020202020202020202020202020202020ED
:1053C00000000000205B2020202020202020202022
:1053D0002020202020202020000000003046FBF765
:1053E000D0FC45A9301DFBF7CCFC694606F108004E
:1053F000FBF7C7FC01A906F10C00FBF7C2FC3EA9B4
:1054000006F11000FBF7BDFC3FA906F11400FBF705
:10541000B8FC47A906F11800FBF7B3FC9DF818018A
:10542000552806D0502840D042287ED053287DD021
:105430001CE69DF81A015228FAD1EFA3F4A2FAA1B2
:10544000FFA0FCF745FD9DF8040000224021FCF779
:1054500034FC9DF8050000222321FCF72EFC9DF86A
:10546000060000222421FCF728FC9DF802000022FF
:105470002521FCF722FC9DF8000000225E21FCF7AC
:105480001CFC9DF80100401E0C2801D38DF8014042
:105490009DF80110F048002200EB81002821FCF764
:1054A00046FD0020AAF83C00E0E59DF81A014128DD
:1054B000BED1EA480290D0A003909DF8F8004128A0
:1054C00003D19DF8F90041284DD001220021281D6B
:1054D000FDF769FAE2A00490E7A00590ECA0069021
:1054E00095F904600BEB8600001D0EC85BF82600E2
:1054F000FCF7EEFC9DF8FC0000223E21FCF7DDFBF2
:105500009DF8FD0000223D21FCF7D7FB9DF8FE0031
:1055100000222921FCF7D1FB9DF8FA0000225B2133
:10552000FCF7CBFB9DF8F80001E05DE03EE30022D4
:105530003C21FCF7C2FB9DF8F900401E0C2801D36A
:105540008DF8F9409DF8F910C348002200EB810066
:105550005D21FCF7ECFC9DF81C019DF81D1100EB92
:10556000012080B2CFE0D0A00490D5A002AD0346C8
:10557000059007CDFCF7ACFCBAF8380000222B21CF
:105580001FFA80F0FCF799FB9DF8040000224021EF
:10559000FCF793FB9DF8050000222321FCF78DFB0F
:1055A0009DF8060000222421FCF787FB9DF80200ED
:1055B00000222521FCF781FB9DF8000000225E21DE
:1055C000FCF77BFB9DF80100401E0C287ED200BF3B
:1055D0009DF80110A048002200EB81002821FCF773
:1055E000A6FCAAF83C4041E59DF81A01432807D0E3
:1055F0005A2833D00526572869D04B2868D035E57E
:10560000AFF254400290B4A003907BA004909DF8A8
:10561000F800412803D19DF8F900412811D001225A
:105620000021281DFDF7BFF98DA0059092A00690DE
:1056300095F904600BEB8600001D0EC85BF8260090
:105640002BE099A056E000BF9DF8F9108248002297
:1056500000EB81005D21FCF76AFC51E0A4A0029000
:10566000A9A00390AEA004909DF8F800412803D1B2
:105670009DF8F90041283CD001220021281DFDF7AA
:1056800092F9ADA00590B2A0069095F904500BEBED
:105690008501091D5BF825000EC9FCF719FC9DF872
:1056A000FC0000223E21FCF708FB9DF8FD000022D3
:1056B0003D21FCF702FB9DF8FE0000222921FCF7AA
:1056C000FCFA00229DF8FA005B2102E01EE020E0D7
:1056D000CFE1FCF7F2FA9DF8F80000223C21FCF73C
:1056E000ECFA9DF8F900401E0C28ADD38DF8F94076
:1056F000AAE79DA002AD0346059007CDFCF7E8FBA5
:105700009DF81901401C00222B213BE78DF8014038
:105710005EE79BA00290A0A00390A5A0049080A0AB
:105720000590A9A00690AEA00790B3A00890B8A0DD
:105730000990BDA00A9095F904700BEB8700001D3D
:105740000EC85BF82700FCF7C3FB9DF81901002287
:10575000401C2121FCF7B1FA9DF8040000224021F1
:10576000FCF7ABFA9DF8050000222321FCF7A5FA0F
:105770009DF8060000222421FCF79FFA9DF8020004
:1057800000222521FCF799FA9DF8000000225E21F5
:10579000FCF793FA9DF80100401E0C2801D38DF808
:1057A00001409DF801002C4D002205EB80002821CE
:1057B000FCF7BDFB9DF8FC0000226921FCF77DFA97
:1057C0009DF8FD0000226C21FCF777FA9DF8FE00A1
:1057D00000227321FCF771FA9DF8FA000022712172
:1057E000FCF76BFA9DF8F80000227221FCF765FACD
:1057F0009DF8F900401E23E120203025282020308C
:105800005E2030403A30233A30242020000000004F
:105810002020202020202020C8C1DDCF20202020D3
:105820002020202000000000202020E8EBE820E2DB
:10583000EAEBFEF7E5EDE8E520202020000000007F
:1058400020202020CFE5F0E5E7E0E3F0F3E7EAE011
:105850002020202000000000F4C40100503A000085
:10586000202020202020F3F1F2F0E0EDE5EDE02013
:1058700020202020000000002020305B5D20203010
:105880003C20303E3A303D3A3029202000000000D4
:10589000202020202055ECE8ED3D20202BC22020A8
:1058A000202020200000000020202020EDE520F313
:1058B000F1F2F0E0EDE5EDE0202020200000000016
:1058C000202020202055F1E5F2E83D20202BC220A9
:1058D0002020202000000000202020202020E1E0C7
:1058E000F2E0F0E5E8202020202020200000000049
:1058F000202020C2FBF0E0E2EDE8E2E0FEF9E8E97A
:10590000202020200000000020202020202020E750
:10591000E0F0FFE4202020202020202000000000D4
:105920002030252F2820202F305E2030403A302391
:105930003A30242000000000202020202020E7E032
:10594000E2E5F0F8E5ED2020202020200000000016
:1059500020305B2F5D20202F303C20303E3A303D00
:105960003A3029200000000020202020EDE520E72B
:10597000E0E2E5F0F8E5ED20202020200000000026
:1059800020202020202020D0E0E7F0FFE42020206D
:10599000202020200000000020202020202020E1C6
:1059A000E0F2E0F0E5E820202020202000000000C8
:1059B00020CDE0F7E0EBEE2020202020202020204A
:1059C0002020202000000000202020202020202057
:1059D000202055E1E0F23D20203CC22000000000E4
:1059E00020CAEEEDE5F620202020202020202020D7
:1059F00020202020000000002030712F7720202F51
:105A000030722030693A306C3A3073200000000068
:105A10002020202020202020202055E1E0F23D20E1
:105A2000203EC2200000000020202020CEF2E4E032
:105A3000EDEE202020207AE02AF72E200000000042
:105A40000C2801D38DF8F9409DF8F900002205EBF0
:105A500080007721FCF76BFABDF8140101227A214E
:105A6000FCF72BF99DF803009DF8071000EB0120CF
:105A70008EE0FB480290AFF2E0000390AFF2D0005E
:105A80000490AFF264100590F6A00690AFF2B0005B
:105A90000790AFF29C000890F8A00990FDA00A9032
:105AA00095F904700BEB8700001D0EC85BF827000A
:105AB000FCF70EFA9DF819010022401C2121FCF789
:105AC000FCF89DF8040000224021FCF7F6F89DF850
:105AD000050000222321FCF7F0F89DF806000022C3
