:020000040000FA
:1000000080540010290200002D0200002F02000081
:100010003102000033020000350200000000000041
:100020000000000000000000000000003702000097
:1000300039020000000000003B02000011D1000066
:100040003F0200009B040000CF0500003F020000BB
:100050003F020000734101003F0200003F02000028
:100060003F0200003F0200003F0200003F0200008C
:100070003F0200003F0200003F0200003F0200007C
:100080003F0200003F0200003F0200003F0200006C
:100090003F0200003F020000033300003F02000067
:1000A0003F020000595601003F0200003F020000DD
:1000B000490A00003F0200003F0200003F0200002A
:1000C0003F0200003F0200003F02000000F002F883
:1000D00000F09BF80AA090E8000C82448344AAF147
:1000E0000107DA4501D100F090F8AFF2090EBAE845
:1000F0000F0013F0010F18BFFB1A43F0010318475C
:100100001C3104005C3104000A444FF0000C10F86C
:10011000013B13F0070408BF10F8014B1D1108BF85
:1001200010F8015B641E05D010F8016B641E01F825
:10013000016BF9D113F0080F1EBF10F8014BAD1C75
:100140000C1B09D16D1E58BF01F801CBFAD505E093
:1001500014F8016B01F8016B6D1EF9D59142D6D3ED
:10016000704700000023002400250026103A28BF15
:1001700078C1FBD8520728BF30C148BF0B60704719
:100180006E2916F05D81702916F0308266291CF008
:100190001D8065291CF01A8067291CF017806129D1
:1001A0001CF01680692916F00F81642916F00C8165
:1001B000752916F009816F2916F0B681782916F095
:1001C00008820368DB0928BF41F08001632917F02A
:1001D000BC80732917F0C180E32917F0CC80002080
:1001E00070471FB51BF0EBFF17F07EF904000020ED
:1001F00000211BF043FE401C6060002000211BF02A
:1002000027FEE0601FBD10B510BD17F083FC11463E
:10021000FFF7E7FF0CF07DFF17F0A1FC03B4FFF739
:10022000F2FF03BC17F0A6FC08480047FEE7FEE714
:10023000FEE7FEE7FEE7FEE7FEE7FEE7FEE7FEE796
:1002400003480449024A044B70470000CD000000F7
:10025000805200108054001080520010FEE710B54C
:1002600019F0E8FC19F074FD19F066FD19F0F4FCC2
:10027000AFF30080BDE8104019F030BD10B51AF0A2
:1002800041FB1BF0B1F91AF095FBBDE810401AF0E4
:100290000DBD1AF055BA1AF01DB809B1002070470B
:1002A00018F026BD002070470FB41CB5084B06AAF5
:1002B0007B4469460090059817F025F80446002015
:1002C000694617F033F820461CBC5DF814FB0000AB
:1002D0007970010009684A0501D540B27047C90527
:1002E000FCD500B2704709684A0501D5C0B2704715
:1002F000C905FCD580B2704770477047FFFFFFFF0C
:1003000030B54E482021C0F8A01100BFD0F8A01190
:100310004906FBD500F180000322C0F884204FF489
:100320000031C0F828114FF00001C0F82C114FF037
:100330000103C0F88C30424C446003604FF0AA03C4
:10034000C3604FF05504C460A0F18000D0F888501D
:100350006D01FBD540F8802FC360C460C0F88810E1
:10036000384A4264C0F848118168A0F180006FEA01
:1003700011618A073449D0F80C2102F0030207D03A
:1003800092B3012A46D0022A4AD0032A51D13BE037
:100390002AB1012A11D0022A27D0032A49D150F8C4
:1003A000882FC2F30E02521C53000268C2F30742A8
:1003B000521CB3FBF2F2254B0CE050F8882FC2F32D
:1003C0000E02521C53000268C2F30742521CB3FBD8
:1003D000F2F21F4B5A43C36FA0F18800DBB203F166
:1003E0000103B2FBF3F223E00EE050F8882FC2F3D2
:1003F0000E02521C53000268C2F30742521CB3FBA8
:10040000F2F24FF4FA43E5E7D0F804210F4BD2B2F1
:10041000521C0BE0D0F804210D4BD2B2521C05E067
:10042000D0F804214FF4FA43D2B2521CB3FBF2F2DB
:100430000A6043F23A01016030BD000000C00F4085
:100440004F0003004AF144400800001000093D003D
:100450008096980070B542F227346143002202234F
:10046000FF240425012660B1012809D17B4843609F
:10047000C26081610460456146604168C907FCD182
:1004800070BD4FF040204360C260816104604561EF
:1004900046604168C907FCD170BD2DE9F0414FF0BD
:1004A0004020012505606E480168491C01606D48C7
:1004B00000246E4E04806C48057070696D4AC0F36C
:1004C00080216B48017013786B48994202D00388F1
:1004D0005B1C0380117069490A88521C12B20A80A1
:1004E000142A02DB0C8066490D7066490A88521C8A
:1004F00012B20A80042A02DB0C8063490D70634942
:100500000A88521C12B20A800A2A5ADB0C806049FF
:100510000D7060490A88521C12B20A80B2F5FA7F47
:1005200004DB5D4A0C800188118004805B4F3888B1
:10053000401C00B238800A2804DB59483C80057012
:1005400001F096F93888052801D101F091F9554854
:100550000188491C09B20180142918DB0480524823
:1005600005705248017809B1047000E005705048E8
:10057000007860B14F48016821F0F00101603068F7
:1005800040F004003060706980F0040070614A48F7
:100590000188491C09B20180322908DB04804748E0
:1005A00005704748017809B1047000E005704548BE
:1005B0000188491C09B20180642902DB0480424899
:1005C0000570F06940F00100F061BDE8F081234959
:1005D0000120086022484168491C416070470121A0
:1005E00010B11E48416070474FF04020FAE70021EB
:1005F00010B11A48416070474FF04020FAE728B127
:100600001648416841F00201416070474FF04020B8
:10061000F7E710B50022124C032318B1012808D0C7
:10062000002010BD22604FF0402081614361012015
:1006300004E06260094881614361022000F002F831
:10064000012010BD00F01F020121914040094FF030
:10065000E02202EB8000C0F80011704700800040EB
:1006600008C0072036C207202600001000C009205D
:100670003CC20720320000103AC207202E000010B2
:1006800031C2072038C207204AC0072028000010C6
:1006900044C00720300000106EC0072032C207207F
:1006A00045C007202A00001046C007204BC0072085
:1006B0003BC0072000C0024034C2072047C00720CB
:1006C0004CC007202C00001048C00720C1F12002B8
:1006D000904010B5FC4A4FF4007453150EE000280A
:1006E00001DA946500E0D46500BF00BF00BF9365E8
:1006F00000BF00BF00BFD3654000491E0029EED1F6
:1007000010BD70B50546F1480078012813D04FF0B0
:10071000A04045F4807181620121416200210213F1
:10072000436BDB0702D0491C9142F9D3002141629F
:10073000056BA8B270BDE44C206C40F400702064DE
:1007400020214FF0FF30FFF7C1FF04210620FFF703
:10075000BDFF05210120FFF7B9FF05212846FFF75E
:10076000B5FF00F0CBF94FF0000528464FF480713B
:100770004FEA4505A16500BF00BF00BFE165626D9E
:10078000920501D545F00105401C1028F0D300F07A
:10079000B5F9CEE770B50546CC480C46007801287F
:1007A0000ED04FF0A04245F480709062D4620020D9
:1007B0001113536BDB0702D0401C8842F9D370BD84
:1007C000C148016C41F40071016420214FF0FF30F9
:1007D000FFF77CFF04210520FFF778FF05210120AA
:1007E000FFF774FF05212846FFF770FF0221084636
:1007F000FFF76CFF10212046FFF768FFBDE870404F
:1008000000F07CB92DE9FC47B04C0025362025705E
:100810000090694662680846904701982521B1EB2F
:10082000106F01D101202070A948016841F080417A
:100830000160A948A74981602178002960D0016939
:1008400021F470210161A048016C41F480710164C0
:100850004FF0A0444FF44F4020607820C4F80001CE
:100860006420401EFDD14FF00208C4F80080302003
:1008700060604001606143F20F7020611227E76001
:100880007801C4F800014FF40060A0616426761E70
:10089000FDD1A5614FF400410020FFF77BFF4FF42D
:1008A00080190020FFF72DFF10F4084F02D0761CAE
:1008B0004E45F6D30220FFF724FF06460320FFF73C
:1008C00020FF4FF6F0710840844940EA0640884214
:1008D0000DD14FF440510020FFF75CFF00260120AE
:1008E000FFF70FFF800602D4761C4E45F7D3002693
:1008F0004FF480391020FFF704FFC10709D105E04C
:10090000C16821F00F01491DC160A1E7761C4E4569
:10091000F0D341070CD5616841F001016160D4F862
:10092000001141F48061C4F800111521A16000E0BC
:10093000A760800701D5A56102E04FF48070A06137
:10094000674881882164418861640088A064654BA0
:10095000654EA3F16401002001F1200200EB400785
:1009600003EB472741F8307001EBC0077E6042F887
:10097000305002EBC007401C7D600428EED3C4F861
:100980000811C4F80C210320C4F81001C4F8185150
:1009900054490020554E243901F1180200EB400360
:1009A00006EB432341F8303001EBC0035D6042F8B1
:1009B0002050401C0328F1D304F1AC042167626786
:1009C000C4F87880E5674FF02600C4F854014FF072
:1009D0008800C4F8380F4FF6FF70C4F83C0F606D04
:1009E00040F00300606554F8AC0D40F00100206059
:1009F000BDE8FC873E484FF08051016070473D489C
:100A00004FF0805101607047F0B54FF0A045D5F828
:100A10002811344E0388243E021D56F83140DB1C59
:100A20009B0803D080CA5B1E80C4FBD1008806EB04
:100A3000C102401E40F04040491C5060032900D1D3
:100A40000021C5F82811F0BD70B54FF0A04533E086
:100A5000C5F8E80F00072FD5D5F8184128E0214840
:100A6000443850F8340041001CD5C0F30A06F61E85
:100A700040F2EA518E4215D81F49084212D146F081
:100A8000004017F0F3FC68B1164A011D643AF61CE9
:100A900052F83420B30803D040CA5B1E40C1FBD1DA
:100AA00019F0B0FE641C042C00D10024C5F81841D4
:100AB000D5F81401A042D2D1D5F8E00FD5F8E41F43
:100AC0000840C5D170BD000000C0092010C007203B
:100AD000C4C00F400501155000C00240905C0020CA
:100AE00000000010FC220010FF050080FC3A0010FE
:100AF00000E100E080E100E00000901B0748016C8D
:100B000021F4007101644FF48071816500BF00BF62
:100B100000BFC16500BF00BF00BF704700C0092013
:100B2000FF49886048680006FCD58868C0B27047F5
:100B3000FC48016841F040410160416821F0030137
:100B40004160416841F00C014160416841F0300171
:100B50004160F3480821C160202101607047F148DD
:100B6000016821F040410160416821F003014160CA
:100B7000416821F00C014160416821F03001416081
:100B8000E74900200860704700B5FFF7D1FFE64A4B
:100B9000106840F000601060D06940F00060D061E3
:100BA0000620FFF7BDFF106840F0006010609069FC
:100BB00040F0006090615DF804EBD0E700B5FFF70E
:100BC000B7FFD94A106840F000601060D06940F06B
:100BD0000060D0610520FFF7A3FFFF20FFF7A0FF13
:100BE0000346106840F000601060906940F00060BB
:100BF0009061FFF7B4FF184600BD01B5FFF7DEFFB7
:100C0000C007FBD1FFF794FFC74A106840F00060AF
:100C10001060D06940F00060D061106840F0006062
:100C20001060D06940F00060D0610320FFF778FFCA
:100C30009DF80100FFF774FF9DF80000FFF770FFBB
:100C4000FF20FFF76DFF0346106840F00060106062
:100C5000906940F000609061106840F000601060A2
:100C6000906940F000609061FFF779FF184608BD79
:100C700011B5AD4C206840F002002060A06940F042
:100C80000200A061FFF79AFFC007FBD1FFF750FFFA
:100C9000206840F000602060E06940F00060E061A2
:100CA0000320FFF73DFF9DF80100FFF739FF9DF896
:100CB0000000FFF735FFFF20FFF732FF0246FF205D
:100CC000FFF72EFF02EB0022206840F0006020605A
:100CD000A06940F00060A061206840F000602060E2
:100CE000A06940F00060A061FFF739FFE06940F0C3
:100CF0000200E061104618BD2DE93140FFF75EFFAC
:100D0000C007FBD1FFF714FF874A106840F000606E
:100D10001060D06940F00060D0610320FFF700FF51
:100D20009DF80100FFF7FCFE9DF80000FFF7F8FEBC
:100D3000FF20FFF7F5FE0346FF20FFF7F1FE044614
:100D4000FF20FFF7EDFE0546FF20FFF7E9FE05EB6C
:100D5000002004EB002003EB0023106840F000604B
:100D60001060906940F000609061106840F0006091
:100D70001060906940F000609061FFF7F0FE184647
:100D800038BD13B54FEA0104FFF718FFC007FBD1C8
:100D9000FFF7CEFE644A106840F000601060D06932
:100DA00040F00060D0610320FFF7BAFE9DF801001B
:100DB000FFF7B6FE9DF80000FFF7B2FEFF20FFF739
:100DC000AFFE2070FF20FFF7ABFE6070FF20FFF743
:100DD000A7FEA070FF20FFF7A3FEE070106840F0B0
:100DE00000601060906940F000609061106840F011
:100DF00000601060906940F000609061BDE81C40A8
:100E0000ADE677B50D461646FFF7D8FEC007FBD115
:100E1000FFF78EFE444B186840F000601860D869F8
:100E200040F00060D8610320FFF77AFE9DF80100D2
:100E3000FFF776FE9DF80000FFF772FE002406E043
:100E4000FF20FFF76DFE641C05F8010BE4B2B4420D
:100E5000F6D3186840F000601860986940F00060B0
:100E60009861186840F000601860986940F0006070
:100E70009861BDE87E4072E613B50C46FFF79EFE12
:100E8000C007FBD1FFF780FEFFF752FE264A10682D
:100E900040F000601060D06940F00060D061022036
:100EA000FFF73EFE9DF80100FFF73AFE9DF80000B7
:100EB000FFF736FE2046FFF733FE0346106840F08A
:100EC00000601060906940F000609061106840F030
:100ED00000601060906940F000609061FFF73FFE95
:100EE00018461CBD2DE90340FFF768FEC007FBD183
:100EF000FFF74AFEFFF71CFE0B4A106840F0006047
:100F00001060D06940F00060D0610220FFF708FE59
:100F10009DF80100FFF704FE9DF8000006E00000C8
:100F20000000024000C0024000C00920FFF7F8FDA9
:100F30009DF80400FFF7F4FD9DF805301846FFF713
:100F4000EFFD106840F000601060906940F00060B4
:100F50009061106840F000601060906940F000609F
:100F60009061FFF7FCFD18460CBD03B5FFF726FEA8
:100F7000C007FBD1FFF708FEFFF7DAFD3C4A106817
:100F800040F000601060D06940F00060D061022045
:100F9000FFF7C6FD9DF80100FFF7C2FD9DF80000B8
:100FA000FFF7BEFD9DF80400FFF7BAFD9DF80500B0
:100FB000FFF7B6FD9DF80600FFF7B2FD9DF807307C
:100FC0001846FFF7ADFD106840F0006010609069B2
:100FD00040F000609061106840F00060106090691F
:100FE00040F000609061FFF7BAFD18460CBD13B5E4
:100FF0004FEA0104FFF7E2FDC007FBD1FFF7C4FD94
:10100000FFF796FD1A4A106840F000601060D06942
:1010100040F00060D0610220FFF782FD9DF80100E2
:10102000FFF77EFD9DF80000FFF77AFD2078FFF7BF
:1010300077FD6078FFF774FDA078FFF771FDE37826
:101040001846FFF76DFD106840F000601060906971
:1010500040F000609061106840F00060106090699E
:1010600040F000609061FFF77AFD18461CBD00005B
:1010700000C009202DE9F84F02F0D1F9FE4BDFF84E
:10108000FCA30020C1018E4600247A214143009137
:101090000099002501EBC40109B28B460EEB051146
:1010A00021440EB200219955DFF8D4C359460722D6
:1010B0001AF80170B946FF0705D09F5D1CF8028041
:1010C00047EA08079F554FEA59080AF80180491C6A
:1010D000521E52B209B2002AEADA6D1CEDB2082D96
:1010E000DCD3641C64B20F2CD2DB401CC0B20428D9
:1010F000C8D3BDE8F88FE348016A21F07F7101622F
:10110000816941F40001816100BF00BF00BF00BFE1
:1011100000BF00BF00BF00BF00BF00BFC16941F0FA
:101120000051C16100BF00BF00BF00BF00BF00BFD2
:1011300000BF00BF00BF00BF816941F080418161F5
:101140004FF01101491EFDD1416B8901FCD470475C
:10115000CC4A00B50346106840F0C04010601068EB
:1011600040F400001060FFF7C6FF00BF00BF00BFE3
:1011700000BF00BF00BF00BF00BF00BF00BF90693D
:1011800040F00050906100BF00BF00BF00BF00BF33
:1011900000BF00BF00BF00BF00BFD06940F4000027
:1011A000D06100BF00BF00BF00BF00BF00BF00BFD5
:1011B00000BF00BF00BF106A40F07F701062906BEC
:1011C00040EA83409063D06B6FEA0301C9B240EA02
:1011D0008140D06300BF00BF00BF00BF00BF00BFA1
:1011E00000BF00BF00BF00BFD06940F08040D061A9
:1011F00000BF00BF00BF00BF00BF00BF00BF00BFF7
:1012000000BF00BF184600BD9E4A00B503461068E7
:1012100040F0C1401060FFF76EFF00BF00BF00BF8D
:1012200000BF00BF00BF00BF00BF00BF00BFD0694C
:1012300040F00050D06100BF00BF00BF00BF00BF42
:1012400000BF00BF00BF00BF00BFD06940F4000076
:10125000D06100BF00BF00BF00BF00BF00BF00BF24
:1012600000BF00BF00BF106A40F07F701062906B3B
:1012700040EA83409063D06B6FEA0301C9B240EA51
:101280008140D06300BF00BF00BF00BF00BF00BFF0
:1012900000BF00BF00BF00BFD06940F08040D061F8
:1012A00000BF00BF00BF00BF00BF00BF00BF00BF46
:1012B00000BF00BF00BD30B55FF0000404F1800046
:1012C000C0B2FFF7A1FF8020FFF79EFF002501209D
:1012D000FFF73EFF0120FFF73BFF6D1CEDB2082D2D
:1012E000F5D3641CE4B2202CE8D330BD70B5664859
:1012F000416821F440114160816821F040518160D2
:10130000816821F440318160816821F04061816011
:10131000816821F440418160416821F030014160E1
:10132000416821F0C0014160416821F44071416091
:10133000416821F440614160416821F440514160BD
:10134000416821F440414160416821F440314160ED
:10135000416821F4402141604A48016A4B4A1143E7
:101360000162016841F0C3410160C16B41F08061DD
:10137000C16340F252342146491EFDD1816B41F0D8
:10138000806181632046401EFDD13F20FFF73CFF76
:1013900040F6F61635466D1EFDD13F20FFF734FFAF
:1013A000641EFDD10C20FFF72FFF761EFDD170BD0E
:1013B00000B5FFF79BFF5DF804EB7CE72DE9F041FA
:1013C000FFF758FE3248017809B1002100E0012101
:1013D0000026294F0170344604F18000C0B2FFF7A7
:1013E00013FF8020FFF710FF0025B85D761C36B292
:1013F000FFF7AEFE6D1CEDB2102DF6D3641CE4B207
:10140000202CE9D3BDE8F08110B52248401EFDD163
:1014100021A327A22CA132A000F010FEBDE81040AD
:101420000020CBE71748016A21F07F7101628169D2
:1014300041F40001816100BF00BF00BF00BF00BFD9
:1014400000BF00BF00BF00BF00BFC16941F0005135
:10145000C16100BF00BF00BF00BF00BF00BF00BF31
:1014600000BF00BF00BF816941F080718161416BA5
:101470008901FCD470470000FC4C00109203082046
:101480004BC3010000C0092000C002400000FC075F
:101490000C00001080841E0033342020C8EDE8F6D4
:1014A000E8E0EBE8E7E0F6E8FF2020380000000085
:1014B00035202020EDE520EFEEE4EAEBFEF7E5ED48
:1014C000E0202036000000003320202020C1E0F280
:1014D000E0F0E5FF20B923202020203400000000A8
:1014E00031202020202020C0C2C0D0C8DF212020F1
:1014F0002020203200000000B94A00B503461068E1
:1015000040F000501060106840F0C0701060FFF7AD
:1015100089FF00BF00BF00BF00BF00BF00BF00BF0A
:1015200000BF00BF00BFD06940F00050D06100BFD5
:1015300000BF00BF00BF00BF00BF00BF00BF00BFB3
:1015400000BFD06940F40000D06100BF00BF00BF01
:1015500000BF00BF00BF00BF00BF00BF00BF106AD8
:1015600040F07F701062906B40EA83409063D06BD4
:101570006FEA0301C9B240EA8140D06300BF00BFF7
:1015800000BF00BF00BF00BF00BF00BF00BF00BF63
:10159000D06940F08070D06100BF00BF00BF00BFC5
:1015A00000BF00BF00BF00BF00BF00BF00BD8C4A2E
:1015B00000B50346106840F000501060106840F01D
:1015C000C0701060FFF72EFF00BF00BF00BF00BF5C
:1015D00000BF00BF00BF00BF00BF00BF906940F068
:1015E0000050906100BF00BF00BF00BF00BF00BF40
:1015F00000BF00BF00BF00BFD06940F40000D06151
:1016000000BF00BF00BF00BF00BF00BF00BF00BFE2
:1016100000BF00BF106A40F07F701062906B40EA1C
:1016200083409063D06B6FEA0301C9B240EA814006
:10163000D06300BF00BF00BF00BF00BF00BF00BF3E
:1016400000BF00BF00BFD06940F08070D06100BF14
:1016500000BF00BF00BF00BF00BF00BF00BF00BF92
:1016600000BF00BD10B540F0B8042046FFF7CCFD28
:101670002046BDE810403FE710B50446FFF7C4FD23
:101680002046BDE8104037E710B540F0C0042046C2
:10169000FFF7BAFD2046BDE810402DE750484FF057
:1016A0000051C1614FF4000181614FF080418161BF
:1016B00000BF00BF00BF00BF426B9201F9D4C161FF
:1016C000D8E64FF0000000BF401C00B26428FADBEF
:1016D000D0E630B50346FFF7E1FF41494FF4000083
:1016E00088618201CA61C2018A6144008C618D6B8C
:1016F00045EA83458D63CD6BDB43DBB245EA83432B
:10170000CB63CA61CC61C86130BD3648416821F401
:1017100040114160816821F040618160816821F061
:1017200040518160816821F440318160816821F4F9
:1017300040418160416821F030014160416821F001
:10174000C0014160416821F440714160416821F469
:1017500040614160416821F440514160416821F499
:1017600040414160416821F440314160416821F4C9
:10177000402141601A48016A1B4A11430162016815
:1017800041F0C34101600021C26B42F08062C2633C
:10179000491C0A29F8DB4FF000014FF4FA7200BF30
:1017A000491C9142FBDB00214CF25032836B43F029
:1017B00080638363491C9142F8DBE22089E700B52E
:1017C000AF20FFF721FDAF205DF804EB94E600B5F4
:1017D000AE20FFF719FDAE205DF804EB8CE60000AB
:1017E00000C0092000C002400000FC071E4BDA6068
:1017F0001870597070471C48C16800290DD0491EE7
:10180000C1600AD1194902780A7042784A700A7197
:101810000021C1700171417181717047124A1161DB
:10182000907070471048016900290BD0491E016172
:1018300008D10E4A8178117000215170C170017178
:101840004171817170470849088170470648B0F9B5
:101850000810002907D0491E09B20181002902D1D0
:10186000084601F0EDB8704718C0072080C1072076
:101870001D48016A41F0006101621C494A68D307B2
:1018800009D01B4B1B8833B1836B43F00063836328
:101890000620487003E0C36B43F00063C363500845
:1018A00048600878401E10F0FF00087003D1202027
:1018B000087088684860704710B50C4A00232024DF
:1018C0004F2908D0412909D052290BD0532908D1DA
:1018D0005360936004E0C2E9010301E0506090604E
:1018E000147010BD906010BD00C009202CC00720EE
:1018F0008CC007200020FB4A20211154401CC0B29C
:10190000C828FAD370470146F64A0020401CC0B2EE
:10191000135C8B4201D0C828F8D3704710B5002162
:10192000F14C0A22B0FBF2F302FB13006054491C95
:10193000C9B218460529F5D310BDF0B5EB4B01210E
:10194000202719700521E84A002601E01C7844B1DF
:10195000541814F8015C25B9814202D904F8017CBD
:1019600005E0541814F8015D303525701E70491ECD
:1019700011F0FF01EAD1F0BD70B50D461446002804
:1019800002DAC043401C00B2FFF7C8FF601CC0B2BF
:10199000FFF7D3FF2846FFF7B6FFFF2819D0D24A3A
:1019A000D04B0021A14201D2555C13E004D14FF08D
:1019B0002E051D54555C03E0555C202D03D04CB121
:1019C0001E1806F8015C401E491CC9B2C0B20529A8
:1019D000E8D370BD1D54F6E7F0B50D461446002857
:1019E00001DA404200B2FFF799FF601CC0B2FFF776
:1019F000A4FF2846FFF787FFBB4ABA4B002164B912
:101A0000555C202D09D056187678202E03D12D262E
:101A10001F1807F8016C1D540FE0A14201D2555C5C
:101A2000F9E704D14FF02E051D54555C02E0555CDA
:101A3000202D02D01E1806F8015C401E491CC9B2B8
:101A4000C0B20529DBD3F0BDFEB52B23002802DA96
:101A5000404200B22D2300250A266C4690FBF6F783
:101A600006FB170060556D1C6DB238B20A2DF5DB10
:101A7000012600250920202700E046B114F800C007
:101A8000BCF1000F03D1904201DD275405E0265C34
:101A90003036265400266D1CEDB2401E40B20028A0
:101AA000EBDA2D2B02D163556D1CEDB26AB168B231
:101AB00005E0231813F8013C2354401E40B2904225
:101AC000F7DC2E206D1CA054EDB20846FFF71BFF7B
:101AD0000021844A04E0635C461A491C935549B2CC
:101AE000A942F8DBFEBDFEB52B23002801DA4042F7
:101AF0002D2300250A266C46074690FBF6F006FBD0
:101B0000107767556D1C6DB20A2DF5DB0126002597
:101B10000920202700E046B114F800C0BCF1000FF6
:101B200003D1904201DD275405E0265C303626546F
:101B300000266D1CEDB2401E40B20028EBDA2D2BC2
:101B400002D163556D1CEDB26AB168B205E023188D
:101B500013F8013C2354401E40B29042F7DC2E2083
:101B60006D1CA054EDB20846FFF7CDFE00215D4A82
:101B700004E0635C461A491C935549B2A942F8DB5C
:101B8000FEBDFEB52B26002801DA40422D2600249A
:101B90000A276D46844690FBF7F007FB10CC05F84A
:101BA00004C0641C64B20A2CF4DB01270020092461
:101BB0004FF0200C00E04FB115F804E0BEF1000F2B
:101BC00004D19C4202DD05F804C005E02F5D3037EA
:101BD0002F550027401CC0B2641E64B2002CEADA04
:101BE0002D2E02D12E54401CC0B26BB144B205E080
:101BF0002E1916F8016C2E55641E64B29C42F7DC57
:101C00002E24401CEC54C0B201EB810102EB810197
:101C1000CAB20021334B04E06C5C561A491C9C5537
:101C200049B28142F8DBFEBD70B50D4616461C4632
:101C3000FFF774FE601CC0B2FFF77FFE05EB850066
:101C400006EB8000C1B2284A264B0020A04201D2F8
:101C5000155C5D5406D3155C202D03D04CB15E1885
:101C600006F8015C491E401CC0B2C9B20528EDD37C
:101C700070BD5D54F6E770B50446084615461E462D
:101C8000FFF741FE174B0146FF2804D106E01A5426
:101C9000641C401CC0B22278002AF8D11448007895
:101CA000002804D0002E02D029445F20585470BD73
:101CB000F0B5074614460E460846FFF724FE0546D3
:101CC000002231463846FFF70EFF002C08D00848A6
:101CD0000078002804D05F20024A291B1144487074
:101CE000F0BD0000CA020820360000103B000010C2
:101CF0004CC007202DE9FF4F8146DDE90D048A46DF
:101D00009346FFF700FE2022DFF8DC83F7490A2321
:101D10004FF0640C012C09D198F8005035B10D1822
:101D2000A5F10E05AA706A702A7020E099FBF3F6FF
:101D300003FB16970D183037A5F10E05022CAF7076
:101D400096FBF3F703FB176606F130066E7099FBFE
:101D5000FCF606F1300605F80E6B08D198F8006025
:101D60002EB1A5F10A05AA706A702A7021E09AFBCB
:101D7000F3F603FB16A70D183037A5F10A05032C5F
:101D8000AF7096FBF3F703FB176606F130066E7033
:101D90009AFBFCF606F13006674605F80A6B08D197
:101DA00098F800602EB1A5F10605AA706A702A7035
:101DB00022E09BFBF3F603FB16B70D183037A5F1B5
:101DC0000605042CAF7096FBF3F703FB176606F1CC
:101DD00030066E709BFBFCF606F13006674605F890
:101DE000066B09D198F8004034B1A5F102050A54F8
:101DF0006A702A70BDE8FF8F039C94FBF3F203FB2B
:101E0000124430340C5492FBF3F403FB14220844C4
:101E1000A0F1020030324270039991FBF7F101F119
:101E200030010170E6E770B50D461446FFF776FD08
:101E3000601CC0B2FFF781FD2846FFF764FDAC4B84
:101E4000AA4A002124B95D5C202D01D015540FE071
:101E5000A14201D25D5CF9E704D14FF02E05155483
:101E60005D5C02E05D5C202D02D0161806F8015C76
:101E7000401E491CC9B2C0B20529E3D370BD17B5D5
:101E800001EB810002EB8000C2B29DF8003099485E
:101E900003F00F0100EB1313445C94498C54521E61
:101EA000D2B21B788B549DF80130521E03F00F0400
:101EB000D2B2045D8C54521E00EB1313D2B21B78C5
:101EC0008B549DF80230521E03F00F04D2B2045D11
:101ED0008C54521E00EB1313D2B21B788B549DF816
:101EE0000330521E03F00F04D2B2045D8C54521E14
:101EF00000EB1310D2B2007888541EBD10B5044612
:101F00000846FFF700FD7B4904F00F028B5C774A1F
:101F100001EB14111354401EC0B20978115410BDC6
:101F200001EB810102EB8101724A10B500F00F0351
:101F3000C9B2D45C6D4B02EB10105C54491EC9B29F
:101F40000078585410BD01EB810130B502EB8101DE
:101F5000CBB2C11700EB117424F00F01401A654990
:101F6000624A405CD0542011C41700EB147424F072
:101F70000F055B1E401BDBB2405CD0542011C41720
:101F800000EB147424F00F055B1E401BDBB2405CB9
:101F9000D0545B1ED8B22311C95C115430BD01EB83
:101FA000810102EB8101CBB2524910B500F0010270
:101FB0008C5C4E4AD45444085B1E04F00100DBB232
:101FC000085CD0545B1ED8B2630803F001045B08C0
:101FD0000C5D1454401E03F00104C0B20C5D145497
:101FE0005B08401E03F00104C0B20C5D14545B0892
:101FF000401E03F00104C0B20C5D14545B08401E87
:1020000003F00104C0B20C5D1454401EC4B2580861
:10201000085C105510BD104400B2002801DA0844D5
:1020200002E0884201DB401A00B2704732490020CA
:10203000087048708870314948707047F0B505469F
:102040000E461746FFF756FC284C0020401C15F89A
:10205000011BC0B204F8011B1428F7D35FF0000085
:10206000401C16F8011BC0B204F8011B1428F7D35A
:102070005FF00000401C17F8011BC0B204F8011B00
:102080001428F7D35FF00000401C13F8011BC0B206
:1020900004F8011B1428F7D322E630B5044608469D
:1020A0001546FFF730FCFF2809D0104A2178002997
:1020B00005D04319641C401CD154C0B2F6E730BDB2
:1020C000F0B50F4D0F4F95F9004004EB8406641CEA
:1020D0002C700A4C3E442568356025793571207096
:1020E00061702271A370FBE54CC00720CA02082072
:1020F00036000010F7CA01003AC1072080C107204E
:1021000038C007209802082010B5029CFFF796FF00
:10211000FF48C378827841784920FFF7D1FF6420D7
:1021200094FBF0F0BDE81040C0B2FFF78CBB00EBB1
:10213000800001EB8000F7490870F7480270704793
:102140002DE9FE4340010D4600F58060044602A9DA
:10215000FEF717FE694604F10800FEF712FE01A91A
:1021600004F10C00FEF70DFE2846FFF7CCFBEB4C0C
:10217000202630252654401CC0B24FF0210825549B
:10218000401CC0B22F2104F80080401CC0B24FF0A8
:1021900040092154401CC0B24FF0230C04F80090B9
:1021A000401CC0B200222654401CC0B22654401C21
:1021B000C0B22154401CC0B221212554401CC0B2E1
:1021C00004F800C0401CC7B29DF80200FFF72BFEC8
:1021D0009DF8000000222321FFF725FE9DF8010055
:1021E000401E0C2802D301208DF801009DF801004B
:1021F000CB49002201EB80004021FFF74EFFE6555E
:102200007F1CF8B23A212554401CC0B2002204F8C9
:102210000080401CC0B22154401CC0B22554401C58
:10222000C0B204F80090401CC0B22154401CC0B29F
:1022300021212554401CC0B204F800C09DF80400C0
:10224000FFF7F1FD9DF8050000224021FFF7EBFDAF
:102250009DF8060000222321FFF7E5FDBDE8FE837F
:102260002DE9FE4F04460D464FF46060FEF700FD79
:102270006242402100B2FFF7CEFE400100F58060CF
:10228000044602A9FEF77DFD694604F10800FEF749
:1022900078FD01A904F10C00FEF773FD2846FFF755
:1022A00032FB06469DF8080040273025DFF874B25F
:1022B000DFF868A220244FF0210C4FF023095528A5
:1022C00020D0CF22D123502873D0422872D0532857
:1022D00071D049286BD1C8210AF80610761CF1B2DA
:1022E000ED220AF80120491CC9B2E2220AF80120B5
:1022F000491C9DF809205046C9B2092A7ED23132C4
:10230000425495E39DF80A0052280ED1C2210AF8E2
:102310000610761CF1B2EA220AF80120491CC9B263
:10232000EB220AF80120491CCEB250460AF80640BA
:10233000761CF1B20AF80140491CC9B226E300BF7D
:102340009DF8012096F838309A4267D19DF8022016
:1023500096F82C309A42F8D14554491CC9B23A2219
:1023600000F801C0491CC9B24254491CC9B24554C5
:10237000491CC9B24754491CC9B24254491CC9B28C
:1023800000224554491CC9B20AF801909DF8040086
:102390002121FFF748FD9DF8050000224021FFF7AD
:1023A00042FD9DF8060000222321FFF73CFDBDE819
:1023B000FE8F0BE033E0B6E29DF801105848002292
:1023C00000EB81004021FFF768FEF0E70AF80620E5
:1023D000761CF1B250460AF80130491CC9B20AF81D
:1023E0000140491CC9B20AF80140491CC9B20AF8A7
:1023F0000140491CC9B20AF8014000E005E3491C4C
:10240000C9B284E29DF8013092F83860B3429CD1A1
:102410009DF8023092F82C2093429DD0C4E29DF8A2
:102420000A00432873D1C1210AF80610761CF1B2C4
:10243000E0220AF80120491CC9B2F2220AF8012060
:10244000491C9DF80900C9B24FF0C00E09280BD2F3
:1024500031300AF80100491CC8B20AF800E0401CFB
:10246000C0B20AF8004016E0A0F109025A2A15D2BB
:10247000401C0A23B0FBF3F2904630320AF80120E8
:10248000491C03FB1800C9B230300AF80100491C8E
:10249000C8B20AF800E0401CC1B20BE00AF80140E3
:1024A000491CC9B20AF80140491CC9B20AF80140E6
:1024B000491CC9B250460AF80140491C9DF8002049
:1024C000BBF83C30C9B25E469A4247D19DF8012024
:1024D00096F838309A4241D19DF8022096F82C3077
:1024E0009A423BD14554491CC9B23A2200F801C076
:1024F000491CC9B24254491CC9B24554491CC9B20D
:102500004754491CC9B24254491CC9B20CE05CE0B2
:1025100080C107204DC007204EC00720CA020820F6
:102520003CCB0100004002404554491CC9B2002286
:102530000AF80190491CCEB29DF804002121FFF752
:1025400072FC9DF8050000224021FFF76CFC9DF80D
:10255000060000222321FFF766FC36E04454491CA4
:10256000C9B200224554491CC9B200F801C0491C37
:10257000C9B24754491CC9B24454491CC9B2445455
:10258000491CC9B24554491CC9B20AF80190491CFA
:10259000CEB29DF802002121FFF745FC9DF8000016
:1025A00000222321FFF73FFC9DF80100401E0C286C
:1025B00002D301208DF801009DF80110FF48002290
:1025C00000EB81004021FFF768FD9DF80A005A28C2
:1025D0005CD1C2210AF80610761CF1B2C7220AF8B3
:1025E0000120491CC9B250460AF80140491CC9B231
:1025F0005E460AF80140491CC9B20AF80140491C6C
:10260000C9B24454491CC9B24454491C9DF8002025
:10261000BBF83C30C9B29A4239D19DF8012096F8F6
:1026200038309A4233D19DF8022096F82C309A42E5
:102630002DD14554491CC9B23A2200F801C0491CA9
:10264000C9B24254491CC9B24554491CC9B2475485
:10265000491CC9B24254491CC9B200224554491C04
:10266000C9B20AF80190491CCEB29DF8040021219C
:10267000FFF7D9FB9DF8050000224021FFF7D3FBAF
:102680009DF8060000222321FFF7CDFB36E04454DD
:10269000491CC9B200224554491CC9B200F801C006
:1026A000491CC9B24754491CC9B24454491CC9B257
:1026B0004454491CC9B24554491CC9B20AF8019096
:1026C000491CCEB29DF802002121FFF7ACFB9DF81A
:1026D000000000222321FFF7A6FB9DF80100401E09
:1026E0000C2802D301208DF801009DF80110B34899
:1026F000002200EB81004021FFF7CFFC9DF80A008B
:1027000057287DD1C1210AF80610761CF1B2E022CB
:102710000AF80120491CC9B2F2220AF80120491C1A
:10272000CEB29DF8091050464FF0F00E092906D29E
:1027300031318155761CF1B200F801E019E0A1F1C8
:1027400009025A2A11D2491C0A23B1FBF3F290461E
:1027500030328255761C03FB1811F6B230318155A8
:10276000761CF1B200F801E006E08455761CF1B267
:102770004454491CC9B24454491CC9B25E4644542D
:10278000491C9DF80020BBF83C30C9B29A423BD1AD
:102790009DF8012096F838309A4235D19DF80220F4
:1027A00096F82C309A422FD14554491CC9B23A228E
:1027B00000F801C0491CC9B24254491CC9B2455471
:1027C000491CC9B24754491CC9B24254491CC9B238
:1027D00000224554491CC9B20AF80190491CCEB2E6
:1027E0009DF804002121FFF71EFB9DF80500002243
:1027F0004021FFF718FB00229DF80600232100E08E
:1028000039E0FFF710FB36E04454491CC9B20022FE
:102810004554491CC9B200F801C0491CC9B247540B
:10282000491CC9B24454491CC9B24454491CC9B2D8
:102830004554491CC9B20AF80190491CCEB29DF812
:1028400002002121FFF7EFFA9DF80000002223216A
:10285000FFF7E9FA9DF80100401E0C2802D3012081
:102860008DF801009DF801105448002200EB810012
:102870004021FFF712FC9DF80A004B287FF4A5AD1C
:10288000C1210AF80610761CF1B2E0220AF80120F4
:10289000491CC9B2F2220AF80120491C9DF809001E
:1028A000C9B209280BD231300AF80100491CC8B25C
:1028B000EA210AF80010401CC0B2E52115E0A0F1A1
:1028C00009025A2A16D2401C0A23B0FBF3F29046A2
:1028D00030320AF80120491C03FB1800C9B230301D
:1028E0000AF80100491CC8B2EA210AF80010401C8D
:1028F000C1B20BE00AF80140491CC9B20AF8014014
:10290000491CC9B20AF80140491CC9B250465A468E
:102910004454491C9DF80030BBF83C60C9B2B34236
:102920003FF470AD40E0C1210AF80610761CF1B208
:102930000AF80120491CC9B20AF80130491CC8B282
:102940009DF80910092903D231310AF8001016E068
:10295000A1F109025A2A10D2491C4FF00A08B1FB12
:10296000F8F606F130020AF80020401C08FB1611A8
:10297000C0B230310AF8001005E00AF80040401CEF
:10298000C0B20AF80040401CC1B250465E464454F2
:10299000491CC9B24454491C9DF80020BBF83C3086
:1029A000C9B29A423FF4CCAC4454491CC9B2455414
:1029B000491CC9B200F801C0491C01E03CCB010030
:1029C000C9B200224754491CC9B24454491CC9B277
:1029D0004454491CC9B24554491CC9B20AF8019073
:1029E0009DF802002121FFF71EFA9DF80000002249
:1029F0002321FFF718FA9DF80100401E0C28FFF470
:102A0000DBAC01208DF80100D6E4A2F109035A2BBA
:102A10000DD2521C0A25B2FBF5F303F130064654E1
:102A2000491C05FB1322C9B23032425403E044541E
:102A3000491CC9B24454491CC9B20AF80140B6E461
:102A40002A4B1A78521E104440B21870002801DA3E
:102A50000020187093F90000254A00EB8000024422
:102A6000244813680360127902714278114441705E
:102A7000704730B51F4901231F4D91F9012091F98D
:102A8000041000EB80048A4202D105F8243030BDE6
:102A9000194D4C1C00EB800005EB8000A24201D1D7
:102AA000037530BD8C1CA24202D180F8283030BDA5
:102AB000CC1CA24202D180F83C3030BD0C1DA24299
:102AC00002D180F8503030BD4C1DA24202D180F8B6
:102AD000643030BD8C1DA24202D180F8783030BD08
:102AE000C91D8A42FBD180F88C3030BD38C0072028
:102AF0009802082080C10720CA02082090F90030FF
:102B00008B4200DA027090F90030934200DD0170D0
:102B1000704790F900308B4200DA017090F9001094
:102B2000914200DD02707047B0F900308B4200DA4C
:102B30000180B0F90010914200DD02807047B0F9C9
:102B400000308B4200DA0280B0F90030934200DDA1
:102B50000180704703688B4201DB194600E0016089
:102B6000914200DD0260704703688B4200DA026028
:102B70000368934200DD0160704700002DE9F84FC3
:102B80009E460A9B202931D2CC1701EB5475EC10DC
:102B900026466FF03C077C4325F0070500EB440414
:102BA0004D1BDFF84CA704F5B774002A34D0A0B24F
:102BB000C5F10701C9B24FF0010404FA01F402445F
:102BC000514611DC25E023B1012B05D0022B06D0A4
:102BD00008E00D5C254304E00D5C654001E00D5C00
:102BE00025400D54401C80B28242ECDCBDE8F88FD9
:102BF00023B1012B05D0022B06D008E00D5C254344
:102C000004E00D5C654001E00D5C25400D54401E64
:102C100080B28242ECDBE9E7BEF1000FE6D0B2B24F
:102C200001EB0E064FEAE67406EB5477ADB2A94607
:102C300027F00705C7F3CF04A6EB0505AFB277DD94
:102C4000A24244D1C8463FE023B1012B13D0022B4E
:102C500024D035E0C2F1030101EB4105C5EB811140
:102C600000EB4106C8F1070C1AF80610012505FA19
:102C70000CF529430FE0C2F1030101EB4105C5EB5F
:102C8000811100EB4106C8F1070C1AF80610012566
:102C900005FA0CF569400AF8061011E0C2F10301CB
:102CA00001EB4105C5EB811100EB4105C8F1070CB3
:102CB0001AF80560012101FA0CF18E430AF805604B
:102CC00008F101081FFA88F8B845BDD38CE0CD178C
:102CD00001EB557CCCF3CF05C5F1030505EB4506AB
:102CE000C6EB851500EB45082CF007054E1BFF25AC
:102CF000F5407144CE1701EB56760096C6F3CF0629
:102D0000C6F1030606EB460CCCEB861600EB460636
:102D1000B346009E26F00706891B89B2C1F108065A
:102D2000FF21B1402BB1012B0ED0022B19D023E093
:102D30005EE01AF808C04CEA050C0AF808C01AF858
:102D40000BC04CEA010C09E01AF808C08CEA050C2B
:102D50000AF808C01AF80BC08CEA010C0AF80BC07C
:102D60000AE01AF808C02CEA050C0AF808C01AF89C
:102D70000B608E430AF80B60A11A01297FF74BAF55
:102D8000511C1FFA81FC2DE023B1012B0DD0022B29
:102D900019D023E0CCF1030101EB4105C5EB811112
:102DA00000EB41054FF0FF360AE0CCF1030101EBE7
:102DB0004105C5EB811100EB41051AF80560F643AA
:102DC0000AF805600AE0CCF1030505EB4506C6EB01
:102DD000851500EB450600210AF806100CF1010CE0
:102DE0001FFA8CFCA445CFD3BEF1000FBFF613AF82
:102DF000A24240D1A9F1010139E023B1012B12D047
:102E0000022B22D032E0C2F1030404EB4405C5EBEF
:102E1000841400EB440CC1F107061AF80C4001259C
:102E2000B5402C430EE0C2F1030404EB4405C5EBAE
:102E3000841400EB440CC1F107061AF80C4001257C
:102E4000B5406C400AF80C4010E0C2F1030404EBFA
:102E50004405C5EB841400EB440CC1F107061AF8D5
:102E60000C500124B440A5430AF80C50491E89B205
:102E7000B942C2D2BAE623B1012B26D0022B43D0ED
:102E800062E0C2F1030101EB4105C5EB811100EBEA
:102E9000410CC9F108061AF80C504FF0FF0909FA65
:102EA00006F10D430AF80C50C4F1030101EB410592
:102EB000C5EB811100EB410129FA07F91AF801501D
:102EC00045EA09050AF801503EE0C2F1030101EBB1
:102ED0004105C5EB811100EB410CC9F108061AF858
:102EE0000C50FF2101FA06F675400AF80C50C4F1A7
:102EF000030505EB4506C6EB851500EB4505F940D6
:102F00001AF805604E401DE0C2F1030101EB4105D6
:102F1000C5EB811100EB410CC9F108061AF80C5001
:102F2000FF2101FA06F6B5430AF80C50C4F1030577
:102F300005EB4506C6EB851500EB4505F9401AF88B
:102F400005608E430AF80560111B012992DD521EAF
:102F500091B22BE023B1012B0DD0022B19D023E02D
:102F6000C1F1030202EB4205C5EB821200EB420500
:102F70004FF0FF360AE0C1F1030202EB4205C5EB58
:102F8000821200EB42051AF80560F6430AF8056064
:102F90000AE0C1F1030505EB4506C6EB851500EB1C
:102FA000450600220AF80620491E89B2A142D1D85E
:102FB0001CE62DE9F8470446DDE9090517468A466F
:102FC0009946E61948B90CE04B4600225146204686
:102FD0000095FFF7D3FD641C24B2A642F4DABDE8E5
:102FE000F887002220460095FFF7C8FD0AEB09008C
:102FF0008046401E01B200233A4620460095FFF766
:10300000BDFD761EC9F1000034B203B20FFA88F19B
:10301000002220460095FFF7B1FD784202B200235E
:10302000514620460095FFF7A9FDD8E72DE9F84362
:1030300081460E461D46002022B1022A1AD10024E4
:1030400080462CE00024804612E03719621B0023E2
:1030500039464846CDF80080FFF790FD2A1B002333
:1030600039464846CDF80080FFF788FD641CE4B27D
:10307000AC42EAD3BDE8F883371B621B0023394614
:103080004846CDF80080FFF779FD2A1B002339461A
:103090004846CDF80080FFF771FD641CE4B2AC42F5
:1030A000EAD3E7E72DE9F8474FF0FF35C3F12003F6
:1030B0009D4005EA020323FA01F200929DF80210F6
:1030C000DFF82C8289469DF80310099C8A4608EB9C
:1030D00000019DF800709DF801C018F8002091F8DB
:1030E0007A3091F8F45091F86E6184B17A4008F822
:1030F000002083EA0C0381F87A3085EA090581F81B
:10310000F45086EA0A0600BF81F86E6167E73A4329
:1031100008F8002043EA0C0381F87A3045EA0905F3
:1031200081F8F45046EA0A06EEE72DE9FC4F07461F
:103130000CA88A46B0E8100316469B4600251CE002
:1031400005FB0480611E5B46415C8DF80710A11EE3
:10315000415C8DF80610E11E415C8DF80510211FC1
:10316000405C8DF80400781900B2CDF8009051460B
:10317000019AFFF797FF6D1C2DB2B542E0DBBDE869
:10318000FC8F2DE9FF4F9AB08346DDE928592B24A7
:103190000020DDF89CC0202614A90E54401C00B26B
:1031A0000A28FADB00208A4604E0175C0AF800705F
:1031B000401C00B29842F8DBBCF1000F04DACCF1FD
:1031C00000000FFA80FC2D2400204FF00A0811AFF8
:1031D0009CFBF8F108FB11C23A54401C40B20FFAB4
:1031E00081FC0A28F4DB01220020092100E042B121
:1031F00017F801C0BCF1000F03D1A94201DD7E54D4
:1032000005E07A5C30327A540022401CC0B2491E7C
:1032100049B20029EBDA2D2C02D13C54401CC0B23B
:103220006DB141B205E07A1812F8012C7A54491EAA
:1032300049B2A942F7DC2E21401C7955C0B20021C9
:10324000D44607E0A9EB01057A5C6544491C05F802
:10325000012C49B28142F5DB2D2C06D1A9EB0100EE
:1032600060445B1C00F8014C1BB2002002AD1AE068
:103270001CF800101F4F01EB410600EB400217F84D
:10328000161005F8121007EB460105EB42024E78C6
:1032900056708E789670CE78D6700E791671497900
:1032A000401C517100B29842E2DB2D2C06D1A9EBF3
:1032B000000050445B1C00F8014C1BB2002403EBDF
:1032C00043060EE0285D8DF863002A9800900BEB12
:1032D000040000B20823189A1B99FFF7E3FE641C50
:1032E00024B2B4EB460FEDDB1EB0BDE8F08F00005A
:1032F00092030820F7C40100002801DA404200B21E
:10330000704710B5FF48016821F0E0610160416835
:10331000C1F30B13FC498A1E0B80118802F1800453
:10332000491C1180FE3AD17F24F81130491CC9B2E2
:10333000D177032903D2016841F08071016010BD8B
:1033400010B54FF40270FDF793FCF04C207040F282
:103350000A20FDF78DFC60704FF40370FDF788FCC8
:10336000A07040F20E20FDF783FCE0704FF4047073
:10337000FDF77EFC207240F21220FDF779FC6072AE
:103380004FF40570FDF774FCA07240F21620FDF7B3
:103390006FFCE0724FF41170FDF76AFC207140F28F
:1033A0004620FDF765FC60714FF41270FDF760FC7C
:1033B000A07140F24A20FDF75BFCE07110BDD24ADB
:1033C000516C536C5B1A8342FBD37047D049112078
:1033D00008727047CF48C16941F44021C161C16999
:1033E00041F44011C161CC480021C1604FF44061FB
:1033F000C164022141614FF47A7282614FF44872D4
:1034000002624FF496724262012202654160092114
:1034100041607047C149012081F8320070472DE9B1
:10342000F04F0020BE4A85B04FF4F47104461454A6
:10343000401C00B28842FADBB848417871B10021E3
:103440004FF0140C7A2301FB03F001EB81039B0086
:1034500001EB81041BB20CEB84046CE2804690F813
:1034600020004FF00205C0074FF003061BD098F86C
:103470001400002816D0AB483227CDE90204CDE96C
:103480000076032118233A460846FFF74EFEA64869
:10349000CDE90204CDE90076032118233222084643
:1034A000FFF743FEB8E0B8F96A00DFF85C92DFF896
:1034B0007CA20F27DFF878B2A9F11009012853DBAD
:1034C0001423002100941A4608460194FFF771FD69
:1034D0001223012100941A4608460194FFF769FD62
:1034E00099F8000010F03C0F0BD0C10611D598F8E8
:1034F0001400F0B10F23CDE902A402211A460320E3
:1035000013E08C48CDE902040F2302211A46032060
:103510000BE010F00C0F0CD098F8140048B10F23FA
:10352000CDE902B402211A460846CDE90075FFF73D
:10353000FCFD81484069C00516D40B2300221421EC
:1035400009200094FFF71AFB00235B221F210920AA
:103550000094FFF713FB98F8050004231330C1B261
:1035600000220920FFF762FDB8F96A00022853DB48
:10357000142300941A46002117200194FFF719FD27
:10358000122300941A46012118200194FFF711FD1F
:1035900099F8010010F03C0F0BD0C10611D598F836
:1035A0001400F0B10F23CDE902A402211A4619201C
:1035B00013E06248CDE902040F2302211A461920C4
:1035C0000BE010F00C0F0CD098F8140048B10F234A
:1035D000CDE902B402211A461920CDE90075FFF7A2
:1035E000A4FD55484069800516D40B230022142100
:1035F00020200094FFF7C2FA002344221F2120203C
:103600000094FFF7BBFA98F8050004231330C1B209
:1036100000222020FFF70AFDB8F86800DFF8E8A0D4
:10362000C1464FF00A0B4FF00108AAF1800A0028AA
:103630002CD0009414232322002132200194FFF780
:10364000B8FC009402230322142135200194FFF7D3
:10365000B0FC00940223032214214F200194FFF7B1
:10366000A8FC99F820004F46800710D599F814005F
:1036700000280BD032212C48CDE90016CDE90204F8
:103680000A46182300212B20FFF74FFD8AE00B2369
:103690000022142142200094FFF770FA0023222216
:1036A0001F2142200094FFF769FABAF96C00002844
:1036B00005DA7879042300221330C1B205E0787965
:1036C0000423C0F12200C1B202224220FFF7AEFC67
:1036D000387A0A287ED2B7F97000A0F5AA41553988
:1036E00060D097F92100052190FBF1F0ADF81000B2
:1036F000B9461422002104A8FFF716FACDE9008488
:1037000047461DE00040034038C1072040520010EA
:103710000040024000C002400080014038C0072045
:103720009203082053C30100E9C30100BBC4010098
:10373000D9C401007FC4010000C009209DC401005C
:10374000BDF91030202200213320FFF732FC99F917
:1037500021000A2811DACDE9007509230C22052180
:103760003D20FFF726FC99F9210002238DE8910006
:103770000521FFA23D20039712E064284FF00903C2
:103780005EDACDE90075122205213A20FFF711FC1F
:1037900099F9210003238DE8B100F6A205217BE011
:1037A000FFF7EFFC00940E231B2202215C20019402
:1037B000FFF7FFFB00231A1F08215C200094FFF78E
:1037C000DDF900230422082176200094FFF7D6F9C2
:1037D000002300E044E027221F2143200094FFF74C
:1037E000CDF96FF00F0300221F2169200094FFF72D
:1037F000C5F999F807004D46C0F12200C1B2042373
:1038000002226920FFF712FC4746BAF9760004212C
:10381000CDE90007CDE90217D0460523D6A216212F
:103820004620FFF7AEFCB8F97400642836DACDE91B
:10383000000704230521D2A25D20CDE9026736E00E
:10384000CDE90075182205213720FFF7B2FB99F961
:10385000210004238DE8D1000521CBA237209FE76A
:10386000BAF96C00B0F57A7F02DA10F57A7F09DCDC
:10387000642190FBF1F000B28DE851010423C0A255
:10388000052109E090FBFBF001B2CDE90018CDE97C
:1038900002680423BAA205213A2081E790FBFBF0DD
:1038A00000B28DE8D1000423B5A205215A20FFF70C
:1038B00068FC2879401CC0B2287103281CD32C71E5
:1038C0006879401CC0B268710D2800D36C71A8796A
:1038D000401CC0B2A871202800D3AC71E879401C0C
:1038E000C0B2E871112800D3EC71287A401CC0B234
:1038F0002872142800D32C7205B0BDE8F08FA44DB7
:10390000A44FED5C05EB450517F81560165407EB61
:103910004505401C6E781654401CAE781654401C69
:10392000EE781654401C2E791654401C6D791554AF
:10393000401C5B1C1BB29C42E1DC491C09B20429FF
:10394000FFF680ADD8E72DE9F04F934ACDB00521C1
:103950001278002001240DF1940C4592052A02D022
:10396000212A02D005E08DA000E092A02590012040
:103970000621964B93F820209646D20708D094A2B1
:103980004CF8202000F1010001F10101C0B2C9B2E0
:103990005FEA8E7206D594A24CF82020401C491C88
:1039A000C0B2C9B2894AF032157815F01C0F06D0A2
:1039B00093A54CF82050401C491CC0B2C9B2834AA0
:1039C000F032527812F01C0F06D093A24CF820204F
:1039D000401C491CC0B2C9B2954A15786732012D06
:1039E000B2F9002002D0022D03D00AE04AB991A218
:1039F00001E032B995A24CF82020401C491CC0B20D
:103A0000C9B28B4A921D1578552D0AD102F1910544
:103A10002D8835B993A54CF82050401C491CC0B2E4
:103A2000C9B25278552A08D1814A9732528822B9B0
:103A300092A2491C4CF82020C9B29A7A9A46521C8C
:103A4000D2B218469A724FF0000B142A0AD380F8AB
:103A50000AB0437A5A465B1CDBB243728B4201D3F5
:103A60008AF80920724E0DF108093D363246307849
:103A700092F9045092F9011009EB85072A2872D0B7
:103A8000002871D0514A042892F814C06DD03246F3
:103A900092F9043092F9016092F90280F31A052834
:103AA00064D0112801F03B80022801F04D8094463B
:103AB0005278921E56B20C2801F06780142801F04B
:103AC0007B82102801F08982152801F0A782422804
:103AD00001F0BA82452801F02F83462801F09C832B
:103AE0006C4A41F27C7E3528128892B24992374A5C
:103AF000B2F9782002F03981DFF834C137280CF1AF
:103B00003D0C02F0EB836746032802F04B852F4AF9
:103B1000252892F813C002F0F687527E282803F079
:103B20003080BE46424F3D377F787F1E7FB22928C6
:103B300003F0AE804FF0030E1A2803F001831F2814
:103B400003F05F83202803F09283212803F0BA83D7
:103B5000222803F00284232803F04984172803F065
:103B6000BA843F2898E0F4E0FEE3FEE3FEE30000C1
:103B700020250000202025002020202042000000D9
:103B8000202020410000000020202025000000000F
:103B9000CA020820F7C401008BC2072020C2FBF034
:103BA000E0E2ED2EE7E0F0FFE420207A3A305A2000
:103BB000000000002020CAEEEDF2F0EEEBFC20E564
:103BC000ECEAEEF1F2E820200000000038C0072007
:103BD000202020C0E2E0F0E8FF20F1E5F2E821211A
:103BE000212020200000000020C0E2E0F0E8FF20BB
:103BF000E1E0F2E0F0E5E8212121202000000000D2
:103C000020C0E2E0F0E8FF20E8F1F2EEF7EDE8EAAC
:103C1000E0204E310000000020C0E2E0F0E8FF208C
:103C2000E8F1F2EEF7EDE8EAE0204E3200000000A5
:103C300043C10720C2EDE5F82EF2E5ECEF2E4E3140
:103C4000E7E0E2FBF8E5EDE000000000C2EDE5F89A
:103C50002EF2E5ECEF2E4E31E7E0EDE8E6E5EDE0A3
:103C60000000000020D1F0E0E1EEF2E0EB20F8EB04
:103C7000E5E9F4204E3120200000000020D1F0E0E2
:103C8000E1EEF2E0EB20F8EBE5E9F4204E32202003
:103C900000000000BC2B040003F0C385472803F09C
:103CA000E385402804F05281412804F0F28127285E
:103CB00004F053830A2804F055831C2804F072830F
:103CC0001B2804F0E183DFF82C841E2804F09D8477
:103CD0001D2804F0BD84382804F02C86A8F5A472B1
:103CE0002B28D27E04F081862C2804F0CB86A8F500
:103CF000A472B2F93C20561EB446FF4E392804F097
:103D0000EC863A2804F006873B2804F0BF873C285D
:103D100005F0E2803D2805F0958146463E2805F0F5
:103D2000CD81072805F086820828FBD01228F9D01B
:103D30001328F7D03628F5D01928F3D0092805F034
:103D40009E822D2805F0A0824A2805F0A48205F065
:103D50008FBB81B101294BD002297ED003297DD0B0
:103D60004FF4806404297AD0052979D0062978D0C7
:103D7000072977D0EBE7E1A00290E0A00390DFA055
:103D80000490DEA002AC0346059007CCFEF756F97E
:103D9000E04C0023042220881946FDF745FF00234C
:103DA000608809221946FDF73FFF0023A0880E22F4
:103DB0001946FDF739FF0023E08813221946FDF765
:103DC00033FF2089002304220121FDF72DFF6089A4
:103DD000002309220121FDF727FFA08900230E22DD
:103DE0000121FDF721FF00231322E089012148E38F
:103DF000C2A3C2A2C1A1C1A0FEF720F996F9020098
:103E0000002380B21A461946FDF70EFFBA4C96F908
:103E100002003F3404EB40100023008804221946BE
:103E2000FDF702FF96F90200002304EB4010042284
:103E300040880121FDF7F8FE96F90200002304EB0B
:103E40004010042280880221FDF7EEFE96F9020060
:103E5000002304EB4010C08805E07CE0E2E0ECE0E9
:103E600091E140E2E1E204220321FDF7DDFE96F953
:103E70000200002304EB4010092200891946FDF7D7
:103E8000D3FE96F90200002304EB4010092240897A
:103E90000121FDF7C9FE96F90200002304EB401052
:103EA000092280890221FDF7BFFE96F90200002356
:103EB00004EB40100922C0890321FDF7B5FE96F9F5
:103EC0000200002304EB40100E22008A1946FDF781
:103ED000ABFE96F90200002304EB40100E22408A4C
:103EE0000121FDF7A1FE96F90200002304EB40102A
:103EF0000E22808A0221FDF797FE96F90200002328
:103F000004EB40100E22C08A0321FDF78DFE96F9C6
:103F10000200002304EB40101322008B1946FDF72A
:103F200083FE96F90200002304EB40101322408B1D
:103F30000121FDF779FE96F90200002304EB401001
:103F40001322808B0221FDF76FFE96F9020004EB2D
:103F50004010C08B62E069A368A268A167A0FEF769
:103F60006DF86C4C00232E3C042220881946FDF786
:103F70005BFE6088002304220121FDF755FEA08826
:103F8000002304220221FDF74FFEE08800230422D3
:103F90000321FDF749FE0023208909221946FDF778
:103FA00043FE6089002309220121FDF73DFEA0891F
:103FB000002309220221FDF737FEE08900230922B0
:103FC0000321FDF731FE0023208A0E221946FDF75A
:103FD0002BFE608A00230E220121FDF725FEA08A18
:103FE00000230E220221FDF71FFEE08A00230E228D
:103FF0000321FDF719FE0023208B13221946FDF73C
:1040000013FE608B002313220121FDF70DFEA08B10
:10401000002313220221FDF707FEE08B0023132269
:1040200003212EE235A335A234A134A0FEF706F811
:1040300000231A461946092023E230A32FA22FA1FC
:104040002EA0FDF7FBFF4FF460663046FCF710FE34
:1040500005463046FCF70CFE04EB40142046FCF706
:10406000CCFDC0B203220021FDF75AFF601CFCF713
:10407000C4FDC0B206220021FDF752FFA01CFCF7D0
:10408000BCFDC0B209220021FDF74AFFE01CFCF78D
:10409000B4FDC0B20C220021FDF742FF201DFCF749
:1040A000ACFDC0B20F220021FDF73AFF601DFCF706
:1040B000A4FDC0B212220021FDF732FFA01DFCF7C3
:1040C0009CFDC0B203220121FDF72AFFE01DFCF791
:1040D00094FDC0B206220121FDF722FF04F1080081
:1040E000FCF78BFDC0B209220121FDF719FF04F195
:1040F000090011E080C1072093070820202020201C
:1041000020202020202020202020202020202020AF
:104110000000000080090820FCF76FFDC0B20C22EF
:104120000121FDF7FDFE04F10A00FCF766FDC0B2B7
:104130000F220121FDF7F4FE04F10B00FCF75DFDF9
:10414000C0B212220121FDF7EBFE04F10C00FCF7D6
:1041500054FDC0B203220221FDF7E2FE04F10D007E
:10416000FCF74BFDC0B206220221FDF7D9FE04F197
:104170000E00FCF742FDC0B209220221FDF7D0FE7D
:1041800004F10F009DE0AFF28C03AFF29002AFF2AA
:104190009401AFF29800FDF751FF4FF4606630468E
:1041A000FCF766FD05463046FCF762FD04EB401463
:1041B00004F11000FCF721FDC0B203220021FDF73D
:1041C000AFFE04F11100FCF718FDC0B20622002179
:1041D000FDF7A6FE04F11200FCF70FFDC0B20922A4
:1041E0000021FDF79DFE04F11300FCF706FDC0B2AF
:1041F0000C220021FDF794FE04F11400FCF7FDFCF5
:10420000C0B20F220021FDF78BFE04F11500FCF770
:10421000F4FCC0B212220021FDF782FE04F1160068
:10422000FCF7EBFCC0B203220121FDF779FE04F19B
:104230001700FCF7E2FCC0B206220121FDF770FE78
:1042400004F11800FCF7D9FCC0B209220121FDF7E6
:1042500067FE04F11900FCF7D0FCC0B20C2201216A
:10426000FDF75EFE04F11A00FCF7C7FCC0B20F2296
:104270000121FDF755FE04F11B00FCF7BEFCC0B2A6
:1042800012220121FDF74CFE04F11C00FCF7B5FCE5
:10429000C0B203220221FDF743FE04F11D00FCF72A
:1042A000ACFCC0B206220221FDF73AFE04F11E006A
:1042B000FCF7A3FCC0B209220221FDF731FE04F194
:1042C0001F00FCF79AFCC0B20C220221FDF728FE69
:1042D00000230A220321A8B2FDF7A6FC0023122224
:1042E0000321A0B2CDE0DDA00290E2A00390E7A000
:1042F0000490ECA00590F1A00690F6A00790FBA01A
:104300003F1D08900ECF59F82500FDF797FEFD4898
:1043100002223F21B0F96C00FDF796FBFA4C606970
:104320000022C0F300202421FDF77DFDF54D23215F
:1043300070352878FDF7E2FD60690022C0F3402067
:104340004021FDF770FD68782121FDF7D7FD05F1CB
:104350004004002220884A21FDF765FD6088002284
:104360006A21FDF760FD02E08EE064E14CE3E74C7A
:10437000002259212078FDF756FD6078002279212E
:10438000FDF751FDE24C00226821206880B2FDF764
:104390004AFDE04800226D21006880B2FDF743FD30
:1043A000DD4D002251212888FDF73DFDDB4E002226
:1043B00071213088FDF737FD688800225A21FDF70A
:1043C00032FD708800227A21FDF72DFDD44E0022A7
:1043D00041213078FDF727FDD24D00226121287858
:1043E000FDF721FD707800224221FDF71CFD687861
:1043F00000226221FDF717FD2068002280B24321D0
:10440000FDF711FD6068002280B24421FDF70BFD2D
:10441000C54C00226321206880B2FDF704FD60686E
:10442000002280B2642104F002BFC04B1A4611463C
:104430000846FDF703FEBE4C20784FF000034FF016
:1044400006021946FDF7F0FB0023062201219AF827
:104450001A00FDF7E9FB6820FCF70AFC80B2002394
:1044600006220221FDF7E0FBA08800231022194656
:10447000FDF7DAFB6A20FCF7FBFB80B20023102279
:104480000221FDF7D1FB62E4AAA002909D48B03062
:10449000B0F90020B0F90200C82A05DDC82801DD06
:1044A000AAA00BE0AFA009E0C82801DDB3A005E099
:1044B0009448B0F96A00C82801DDB6A00290BBA0FC
:1044C0000390C0A00490C5A00590CAA00690CFA0FC
:1044D0000790D4A00890D9A00990DEA00A90E3A08C
:1044E0000B90E8A00C90EDA00D90F2A00E90F7A01C
:1044F0000F90FCA010908D481530119021B1681AD2
:10450000022804DD891C04E086F804B002E0A94218
:1045100000DD317196F904109AF8095009EB810019
:1045200000F10400052D0EC801D2029803E00CEB47
:10453000850050F8140CFDF781FD96F90400A0B138
:1045400096F9011089B1884203D1EC4880F83C40CB
:104550000BE0401A012802D0022804D005E0E74809
:1045600080F8284001E0E5480475664C01226A3471
:104570006C21208880B2FDF756FC02224021B4F95C
:104580000200FDF761FAA0890122232180B2FDF724
:104590004AFC60890122242180B2FDF744FCD84CFA
:1045A00020784FF000024FF02601FDF73CFC207907
:1045B00000225E21FDF737FC207A00222521FDF73D
:1045C00032FC207B00223C21FDF72DFC217E574848
:1045D00000222A3000EB81003E21FDF75EFDA08B1A
:1045E00000227B21FDF71FFC9AF8140068B13A20E5
:1045F000FDF789F9C14D20242C543A20FDF783F9A9
:104600002C543A20FDF77FF92C54BE4C4FF46161D5
:1046100000222068B0FBF1F080B27A21FDF703FCA4
:1046200021683C20B1FBF0F1B1FBF0F200FB12106D
:1046300000225A21F7E6BAF86800554658B15FEAF9
:104640008E7009D5394BBCF1000F06D0AEA2B4A1D3
:10465000B9A004F01DBE7BE183E17EE12020202093
:104660003F20202020202020202420232040202103
:1046700000000000202020202020202020202020BA
:104680002020204A2020206A000000002020202036
:104690002020202020202020202020592020207988
:1046A00000000000202020682020206D20202020F5
:1046B00020512071205A207A000000002020207311
:1046C0002020205320202020202020432020204470
:1046D00000000000202020662020204620202020EE
:1046E00020202063202020640000000020202020C3
:1046F00020202020202020202041206120422062F4
:1047000000000000B8C0072000C00920A8C2072090
:10471000E0C2072080000010CCC20720C8C20720DA
:104720007200001074000010E8C2072012CB0100D4
:10473000384002402020CDE5EEEFF0E5E4E5EBE582
:10474000EDEDEEF1F2FC20200000000020C220F090
:10475000E0E1EEF2E520C1CFD1312CC1CFD1322042
:104760000000000020202020C220F0E0E1EEF2E571
:1047700020C1CFD1312020200000000020202020A7
:10478000C220F0E0E1EEF2E520C1CFD132202020BE
:10479000000000002020D0E0E1EEF2E020EEF22068
:1047A000E1E0F2E0F0E5E820000000002055E13D06
:1047B0002020206CC22049E13D2020202040C02044
:1047C000000000002055ED3D20202023C22049EDAF
:1047D0003D2020202024C020000000002030253A69
:1047E000305E3A302620303C2F3E20202F307B2078
:1047F0000000000020C1E0F2E0F0E5FF20202020D2
:1048000020202020202020200000000020C1CFD127
:104810003120202020202020202020202020202087
:104820000000000020C1CFD13220202020202020F5
:1048300020202020202020200000000020CDE0E3C8
:10484000F0F3E7EAE0202020202020202020202074
:104850000000000020D1E5F2FC20202020202020B4
:1048600020202020202020200000000020D1EFE583
:10487000F6F4F3EDEAF6E8E82020202020202020BE
:104880000000000020C6F3F0EDE0EB20F1EEE1FBCC
:10489000F2E8E920202020200000000020C1E0F202
:1048A000E0F0E5E9EDFBE920E6F3F0EDE0EB2020B8
:1048B0000000000020C2E5F0F1E8FF20CFCE20206C
:1048C00020202020202020200000000020D3F1F212
:1048D000E0EDEEE2EAE82020202020202020202029
:1048E0000000000020D1E1F0EEF120E0E2E0F0E88D
:1048F000E92020202020202000000000CA020820FB
:1049000020400240D0C2072020202020EDE520EFEB
:10491000EEE4EAEBFEF7E5EDE020202020200000A9
:1049200020202020202020C1E0F2E0F0E5FF202020
:10493000202020202020000020202020202020C017
:10494000C2C0D0C8DF21212020202020202000004C
:104950009DA3A3A2A8A1AEA07BE6B34A1146084638
:1049600077E6B2A00290B748007850B1B6A00390A5
:10497000BBA00590C0A0049095F8240028B1C4A065
:1049800004E0C9A00390CEA0F3E7D3A00690D8A07E
:104990000790DDA00890A4481530099009EB81002C
:1049A000001D0EC8A1A0FDF749FBDD4F01224021EB
:1049B000788880B2FDF737FA02222121B7F9040086
:1049C000FDF742F838880022242180B2FDF72BFA47
:1049D00095F921000022772180B2FDF724FAB5F97C
:1049E0007000A0F5AA41553905D14A1E5121CDA02C
:1049F000FDF753FB04E00122512180B2FDF713FAC9
:104A0000707804287ED03EE5C848C54F60374069BD
:104A1000B8F1000F05D0C0F34020B8F1010F03D06A
:104A200006E0C0F3002003E0BAF86A20012A02D0B1
:104A300048B1BFA008E0CAA20292CFA203927A4A6C
:104A4000C1A004922CE0D2A05FEACE7201D0D6A21F
:104A500013E0B34A083212F80820D60601D5D8A2CE
:104A60000BE0160701D5DCA207E0560701D5E0A24E
:104A700003E012F03C0F0CD0E3A20292E8A20392F2
:104A8000EDA20492A64A0A3212F808201AB1F0A246
:104A900002E0F5A2F1E7FAA20592634A1532069206
:104AA000002B01DCA94200DA397197F9045009EBB7
:104AB0008502121D59F825100CCAFDF7BFFA97F9A7
:104AC00002000022401C80B22121FDF7ACF994487D
:104AD00097F902104830012230F811004021FDF70B
:104AE000A2F98F4897F902104C30012230F81100DA
:104AF0002321FDF798F98A4897F90210443030F8DD
:104B0000110000E007E000222421FDF78CF97878FD
:104B1000022844F0AD84E04880F83C40B3E4DFA3D1
:104B2000E4A2EAA1EFA0FDF789FADB4801222121E6
:104B300080F83C407A4C0C34608880B2FDF773F901
:104B40000122402103F0F4BE55465FEACE7018D032
:104B5000BCF1000F01D0E9A000E03348CFA3ECA2E4
:104B6000F1A10290FDF76AFACB480022232180F8D8
:104B70003C40688F80B2FDF756F901224021E88E53
:104B800001E0EFA0EAE780B24DE4F3A00290F8A0C4
:104B90000390FDA00490244815300590AFF6A420A2
:104BA00006906046022B01DD067102E0A94200DAA0
:104BB00001719CF90440FAA009EB8401D1E90123B9
:104BC00059F8241002E20000E220E1E0F2E0F0E512
:104BD000E9EDEEEC20E6F3F0EDE0EBE5000000009F
:104BE0002020202020E2E2E5E4E8F2E520E5B820FC
:104BF000202020200000000020CFF0E82020EDE55C
:104C0000EEE1F5EEE4E8ECEEF1F2E8200000000061
:104C100020C1C0D2C0D0C5DF20CDC520C2C2C5C40E
:104C2000C5CDC0200000000012CB010020202020B4
:104C30002020C1C0D2C0D0C5DF20202020202020CD
:104C4000000000009AC20720202020F0E0E7F0FFDB
:104C5000E6E0E5F2F1FF2020202020200000000007
:104C600020202049F0E0E7F03D2020202021C02036
:104C7000202020200000000020202055E1E0F23D0F
:104C8000202020202040C2202020202000000000E2
:104C900020202020C4D22E20EDE5E8F1EFF0E0E264
:104CA000E5ED20200000000020202020E7E0F0FFBC
:104CB000E6E0E5F2F1FF20202020202000000000A7
:104CC00020202049E7E0F03D202020202021C020A6
:104CD000202020200000000020202074E1E0F220AD
:104CE0003D20202024B04320202020200000000070
:104CF000202020C7E0F0FFE43D2020202077252061
:104D0000202020200000000020202043E1E0F23D90
:104D1000202020202051C02AF72020200000000061
:104D200020C107202D2D2D2D2D2D000000C0092084
:104D300020202020C1CFD12120C2DBCACBDED7C5A5
:104D4000CD20202000000000202020202020202036
:104D5000C1CFD132202020202020202000000000C0
:104D600020202020CED2D1D3D2D1D2C2D3C5D220BE
:104D700020202020000000002020C220D1D2D0D34B
:104D8000CAD2D3D0C520C8C1DDCF2020000000008A
:104D900020202020C1CFD12120C2CACBDED7C5CD53
:104DA000202020200000000020E0E2E0F0E8FF20CA
:104DB000F1E5F2E820202020202020200000000043
:104DC00020E0E2E0F0E8FF20EFE5F0E5E3F0E5E2E7
:104DD000202020200000000020E0E2E0F0E8FF209A
:104DE00055E2FBF53C55ECE8ED20202000000000EA
:104DF00020E0E2E0F0E8FF2055E2FBF53E55ECE074
:104E0000EAF120200000000020E7E0E1EBEEEAE814
:104E1000F0EEE2E0ED20E8E7E2EDE5200000000042
:104E20002055E8F1F2203D2020202040C220202003
:104E300020202020000000002049E8F1F2203D2041
:104E400020202023C020202020202020000000003F
:104E500020C4D220EDE5E8F1EFF0E0E2E5ED20201E
:104E6000202020200000000020F1EEF1F2EEFFED06
:104E7000E8E5202D20EDEEF0ECE020200000000021
:104E80002074E8F1F2203D20202024B0432020208F
:104E90002020202000000000CA02082020C2FBF5CC
:104EA000EEE4202020202020202020202020202070
:104EB000000000002049EDE0E3F03D20202020200C
:104EC0002020404120202020000000002055EDE05F
:104ED000E3F03D2020202020202021C2202020207F
:104EE00000000000202020202020CDC0C3D0D3C748
:104EF000CAC020202020202000000000202020C048
:104F0000C2C0D0C8DF20D1C5D2C8212121202000B5
:104F10002046F1E5F2E83D2020202020202040C35B
:104F2000F6202020000000002055F1E5F2E83D20A9
:104F300020202020202023C220202020000000004C
:104F400020202020202020D1C5D2DC20202020209D
:104F5000202020200000000020CAEEEDF2F0EEEB51
:104F6000FC20E5ECEAEEF1F2E82020200000000051
:104F700020C2FBF0E0E2EDE8E2E0FEF9E8E920E73C
:104F8000E0F0FFE40000000020C0E2F22EE2FBF0BF
:104F9000E0E2EDE8E22E20E7E0F0FFE400000000B0
:104FA00020202020D1CFC5D6D4D3CDCAD6C8C82082
:104FB0002020202000000000459821280BD0B9A017
:104FC000BE4B0146029003F11502BDA0FDF736F875
:104FD000012001F0DEBEC0A0F2E7C5480290C5A0E6
:104FE000039031B1012908D002290AD003290CD03D
:104FF0000FE0C6A00290CBA00AE0D0A00290D5A0FE
:1050000006E0DAA00290DFA002E0D8A00290E3A0C0
:1050100003900346B7A1B648029A9DE44598052837
:1050200010D0A0A0A54B024602901533E1A1E7A045
:10503000FDF704F80120FDF71CFD00222121BAF83C
:105040006400A0E5A4A0EDE7E0A3E0A2DFA1DFA05B
:10505000FCF7F4FF04218AF818109AF81A100129B5
:1050600022D0022922D003292DD006292DD00C29A7
:105070002DD0DCA1914802918AF818401530039098
:10508000DE4CE5A094F9041009EB8102536859F84D
:105090002120DBA1FCF7D2FF94F9010094F9041060
:1050A000884216DA207119E0E1A000E0E6A0029043
:1050B000EBA00390F0A00490AFF6E00005907F48CD
:1050C00015300690DCE7F2A0F1E7F7A0EFE7FCA0CF
:1050D000EDE7411A012901DD411E2171022800D1AD
:1050E00020710220FDF7C5FCC44C0022C83C2521DC
:1050F0006088FCF798FE00225E21A088FCF793FEF2
:1051000000222621E088FCF78EFE00223C21208927
:10511000FCF789FE694861892A3000EB8100002292
:105120003E21FCF7BAFF00227B21A089FCF77BFE21
:1051300000222821E08926E540F60260FBF798FD71
:1051400001B25046AAF83C10402901DDA0F83CB05D
:10515000BAF93C1069B1012910D0022919D046DDF5
:10516000A64890F9012090F904309A422CDA027195
:105170002FE0524BD8A103F1150203E04F4ADCA304
:105180001532E1A1E6A0FCF759FF9C4981F804B073
:105190002DE09A4890F9011090F90420914201DA2B
:1051A000017104E08A1A022A01DD891EF8E790F9EC
:1051B000040010B1012803D019E0404B153311E071
:1051C0003E4ACBA315320EE0D31A022B01DD921E0C
:1051D000CDE790F904004A1E9042F1D0891E884222
:1051E000EBD0D5A3DAA2C8A1CDA0FCF727FF012000
:1051F000FDF73FFC814C28212079FDF731F820791B
:105200005B21401CC0B2FDF72BF820797B21801C6C
:10521000C0B2FDF725F881E4284B1A46114608462E
:10522000FCF70CFF4FF46060FBF722FD734D00B2FA
:1052300095F902104A424021FCF7EDFE400100F5CD
:10524000806086B247A93046FBF79BFD4AA9301D16
:10525000FBF797FD43A906F10800FBF792FD44A96F
:1052600006F10C00FBF78DFD45A906F11000FBF7D8
:1052700088FD46A906F11400FBF783FD4BA906F152
:105280001800FBF77EFD9DF81C01552806D050281C
:1052900005D0422804D0532803D03FE464E19FE1C5
:1052A0003AE244E320C2FBEAEBFEF7E5ED202020E2
:1052B00020202020202020200000000012CB010010
:1052C0002020CACECDD2D0CECBDC20C5CCCACED108
:1052D000D2C820200000000020C2EAEBFEF7E5ED76
:1052E000202020202020202020202020000000003E
:1052F000B43B0000202020EDE5E2EEE7ECEEE6E531
:10530000ED2121212020202000000000202020204D
:10531000CEF2F1F3F2F1F2E2F3E5F22020202020C8
:1053200000000000202020202020E1E0F2E0F0E555
:10533000FF2020202020202000000000202020200E
:10534000202020C0E2E0F0E8FF20202020202020C4
:10535000000000002020202020202020F1E5F2E89D
:1053600020202020202020200000000020202020BD
:105370002020C1E0F2E0F0E5FF20202020202020C6
:105380000000000020202020F0E0E7F0FFE6E0E54C
:10539000F2F1FF202020202000000000202020200B
:1053A00020E7E0F0FFE6E0E5F2F1FF2020202020FA
:1053B0000000000020E4EBE8F2E5EBFCEDEEF1F29A
:1053C000FC202D202021F72E0000000020C2DBD081
:1053D000C0C2CDC8C2C0DED9C8C920C7C0D0DFC4D2
:1053E0000000000020E2FBEAEBFEF7E5ED202020C4
:1053F00020202020202020200000000080C1072045
:10540000C2DBD0C0C2CDC8C2C0DED9C8C920C7C0A7
:10541000D0DFC42000000000202020C0C2D2CECCAB
:10542000C0D2C8D7C5D1CAC8C920202000000000FA
:1054300020F0E0E720E220ECE5F1FFF6202020203C
:10544000202020200000000020F0E0E720E22032B1
:1054500020ECE5F1FFF6E0202020202000000000F5
:1054600020E4EBE8F2E5EBFCEDEEF1F2FC2020208D
:1054700028F72E200000000020EEF7E5F0E5E4ED2F
:10548000EEE520E2EAEBFEF7E5EDE8E500000000DE
:1054900020F0E0E720E2203320ECE5F1FFF6E02009
:1054A000202020200000000020F0E0E720E220EF94
:1054B000EEEBE3EEE4E020202020202000000000BE
:1054C00020F0E0E720E220E3EEE42020202020206E
:1054D000202020200000000020C6F3F0EDE0EB20AB
:1054E000EFF3F1F2202020202020202000000000F7
:1054F00020CEF7E8F1F2E8F2FC20E6F3F0EDE0EB85
:105500002020202000000000202820202020202013
:10551000202020202020202020202020000000000B
:10552000202020C6D3D0CDC0CB20D1CEC1DBD2C865
:10553000C920202000000000207B202020202020E7
:1055400020202020202020202020202000000000DB
:10555000205B202020202020202020202020202010
:1055600020202020000000009DF81E01522843F05A
:105570007F87EFA3F4A2FAA1FFA0FCF75FFD9DF8DF
:10558000100100224021FCF74EFC9DF81101002281
:105590002321FCF748FC9DF8120100222421FCF78E
:1055A00042FC9DF80E0100222521FCF73CFC9DF8F1
:1055B0000C0100225E21FCF736FC9DF80D01401E17
:1055C0000C2801D38DF80D419DF80D11F0480022F3
:1055D00000EB81002821FCF760FDAAF83CB01AE638
:1055E0009DF81E014128FAD1EA480290D0A003900C
:1055F0009DF81401412803D19DF8150141284AD096
:1056000001220021281DFDF784FAE3A00490E8A000
:105610000590EDA0069095F9045009EB8501091D50
:1056200059F825000EC9FCF709FD9DF81801002264
:105630003E21FCF7F8FB9DF8190100223D21FCF703
:10564000F2FB9DF81A0100222921FCF7ECFB9DF8E2
:10565000160100225B21FCF7E6FB9DF814010022F5
:105660003C21FCF7E0FB9DF81501401E0C2801D3FE
:105670008DF815419DF81511C548002200EB8100F9
:105680005D21FCF70AFD9DF82C019DF82D1100EB22
:10569000012080B2C5E0D2A00490D7A002AD03469D
:1056A000059007CDFCF7CAFCBAF8380000222B2180
:1056B0001FFA80F0FCF7B7FB9DF810010022402193
:1056C000FCF7B1FB9DF8110100222321FCF7ABFB95
:1056D0009DF8120100222421FCF7A5FB9DF80E0184
:1056E00000222521FCF79FFB9DF80C0100225E2182
:1056F000FCF799FB9DF80D01401E0C287ED200BFDF
:105700009DF80D11A248002200EB81002821FCF732
:10571000C4FCAAF83C407EE59DF81E01432807D052
:105720005A2829D00526572869D04B2868D072E519
:10573000AFF2F8300290B6A003907DA004909DF8DF
:105740001401412803D19DF81501412808D00122F8
:105750000021281DFDF7DDF98FA0059094A021E020
:105760009FA055E09DF815118948002200EB8100AB
:105770005D21FCF792FC51E0ABA00290B0A0039039
:10578000B5A004909DF81401412803D19DF815019E
:1057900041283CD001220021281DFDF7BAF9B4A010
:1057A0000590B9A0069095F9046009EB8600001DEC
:1057B0000EC859F82600FCF741FC9DF8180100229C
:1057C0003E21FCF730FB9DF8190100223D21FCF73A
:1057D0002AFB9DF81A0100222921FCF724FB9DF8E1
:1057E000160100225B21FCF71EFB9DF8140100222C
:1057F0003C21FCF718FB9DF8150102E014E016E0CF
:105800004EE0401E0C28ADD38DF81541AAE7A4A0A8
:1058100002AD0346059007CDFCF710FC9DF81D0175
:10582000401C00222B2145E78DF80D4168E7A2A01E
:105830000290A7A00390ACA0049087A00590B0A010
:105840000690B5A00790BAA00890BFA00990C4A088
:1058500038E000BF8DF80D41B4E100BF9DF815019F
:10586000002205EB80007721FCF717FCBDF828012A
:1058700001227A21FCF7D7FA9DF80F019DF8131148
:10588000012200EB012080B23C21FCF7CCFABDF8EC
:105890002A0101223E21FCF7C6FAAAF83C60BAE4CC
:1058A0003C481C3802908AA003908FA004906AA004
:1058B0000590B1A0069098A007909DA00890B4A074
:1058C0000990B9A00A9095F9047009EB8700001DB2
:1058D0000EC859F82700FCF7B1FB9DF81D01002206
:1058E000401C2121FCF79FFA9DF810010022402165
:1058F000FCF799FA9DF8110100222321FCF793FA95
:105900009DF8120100222421FCF78DFA9DF80E016A
:1059100000222521FCF787FA9DF80C0100225E2168
:10592000FCF781FA9DF80D01401E0C2848E179E151
:1059300020203025282020305E2030403A30233A85
:1059400030242020000000002020202020202020C3
:10595000C8C1DDCF20202020202020200000000012
:10596000202020E8EBE820E2EAEBFEF7E5EDE8E5B1
:10597000202020200000000020202020CFE5F0E59E
:10598000E7E0E3F0F3E7EAE0202020200000000059
:105990003CCB0100D03B0000202020202020F3F150
:1059A000F2F0E0EDE5EDE0202020202000000000F6
:1059B0002020305B5D2020303C20303E3A303D3AA4
:1059C0003029202000000000202020202055ECE875
:1059D000ED3D20202BC220202020202000000000B0
:1059E00020202020EDE520F3F1F2F0E0EDE5EDE000
:1059F0002020202000000000202020202055F1E55C
:105A0000F2E83D20202BC2202020202000000000B2
:105A1000202020202020E1E0F2E0F0E5E820202016
:105A20002020202000000000202020C2FBF0E0E227
:105A3000EDE8E2E0FEF9E8E9202020200000000087
:105A400020202020202020E7E0F0FFE4202020205C
:105A500020202020000000002030252F2820202F8B
:105A6000305E2030403A30233A30242000000000DD
:105A7000202020202020E7E0E2E5F0F8E5ED2020DE
:105A8000202020200000000020305B2F5D20202FF0
:105A9000303C20303E3A303D3A30292000000000B2
:105AA00020202020EDE520E7E0E2E5F0F8E5ED201C
:105AB000202020200000000020202020202020D0B6
:105AC000E0E7F0FFE420202020202020000000005C
:105AD00020202020202020E1E0F2E0F0E5E8202056
