:020000040000FA
:1000000070530010290200002D0200002F02000092
:100010003102000033020000350200000000000041
:100020000000000000000000000000003702000097
:1000300039020000000000003B02000023CB00005A
:100040003F0200009B040000CF0500003F020000BB
:100050003F020000AB3701003F0200003F020000FA
:100060003F0200003F0200003F0200003F0200008C
:100070003F0200003F0200003F0200003F0200007C
:100080003F0200003F0200003F0200003F0200006C
:100090003F0200003F020000833100003F020000E9
:1000A0003F020000914C01003F0200003F020000AF
:1000B000490A00003F0200003F0200003F0200002A
:1000C0003F0200003F0200003F02000000F002F883
:1000D00000F09BF80AA090E8000C82448344AAF147
:1000E0000107DA4501D100F090F8AFF2090EBAE845
:1000F0000F0013F0010F18BFFB1A43F0010318475C
:1001000080280400C02804000A444FF0000C10F8B6
:10011000013B13F0070408BF10F8014B1D1108BF85
:1001200010F8015B641E05D010F8016B641E01F825
:10013000016BF9D113F0080F1EBF10F8014BAD1C75
:100140000C1B09D16D1E58BF01F801CBFAD505E093
:1001500014F8016B01F8016B6D1EF9D59142D6D3ED
:10016000704700000023002400250026103A28BF15
:1001700078C1FBD8520728BF30C148BF0B60704719
:100180006E2915F07984702915F04C8566291BF0CD
:10019000398365291BF0368367291BF03383612976
:1001A0001BF03283692915F02B84642915F028840B
:1001B000752915F025846F2915F0D284782915F05A
:1001C00024850368DB0928BF41F08001632916F00C
:1001D000D883732916F0DD83E32916F0E883002025
:1001E00070471FB51BF007FB16F09AFC04000020B7
:1001F00000211BF05FF9401C6060002000211BF013
:1002000043F9E0601FBD10B510BD16F09FFF114609
:10021000FFF7E7FF0CF086FC16F0BDFF03B4FFF715
:10022000F2FF03BC16F0C2FF08480047FEE7FEE7F6
:10023000FEE7FEE7FEE7FEE7FEE7FEE7FEE7FEE796
:1002400003480449024A044B70470000CD000000F7
:10025000705100107053001070510010FEE710B57F
:1002600019F004F819F090F819F082F819F010F864
:10027000AFF30080BDE8104019F04CB810B519F08C
:100280005DFE1AF0CDFC19F0B1FEBDE810401AF089
:1002900029B819F071BD19F039BB09B100207047B8
:1002A00018F042B8002070470FB41CB5084B06AADE
:1002B0007B4469460090059816F041FB04460020F7
:1002C000694616F04FFB20461CBC5DF814FB00008D
:1002D000B166010009684A0501D540B27047C905F9
:1002E000FCD500B2704709684A0501D5C0B2704715
:1002F000C905FCD580B2704770477047FFFFFFFF0C
:1003000030B54E482021C0F8A01100BFD0F8A01190
:100310004906FBD500F180000322C0F884204FF489
:100320000031C0F828114FF00001C0F82C114FF037
:100330000103C0F88C30424C446003604FF0AA03C4
:10034000C3604FF05504C460A0F18000D0F888501D
:100350006D01FBD540F8802FC360C460C0F88810E1
:10036000384A4264C0F848118168A0F180006FEA01
:1003700011618A073449D0F80C2102F0030207D03A
:1003800092B3012A46D0022A4AD0032A51D13BE037
:100390002AB1012A11D0022A27D0032A49D150F8C4
:1003A000882FC2F30E02521C53000268C2F30742A8
:1003B000521CB3FBF2F2254B0CE050F8882FC2F32D
:1003C0000E02521C53000268C2F30742521CB3FBD8
:1003D000F2F21F4B5A43C36FA0F18800DBB203F166
:1003E0000103B2FBF3F223E00EE050F8882FC2F3D2
:1003F0000E02521C53000268C2F30742521CB3FBA8
:10040000F2F24FF4FA43E5E7D0F804210F4BD2B2F1
:10041000521C0BE0D0F804210D4BD2B2521C05E067
:10042000D0F804214FF4FA43D2B2521CB3FBF2F2DB
:100430000A6043F23A01016030BD000000C00F4085
:100440004F0003004AF144400CC0072000093D0062
:100450008096980070B542F227346143002202234F
:10046000FF240425012660B1012809D17B4843609F
:10047000C26081610460456146604168C907FCD182
:1004800070BD4FF040204360C260816104604561EF
:1004900046604168C907FCD170BD2DE9F0414FF0BD
:1004A0004020012505606E480168491C01606D48C7
:1004B00000246E4E04806C48057070696D4AC0F36C
:1004C00080216B48017013786B48994202D00388F1
:1004D0005B1C0380117069490A88521C12B20A80A1
:1004E000142A02DB0C8066490D7066490A88521C8A
:1004F00012B20A80092A02DB0C8063490D7063493D
:100500000A88521C12B20A800A2A5ADB0C806049FF
:100510000D7060490A88521C12B20A80B2F5FA7F47
:1005200004DB5D4A0C800188118004805B4F3888B1
:10053000401C00B238800A2804DB59483C80057012
:1005400001F0FAF83888052801D101F0F5F855488E
:100550000188491C09B20180142918DB0480524823
:1005600005705248017809B1047000E005705048E8
:10057000007860B14F48016821F0F00101603068F7
:1005800040F004003060706980F0040070614A48F7
:100590000188491C09B20180322908DB04804748E0
:1005A00005704748017809B1047000E005704548BE
:1005B0000188491C09B20180642902DB0480424899
:1005C0000570F06940F00100F061BDE8F081234959
:1005D0000120086022484168491C416070470121A0
:1005E00010B11E48416070474FF04020FAE70021EB
:1005F00010B11A48416070474FF04020FAE728B127
:100600001648416841F00201416070474FF04020B8
:10061000F7E710B50022124C032318B1012808D0C7
:10062000002010BD22604FF0402081614361012015
:1006300004E06260094881614361022000F002F831
:10064000012010BD00F01F020121914040094FF030
:10065000E02202EB8000C0F80011704700800040EB
:10066000080000105C000010FBC1072000C009203A
:1006700006C20720620000106000001002C20720BE
:10068000560000105E0000104AC00720FCC1072081
:1006900044C0072004C207206EC007205800001085
:1006A00045C00720FEC1072046C007204BC00720D9
:1006B0003BC0072000C002405A00001047C007207E
:1006C0004CC0072000C2072048C00720C1F120020B
:1006D000904010B5FC4A4FF4007453150EE000280A
:1006E00001DA946500E0D46500BF00BF00BF9365E8
:1006F00000BF00BF00BFD3654000491E0029EED1F6
:1007000010BD70B50546F1480078012813D04FF0B0
:10071000A04045F4807181620121416200210213F1
:10072000436BDB0702D0491C9142F9D3002141629F
:10073000056BA8B270BDE44C206C40F400702064DE
:1007400020214FF0FF30FFF7C1FF04210620FFF703
:10075000BDFF05210120FFF7B9FF05212846FFF75E
:10076000B5FF00F0CBF94FF0000528464FF480713B
:100770004FEA4505A16500BF00BF00BFE165626D9E
:10078000920501D545F00105401C1028F0D300F07A
:10079000B5F9CEE770B50546CC480C46007801287F
:1007A0000ED04FF0A04245F480709062D4620020D9
:1007B0001113536BDB0702D0401C8842F9D370BD84
:1007C000C148016C41F40071016420214FF0FF30F9
:1007D000FFF77CFF04210520FFF778FF05210120AA
:1007E000FFF774FF05212846FFF770FF0221084636
:1007F000FFF76CFF10212046FFF768FFBDE870404F
:1008000000F07CB92DE9FC47B04C0025362025705E
:100810000090694662680846904701982521B1EB2F
:10082000106F01D101202070A948016841F080417A
:100830000160A948A74981602178002960D0016939
:1008400021F470210161A048016C41F480710164C0
:100850004FF0A0444FF44F4020607820C4F80001CE
:100860006420401EFDD14FF00208C4F80080302003
:1008700060604001606143F20F7020611227E76001
:100880007801C4F800014FF40060A0616426761E70
:10089000FDD1A5614FF400410020FFF77BFF4FF42D
:1008A00080190020FFF72DFF10F4084F02D0761CAE
:1008B0004E45F6D30220FFF724FF06460320FFF73C
:1008C00020FF4FF6F0710840844940EA0640884214
:1008D0000DD14FF440510020FFF75CFF00260120AE
:1008E000FFF70FFF800602D4761C4E45F7D3002693
:1008F0004FF480391020FFF704FFC10709D105E04C
:10090000C16821F00F01491DC160A1E7761C4E4569
:10091000F0D341070CD5616841F001016160D4F862
:10092000001141F48061C4F800111521A16000E0BC
:10093000A760800701D5A56102E04FF48070A06137
:10094000674881882164418861640088A064654BA0
:10095000654EA3F16401002001F1200200EB400785
:1009600003EB472741F8307001EBC0077E6042F887
:10097000305002EBC007401C7D600428EED3C4F861
:100980000811C4F80C210320C4F81001C4F8185150
:1009900054490020554E243901F1180200EB400360
:1009A00006EB432341F8303001EBC0035D6042F8B1
:1009B0002050401C0328F1D304F1AC042167626786
:1009C000C4F87880E5674FF02600C4F854014FF072
:1009D0008800C4F8380F4FF6FF70C4F83C0F606D04
:1009E00040F00300606554F8AC0D40F00100206059
:1009F000BDE8FC873E484FF08051016070473D489C
:100A00004FF0805101607047F0B54FF0A045D5F828
:100A10002811344E0388243E021D56F83140DB1C59
:100A20009B0803D080CA5B1E80C4FBD1008806EB04
:100A3000C102401E40F04040491C5060032900D1D3
:100A40000021C5F82811F0BD70B54FF0A04533E086
:100A5000C5F8E80F00072FD5D5F8184128E0214840
:100A6000443850F8340041001CD5C0F30A06F61E85
:100A700040F2EA518E4215D81F49084212D146F081
:100A8000004017F00FF868B1164A011D643AF61CD1
:100A900052F83420B30803D040CA5B1E40C1FBD1DA
:100AA00019F0CCF9641C042C00D10024C5F81841BD
:100AB000D5F81401A042D2D1D5F8E00FD5F8E41F43
:100AC0000840C5D170BD000000C0092010C007203B
:100AD000C4C00F400501155000C00240905C0020CA
:100AE0000000001044230010FF050080443B00106C
:100AF00000E100E080E100E00000901B0748016C8D
:100B000021F4007101644FF48071816500BF00BF62
:100B100000BFC16500BF00BF00BF704700C0092013
:100B2000FF49886048680006FCD58868C0B27047F5
:100B3000FC48016841F040410160416821F0030137
:100B40004160416841F00C014160416841F0300171
:100B50004160F3480821C160202101607047F148DD
:100B6000016821F040410160416821F003014160CA
:100B7000416821F00C014160416821F03001416081
:100B8000E74900200860704700B5FFF7D1FFE64A4B
:100B9000106840F000601060D06940F00060D061E3
:100BA0000620FFF7BDFF106840F0006010609069FC
:100BB00040F0006090615DF804EBD0E700B5FFF70E
:100BC000B7FFD94A106840F000601060D06940F06B
:100BD0000060D0610520FFF7A3FFFF20FFF7A0FF13
:100BE0000346106840F000601060906940F00060BB
:100BF0009061FFF7B4FF184600BD01B5FFF7DEFFB7
:100C0000C007FBD1FFF794FFC74A106840F00060AF
:100C10001060D06940F00060D061106840F0006062
:100C20001060D06940F00060D0610320FFF778FFCA
:100C30009DF80100FFF774FF9DF80000FFF770FFBB
:100C4000FF20FFF76DFF0346106840F00060106062
:100C5000906940F000609061106840F000601060A2
:100C6000906940F000609061FFF779FF184608BD79
:100C700011B5AD4C206840F002002060A06940F042
:100C80000200A061FFF79AFFC007FBD1FFF750FFFA
:100C9000206840F000602060E06940F00060E061A2
:100CA0000320FFF73DFF9DF80100FFF739FF9DF896
:100CB0000000FFF735FFFF20FFF732FF0246FF205D
:100CC000FFF72EFF02EB0022206840F0006020605A
:100CD000A06940F00060A061206840F000602060E2
:100CE000A06940F00060A061FFF739FFE06940F0C3
:100CF0000200E061104618BD2DE93140FFF75EFFAC
:100D0000C007FBD1FFF714FF874A106840F000606E
:100D10001060D06940F00060D0610320FFF700FF51
:100D20009DF80100FFF7FCFE9DF80000FFF7F8FEBC
:100D3000FF20FFF7F5FE0346FF20FFF7F1FE044614
:100D4000FF20FFF7EDFE0546FF20FFF7E9FE05EB6C
:100D5000002004EB002003EB0023106840F000604B
:100D60001060906940F000609061106840F0006091
:100D70001060906940F000609061FFF7F0FE184647
:100D800038BD13B54FEA0104FFF718FFC007FBD1C8
:100D9000FFF7CEFE644A106840F000601060D06932
:100DA00040F00060D0610320FFF7BAFE9DF801001B
:100DB000FFF7B6FE9DF80000FFF7B2FEFF20FFF739
:100DC000AFFE2070FF20FFF7ABFE6070FF20FFF743
:100DD000A7FEA070FF20FFF7A3FEE070106840F0B0
:100DE00000601060906940F000609061106840F011
:100DF00000601060906940F000609061BDE81C40A8
:100E0000ADE677B50D461646FFF7D8FEC007FBD115
:100E1000FFF78EFE444B186840F000601860D869F8
:100E200040F00060D8610320FFF77AFE9DF80100D2
:100E3000FFF776FE9DF80000FFF772FE002406E043
:100E4000FF20FFF76DFE641C05F8010BE4B2B4420D
:100E5000F6D3186840F000601860986940F00060B0
:100E60009861186840F000601860986940F0006070
:100E70009861BDE87E4072E613B50C46FFF79EFE12
:100E8000C007FBD1FFF780FEFFF752FE264A10682D
:100E900040F000601060D06940F00060D061022036
:100EA000FFF73EFE9DF80100FFF73AFE9DF80000B7
:100EB000FFF736FE2046FFF733FE0346106840F08A
:100EC00000601060906940F000609061106840F030
:100ED00000601060906940F000609061FFF73FFE95
:100EE00018461CBD2DE90340FFF768FEC007FBD183
:100EF000FFF74AFEFFF71CFE0B4A106840F0006047
:100F00001060D06940F00060D0610220FFF708FE59
:100F10009DF80100FFF704FE9DF8000006E00000C8
:100F20000000024000C0024000C00920FFF7F8FDA9
:100F30009DF80400FFF7F4FD9DF805301846FFF713
:100F4000EFFD106840F000601060906940F00060B4
:100F50009061106840F000601060906940F000609F
:100F60009061FFF7FCFD18460CBD03B5FFF726FEA8
:100F7000C007FBD1FFF708FEFFF7DAFD3C4A106817
:100F800040F000601060D06940F00060D061022045
:100F9000FFF7C6FD9DF80100FFF7C2FD9DF80000B8
:100FA000FFF7BEFD9DF80400FFF7BAFD9DF80500B0
:100FB000FFF7B6FD9DF80600FFF7B2FD9DF807307C
:100FC0001846FFF7ADFD106840F0006010609069B2
:100FD00040F000609061106840F00060106090691F
:100FE00040F000609061FFF7BAFD18460CBD13B5E4
:100FF0004FEA0104FFF7E2FDC007FBD1FFF7C4FD94
:10100000FFF796FD1A4A106840F000601060D06942
:1010100040F00060D0610220FFF782FD9DF80100E2
:10102000FFF77EFD9DF80000FFF77AFD2078FFF7BF
:1010300077FD6078FFF774FDA078FFF771FDE37826
:101040001846FFF76DFD106840F000601060906971
:1010500040F000609061106840F00060106090699E
:1010600040F000609061FFF77AFD18461CBD00005B
:1010700000C00920FF48016A21F07F710162816987
:1010800041F40001816100BF00BF00BF00BF00BF8D
:1010900000BF00BF00BF00BF00BFC16941F00051E9
:1010A000C16100BF00BF00BF00BF00BF00BF00BFE5
:1010B00000BF00BF00BF816941F080418161416B89
:1010C0008901FCD47047EB48016A21F07F7101620D
:1010D000816941F40001816100BF00BF00BF00BF12
:1010E00000BF00BF00BF00BF00BF00BFC16941F02B
:1010F0000051C16100BF00BF00BF00BF00BF00BF03
:1011000000BF00BF00BF00BF816941F080718161F5
:10111000416B8901FCD47047D64A00B5034610687C
:1011200040F0C1401060FFF7A5FF00BF00BF00BF47
:1011300000BF00BF00BF00BF00BF00BF00BFD0693D
:1011400040F00050D06100BF00BF00BF00BF00BF33
:1011500000BF00BF00BF00BF00BFD06940F4000067
:10116000D06100BF00BF00BF00BF00BF00BF00BF15
:1011700000BF00BF00BF106A40F07F701062906B2C
:1011800040EA83409063D06B6FEA0301C9B240EA42
:101190008140D06300BF00BF00BF00BF00BF00BFE1
:1011A00000BF00BF00BF00BFD06940F08040D061E9
:1011B00000BF00BF00BF00BF00BF00BF00BF00BF37
:1011C00000BF00BF00BDAB4A00B50346106840F049
:1011D00000501060106840F0C0701060FFF773FF9F
:1011E00000BF00BF00BF00BF00BF00BF00BF00BF07
:1011F00000BF00BFD06940F00050D06100BF00BF09
:1012000000BF00BF00BF00BF00BF00BF00BF00BFE6
:10121000D06940F40000D06100BF00BF00BF00BF34
:1012200000BF00BF00BF00BF00BF00BF106A40F09A
:101230007F701062906B40EA83409063D06B6FEADE
:101240000301C9B240EA8140D06300BF00BF00BFC4
:1012500000BF00BF00BF00BF00BF00BF00BFD0691C
:1012600040F08070D06100BF00BF00BF00BF00BF72
:1012700000BF00BF00BF00BF00BF00BD7D4A00B57A
:101280000346106840F0C0401060106840F4000051
:101290001060FFF7EFFE00BF00BF00BF00BF00BF40
:1012A00000BF00BF00BF00BF00BF906940F000500A
:1012B000906100BF00BF00BF00BF00BF00BF00BF04
:1012C00000BF00BF00BFD06940F40000D06100BF84
:1012D00000BF00BF00BF00BF00BF00BF00BF00BF16
:1012E00000BF106A40F07F701062906B40EA83404C
:1012F0009063D06B6FEA0301C9B240EA8140D063CA
:1013000000BF00BF00BF00BF00BF00BF00BF00BFE5
:1013100000BF00BFD06940F08040D06100BF00BF77
:1013200000BF00BF00BF00BF00BF00BF00BF00BFC5
:10133000184600BD4F4A00B50346106840F0005003
:101340001060106840F0C0701060FFF7BCFE00BF76
:1013500000BF00BF00BF00BF00BF00BF00BF00BF95
:1013600000BF906940F00050906100BF00BF00BF17
:1013700000BF00BF00BF00BF00BF00BF00BFD069FB
:1013800040F40000D06100BF00BF00BF00BF00BF3D
:1013900000BF00BF00BF00BF00BF106A40F07F70F9
:1013A0001062906B40EA83409063D06B6FEA030158
:1013B000C9B240EA8140D06300BF00BF00BF00BF98
:1013C00000BF00BF00BF00BF00BF00BFD06940F03A
:1013D0008070D06100BF00BF00BF00BF00BF00BF72
:1013E00000BF00BF00BF00BF00BD10B540F0B80493
:1013F0002046FFF791FE2046BDE81040E3E610B519
:101400000446FFF789FE2046BDE81040DBE610B534
:1014100040F0C0042046FFF77FFE2046BDE81040A4
:10142000D1E61548416821F440114160816821F0FE
:1014300040518160816821F440318160816821F0F0
:1014400040618160816821F440418160416821F000
:1014500030014160416821F0C0014160416821F4E0
:1014600040714160416821F440614160416821F46C
:10147000405103E000C0092000C0024041604168C3
:1014800021F440414160416821F4403141604168AC
:1014900021F4402141608348016A834A114301627B
:1014A000016841F0C34101600021C26B42F08062DB
:1014B000C263491C6429F8DB7C4A4FF0000100BF7D
:1014C000491C9142FBDB0021836B43F08063836303
:1014D000491C3229F8DB4FF0000000BF401C90424D
:1014E000FBDB70476F484FF00051C1614FF40001C2
:1014F00081614FF08041816100BF00BF00BF00BF2C
:10150000426B9201F9D4C16170474FF0000000BFF7
:10151000401C00B26428FADB704730B50346FFF781
:10152000E1FF60494FF4000088618201CA61C20195
:101530008A6144008C618D6B45EA83458D63CD6B78
:10154000DB43DBB245EA8343CB63CA61CC61C8614C
:1015500030BD5748416821F440114160816821F055
:1015600040618160816821F040518160816821F48F
:1015700040318160816821F440418160416821F0FF
:1015800030014160416821F0C0014160416821F4AF
:1015900040714160416821F440614160416821F43B
:1015A00040514160416821F440414160416821F46B
:1015B00040314160416821F4402141603948016A6D
:1015C000394A11430162016841F0C34101600021C1
:1015D000C26B42F08062C263491C0A29F8DB4FF0FB
:1015E00000014FF4FA7200BF491C9142FBDB00215D
:1015F0004CF25032836B43F080638363491C914209
:10160000F8DBE22089E730B500242046FFF7EDFE45
:101610000020FFF7F4FE00255820FFF72FFE7A2068
:10162000FFF788FE6D1CEDB23C2DF5D9641CE4B2C9
:10163000032CEAD930BD00B5AF20FFF76DFDAF2018
:101640005DF804EBBFE500B5AE20FFF765FDAE2009
:101650005DF804EBB7E5F0B584460020FFF7D7FE50
:101660005FF0000606EB4600C0EB86100CEB400472
:1016700004F13D053046FFF7B8FE0020FFF7BFFE3E
:1016800000272078FFF7FAFD2878FFF753FE7F1C2C
:10169000641C6D1CFFB23D2FF3D3761CF6B2032EF3
:1016A000E0D9F0BD00C009200000FC0770880200EE
:1016B00000C002401E4BDA601870597070471C4819
:1016C000C16800290DD0491EC1600AD119490278AC
:1016D0000A7042784A700A710021C170017141712B
:1016E00081717047124A116190707047104801690A
:1016F00000290BD0491E016108D10E4A8178117072
:1017000000215170C17001714171817170470849A8
:10171000088170470648B0F90810002907D0491E13
:1017200009B20181002902D1084601F0D0B8704702
:1017300018C0072078C107201D48016A41F00061E8
:1017400001621C494A68D30709D01B4B1B8833B17F
:10175000836B43F0006383630620487003E0C36B30
:1017600043F00063C363500848600878401E10F0DF
:10177000FF00087003D12020087088684860704717
:1017800010B50C4A002320244F2908D0412909D044
:1017900052290BD0532908D15360936004E0C2E969
:1017A000010301E050609060147010BD906010BDA6
:1017B00000C009202CC007208AC007200020FC4A56
:1017C00020211154401CC0B2C828FAD370470146EA
:1017D000F74A0020401CC0B2135C8B4201D0C828DD
:1017E000F8D3704710B50021F24C0A22B0FBF2F397
:1017F00002FB13006054491CC9B218460529F5D3F1
:1018000010BDF0B5EC4B0121202719700521E94AE4
:10181000002601E01C7844B1541814F8015C25B985
:10182000814202D904F8017C05E0541814F8015DE6
:10183000303525701E70491E11F0FF01EAD1F0BD50
:1018400070B50D461446002802DAC043401C00B2B1
:10185000FFF7C8FF601CC0B2FFF7D3FF2846FFF7B1
:10186000B6FFFF2819D0D34AD14B0021A14201D2A3
:10187000555C13E004D14FF02E051D54555C03E078
:10188000555C202D03D04CB11E1806F8015C401E9B
:10189000491CC9B2C0B20529E8D370BD1D54F6E792
:1018A000F0B50D461446002801DA404200B2FFF7B9
:1018B00099FF601CC0B2FFF7A4FF2846FFF787FF1F
:1018C000BC4ABB4B002164B9555C202D09D0561889
:1018D0007678202E03D12D261F1807F8016C1D5491
:1018E0000FE0A14201D2555CF9E704D14FF02E057B
:1018F0001D54555C02E0555C202D02D01E1806F8E0
:10190000015C401E491CC9B2C0B20529DBD3F0BD41
:10191000FEB52B23002802DA404200B22D23002519
:101920000A266C4690FBF6F706FB170060556D1C07
:101930006DB238B20A2DF5DB0126002509202027DB
:1019400000E046B114F800C0BCF1000F03D1904292
:1019500001DD275405E0265C3036265400266D1C38
:10196000EDB2401E40B20028EBDA2D2B02D16355B8
:101970006D1CEDB26AB168B205E0231813F8013CA2
:101980002354401E40B29042F7DC2E206D1CA05420
:10199000EDB20846FFF71BFF0021854A04E0635CB7
:1019A000461A491C935549B2A942F8DBFEBDFEB563
:1019B0002B23002801DA40422D2300250A266C46FD
:1019C000074690FBF6F006FB107767556D1C6DB26D
:1019D0000A2DF5DB012600250920202700E046B16D
:1019E00014F800C0BCF1000F03D1904201DD275470
:1019F00005E0265C3036265400266D1CEDB2401EF4
:101A000040B20028EBDA2D2B02D163556D1CEDB2EC
:101A10006AB168B205E0231813F8013C2354401E54
:101A200040B29042F7DC2E206D1CA054EDB2084667
:101A3000FFF7CDFE00215E4A04E0635C461A491CB4
:101A4000935549B2A942F8DBFEBDFEB52B2600280E
:101A500001DA40422D2600240A276D46844690FB79
:101A6000F7F007FB10CC05F804C0641C64B20A2C24
:101A7000F4DB0127002009244FF0200C00E04FB1D7
:101A800015F804E0BEF1000F04D19C4202DD05F818
:101A900004C005E02F5D30372F550027401CC0B231
:101AA000641E64B2002CEADA2D2E02D12E54401CA2
:101AB000C0B26BB144B205E02E1916F8016C2E5578
:101AC000641E64B29C42F7DC2E24401CEC54C0B26D
:101AD00001EB810102EB8101CAB20021344B04E029
:101AE0006C5C561A491C9C5549B28142F8DBFEBD1C
:101AF00070B50D4616461C46FFF774FE601CC0B25A
:101B0000FFF77FFE05EB850006EB8000C1B2294A96
:101B1000274B0020A04201D2155C5D5406D3155C12
:101B2000202D03D04CB15E1806F8015C491E401C04
:101B3000C0B2C9B20528EDD370BD5D54F6E770B5EB
:101B40000446084615461E46FFF741FE184B01465F
:101B5000FF2804D106E01A54641C401CC0B222784D
:101B6000002AF8D115480078002804D0002E02D0B1
:101B700029445F20585470BD2DE9FF4F8146DDE9AF
:101B80000D048A469346FFF722FE2022DFF82C80C0
:101B900007490A234FF0640C012C11D198F800502A
:101BA00075B10D18A5F10E05AA706A702A7028E0AB
:101BB0007A0208200AC20720630000104CC00720E8
:101BC00099FBF3F603FB16970D183037A5F10E05B8
:101BD000022CAF7096FBF3F703FB176606F1300695
:101BE0006E7099FBFCF606F1300605F80E6B08D115
:101BF00098F800602EB1A5F10A05AA706A702A70E3
:101C000021E09AFBF3F603FB16A70D183037A5F178
:101C10000A05032CAF7096FBF3F703FB176606F17A
:101C200030066E709AFBFCF606F13006674605F842
:101C30000A6B08D198F800602EB1A5F10605AA70CC
:101C40006A702A7022E09BFBF3F603FB16B70D18AF
:101C50003037A5F10605042CAF7096FBF3F703FBB4
:101C6000176606F130066E709BFBFCF606F1300637
:101C7000674605F8066B09D198F8004034B1A5F124
:101C800002050A546A702A70BDE8FF8F039C94FB1A
:101C9000F3F203FB124430340C5492FBF3F403FBD5
:101CA00014220844A0F1020030324270039991FBE3
:101CB000F7F101F130010170E6E770B50D46144609
:101CC000FFF790FD601CC0B2FFF79BFD2846FFF7B1
:101CD0007EFDFF4BFF4A002124B95D5C202D01D021
:101CE00015540FE0A14201D25D5CF9E704D14FF039
:101CF0002E0515545D5C02E05D5C202D02D01618A7
:101D000006F8015C401E491CC9B2C0B20529E3D3E4
:101D100070BD17B501EB810002EB8000C2B29DF8E7
:101D20000030ED4803F00F0100EB1313445CE94968
:101D30008C54521ED2B21B788B549DF80130521E27
:101D400003F00F04D2B2045D8C54521E00EB131347
:101D5000D2B21B788B549DF80230521E03F00F0450
:101D6000D2B2045D8C54521E00EB1313D2B21B7816
:101D70008B549DF80330521E03F00F04D2B2045D61
:101D80008C54521E00EB1310D2B2007888541EBD42
:101D900010B504460846FFF71AFDCF4904F00F02BC
:101DA0008B5CCC4A01EB14111354401EC0B209786D
:101DB000115410BD01EB810102EB8101C64A10B53F
:101DC00000F00F03C9B2D45CC24B02EB10105C549C
:101DD000491EC9B20078585410BD01EB810130B5DD
:101DE00002EB8101CBB2C11700EB117424F00F019B
:101DF000401AB949B74A405CD0542011C41700EBCF
:101E0000147424F00F055B1E401BDBB2405CD05401
:101E10002011C41700EB147424F00F055B1E401B47
:101E2000DBB2405CD0545B1ED8B22311C95C1154A4
:101E300030BD01EB810102EB8101CBB2A64910B5A7
:101E400000F001028C5CA34AD45444085B1E04F0E9
:101E50000100DBB2085CD0545B1ED8B2630803F00B
:101E600001045B080C5D1454401E03F00104C0B271
:101E70000C5D14545B08401E03F00104C0B20C5DFD
:101E800014545B08401E03F00104C0B20C5D1454EE
:101E90005B08401E03F00104C0B20C5D1454401EE8
:101EA000C4B25808085C105510BD104400B2002898
:101EB00001DA084402E0884201DB401A00B27047B0
:101EC00086490020087048708870854948707047BE
:101ED000F0B505460E461746FFF770FC7D4C002016
:101EE000401C15F8011BC0B204F8011B1428F7D3DD
:101EF0005FF00000401C16F8011BC0B204F8011B83
:101F00001428F7D35FF00000401C17F8011BC0B283
:101F100004F8011B1428F7D35FF00000401C13F8ED
:101F2000011BC0B204F8011B1428F7D3F0BD30B573
:101F3000044608461546FFF74AFCFF2809D0654AC3
:101F40002178002905D04319641C401CD154C0B22B
:101F5000F6E730BDF0B5634D634F95F9004004EBF3
:101F60008406641C2C705E4C3E44256835602579DF
:101F70003571207061702271A370F0BD10B5029CA4
:101F8000FFF7A6FF5648C378827841784920FFF7CB
:101F9000E1FF642094FBF0F0BDE81040C0B2FFF711
:101FA000B6BB00EB800001EB800050490870504840
:101FB000027070472DE9FE4340010D4600F5806038
:101FC000044602A9FEF7DDFE694604F10800FEF7AB
:101FD000D8FE01A904F10C00FEF7D3FE2846FFF756
:101FE000F6FB3C4C202630252654401CC0B24FF056
:101FF00021082554401CC0B22F2104F80080401C49
:10200000C0B24FF040092154401CC0B24FF0230C25
:1020100004F80090401CC0B200222654401CC0B2FC
:102020002654401CC0B22154401CC0B2212125546A
:10203000401CC0B204F800C0401CC7B29DF80200AA
:10204000FFF73BFE9DF8000000222321FFF735FE3D
:102050009DF80100401E0C2802D301208DF80100DC
:102060009DF801002349002201EB80004021FFF789
:102070005EFFE6557F1CF8B23A212554401CC0B2E1
:10208000002204F80080401CC0B22154401CC0B2A1
:102090002554401CC0B204F80090401CC0B221542A
:1020A000401CC0B221212554401CC0B204F800C01D
:1020B0009DF80400FFF701FE9DF805000022402175
:1020C000FFF7FBFD00229DF80600232114E000002D
:1020D0000AC207207A02082023C1010034C1072068
:1020E00078C1072038C00720480208204DC00720CB
:1020F0004EC0072068C10100FFF7DFFDBDE8FE8389
:102100002DE9FE4F04460D464FF46060FEF7B0FD2A
:102110006242402100B2FFF7C8FE400100F5806036
:10212000044602A9FEF72DFE694604F10800FEF7F9
:1021300028FE01A904F10C00FEF723FE2846FFF754
:1021400046FB06469DF8080040273025DFF804B519
:10215000DFF804A520244FF0210C4FF02309552867
:1021600020D0CF22D123502873D0422872D05328B8
:1021700071D049286BD1C8210AF80610761CF1B23B
:10218000ED220AF80120491CC9B2E2220AF8012016
:10219000491C9DF809205046C9B2092A7ED2313225
:1021A00042548CE39DF80A0052280ED1C2210AF84D
:1021B0000610761CF1B2EA220AF80120491CC9B2C5
:1021C000EB220AF80120491CCEB250460AF806401C
:1021D000761CF1B20AF80140491CC9B220E300BFE5
:1021E0009DF8012096F838309A4267D19DF8022078
:1021F00096F82C309A42F8D14554491CC9B23A227B
:1022000000F801C0491CC9B24254491CC9B2455426
:10221000491CC9B24754491CC9B24254491CC9B2ED
:1022200000224554491CC9B20AF801909DF80400E7
:102230002121FFF742FD9DF8050000224021FFF714
:102240003CFD9DF8060000222321FFF736FDBDE886
:10225000FE8F0BE033E0B0E29DF80110FF48002252
:1022600000EB81004021FFF762FEF0E70AF806204C
:10227000761CF1B250460AF80130491CC9B20AF87E
:102280000140491CC9B20AF80140491CC9B20AF808
:102290000140491CC9B20AF8014000E0FCE2491CB7
:1022A000C9B27EE29DF8013092F83860B3429CD109
:1022B0009DF8023092F82C2093429DD0BEE29DF80A
:1022C0000A0043287ED1C1210AF80610761CF1B21B
:1022D000E0220AF80120491CC9B2F2220AF80120C2
:1022E000491C9DF80900C9B24FF0C00E09280BD255
:1022F00031300AF80100491CC8B20AF800E0401C5D
:10230000C0B20AF8004016E0A0F109025A2A15D21C
:10231000401C0A23B0FBF3F2904630320AF8012049
:10232000491C03FB1800C9B230300AF80100491CEF
:10233000C8B20AF800E0401CC1B20BE00AF8014044
:10234000491CC9B20AF80140491CC9B20AF8014047
:10235000491CC9B250460AF80140491C9DF80020AA
:10236000BBF83C30C9B25E469A423BD19DF8012091
:1023700096F838309A4235D19DF8022096F82C30E4
:102380009A422FD14554491CC9B23A2200F801C0E3
:10239000491CC9B24254491CC9B24554491CC9B26E
:1023A0004754491CC9B24254491CC9B20022455481
:1023B000491CC9B20AF80190491CCEB29DF804002C
:1023C000212100E045E0FFF778FC9DF805000022A0
:1023D0004021FFF772FC9DF8060000222321FFF741
:1023E0006CFC36E04454491CC9B200224554491CD7
:1023F000C9B200F801C0491CC9B24754491CC9B24E
:102400004454491CC9B24454491CC9B24554491CDE
:10241000C9B20AF80190491CCEB29DF802002121F0
:10242000FFF74BFC9DF8000000222321FFF745FC3D
:102430009DF80100401E0C2802D301208DF80100F8
:102440009DF801108548002200EB81004021FFF734
:102450006EFD9DF80A005A285CD1C2210AF80610C8
:10246000761CF1B2C7220AF80120491CC9B25046B5
:102470000AF80140491CC9B25E460AF80140491CED
:10248000C9B20AF80140491CC9B24454491CC9B236
:102490004454491C9DF80020BBF83C30C9B29A4214
:1024A00039D19DF8012096F838309A4233D19DF801
:1024B000022096F82C309A422DD14554491CC9B2BD
:1024C0003A2200F801C0491CC9B24254491CC9B2A1
:1024D0004554491CC9B24754491CC9B24254491C0D
:1024E000C9B200224554491CC9B20AF80190491CDE
:1024F000CEB29DF804002121FFF7DFFB9DF8050017
:1025000000224021FFF7D9FB9DF80600002223217D
:10251000FFF7D3FB36E04454491CC9B200224554AE
:10252000491CC9B200F801C0491CC9B24754491C32
:10253000C9B24454491CC9B24454491CC9B2455497
:10254000491CC9B20AF80190491CCEB29DF802009C
:102550002121FFF7B2FB9DF8000000222321FFF7A5
:10256000ACFB9DF80100401E0C2802D301208DF821
:1025700001009DF801103948002200EB8100402144
:10258000FFF7D5FC9DF80A00572869D1C1210AF848
:102590000610761CF1B2E0220AF80120491CC9B2EB
:1025A000F2220AF80120491CCEB29DF809105046CB
:1025B0004FF0F00E092906D231318155761CF1B267
:1025C00000F801E019E0A1F109025A2A11D2491CD0
:1025D0000A23B1FBF3F2904630328255761C03FB9E
:1025E0001811F6B230318155761CF1B200F801E0D5
:1025F00006E08455761CF1B24454491CC9B24454D7
:10260000491CC9B25E464454491C9DF80020BBF8E1
:102610003C30C9B29A4241D19DF8012096F8383039
:102620009A423BD19DF8022096F82C309A4235D13F
:102630004554491CC9B23A2200F801C0491CC9B22C
:102640004254491CC9B24554491CC9B24754491C9B
:10265000C9B206E0004002407A02082068C10100C9
:1026600053E04254491CC9B200224554491CC9B226
:102670000AF80190491CCEB29DF804002121FFF711
:102680001CFB9DF8050000224021FFF716FB9DF87A
:10269000060000222321FFF710FB36E04454491CBA
:1026A000C9B200224554491CC9B200F801C0491CF6
:1026B000C9B24754491CC9B24454491CC9B2445414
:1026C000491CC9B24554491CC9B20AF80190491CB9
:1026D000CEB29DF802002121FFF7EFFA9DF800002D
:1026E00000222321FFF7E9FA9DF80100401E0C2883
:1026F00002D301208DF801009DF801109F480022AF
:1027000000EB81004021FFF712FC9DF80A004B28E6
:102710007FF4ABADC1210AF80610761CF1B2E022BD
:102720000AF80120491CC9B2F2220AF80120491C0A
:102730009DF80900C9B209280BD231300AF801000E
:10274000491CC8B2EA210AF80010401CC0B2E521B9
:1027500015E0A0F109025A2A16D2401C0A23B0FB48
:10276000F3F2904630320AF80120491C03FB1800AE
:10277000C9B230300AF80100491CC8B2EA210AF88F
:102780000010401CC1B20BE00AF80140491CC9B25C
:102790000AF80140491CC9B20AF80140491CC9B2F3
:1027A00050465A464454491C9DF80030BBF83C60E2
:1027B000C9B2B3423FF476AD40E0C1210AF8061039
:1027C000761CF1B20AF80120491CC9B20AF801309E
:1027D000491CC8B29DF80910092903D231310AF801
:1027E000001016E0A1F109025A2A10D2491C4FF03C
:1027F0000A08B1FBF8F606F130020AF80020401C86
:1028000008FB1611C0B230310AF8001005E00AF8D2
:102810000040401CC0B20AF80040401CC1B2504603
:102820005E464454491CC9B24454491C9DF80020DA
:10283000BBF83C30C9B29A423FF4D2AC4454491C74
:10284000C9B200224554491CC9B200F801C0491C54
:10285000C9B24754491CC9B24454491CC9B2445472
:10286000491CC9B24554491CC9B20AF801909DF8E7
:1028700002002121FFF721FA9DF800000022232108
:10288000FFF71BFA9DF80100401E0C28FFF4E4AC92
:1028900001208DF80100DFE4A2F109035A2B0DD2CB
:1028A000521C0A25B2FBF5F303F130064654491CCD
:1028B00005FB1322C9B23032425403E04454491C90
:1028C000C9B24454491CC9B20AF80140BFE42C4BB8
:1028D0001A78521E104440B21870002801DA002005
:1028E000187093F90000274A00EB80000244264844
:1028F0001368036012790271427811444170704785
:1029000030B521490123214D91F9012091F904109D
:1029100000EB80048A4202D105F8243030BD1B4D03
:102920004C1C00EB800005EB8000A24201D1037536
:1029300030BD8C1CA24202D180F8283030BDCC1CA6
:10294000A24202D180F83C3030BD0C1DA24202D11F
:1029500080F8503030BD4C1DA24202D180F8643066
:1029600030BD8C1DA24202D180F8783030BDC91D27
:102970008A42FBD180F88C3030BD000068C1010074
:1029800038C007204802082078C107207A020820B2
:1029900090F900308B4200DA027090F900309342D7
:1029A00000DD0170704790F900308B4200DA017051
:1029B00090F90010914200DD02707047B0F90030CC
:1029C0008B4200DA0180B0F90010914200DD0280F4
:1029D0007047B0F900308B4200DA0280B0F9003065
:1029E000934200DD0180704703688B4200DA026089
:1029F0000368934200DD0160704700002DE9F84F45
:102A00009E460A9B202931D2CC1701EB5475EC105D
:102A100026466FF03C077C4325F0070500EB440495
:102A20004D1BDFF84CA704F5B774002A34D0A0B2D0
:102A3000C5F10701C9B24FF0010404FA01F40244E0
:102A4000514611DC25E023B1012B05D0022B06D025
:102A500008E00D5C254304E00D5C654001E00D5C81
:102A600025400D54401C80B28242ECDCBDE8F88F5A
:102A700023B1012B05D0022B06D008E00D5C2543C5
:102A800004E00D5C654001E00D5C25400D54401EE6
:102A900080B28242ECDBE9E7BEF1000FE6D0B2B2D1
:102AA00001EB0E064FEAE67406EB5477ADB2A94689
:102AB00027F00705C7F3CF04A6EB0505AFB277DD16
:102AC000A24244D1C8463FE023B1012B13D0022BD0
:102AD00024D035E0C2F1030101EB4105C5EB8111C2
:102AE00000EB4106C8F1070C1AF80610012505FA9B
:102AF0000CF529430FE0C2F1030101EB4105C5EBE1
:102B0000811100EB4106C8F1070C1AF806100125E7
:102B100005FA0CF569400AF8061011E0C2F103014C
:102B200001EB4105C5EB811100EB4105C8F1070C34
:102B30001AF80560012101FA0CF18E430AF80560CC
:102B400008F101081FFA88F8B845BDD38CE0CD170D
:102B500001EB557CCCF3CF05C5F1030505EB45062C
:102B6000C6EB851500EB45082CF007054E1BFF252D
:102B7000F5407144CE1701EB56760096C6F3CF06AA
:102B8000C6F1030606EB460CCCEB861600EB4606B8
:102B9000B346009E26F00706891B89B2C1F10806DC
:102BA000FF21B1402BB1012B0ED0022B19D023E015
:102BB0005EE01AF808C04CEA050C0AF808C01AF8DA
:102BC0000BC04CEA010C09E01AF808C08CEA050CAD
:102BD0000AF808C01AF80BC08CEA010C0AF80BC0FE
:102BE0000AE01AF808C02CEA050C0AF808C01AF81E
:102BF0000B608E430AF80B60A11A01297FF74BAFD7
:102C0000511C1FFA81FC2DE023B1012B0DD0022BAA
:102C100019D023E0CCF1030101EB4105C5EB811193
:102C200000EB41054FF0FF360AE0CCF1030101EB68
:102C30004105C5EB811100EB41051AF80560F6432B
:102C40000AF805600AE0CCF1030505EB4506C6EB82
:102C5000851500EB450600210AF806100CF1010C61
:102C60001FFA8CFCA445CFD3BEF1000FBFF613AF03
:102C7000A24240D1A9F1010139E023B1012B12D0C8
:102C8000022B22D032E0C2F1030404EB4405C5EB71
:102C9000841400EB440CC1F107061AF80C4001251E
:102CA000B5402C430EE0C2F1030404EB4405C5EB30
:102CB000841400EB440CC1F107061AF80C400125FE
:102CC000B5406C400AF80C4010E0C2F1030404EB7C
:102CD0004405C5EB841400EB440CC1F107061AF857
:102CE0000C500124B440A5430AF80C50491E89B287
:102CF000B942C2D2BAE623B1012B26D0022B43D06F
:102D000062E0C2F1030101EB4105C5EB811100EB6B
:102D1000410CC9F108061AF80C504FF0FF0909FAE6
:102D200006F10D430AF80C50C4F1030101EB410513
:102D3000C5EB811100EB410129FA07F91AF801509E
:102D400045EA09050AF801503EE0C2F1030101EB32
:102D50004105C5EB811100EB410CC9F108061AF8D9
:102D60000C50FF2101FA06F675400AF80C50C4F128
:102D7000030505EB4506C6EB851500EB4505F94057
:102D80001AF805604E401DE0C2F1030101EB410558
:102D9000C5EB811100EB410CC9F108061AF80C5083
:102DA000FF2101FA06F6B5430AF80C50C4F10305F9
:102DB00005EB4506C6EB851500EB4505F9401AF80D
:102DC00005608E430AF80560111B012992DD521E31
:102DD00091B22BE023B1012B0DD0022B19D023E0AF
:102DE000C1F1030202EB4205C5EB821200EB420582
:102DF0004FF0FF360AE0C1F1030202EB4205C5EBDA
:102E0000821200EB42051AF80560F6430AF80560E5
:102E10000AE0C1F1030505EB4506C6EB851500EB9D
:102E2000450600220AF80620491E89B2A142D1D8DF
:102E30001CE62DE9F8470446DDE9090517468A46F0
:102E40009946E61948B90CE04B4600225146204607
:102E50000095FFF7D3FD641C24B2A642F4DABDE866
:102E6000F887002220460095FFF7C8FD0AEB09000D
:102E70008046401E01B200233A4620460095FFF7E7
:102E8000BDFD761EC9F1000034B203B20FFA88F11D
:102E9000002220460095FFF7B1FD784202B20023E0
:102EA000514620460095FFF7A9FDD8E72DE9F843E4
:102EB00081460E461D46002022B1022A1AD1002466
:102EC00080462CE00024804612E03719621B002364
:102ED00039464846CDF80080FFF790FD2A1B0023B5
:102EE00039464846CDF80080FFF788FD641CE4B2FF
:102EF000AC42EAD3BDE8F883371B621B0023394696
:102F00004846CDF80080FFF779FD2A1B002339469B
:102F10004846CDF80080FFF771FD641CE4B2AC4276
:102F2000EAD3E7E72DE9F8474FF0FF35C3F1200377
:102F30009D4005EA020323FA01F200929DF8021077
:102F4000DFF82C8289469DF80310099C8A4608EB1D
:102F500000019DF800709DF801C018F8002091F85C
:102F60007A3091F8F45091F86E6184B17A4008F8A3
:102F7000002083EA0C0381F87A3085EA090581F89C
:102F8000F45086EA0A0600BF81F86E6167E73A43AB
:102F900008F8002043EA0C0381F87A3045EA090575
:102FA00081F8F45046EA0A06EEE72DE9FC4F0746A1
:102FB0000CA88A46B0E8100316469B4600251CE084
:102FC00005FB0480611E5B46415C8DF80710A11E65
:102FD000415C8DF80610E11E415C8DF80510211F43
:102FE000405C8DF80400781900B2CDF8009051468D
:102FF000019AFFF797FF6D1C2DB2B542E0DBBDE8EB
:10300000FC8F2DE9FF4F9AB08346DDE928592B2428
:103010000020DDF89CC0202614A90E54401C00B2EC
:103020000A28FADB00208A4604E0175C0AF80070E0
:10303000401C00B29842F8DBBCF1000F04DACCF17E
:1030400000000FFA80FC2D2400204FF00A0811AF79
:103050009CFBF8F108FB11C23A54401C40B20FFA35
:1030600081FC0A28F4DB01220020092100E042B1A2
:1030700017F801C0BCF1000F03D1A94201DD7E5455
:1030800005E07A5C30327A540022401CC0B2491EFE
:1030900049B20029EBDA2D2C02D13C54401CC0B2BD
:1030A0006DB141B205E07A1812F8012C7A54491E2C
:1030B00049B2A942F7DC2E21401C7955C0B200214B
:1030C000D44607E0A9EB01057A5C6544491C05F884
:1030D000012C49B28142F5DB2D2C06D1A9EB010070
:1030E00060445B1C00F8014C1BB2002002AD1AE0EA
:1030F0001CF800101F4F01EB410600EB400217F8CF
:10310000161005F8121007EB460105EB42024E7847
:1031100056708E789670CE78D6700E791671497981
:10312000401C517100B29842E2DB2D2C06D1A9EB74
:10313000000050445B1C00F8014C1BB2002403EB60
:1031400043060EE0285D8DF863002A9800900BEB93
:10315000040000B20823189A1B99FFF7E3FE641CD1
:1031600024B2B4EB460FEDDB1EB0BDE8F08F0000DB
:103170004203082023BB0100002801DA404200B2CC
:10318000704710B5FF48016821F0E06101604168B7
:10319000C1F30B12FC4901F17E044A800B885B1CD1
:1031A0000B80A1F1F803D97F24F81120491CC9B282
:1031B000D977032903D2016841F08071016010BD05
:1031C00010B54FF40270FDF753FDF04C207040F243
:1031D0000A20FDF74DFD60704FF40370FDF748FDC8
:1031E000A07040F20E20FDF743FDE0704FF4047034
:1031F000FDF73EFD207240F21220FDF739FD6072AE
:103200004FF40570FDF734FDA07240F21620FDF773
:103210002FFDE0724FF41170FDF72AFD207140F28E
:103220004620FDF725FD60714FF41270FDF720FD7B
:10323000A07140F24A20FDF71BFDE07110BDD24A9B
:103240000832D16BD36B5B1A8342FBD37047D049F2
:10325000112008727047CF48C16941F44021C16113
:10326000C16941F44011C161CB480021C1604FF4F4
:103270004061C164022141614FF47A7282614FF46E
:10328000487202624FF49672426201220265416006
:10329000092141607047BC490120F83981F83200AA
:1032A00070472DE9F04F0020BC4A85B04FF4F4710F
:1032B00004461454401C00B28842FADBB248F83885
:1032C000417871B100214FF0140C7A2301FB03F017
:1032D00001EB81039B0001EB81041BB20CEB840426
:1032E0006AE2804690F820004FF00205C0074FF0D8
:1032F00003061BD098F81400002816D0A8483227DF
:10330000CDE90204CDE90076032118233A460846A8
:10331000FFF74BFEA348CDE90204CDE90076032177
:10332000182332220846FFF740FEB8E0B8F96800DB
:10333000DFF85492DFF870A20F27DFF870B2A9F11E
:103340000C09012853DB1423002100941A46084677
:103350000194FFF76EFD1223012100941A460846DE
:103360000194FFF766FD99F8000010F03C0F0BD0B8
:10337000C10611D598F81400F0B10F23CDE902A4CD
:1033800002211A46032013E08948CDE902040F23E5
:1033900002211A4603200BE010F00C0F0CD098F815
:1033A000140048B10F23CDE902B402211A460846A1
:1033B000CDE90075FFF7F9FD7E484069C00516D4D8
:1033C0000B230022142109200094FFF717FB002390
:1033D0005B221F2109200094FFF710FB98F80500DD
:1033E00004231330C1B200220920FFF75FFDB8F9B2
:1033F0006800022853DB142300941A46002117208A
:103400000194FFF716FD122300941A46012118209B
:103410000194FFF70EFD99F8010010F03C0F0BD05E
:10342000C10611D598F81400F0B10F23CDE902A41C
:1034300002211A46192013E05F48CDE902040F2348
:1034400002211A4619200BE010F00C0F0CD098F84E
:10345000140048B10F23CDE902B402211A46192005
:10346000CDE90075FFF7A1FD52484069800516D4EB
:103470000B230022142120200094FFF7BFFA002321
:1034800044221F2120200094FFF7B8FA98F8050085
:1034900004231330C1B200222020FFF707FDB8F843
:1034A0006600DFF8E4A0C1464FF00A0B4FF00108B8
:1034B000AAF1780A00282CD000941423232200219A
:1034C00032200194FFF7B5FC00940223032214215B
:1034D00035200194FFF7ADFC009402230322142150
:1034E0004F200194FFF7A5FC99F820004F46800774
:1034F00010D599F8140000280BD032212948CDE9C5
:103500000016CDE902040A46182300212B20FFF7FC
:103510004CFD88E00B230022142142200094FFF789
:103520006DFA002322221F2142200094FFF766FA41
:10353000BAF96800002805DA7879042300221330EC
:10354000C1B205E078790423C0F12200C1B20222A1
:103550004220FFF7ABFC387A0A287ED2B7F96E001A
:10356000A0F5AA4155395ED097F92100052190FBBD
:10357000F1F0ADF81000B9461422002104A8FFF7BD
:103580001DFA1BE00040034030C10720D412082080
:103590000040024000C00240008001404203082079
:1035A0007FB9010015BA0100E7BA010005BB0100AF
:1035B000ABBA010000C00920C9BA0100CDE90084FE
:1035C0004746BDF91030202200213320FFF731FC9F
:1035D00099F921000A2811DACDE9007509230C2296
:1035E00005213D20FFF725FC99F9210002238DE8F4
:1035F00091000521FEA23D20039712E064284FF0C0
:1036000009035EDACDE90075122205213A20FFF7A1
:1036100010FC99F9210003238DE8B100F5A20521E2
:103620007BE0FFF7EEFC00940E231B2202215C20BE
:103630000194FFF7FEFB00231A1F08215C20009471
:10364000FFF7DCF900230422082176200094FFF71D
:10365000D5F9002327221F2100E042E043200094F7
:10366000FFF7CCF96FF00F0300221F2169200094AF
:10367000FFF7C4F999F807004D46C0F12200C1B226
:10368000042302226920FFF711FC4746BAF97200B1
:103690000421CDE90007CDE90217D0460523D6A2C3
:1036A00016214620FFF7ADFCB8F97000642836DA21
:1036B000CDE9000704230521D1A25D20CDE90267F1
:1036C00036E0CDE90075182205213720FFF7B1FB60
:1036D00099F9210004238DE8D1000521CAA23720E1
:1036E0009FE7BAF96800B0F57A7F02DA10F57A7FC1
:1036F00009DC642190FBF1F000B28DE85101042354
:10370000BFA2052109E090FBFBF001B2CDE9001852
:10371000CDE902680423BAA205213A2081E790FB93
:10372000FBF000B28DE8D1000423B5A205215A2098
:10373000FFF767FC2879401CC0B2287103281CD30E
:103740002C716879401CC0B268710D2800D36C716F
:10375000A879401CC0B2A871202800D3AC71E879C8
:10376000401CC0B2E871112800D3EC71287A401CCB
:10377000C0B22872142800D32C7205B0BDE8F08FB7
:10378000A34DA44FED5C05EB450517F815601654E5
:1037900007EB4505401C6E781654401CAE78165455
:1037A000401CEE781654401C2E791654401C6D793E
:1037B0001554401C5B1C1BB29C42E1DC491C09B245
:1037C0000429FFF682ADD8E72DE9F04F924AC3B045
:1037D0000521127800200124914620AF052A03D04C
:1037E000B9F1210F02D005E08CA000E091A020905B
:1037F00001200621954E96F82020D30708D094A3E7
:1038000047F8203000F1010001F10101C0B2C9B256
:10381000930706D594A347F82030401C491CC0B23A
:10382000C9B28A4BEC331D7815F01C0F06D094A555
:1038300047F82050401C491CC0B2C9B2834BEC333E
:103840005B7813F01C0F06D093A347F82030401C80
:10385000491CC0B2C9B2964B1D786533012DB3F92E
:10386000003002D0022D03D00AE04BB991A301E051
:1038700033B996A347F82030401C491CC0B2C9B2E6
:103880008B4B9B1D1D78552D0AD103F18F052D887B
:1038900035B994A547F82050401C491CC0B2C9B2A4
:1038A0005B78552B08D1824B95335B8823B993A362
:1038B000491C47F82030C9B2B37AB2465B1CDBB270
:1038C0003046B372142B09D300238372457A6D1CE2
:1038D000EDB245728D4201D38AF80930744E0DF174
:1038E000080B3B363146307891F901102A287AD0FE
:1038F0003346002893F9045076D0544B042893F8AB
:1039000014C072D096F9043096F9017096F90280CD
:10391000FB1AB646052869D07646112801F0478083
:10392000022801F05980624A3B325278921E4FFAC7
:1039300082FC0C2801F07080142801F0838210288A
:1039400001F09182152801F0AF82422801F0C28275
:10395000452801F03783F146462801F09F83544EF5
:103960003A4A3B3641F2D82E96F90460B2F97420F7
:103970000BEB8606352802F03B814F46372802F0D4
:10398000EF83032802F04E85304A2528D27C9646E4
:1039900002F0C6872D4A4FF05E092828527E02F0B9
:1039A000F187434E3B367678761E77B2292803F0AE
:1039B00069801A2803F00681564E1F2803F0018300
:1039C000202803F03483212803F05B83222803F0AE
:1039D000A383232803F0EA83354E3B36172803F0F0
:1039E00056843F2898E0F5E0FDE3FDE3FDE30000A9
:1039F000202500002020250020202020420000005B
:103A00002020204100000000202020250000000090
:103A10007A02082023BB0100B700001020C2FBF08F
:103A2000E0E2ED2EE7E0F0FFE420207A3A305A2081
:103A3000000000002020CAEEEDF2F0EEEBFC20E5E5
:103A4000ECEAEEF1F2E820200000000038C0072088
:103A5000202020C0E2E0F0E8FF20F1E5F2E821219B
:103A6000212020200000000020C0E2E0F0E8FF203C
:103A7000E1E0F2E0F0E5E821212120200000000053
:103A800020C0E2E0F0E8FF20E8F1F2EEF7EDE8EA2E
:103A9000E0204E310000000020C0E2E0F0E8FF200E
:103AA000E8F1F2EEF7EDE8EAE0204E320000000027
:103AB0003DC10720C2EDE5F82EF2E5ECEF2E4E31C8
:103AC000E7E0E2FBF8E5EDE000000000C2EDE5F81C
:103AD0002EF2E5ECEF2E4E31E7E0EDE8E6E5EDE025
:103AE0000000000020D1F0E0E1EEF2E0EB20F8EB86
:103AF000E5E9F4204E3120200000000020D1F0E064
:103B0000E1EEF2E0EB20F8EBE5E9F4204E32202084
:103B1000000000003209082003F0F383472803F077
:103B20008D85B1463C36402804F08580412804F05C
:103B30002281272804F0C8810A2804F0CA811C28A1
:103B400004F0E7811B2804F0A783C8461E2804F070
:103B500063841D2804F08484382804F0B784A6F513
:103B6000BE722B28D27E04F008852C2804F05385E1
:103B7000A6F5BE72DFF84494B2F93C20561EB44656
:103B800009F10106392804F0AD863A2804F0C5860B
:103B90003B2804F07A873C2804F09B873D2805F0F9
:103BA0004E8045463E2805F0F780072805F0B28193
:103BB0000828FBD01228F9D01328F7D03628F5D0E2
:103BC0001928F3D0092805F0CA812D2805F0CC81E9
:103BD00005F0D0B9FA4CA1B9FAA00290FFA0039069
:103BE000FEA00490FDA002AD0346059007CDFEF7B0
:103BF0006FF9002221214FF47D70FEF75EF8707896
:103C000090B196F90100012861D002287ED00328E6
:103C10007DD04FF4806404287AD0052879D0062816
:103C200078D0072877D0D3E7ECA3ECA2EBA1EBA0E8
:103C3000FEF74EF90023208803221946FDF758FFAE
:103C40006088002303220121FDF752FFA088002392
:103C500003220221FDF74CFF0322E08800231146D6
:103C6000FDF746FF0023208909221946FDF740FF92
:103C70006089002309220121FDF73AFFA089002372
:103C800009220221FDF734FFE089002309220321E4
:103C9000FDF72EFF208A002313220121FDF728FFC4
:103CA000608A002313220321FDF722FFD14C002359
:103CB0000F2220881946FDF71BFF208800230F22C2
:103CC0000121FDF715FF002320880F221EE3C3A367
:103CD000C2A2C2A1C1A0FEF7FBF896F90200002320
:103CE00080B21A461946FDF703FFB44C96F902005C
:103CF000403404EB40100023008804221946FDF7ED
:103D0000F7FE96F9020004EB401005E094E0BFE0F6
:103D1000C9E07BE12AE2CEE24088002304220121AF
:103D2000FDF7E6FE96F90200002304EB40100422A2
:103D300080880221FDF7DCFE96F90200002304EBE7
:103D400040100422C0880321FDF7D2FE96F902003C
:103D5000002304EB4010092200891946FDF7C8FE34
:103D600096F90200002304EB40100922408901214A
:103D7000FDF7BEFE96F90200002304EB4010092275
:103D800080890221FDF7B4FE96F90200002304EBBE
:103D900040100922C0890321FDF7AAFE96F902000E
:103DA000002304EB40100E22008A1946FDF7A0FE06
:103DB00096F90200002304EB40100E22408A0121F4
:103DC000FDF796FE96F90200002304EB40100E2248
:103DD000808A0221FDF78CFE96F90200002304EB95
:103DE00040100E22C08A0321FDF782FE96F90200E0
:103DF000002304EB40101322008B1946FDF778FED8
:103E000096F90200002304EB40101322408B01219D
:103E1000FDF76EFE96F90200002304EB401013221A
:103E2000808B0221FDF764FE96F90200002304EB6B
:103E300040101322C08B29E068A368A267A167A085
:103E4000FEF746F896F90200002380B21A4619469A
:103E5000FDF74EFE96F902000023042234F810000C
:103E60000121FDF745FE564996F90200183100235D
:103E700031F8100004220221FDF73AFE5D4996F95F
:103E800002003431002331F81000042203213EE205
:103E900052A352A251A151A0FEF71AF800231A46CC
:103EA0001946092033E24DA34CA24CA14BA0FEF7CA
:103EB0000FF84FF460663046FCF7DAFE05463046F0
:103EC000FCF7D6FE04EB40142046FCF796FEC0B289
:103ED00003220021FDF76EFF601CFCF78EFEC0B2CE
:103EE00006220021FDF766FFA01CFCF786FEC0B28B
:103EF00009220021FDF75EFFE01CFCF77EFEC0B248
:103F00000C220021FDF756FF201DFCF776FEC0B203
:103F10000F220021FDF74EFF601DFCF76EFEC0B2C0
:103F200012220021FDF746FFA01DFCF766FEC0B27D
:103F300003220121FDF73EFFE01DFCF75EFEC0B24B
:103F400006220121FDF736FF04F10800FCF755FEBB
:103F5000C0B209220121FDF72DFF04F10900FCF791
:103F60004CFEC0B20C220121FDF724FF04F10A002F
:103F7000FCF743FEC0B20F220121FDF71BFF04F145
:103F80000B00FCF73AFEC0B212220121FDF712FF2E
:103F900004F10C00FCF731FEC0B203220221FDF750
:103FA00009FF04F10D00FCF728FEC0B20622022131
:103FB000FDF700FF04F10E001EE00000420708209C
:103FC0000209082020202D2D2D2D2D2D2D2D2020D6
:103FD0002021202020202020000000002020202060
:103FE00020202020202020202020202020202020D1
:103FF00000000000AEC10720FCF7FFFDC0B209229F
:104000000221FDF7D7FE04F10F009DE0AFF234036B
:10401000AFF23802AFF23C01AFF24000FDF758FFBB
:104020004FF460663046FCF723FE05463046FCF749
:104030001FFE04EB401404F11000FCF7DEFDC0B2DB
:1040400003220021FDF7B6FE04F11100FCF7D5FDB7
:10405000C0B206220021FDF7ADFE04F11200FCF70C
:10406000CCFDC0B209220021FDF7A4FE04F113002B
:10407000FCF7C3FDC0B20C220021FDF79BFE04F14A
:104080001400FCF7BAFDC0B20F220021FDF792FE2A
:1040900004F11500FCF7B1FDC0B212220021FDF7BA
:1040A00089FE04F11600FCF7A8FDC0B2032201212D
:1040B000FDF780FE04F11700FCF79FFDC0B2062259
:1040C0000121FDF777FE04F11800FCF796FDC0B260
:1040D00009220121FDF76EFE04F11900FCF78DFDA8
:1040E000C0B20C220121FDF765FE04F11A00FCF7B5
:1040F00084FDC0B20F220121FDF75CFE04F11B001C
:10410000FCF77BFDC0B212220121FDF753FE04F142
:104110001C00FCF772FDC0B203220221FDF74AFE2B
:1041200004F11D00FCF769FDC0B206220221FDF773
:1041300041FE04F11E00FCF760FDC0B2092202211D
:10414000FDF738FE04F11F00FCF757FDC0B20C224A
:104150000221FDF72FFE00230A220321A8B2FDF75A
:10416000C7FC002312220321A0B2D0E0E0A00290FD
:10417000E5A00390EAA00490EFA00590F4A00690BB
:10418000F9A00790FEA0089096F904500BEB85006B
:10419000001D0EC85BF82500FDF79AFEFE480222BE
:1041A0003F21B0F96800FDF7B3FBFC4D68690022C0
:1041B000C0F300202421FDF780FDF74C23216C344F
:1041C0002078FDF7E5FD68690022C0F3402040211A
:1041D000FDF773FD60782121FDF7DAFD3C34002204
:1041E00020884A2102E095E070E157E3FDF765FD84
:1041F000608800226A21FDF760FDE94C0022592108
:104200002078FDF75AFD607800227921FDF755FDF1
:10421000E44C00226821206880B2FDF74EFDE248A0
:1042200000226D21006880B2FDF747FDDF4D0022BE
:1042300051212888FDF741FDDD4E00227121308893
:10424000FDF73BFD688800225A21FDF736FD708896
:1042500000227A21FDF731FDD64D00224121287838
:10426000FDF72BFDD44E002261213078FDF725FDAE
:10427000687800224221FDF720FD7078002262213B
:10428000FDF71BFD2068002280B24321FDF715FDDC
:104290006068002280B24421FDF70FFDC74C002268
:1042A0006321206880B2FDF708FD6068002280B2BB
:1042B000642104F02CBEC24B1A4611460846FDF795
:1042C00007FEC04C20784FF000034FF0060219465D
:1042D000FDF70EFC0023062201219AF81A00FDF7D3
:1042E00007FC6820FCF7C4FC80B2002306220221F0
:1042F000FDF7FEFBA088002310221946FDF7F8FB0E
:104300006A20FCF7B5FC002380B210220221FDF7E1
:10431000EFFB5DE4ACA002909F48A830B0F900200C
:10432000B0F90200C82A05DDC82801DDACA00BE009
:10433000B1A009E0C82801DDB5A005E09648B0F9B4
:104340006600C82801DDB8A00290BDA00390C2A0FD
:104350000490C7A00590CCA00690D1A00790D6A04D
:104360000890DBA00990E0A00A90E5A00B90EAA0DD
:104370000C90EFA00D90F4A00E90F9A00F90FEA06D
:1043800010908F481530119021B1681A022804DD71
:10439000891C04E00020307102E0A94200DD317187
:1043A0009AF809005546052807D296F904100BEB38
:1043B0008100001D0EC8029809E096F9042007EB61
:1043C00080000BEB8201091D50F8140C0EC9FDF79B
:1043D0007FFD96F90410A1B196F9010088B18142E0
:1043E00003D1EB4880F83C400BE0081A012802D0CA
:1043F000022804D005E0E64880F8284001E0E448BF
:104400000475654C012266346C21208880B2FDF76A
:1044100054FC02224021B4F90200FDF779FAA08988
:104420000122232180B2FDF748FC6089012224216A
:1044300080B2FDF742FCD74C20784FF000024FF0DD
:104440002601FDF73AFC207900225E21FDF735FCBC
:10445000207A00222521FDF730FC207B00223C2120
:10446000FDF72BFC217E564800222A3000EB81000C
:104470003E21FDF75CFDA08B00227B21FDF71DFC9A
:10448000287D68B13A20FDF7A2F9C14C20252554BA
:104490003A20FDF79CF925543A20FDF798F9255468
:1044A000BD4C4FF4616000222168B1FBF0F080B296
:1044B0007A21FDF702FC21683C20B1FBF0F1B1FB51
:1044C000F0F200FB121000225A21F2E6BAF8660060
:1044D000554650B1900709D5394BBCF1000F06D0B5
:1044E000AEA2B4A1B9A004F043BD7BE183E17EE1BB
:1044F000202020203F202020202020202024202396
:10450000204020210000000020202020202020200A
:10451000202020202020204A2020206A00000000A7
:104520002020202020202020202020202020205952
:104530002020207900000000202020682020206D0D
:104540002020202020512071205A207A00000000D5
:1045500020202073202020532020202020202043B2
:10456000202020440000000020202066202020463B
:104570002020202020202063202020640000000034
:1045800020202020202020202020202020412061C9
:104590002042206200000000B8C0072000C00920AF
:1045A000D40000100C01001050C20720F8000010C9
:1045B000F4000010A6000010A80000101401001064
:1045C0003EC10100384002402020CDE5EEEFF0E58D
:1045D000E4E5EBE5EDEDEEF1F2FC2020000000005B
:1045E00020C220F0E0E1EEF2E520C1CFD1312CC1B4
:1045F000CFD132200000000020202020C220F0E097
:10460000E1EEF2E520C1CFD13120202000000000F2
:1046100020202020C220F0E0E1EEF2E520C1CFD141
:1046200032202020000000002020D0E0E1EEF2E067
:1046300020EEF220E1E0F2E0F0E5E82000000000EA
:104640002055E13D2020206CC22049E13D20202062
:104650002040C020000000002055ED3D20202023F8
:10466000C22049ED3D2020202024C0200000000071
:104670002030253A305E3A302620303C2F3E202034
:104680002F307B200000000020C1E0F2E0F0E5FFC9
:10469000202020202020202020202020000000009A
:1046A00020C1CFD1312020202020202020202020F8
:1046B000202020200000000020C1CFD13220202067
:1046C000202020202020202020202020000000006A
:1046D00020CDE0E3F0F3E7EAE020202020202020B6
:1046E000202020200000000020D1E5F2FC20202026
:1046F000202020202020202020202020000000003A
:1047000020D1EFE5F6F4F3EDEAF6E8E820202020EA
:10471000202020200000000020C6F3F0EDE0EB2078
:10472000F1EEE1FBF2E8E92020202020000000006B
:1047300020C1E0F2E0F0E5E9EDFBE920E6F3F0ED81
:10474000E0EB20200000000020CFE0F1EFEEF0F2DF
:1047500020202020202020202020202000000000D9
:1047600020D3F1F2E0EDEEE2EAE820202020202044
:10477000202020200000000020D1E1F0EEF120E018
:10478000E2E0F0E8E92020202020202000000000C6
:104790007A02082020400240FC0000102020202047
:1047A000EDE520EFEEE4EAEBFEF7E5EDE02020207A
:1047B0002020000020202020202020C1E0F2E0F076
:1047C000E5FF202020202020202000002020202085
:1047D000202020C0C2C0D0C8DF21212020202020DE
:1047E000202000009BA3A1A2A6A1ACA07BE6B14A19
:1047F0001146084677E6B0A00290B548007850B15F
:10480000B4A00390B9A00590BEA0049095F8240030
:1048100028B1C2A004E0C7A00390CCA0F3E7D1A0C8
:104820000690D6A00790DBA00890A248153009900A
:104830000BEB8100001D0EC89FA0FDF749FBDB4F6D
:1048400001224021788880B2FDF737FA0222212127
:10485000B7F90400FDF75CF838880022242180B203
:10486000FDF72BFA95F921000022772180B2FDF7A0
:1048700024FAB5F96E00A0F5AA41553905D14A1EB2
:104880005121CBA0FDF753FB04E00122512180B25E
:10489000FDF713FA707804287ED03AE5C648B8F1DF
:1048A000000F406905D0C0F34020B8F1010F03D0DC
:1048B00006E0C0F3002003E0BAF86860012E02D0E1
:1048C00048B1BEA008E0C9A20292CEA20392794AE2
:1048D000C0A004922BE0D1A0D20701D0D5A213E052
:1048E000B24A083212F80820D60601D5D7A20BE04A
:1048F000160701D5DBA207E0560701D5DFA203E0CA
:1049000012F03C0F0CD0E3A20292E8A20392EDA2B7
:104910000492A64A0A3212F808201AB1EFA202E065
:10492000F4A2F1E7F9A20592624A153206927646A0
:10493000002B01DCA94200DA317196F904500BEB2F
:104940008502121D5BF825100CCAFDF7C1FA96F915
:1049500002000022401C80B22121FDF7AEF99348ED
:1049600096F902104430012230F811004021FDF781
:10497000A4F98E4896F902104830012230F811004F
:104980002321FDF79AF9894896F902104030002258
:1049900030F81100242100E005E0FDF78EF9707871
:1049A000022844F0E782DF4880F83C40B1E4DEA30F
:1049B000E3A2E9A1EEA0FDF78BFADA48012221215A
:1049C00080F83C40794C0C34608880B2FDF775F972
:1049D0000122402103F078BD5546D00718D0BCF124
:1049E000000F01D0E8A000E03248CFA3EBA2F1A174
:1049F0000290FDF76DFACB480022232180F83C405D
:104A0000688F80B2FDF759F901224021E88E01E05C
:104A1000EEA0EAE780B24CE4F2A00290F7A0039087
:104A2000FCA00490234815300590AFF65020069066
:104A3000022B02DD86F804C002E0A94200DA3171DF
:104A40009EF904400BEB8400D0E901235BF82410AD
:104A5000F6A001E2E220E1E0F2E0F0E5E9EDEEECC3
:104A600020E6F3F0EDE0EBE5000000002020202040
:104A700020E2E2E5E4E8F2E520E5B820202020206D
:104A80000000000020CFF0E82020EDE5EEE1F5EE9B
:104A9000E4E8ECEEF1F2E8200000000020C1C0D212
:104AA000C0D0C5DF20CDC520C2C2C5C4C5CDC02081
:104AB000000000003EC10100202020202020C1C0B5
:104AC000D2C0D0C5DF202020202020200000000000
:104AD000C6000010202020F0E0E7F0FFE6E0E5F25D
:104AE000F1FF20202020202000000000202020496D
:104AF000F0E0E7F03D2020202021C02020202020D1
:104B00000000000020202055E1E0F23D2020202080
:104B10002040C22020202020000000002020202053
:104B2000C4D22E20EDE5E8F1EFF0E0E2E5ED202043
:104B30000000000020202020E7E0F0FFE6E0E5F2A2
:104B4000F1FF20202020202000000000202020490C
:104B5000E7E0F03D202020202021C0202020202040
:104B60000000000020202074E1E0F2203D20202001
:104B700024B043202020202000000000202020C757
:104B8000E0F0FFE43D202020207725202020202079
:104B90000000000020202043E1E0F23D2020202002
:104BA0002051C02AF7202020000000001CC107204F
:104BB0002D2D2D2D2D2D000000C00920202020207E
:104BC000C1CFD12120C2DBCACBDED7C5CD2020206A
:104BD000000000002020202020202020C1CFD13242
:104BE0002020202020202020000000002020202045
:104BF000CED2D1D3D2D1D2C2D3C5D2202020202030
:104C0000000000002020C220D1D2D0D3CAD2D3D0FD
:104C1000C520C8C1DDCF20200000000020202020BA
:104C2000C1CFD12120C2CACBDED7C5CD20202020C4
:104C30000000000020E0E2E0F0E8FF20F1E5F2E80B
:104C400020202020202020200000000020E0E2E0A2
:104C5000F0E8FF20EFE5F0E5E3F0E5E2202020209A
:104C60000000000020E0E2E0F0E8FF2055E2FBF564
:104C70003C55ECE8ED2020200000000020E0E2E0C0
:104C8000F0E8FF2055E2FBF53E55ECE0EAF120208C
:104C90000000000020E7E0E1EBEEEAE8F0EEE2E001
:104CA000ED20E8E7E2EDE520000000002055E8F106
:104CB000F2203D2020202040C22020202020202043
:104CC000000000002049E8F1F2203D2020202023B0
:104CD000C0202020202020200000000020C4D2205E
:104CE000EDE5E8F1EFF0E0E2E5ED202020202020E6
:104CF0000000000020F1EEF1F2EEFFEDE8E5202DDE
:104D000020EDEEF0ECE02020000000002074E8F13F
:104D1000F2203D20202024B04320202020202020ED
:104D2000000000007A02082020C2FBF5EEE42020FB
:104D300020202020202020202020202000000000F3
:104D40002049EDE0E3F03D202020202020204041BC
:104D500020202020000000002055EDE0E3F03D2061
:104D600020202020202021C2202020200000000020
:104D7000202020202020CDC0C3D0D3C7CAC02020EF
:104D80002020202000000000202020C0C2C0D0C869
:104D9000DF20D1C5D2C82121212020002046F1E505
:104DA000F2E83D2020202020202040C3F6202020B3
:104DB000000000002055F1E5F2E83D2020202020F1
:104DC000202023C2202020200000000020202020BE
:104DD000202020D1C5D2DC2020202020202020200F
:104DE0000000000020CAEEEDF2F0EEEBFC20E5EC56
:104DF000EAEEF1F2E82020200000000020C2FBF0E3
:104E0000E0E2EDE8E2E0FEF9E8E920E7E0F0FFE4C7
:104E10000000000020C0E2F22EE2FBF0E0E2EDE84C
:104E2000E22E20E7E0F0FFE4000000002020202038
:104E3000D1CFC5D6D4D3CDCAD6C8C82020202020F3
:104E400000000000B9F1210F0BD0B7A0BC4B014608
:104E5000029003F11502BBA0FDF73AF8012001F022
:104E600093BEBEA0F2E7C3480290C3A0039031B145
:104E7000012908D002290AD003290CD00FE0C4A0D0
:104E80000290C9A00AE0CEA00290D3A006E0D8A06C
:104E90000290DDA002E0D6A00290E1A003900346BC
:104EA000B5A1B448029AA1E4B9F1050F10D09EA0B3
:104EB000A34B024602901533DFA1E5A0FDF708F8E9
:104EC0000120FDF71DFD00222121BAF86200A1E5B5
:104ED000A2A0EDE7DEA3DEA2DDA1DDA0FCF7F8FFD6
:104EE00004208AF818009AF81A005546012820D0A4
:104EF000022820D003282BD006282BD00C282BD01A
:104F0000D9A002908E482C761530039096F90410A3
:104F1000E1A00BEB810253685BF82120D8A1FCF7DC
:104F2000D7FF96F9010096F90410884216DA30711D
:104F300019E0DFA000E0E4A00290E9A00390EEA059
:104F40000490AFF6D40005907D4815300690DDE75B
:104F5000EFA0F1E7F4A0EFE7F9A0EDE7411A01298E
:104F600001DD411E3171022800D130710220FDF7B0
:104F7000C7FC00222521B5F87E00FCF79EFEF64C0A
:104F800000225E212088FCF798FE002226216088FE
:104F9000FCF793FE00223C21A088FCF78EFE6848B7
:104FA000E1882A3000EB810000223E21FCF7BFFFA0
:104FB00000227B212089FCF780FE002228216089C5
:104FC00028E500BF40F60260FBF752FE01B25046F2
:104FD000AAF83C10402901DD00218187BAF93C0084
:104FE00060B101280FD0022817D043DD96F90110D7
:104FF00096F9042091422ADA31712DE0504BD7A165
:1050000003F1150203E04E4ADAA31532DFA1E5A051
:10501000FCF75EFF002030712CE096F9010096F954
:105020000410884201DA307104E0411A022901DDDE
:10503000801EF8E796F9040010B1012803D019E0AA
:105040003F4B153311E03E4ACAA315320EE08A1ACF
:10505000022A01DD891ECFE796F90410421E914213
:10506000F1D0801E8142EBD0D4A3DAA2C7A1CDA09B
:10507000FCF72EFF0120FDF743FC30792821FDF7D6
:105080003FF830795B21401CC0B2FDF739F8307928
:105090007B21801CC0B2FDF733F887E4284B1A4609
:1050A00011460846FCF714FF4FF46060FBF7E0FD83
:1050B00099F902104D464A42402100B2FCF7F5FE34
:1050C000400100F5806086B240A93046FBF759FEEA
:1050D00041A9301DFBF755FE694606F10800FBF7B4
:1050E00050FE01A906F10C00FBF74BFE3EA906F1AC
:1050F0001000FBF746FE3FA906F11400FBF741FE46
:1051000042A906F11800FBF73CFE9DF80001552866
:1051100006D0502805D0422804D0532803D045E4B7
:1051200064E1A0E13AE244E320C2FBEAEBFEF7E5EA
:10513000ED20202020202020202020200000000022
:105140003EC101002020CACECDD2D0CECBDC20C5BE
:10515000CCCACED1D2C820200000000020C2EAEB89
:10516000FEF7E5ED202020202020202020202020F8
:1051700000000000343A0000202020EDE5E2EEE7D8
:10518000ECEEE6E5ED2121212020202000000000AA
:1051900020202020CEF2F1F3F2F1F2E2F3E5F2204A
:1051A0002020202000000000202020202020E1E0FE
:1051B000F2E0F0E5FF202020202020200000000069
:1051C00020202020202020C0E2E0F0E8FF20202046
:1051D000202020200000000020202020202020204F
:1051E000F1E5F2E82020202020202020000000000F
:1051F000202020202020C1E0F2E0F0E5FF20202048
:10520000202020200000000020202020F0E0E7F0F7
:10521000FFE6E0E5F2F1FF20202020200000000062
:105220002020202020E7E0F0FFE6E0E5F2F1FF207B
:10523000202020200000000020E4EBE8F2E5EBFC59
:10524000EDEEF1F2FC202D202021F72E00000000D1
:1052500020C2DBD0C0C2CDC8C2C0DED9C8C920C7F9
:10526000C0D0DFC40000000020E2FBEAEBFEF7E55F
:10527000ED202020202020202020202000000000E1
:10528000C2DBD0C0C2CDC8C2C0DED9C8C920C7C029
:10529000D0DFC42000000000202020C0C2D2CECC2D
:1052A000C0D2C8D7C5D1CAC8C9202020000000007C
:1052B00020F0E0E720E220ECE5F1FFF620202020BE
:1052C000202020200000000020F0E0E720E2203233
:1052D00020ECE5F1FFF6E020202020200000000077
:1052E00020E4EBE8F2E5EBFCEDEEF1F2FC2020200F
:1052F00028F72E200000000020EEF7E5F0E5E4EDB1
:10530000EEE520E2EAEBFEF7E5EDE8E5000000005F
:1053100020F0E0E720E2203320ECE5F1FFF6E0208A
:10532000202020200000000020F0E0E720E220EF15
:10533000EEEBE3EEE4E0202020202020000000003F
:1053400020F0E0E720E220E3EEE4202020202020EF
:105350002020202000000000B8C0072020C6F3F065
:10536000EDE0EB20EFF3F1F22020202020202020A0
:105370000000000020CEF7E8F1F2E8F2FC20E6F3AE
:10538000F0EDE0EB2020202000000000202820206D
:10539000202020202020202020202020202020200D
:1053A00000000000202020C6D3D0CDC0CB20D1CE1D
:1053B000C1DBD2C8C920202000000000207B2020B3
:1053C00020202020202020202020202020202020DD
:1053D00000000000205B2020202020202020202012
:1053E0002020202020202020000000009DF8020125
:1053F000522843F0BF85EFA3F4A2FAA1FFA0FCF767
:1054000067FD9DF8040000224021FCF756FC9DF842
:10541000050000222321FCF750FC9DF80600002225
:105420002421FCF74AFC9DF8020000222521FCF70C
:1054300044FC9DF8000000225E21FCF73EFC9DF834
:105440000100401E0C2801D38DF801409DF8011089
:10545000F048002200EB81002821FCF768FD0020C5
:10546000AAF83C0019E69DF802014128FAD1EA4861
:105470000290D0A003909DF8F800412803D19DF838
:10548000F90041284AD001220021281DFDF78BFA9E
:10549000E2A00490E7A00590ECA0069095F90450D6
:1054A0000BEB8501091D5BF825000EC9FCF710FD0B
:1054B0009DF8FC0000223E21FCF7FFFB9DF8FD005B
:1054C00000223D21FCF7F9FB9DF8FE000022292176
:1054D000FCF7F3FB9DF8FA0000225B21FCF7EDFBE3
:1054E0009DF8F80000223C21FCF7E7FB9DF8F9004D
:1054F000401E0C2801D38DF8F9409DF8F910C548DD
:10550000002200EB81005D21FCF711FD9DF80801F0
:105510009DF8091100EB012080B2C4E0D1A00490F5
:10552000D6A002AD0346059007CDFCF7D1FCBAF832
:10553000380000222B2180B2FCF7BFFB9DF804004D
:1055400000224021FCF7B9FB9DF805000022232131
:10555000FCF7B3FB9DF8060000222421FCF7ADFB0D
:105560009DF8020000222521FCF7A7FB9DF8000012
:1055700000225E21FCF7A1FB9DF80100401E0C28D3
:105580007ED200BF9DF80110A248002200EB8100EE
:105590002821FCF7CCFCAAF83C407EE59DF80201EE
:1055A000432807D05A2829D00526572869D04B28E8
:1055B00068D072E5AFF2F8300290B6A003907DA0FB
:1055C00004909DF8F800412803D19DF8F900412886
:1055D00008D001220021281DFDF7E5F98FA00590D4
:1055E00094A021E09FA055E09DF8F9108948002281
:1055F00000EB81005D21FCF79AFC51E0ABA002902A
:10560000B0A00390B5A004909DF8F800412803D104
:105610009DF8F90041283CD001220021281DFDF70A
:10562000C2F9B4A00590B9A0069095F904500BEB0F
:105630008501091D5BF825000EC9FCF749FC9DF8A2
:10564000FC0000223E21FCF738FB9DF8FD00002203
:105650003D21FCF732FB9DF8FE0000222921FCF7DA
:105660002CFB9DF8FA0000225B21FCF726FB9DF83D
:10567000F80000223C21FCF720FB9DF8F90002E035
:1056800014E016E04EE0401E0C28ADD38DF8F94032
:10569000AAE7A4A002AD0346059007CDFCF718FCCD
:1056A0009DF80101401C00222B2145E78DF80140A7
:1056B00068E7A2A00290A7A00390ACA0049087A0E6
:1056C0000590B0A00690B5A00790BAA00890BFA022
:1056D0000990C4A038E000BF8DF80140B4E100BFDC
:1056E0009DF8F900002205EB80007721FCF71FFCF4
:1056F000BDF8040101227A21FCF7DFFA9DF80300CE
:105700009DF80710012200EB012080B23C21FCF73C
:10571000D4FABDF8060101223E21FCF7CEFAAAF820
:105720003C60BAE43C481C3802908AA003908FA0E9
:1057300004906AA00590B1A0069098A007909DA043
:105740000890B4A00990B9A00A9095F904700BEBE9
:105750008700001D0EC85BF82700FCF7B9FB9DF819
:1057600001010022401C2121FCF7A7FA9DF804004A
:1057700000224021FCF7A1FA9DF805000022232118
:10578000FCF79BFA9DF8060000222421FCF795FA0D
:105790009DF8020000222521FCF78FFA9DF80000F9
:1057A00000225E21FCF789FA9DF80100401E0C28BA
:1057B00048E179E120203025282020305E2030404B
:1057C0003A30233A302420200000000020202020FE
:1057D00020202020C8C1DDCF202020202020202014
:1057E00000000000202020E8EBE820E2EAEBFEF7D2
:1057F000E5EDE8E52020202000000000202020200A
:10580000CFE5F0E5E7E0E3F0F3E7EAE02020202051
:105810000000000068C10100503A00002020202054
:105820002020F3F1F2F0E0EDE5EDE0202020202053
:10583000000000002020305B5D2020303C20303E06
:105840003A303D3A3029202000000000202020205E
:105850002055ECE8ED3D20202BC2202020202020E8
:105860000000000020202020EDE520F3F1F2F0E020
:10587000EDE5EDE020202020000000002020202089
:105880002055F1E5F2E83D20202BC22020202020E9
:1058900000000000202020202020E1E0F2E0F0E5E0
:1058A000E82020202020202000000000202020C20E
:1058B000FBF0E0E2EDE8E2E0FEF9E8E9202020205C
:1058C0000000000020202020202020E7E0F0FFE45E
:1058D0002020202020202020000000002030252F24
:1058E0002820202F305E2030403A30233A302420C8
:1058F00000000000202020202020E7E0E2E5F0F872
:10590000E5ED2020202020200000000020305B2F2B
:105910005D20202F303C20303E3A303D3A30292067
:105920000000000020202020EDE520E7E0E2E5F087
:10593000F8E5ED202020202000000000202020207D
:10594000202020D0E0E7F0FFE420202020202020AD
:105950000000000020202020202020E1E0F2E0F0E4
:10596000E5E82020202020200000000020CDE0F7E6
:10597000E0EBEE20202020202020202020202020CE
:10598000000000002020202020202020202055E1A1
:10599000E0F23D20203CC2200000000020CAEEEDD5
:1059A000E5F620202020202020202020202020205C
:1059B000000000002030712F7720202F307220301F
:1059C000693A306C3A30732000000000202020201B
:1059D00020202020202055E1E0F23D20203EC22062
:1059E0000000000020202020CEF2E4E0EDEE202098
:1059F00020207AE02AF72E2000000000202020201E
:105A0000202020202055E1E0F23D20203CC2202033
:105A10000000000020202020202020202055E1E050
:105A2000F23D20203EC220200000000020A8ECEA29
:105A3000EEF1F2FC20202020207AE02AF72E202010
:105A400000000000BFF448AE9DF80100E54D0022C3
:105A500005EB80002821FCF76AFA9DF8FC00002283
:105A60006921FCF72AF99DF8FD0000226C21FCF762
:105A700024F99DF8FE0000227321FCF71EF99DF821
:105A8000FA0000227121FCF718F99DF8F8000022B5
:105A90007221FCF712F99DF8F900401E0C28FFF462
:105AA0001FAE8DF8F9401BE6CFA002909DF80201D1
:105AB0004C2806D0542806D0552806D0752806D084
:105AC00007E0CFA004E0D4A002E0D9A000E0DEA06F
:105AD0000390AFF2203004909DF8F800412803D1E4
