:020000040000FA
:1000000078540010290200002D0200002F02000089
:100010003102000033020000350200000000000041
:100020000000000000000000000000003702000097
:1000300039020000000000003B020000D5D400009F
:100040003F0200009B040000CF0500003F020000BB
:100050003F0200004B4701003F0200003F0200004A
:100060003F0200003F0200003F0200003F0200008C
:100070003F0200003F0200003F0200003F0200007C
:100080003F0200003F0200003F0200003F0200006C
:100090003F0200003F020000CF3200003F0200009C
:1000A0003F020000315C01003F0200003F020000FF
:1000B000490A00003F0200003F0200003F0200002A
:1000C0003F0200003F0200003F02000000F002F883
:1000D00000F09BF80AA090E8000C82448344AAF147
:1000E0000107DA4501D100F090F8AFF2090EBAE845
:1000F0000F0013F0010F18BFFB1A43F0010318475C
:1001000000370400403704000A444FF0000C10F898
:10011000013B13F0070408BF10F8014B1D1108BF85
:1001200010F8015B641E05D010F8016B641E01F825
:10013000016BF9D113F0080F1EBF10F8014BAD1C75
:100140000C1B09D16D1E58BF01F801CBFAD505E093
:1001500014F8016B01F8016B6D1EF9D59142D6D3ED
:10016000704700000023002400250026103A28BF15
:1001700078C1FBD8520728BF30C148BF0B60704719
:100180006E2916F04F84702916F0228566291CF01E
:100190000F8365291CF00C8367291CF009836129F2
:1001A0001CF00883692916F00184642916F0FE8387
:1001B000752916F0FB836F2916F0A884782916F0AC
:1001C000FA840368DB0928BF41F08001632917F036
:1001D000AE83732917F0B383E32917F0BE830020A1
:1001E00070471FB51CF0DDFA17F070FC040000200A
:1001F00000211CF035F9401C6060002000211CF03B
:1002000019F9E0601FBD10B510BD17F075FF11465C
:10021000FFF7E7FF0DF05FF917F093FF03B4FFF767
:10022000F2FF03BC17F098FF08480047FEE7FEE71F
:10023000FEE7FEE7FEE7FEE7FEE7FEE7FEE7FEE796
:1002400003480449024A044B70470000CD000000F7
:10025000785200107854001078520010FEE710B564
:1002600019F0DAFF1AF066F81AF058F819F0E6FFFC
:10027000AFF30080BDE810401AF022B810B51AF0B4
:1002800033FE1BF0A3FC1AF087FEBDE810401AF005
:10029000FFBF1AF047BD1AF00FBB09B1002070472D
:1002A00019F018B8002070470FB41CB5084B06AA07
:1002B0007B4469460090059817F017FB0446002020
:1002C000694617F025FB20461CBC5DF814FB0000B6
:1002D0005D76010009684A0501D540B27047C9053D
:1002E000FCD500B2704709684A0501D5C0B2704715
:1002F000C905FCD580B2704770477047FFFFFFFF0C
:1003000030B54E482021C0F8A01100BFD0F8A01190
:100310004906FBD500F180000322C0F884204FF489
:100320000031C0F828114FF00001C0F82C114FF037
:100330000103C0F88C30424C446003604FF0AA03C4
:10034000C3604FF05504C460A0F18000D0F888501D
:100350006D01FBD540F8802FC360C460C0F88810E1
:10036000384A4264C0F848118168A0F180006FEA01
:1003700011618A073449D0F80C2102F0030207D03A
:1003800092B3012A46D0022A4AD0032A51D13BE037
:100390002AB1012A11D0022A27D0032A49D150F8C4
:1003A000882FC2F30E02521C53000268C2F30742A8
:1003B000521CB3FBF2F2254B0CE050F8882FC2F32D
:1003C0000E02521C53000268C2F30742521CB3FBD8
:1003D000F2F21F4B5A43C36FA0F18800DBB203F166
:1003E0000103B2FBF3F223E00EE050F8882FC2F3D2
:1003F0000E02521C53000268C2F30742521CB3FBA8
:10040000F2F24FF4FA43E5E7D0F804210F4BD2B2F1
:10041000521C0BE0D0F804210D4BD2B2521C05E067
:10042000D0F804214FF4FA43D2B2521CB3FBF2F2DB
:100430000A6043F23A01016030BD000000C00F4085
:100440004F0003004AF144400800001000093D003D
:100450008096980070B542F227346143002202234F
:10046000FF240425012660B1012809D17B4843609F
:10047000C26081610460456146604168C907FCD182
:1004800070BD4FF040204360C260816104604561EF
:1004900046604168C907FCD170BD2DE9F0414FF0BD
:1004A0004020012505606E480168491C01606D48C7
:1004B00000246E4E04806C48057070696D4AC0F36C
:1004C00080216B48017013786B48994202D00388F1
:1004D0005B1C0380117069490A88521C12B20A80A1
:1004E000142A02DB0C8066490D7066490A88521C8A
:1004F00012B20A80042A02DB0C8063490D70634942
:100500000A88521C12B20A800A2A5ADB0C806049FF
:100510000D7060490A88521C12B20A80B2F5FA7F47
:1005200004DB5D4A0C800188118004805B4F3888B1
:10053000401C00B238800A2804DB59483C80057012
:1005400001F07CF93888052801D101F077F9554888
:100550000188491C09B20180142918DB0480524823
:1005600005705248017809B1047000E005705048E8
:10057000007860B14F48016821F0F00101603068F7
:1005800040F004003060706980F0040070614A48F7
:100590000188491C09B20180322908DB04804748E0
:1005A00005704748017809B1047000E005704548BE
:1005B0000188491C09B20180642902DB0480424899
:1005C0000570F06940F00100F061BDE8F081234959
:1005D0000120086022484168491C416070470121A0
:1005E00010B11E48416070474FF04020FAE70021EB
:1005F00010B11A48416070474FF04020FAE728B127
:100600001648416841F00201416070474FF04020B8
:10061000F7E710B50022124C032318B1012808D0C7
:10062000002010BD22604FF0402081614361012015
:1006300004E06260094881614361022000F002F831
:10064000012010BD00F01F020121914040094FF030
:10065000E02202EB8000C0F80011704700800040EB
:1006600008C0072036C2072030C2072000C009207A
:10067000300000103CC207203AC207202C000010B6
:100680002500001038C207204AC0072026000010AD
:1006900044C007202E0000106EC0072032C2072081
:1006A00045C007202800001046C007204BC0072087
:1006B0003BC0072000C0024034C2072047C00720CB
:1006C0004CC007202A00001048C00720C1F12002BA
:1006D000904010B5FC4A4FF4007453150EE000280A
:1006E00001DA946500E0D46500BF00BF00BF9365E8
:1006F00000BF00BF00BFD3654000491E0029EED1F6
:1007000010BD70B50546F1480078012813D04FF0B0
:10071000A04045F4807181620121416200210213F1
:10072000436BDB0702D0491C9142F9D3002141629F
:10073000056BA8B270BDE44C206C40F400702064DE
:1007400020214FF0FF30FFF7C1FF04210620FFF703
:10075000BDFF05210120FFF7B9FF05212846FFF75E
:10076000B5FF00F0CBF94FF0000528464FF480713B
:100770004FEA4505A16500BF00BF00BFE165626D9E
:10078000920501D545F00105401C1028F0D300F07A
:10079000B5F9CEE770B50546CC480C46007801287F
:1007A0000ED04FF0A04245F480709062D4620020D9
:1007B0001113536BDB0702D0401C8842F9D370BD84
:1007C000C148016C41F40071016420214FF0FF30F9
:1007D000FFF77CFF04210520FFF778FF05210120AA
:1007E000FFF774FF05212846FFF770FF0221084636
:1007F000FFF76CFF10212046FFF768FFBDE870404F
:1008000000F07CB92DE9FC47B04C0025362025705E
:100810000090694662680846904701982521B1EB2F
:10082000106F01D101202070A948016841F080417A
:100830000160A948A74981602178002960D0016939
:1008400021F470210161A048016C41F480710164C0
:100850004FF0A0444FF44F4020607820C4F80001CE
:100860006420401EFDD14FF00208C4F80080302003
:1008700060604001606143F20F7020611227E76001
:100880007801C4F800014FF40060A0616426761E70
:10089000FDD1A5614FF400410020FFF77BFF4FF42D
:1008A00080190020FFF72DFF10F4084F02D0761CAE
:1008B0004E45F6D30220FFF724FF06460320FFF73C
:1008C00020FF4FF6F0710840844940EA0640884214
:1008D0000DD14FF440510020FFF75CFF00260120AE
:1008E000FFF70FFF800602D4761C4E45F7D3002693
:1008F0004FF480391020FFF704FFC10709D105E04C
:10090000C16821F00F01491DC160A1E7761C4E4569
:10091000F0D341070CD5616841F001016160D4F862
:10092000001141F48061C4F800111521A16000E0BC
:10093000A760800701D5A56102E04FF48070A06137
:10094000674881882164418861640088A064654BA0
:10095000654EA3F16401002001F1200200EB400785
:1009600003EB472741F8307001EBC0077E6042F887
:10097000305002EBC007401C7D600428EED3C4F861
:100980000811C4F80C210320C4F81001C4F8185150
:1009900054490020554E243901F1180200EB400360
:1009A00006EB432341F8303001EBC0035D6042F8B1
:1009B0002050401C0328F1D304F1AC042167626786
:1009C000C4F87880E5674FF02600C4F854014FF072
:1009D0008800C4F8380F4FF6FF70C4F83C0F606D04
:1009E00040F00300606554F8AC0D40F00100206059
:1009F000BDE8FC873E484FF08051016070473D489C
:100A00004FF0805101607047F0B54FF0A045D5F828
:100A10002811344E0388243E021D56F83140DB1C59
:100A20009B0803D080CA5B1E80C4FBD1008806EB04
:100A3000C102401E40F04040491C5060032900D1D3
:100A40000021C5F82811F0BD70B54FF0A04533E086
:100A5000C5F8E80F00072FD5D5F8184128E0214840
:100A6000443850F8340041001CD5C0F30A06F61E85
:100A700040F2EA518E4215D81F49084212D146F081
:100A8000004017F0E5FF68B1164A011D643AF61CF4
:100A900052F83420B30803D040CA5B1E40C1FBD1DA
:100AA0001AF0A2F9641C042C00D10024C5F81841E6
:100AB000D5F81401A042D2D1D5F8E00FD5F8E41F43
:100AC0000840C5D170BD000000C0092010C007203B
:100AD000C4C00F400501155000C00240905C0020CA
:100AE00000000010F4220010FF050080F43A00100E
:100AF00000E100E080E100E00000901B0748016C8D
:100B000021F4007101644FF48071816500BF00BF62
:100B100000BFC16500BF00BF00BF704700C0092013
:100B2000FF49886048680006FCD58868C0B27047F5
:100B3000FC48016841F040410160416821F0030137
:100B40004160416841F00C014160416841F0300171
:100B50004160F3480821C160202101607047F148DD
:100B6000016821F040410160416821F003014160CA
:100B7000416821F00C014160416821F03001416081
:100B8000E74900200860704700B5FFF7D1FFE64A4B
:100B9000106840F000601060D06940F00060D061E3
:100BA0000620FFF7BDFF106840F0006010609069FC
:100BB00040F0006090615DF804EBD0E700B5FFF70E
:100BC000B7FFD94A106840F000601060D06940F06B
:100BD0000060D0610520FFF7A3FFFF20FFF7A0FF13
:100BE0000346106840F000601060906940F00060BB
:100BF0009061FFF7B4FF184600BD01B5FFF7DEFFB7
:100C0000C007FBD1FFF794FFC74A106840F00060AF
:100C10001060D06940F00060D061106840F0006062
:100C20001060D06940F00060D0610320FFF778FFCA
:100C30009DF80100FFF774FF9DF80000FFF770FFBB
:100C4000FF20FFF76DFF0346106840F00060106062
:100C5000906940F000609061106840F000601060A2
:100C6000906940F000609061FFF779FF184608BD79
:100C700011B5AD4C206840F002002060A06940F042
:100C80000200A061FFF79AFFC007FBD1FFF750FFFA
:100C9000206840F000602060E06940F00060E061A2
:100CA0000320FFF73DFF9DF80100FFF739FF9DF896
:100CB0000000FFF735FFFF20FFF732FF0246FF205D
:100CC000FFF72EFF02EB0022206840F0006020605A
:100CD000A06940F00060A061206840F000602060E2
:100CE000A06940F00060A061FFF739FFE06940F0C3
:100CF0000200E061104618BD2DE93140FFF75EFFAC
:100D0000C007FBD1FFF714FF874A106840F000606E
:100D10001060D06940F00060D0610320FFF700FF51
:100D20009DF80100FFF7FCFE9DF80000FFF7F8FEBC
:100D3000FF20FFF7F5FE0346FF20FFF7F1FE044614
:100D4000FF20FFF7EDFE0546FF20FFF7E9FE05EB6C
:100D5000002004EB002003EB0023106840F000604B
:100D60001060906940F000609061106840F0006091
:100D70001060906940F000609061FFF7F0FE184647
:100D800038BD13B54FEA0104FFF718FFC007FBD1C8
:100D9000FFF7CEFE644A106840F000601060D06932
:100DA00040F00060D0610320FFF7BAFE9DF801001B
:100DB000FFF7B6FE9DF80000FFF7B2FEFF20FFF739
:100DC000AFFE2070FF20FFF7ABFE6070FF20FFF743
:100DD000A7FEA070FF20FFF7A3FEE070106840F0B0
:100DE00000601060906940F000609061106840F011
:100DF00000601060906940F000609061BDE81C40A8
:100E0000ADE677B50D461646FFF7D8FEC007FBD115
:100E1000FFF78EFE444B186840F000601860D869F8
:100E200040F00060D8610320FFF77AFE9DF80100D2
:100E3000FFF776FE9DF80000FFF772FE002406E043
:100E4000FF20FFF76DFE641C05F8010BE4B2B4420D
:100E5000F6D3186840F000601860986940F00060B0
:100E60009861186840F000601860986940F0006070
:100E70009861BDE87E4072E613B50C46FFF79EFE12
:100E8000C007FBD1FFF780FEFFF752FE264A10682D
:100E900040F000601060D06940F00060D061022036
:100EA000FFF73EFE9DF80100FFF73AFE9DF80000B7
:100EB000FFF736FE2046FFF733FE0346106840F08A
:100EC00000601060906940F000609061106840F030
:100ED00000601060906940F000609061FFF73FFE95
:100EE00018461CBD2DE90340FFF768FEC007FBD183
:100EF000FFF74AFEFFF71CFE0B4A106840F0006047
:100F00001060D06940F00060D0610220FFF708FE59
:100F10009DF80100FFF704FE9DF8000006E00000C8
:100F20000000024000C0024000C00920FFF7F8FDA9
:100F30009DF80400FFF7F4FD9DF805301846FFF713
:100F4000EFFD106840F000601060906940F00060B4
:100F50009061106840F000601060906940F000609F
:100F60009061FFF7FCFD18460CBD03B5FFF726FEA8
:100F7000C007FBD1FFF708FEFFF7DAFD3C4A106817
:100F800040F000601060D06940F00060D061022045
:100F9000FFF7C6FD9DF80100FFF7C2FD9DF80000B8
:100FA000FFF7BEFD9DF80400FFF7BAFD9DF80500B0
:100FB000FFF7B6FD9DF80600FFF7B2FD9DF807307C
:100FC0001846FFF7ADFD106840F0006010609069B2
:100FD00040F000609061106840F00060106090691F
:100FE00040F000609061FFF7BAFD18460CBD13B5E4
:100FF0004FEA0104FFF7E2FDC007FBD1FFF7C4FD94
:10100000FFF796FD1A4A106840F000601060D06942
:1010100040F00060D0610220FFF782FD9DF80100E2
:10102000FFF77EFD9DF80000FFF77AFD2078FFF7BF
:1010300077FD6078FFF774FDA078FFF771FDE37826
:101040001846FFF76DFD106840F000601060906971
:1010500040F000609061106840F00060106090699E
:1010600040F000609061FFF77AFD18461CBD00005B
:1010700000C009202DE9F84F02F0B7F9FD4BDFF869
:10108000F8A30020C1018E4600247A21414300913B
:101090000099002501EBC40109B28B460EEB051146
:1010A00021440EB200219955DFF8D0C359460722DA
:1010B0001AF80170B946FF0705D09F5D1CF8028041
:1010C00047EA08079F554FEA59080AF80180491C6A
:1010D000521E52B209B2002AEADA6D1CEDB2082D96
:1010E000DCD3641C64B20F2CD2DB401CC0B20428D9
:1010F000C8D3BDE8F88FE248016A21F07F71016230
:10110000816941F40001816100BF00BF00BF00BFE1
:1011100000BF00BF00BF00BF00BF00BFC16941F0FA
:101120000051C16100BF00BF00BF00BF00BF00BFD2
:1011300000BF00BF00BF00BF816941F080718161C5
:10114000416B8901FCD47047CD4A00B50346106855
:1011500040F000501060106840F0C0701060FFF761
:10116000CAFF00BF00BF00BF00BF00BF00BF00BF7D
:1011700000BF00BF00BF906940F00050906100BF09
:1011800000BF00BF00BF00BF00BF00BF00BF00BF67
:1011900000BFD06940F40000D06100BF00BF00BFB5
:1011A00000BF00BF00BF00BF00BF00BF00BF106A8C
:1011B00040F07F701062906B40EA83409063D06B88
:1011C0006FEA0301C9B240EA8140D06300BF00BFAB
:1011D00000BF00BF00BF00BF00BF00BF00BF00BF17
:1011E000D06940F08070D06100BF00BF00BF00BF79
:1011F00000BF00BF00BF00BF00BF00BF00BDA048D0
:10120000016A21F07F710162816941F4000181610D
:1012100000BF00BF00BF00BF00BF00BF00BF00BFD6
:1012200000BF00BFC16941F00051C16100BF00BFF4
:1012300000BF00BF00BF00BF00BF00BF00BF00BFB6
:10124000816941F0804181614FF01101491EFDD15A
:10125000416B8901FCD47047894A00B50346106888
:1012600040F0C0401060106840F400001060FFF7CC
:10127000C6FF00BF00BF00BF00BF00BF00BF00BF70
:1012800000BF00BF00BF906940F00050906100BFF8
:1012900000BF00BF00BF00BF00BF00BF00BF00BF56
:1012A00000BFD06940F40000D06100BF00BF00BFA4
:1012B00000BF00BF00BF00BF00BF00BF00BF106A7B
:1012C00040F07F701062906B40EA83409063D06B77
:1012D0006FEA0301C9B240EA8140D06300BF00BF9A
:1012E00000BF00BF00BF00BF00BF00BF00BF00BF06
:1012F000D06940F08040D06100BF00BF00BF00BF98
:1013000000BF00BF00BF00BF00BF00BF184600BD48
:101310005B4A00B50346106840F00050106010684A
:1013200040F0C0701060FFF7E6FE00BF00BF00BFD6
:1013300000BF00BF00BF00BF00BF00BF00BFD0693B
:1013400040F00050D06100BF00BF00BF00BF00BF31
:1013500000BF00BF00BF00BF00BFD06940F4000065
:10136000D06100BF00BF00BF00BF00BF00BF00BF13
:1013700000BF00BF00BF106A40F07F701062906B2A
:1013800040EA83409063D06B6FEA0301C9B240EA40
:101390008140D06300BF00BF00BF00BF00BF00BFDF
:1013A00000BF00BF00BF00BFD06940F08070D061B7
:1013B00000BF00BF00BF00BF00BF00BF00BF00BF35
:1013C00000BF00BF00BD2E4A00B50346106840F0C4
:1013D000C1401060FFF713FF00BF00BF00BF00BF98
:1013E00000BF00BF00BF00BF00BF00BFD06940F01A
:1013F0000050D06100BF00BF00BF00BF00BF00BFF2
:1014000000BF00BF00BF00BFD06940F40000D06142
:1014100000BF00BF00BF00BF00BF00BF00BF00BFD4
:1014200000BF00BF106A40F07F701062906B40EA0E
:1014300083409063D06B6FEA0301C9B240EA8140F8
:10144000D06300BF00BF00BF00BF00BF00BF00BF30
:1014500000BF00BF00BFD06940F08040D06100BF36
:1014600000BF00BF00BF00BF00BF00BF00BF00BF84
:1014700000BF00BDF44C0010920308202FC90100EA
:1014800000C0092010B50446FFF79DFF2046BDE8C7
:1014900010403DE710B540F0B8042046FFF793FF39
:1014A0002046BDE8104033E730B500242046FFF762
:1014B000F1FF0020FFF7E6FF00255820FFF7CCFEE4
:1014C0007A20FFF741FE6D1CEDB23C2DF5D9641C6E
:1014D000E4B2032CEAD930BD9A48416821F44011A6
:1014E0004160816821F040518160816821F4403180
:1014F0008160816821F040618160816821F4404110
:101500008160416821F030014160416821F0C001F3
:101510004160416821F440714160416821F44061BB
:101520004160416821F440514160416821F44041EB
:101530004160416821F440314160416821F440211B
:1015400041608148016A814A11430162016841F0AA
:10155000C34101600021C26B42F08062C263491C3A
:101560006429F8DB7A4A4FF0000100BF491C914220
:10157000FBDB0021836B43F080638363491C3229CA
:10158000F8DB4FF0000000BF401C9042FBDB7047CF
:1015900000B5FFF7A1FF5DF804EB85E710B540F05B
:1015A000C0042046FFF70FFF2046BDE81040AFE61D
:1015B00030B50020FFF7F2FF00242046FFF76AFF56
:1015C0000020FFF75FFF00255520FFF745FEAA200A
:1015D000FFF7BAFD6D1CEDB23D2DF5D3641CE4B2EE
:1015E000032CEAD930BD10B55A48401EFDD15AA38C
:1015F0005FA265A16AA000F007FDBDE810400020D1
:10160000D6E751484FF00051C1614FF400018161AC
:101610004FF08041816100BF00BF00BF00BF426B3F
:101620009201F9D4C16170474FF0000000BF401C27
:1016300000B26428FADB704730B50346FFF7E1FFDC
:1016400041494FF4000088618201CA61C2018A6188
:1016500044008C618D6B45EA83458D63CD6BDB4324
:10166000DBB245EA8343CB63CA61CC61C86130BD5C
:101670003448416821F440114160816821F04061A3
:101680008160816821F040518160816821F440319E
:101690008160816821F440418160416821F030011E
:1016A0004160416821F0C0014160416821F440710E
:1016B0004160416821F440614160416821F440513A
:1016C0004160416821F440414160416821F440316A
:1016D0004160416821F4402141601B48016A1B4A76
:1016E00011430162016841F0C34101600021C26BF6
:1016F00042F08062C263491C0A29F8DB4FF0000106
:101700004FF4FA7200BF491C9142FBDB00214CF2FE
:101710005032836B43F080638363491C9142F8DB52
:10172000E22089E700B5AF20FFF74DFEAF205DF85E
:1017300004EBEDE500B5AE20FFF745FEAE205DF809
:1017400004EBE5E500C0024000C009200000FC07F2
:101750007088020080841E0033342020C8EDE8F633
:10176000E8E0EBE8E7E0F6E8FF20203800000000C2
:1017700035202020EDE520EFEEE4EAEBFEF7E5ED85
:10178000E0202036000000003320202020C1E0F2BD
:10179000E0F0E5FF20B923202020203400000000E5
:1017A00031202020202020C0C2C0D0C8DF2120202E
:1017B00020202032000000001E4BDA6018705970A3
:1017C00070471C48C16800290DD0491EC1600AD16C
:1017D000194902780A7042784A700A710021C17072
:1017E0000171417181717047124A116190707047A7
:1017F0001048016900290BD0491E016108D10E4A29
:101800008178117000215170C17001714171817135
:1018100070470849088170470648B0F90810002948
:1018200007D0491E09B20181002902D1084601F002
:10183000EDB8704718C0072080C107201D48016A15
:1018400041F0006101621C494A68D30709D01B4B73
:101850001B8833B1836B43F00063836306204870B9
:1018600003E0C36B43F00063C3635008486008782B
:10187000401E10F0FF00087003D120200870886817
:101880004860704710B50C4A002320244F2908D027
:10189000412909D052290BD0532908D153609360B4
:1018A00004E0C2E9010301E050609060147010BDD3
:1018B000906010BD00C009202CC007208CC00720FC
:1018C0000020FB4A20211154401CC0B2C828FAD382
:1018D00070470146F64A0020401CC0B2135C8B42A0
:1018E00001D0C828F8D3704710B50021F14C0A2266
:1018F000B0FBF2F302FB13006054491CC9B2184656
:101900000529F5D310BDF0B5EB4B01212027197047
:101910000521E84A002601E01C7844B1541814F867
:10192000015C25B9814202D904F8017C05E0541814
:1019300014F8015D303525701E70491E11F0FF014D
:10194000EAD1F0BD70B50D461446002802DAC04356
:10195000401C00B2FFF7C8FF601CC0B2FFF7D3FF06
:101960002846FFF7B6FFFF2819D0D24AD04B0021F6
:10197000A14201D2555C13E004D14FF02E051D5455
:10198000555C03E0555C202D03D04CB11E1806F8C1
:10199000015C401E491CC9B2C0B20529E8D370BD24
:1019A0001D54F6E7F0B50D461446002801DA404212
:1019B00000B2FFF799FF601CC0B2FFF7A4FF2846F2
:1019C000FFF787FFBB4ABA4B002164B9555C202D55
:1019D00009D056187678202E03D12D261F1807F827
:1019E000016C1D540FE0A14201D2555CF9E704D10E
:1019F0004FF02E051D54555C02E0555C202D02D0A1
:101A00001E1806F8015C401E491CC9B2C0B2052967
:101A1000DBD3F0BDFEB52B23002802DA404200B232
:101A20002D2300250A266C4690FBF6F706FB1700CF
:101A300060556D1C6DB238B20A2DF5DB012600250C
:101A40000920202700E046B114F800C0BCF1000FC7
:101A500003D1904201DD275405E0265C3036265440
:101A600000266D1CEDB2401E40B20028EBDA2D2B93
:101A700002D163556D1CEDB26AB168B205E023185E
:101A800013F8013C2354401E40B29042F7DC2E2054
:101A90006D1CA054EDB20846FFF71BFF0021844ADD
:101AA00004E0635C461A491C935549B2A942F8DB2D
:101AB000FEBDFEB52B23002801DA40422D23002570
:101AC0000A266C46074690FBF6F006FB1077675532
:101AD0006D1C6DB20A2DF5DB01260025092020279B
:101AE00000E046B114F800C0BCF1000F03D19042F1
:101AF00001DD275405E0265C3036265400266D1C97
:101B0000EDB2401E40B20028EBDA2D2B02D1635516
:101B10006D1CEDB26AB168B205E0231813F8013C00
:101B20002354401E40B29042F7DC2E206D1CA0547E
:101B3000EDB20846FFF7CDFE00215D4A04E0635C8C
:101B4000461A491C935549B2A942F8DBFEBDFEB5C1
:101B50002B26002801DA40422D2600240A276D4654
:101B6000844690FBF7F007FB10CC05F804C0641C1A
:101B700064B20A2CF4DB0127002009244FF0200C6A
:101B800000E04FB115F804E0BEF1000F04D19C4213
:101B900002DD05F804C005E02F5D30372F55002722
:101BA000401CC0B2641E64B2002CEADA2D2E02D1B1
:101BB0002E54401CC0B26BB144B205E02E1916F889
:101BC000016C2E55641E64B29C42F7DC2E24401C2E
:101BD000EC54C0B201EB810102EB8101CAB20021D9
:101BE000334B04E06C5C561A491C9C5549B2814247
:101BF000F8DBFEBD70B50D4616461C46FFF774FEB9
:101C0000601CC0B2FFF77FFE05EB850006EB80008D
:101C1000C1B2284A264B0020A04201D2155C5D5477
:101C200006D3155C202D03D04CB15E1806F8015C7C
:101C3000491E401CC0B2C9B20528EDD370BD5D5429
:101C4000F6E770B50446084615461E46FFF741FE06
:101C5000174B0146FF2804D106E01A54641C401CAF
:101C6000C0B22278002AF8D114480078002804D0A5
:101C7000002E02D029445F20585470BDF0B50746AD
:101C800014460E460846FFF724FE0546002231465C
:101C90003846FFF70EFF002C08D0084800780028CF
:101CA00004D05F20024A291B11444870F0BD000097
:101CB000CA02082034000010390000104CC0072070
:101CC0002DE9FF4F8146DDE90D048A469346FFF773
:101CD00000FE2022DFF8DC83F7490A234FF0640C72
:101CE000012C09D198F8005035B10D18A5F10E0559
:101CF000AA706A702A7020E099FBF3F603FB16972E
:101D00000D183037A5F10E05022CAF7096FBF3F7D6
:101D100003FB176606F130066E7099FBFCF606F1C0
:101D2000300605F80E6B08D198F800602EB1A5F1C9
:101D30000A05AA706A702A7021E09AFBF3F603FB89
:101D400016A70D183037A5F10A05032CAF7096FBC6
:101D5000F3F703FB176606F130066E709AFBFCF68C
:101D600006F13006674605F80A6B08D198F800605E
:101D70002EB1A5F10605AA706A702A7022E09BFBBD
:101D8000F3F603FB16B70D183037A5F10605042C42
:101D9000AF7096FBF3F703FB176606F130066E7023
:101DA0009BFBFCF606F13006674605F8066B09D189
:101DB00098F8004034B1A5F102050A546A702A70FF
:101DC000BDE8FF8F039C94FBF3F203FB1244303415
:101DD0000C5492FBF3F403FB14220844A0F102001C
:101DE00030324270039991FBF7F101F1300101703B
:101DF000E6E770B50D461446FFF776FD601CC0B2ED
:101E0000FFF781FD2846FFF764FDAC4BAA4A00218D
:101E100024B95D5C202D01D015540FE0A14201D200
:101E20005D5CF9E704D14FF02E0515545D5C02E0CE
:101E30005D5C202D02D0161806F8015C401E491C7E
:101E4000C9B2C0B20529E3D370BD17B501EB81005B
:101E500002EB8000C2B29DF80030994803F00F01F8
:101E600000EB1313445C94498C54521ED2B21B787D
:101E70008B549DF80130521E03F00F04D2B2045D62
:101E80008C54521E00EB1313D2B21B788B549DF866
:101E90000230521E03F00F04D2B2045D8C54521E65
:101EA00000EB1313D2B21B788B549DF80330521EF3
:101EB00003F00F04D2B2045D8C54521E00EB1310D9
:101EC000D2B2007888541EBD10B504460846FFF70C
:101ED00000FD7B4904F00F028B5C774A01EB141183
:101EE0001354401EC0B20978115410BD01EB81019A
:101EF00002EB8101724A10B500F00F03C9B2D45C45
:101F00006D4B02EB10105C54491EC9B20078585456
:101F100010BD01EB810130B502EB8101CBB2C117DD
:101F200000EB117424F00F01401A6549624A405CCD
:101F3000D0542011C41700EB147424F00F055B1E5D
:101F4000401BDBB2405CD0542011C41700EB14746A
:101F500024F00F055B1E401BDBB2405CD0545B1EBF
:101F6000D8B22311C95C115430BD01EB810102EBE1
:101F70008101CBB2524910B500F001028C5C4E4A8F
:101F8000D45444085B1E04F00100DBB2085CD0545A
:101F90005B1ED8B2630803F001045B080C5D1454A7
:101FA000401E03F00104C0B20C5D14545B08401ED7
:101FB00003F00104C0B20C5D14545B08401E03F032
:101FC0000104C0B20C5D14545B08401E03F0010410
:101FD000C0B20C5D1454401EC4B25808085C1055C1
:101FE00010BD104400B2002801DA084402E0884223
:101FF00001DB401A00B27047324900200870487077
:102000008870314948707047F0B505460E4617464E
:10201000FFF756FC284C0020401C15F8011BC0B2ED
:1020200004F8011B1428F7D35FF00000401C16F8D9
:10203000011BC0B204F8011B1428F7D35FF00000A5
:10204000401C17F8011BC0B204F8011B1428F7D379
:102050005FF00000401C13F8011BC0B204F8011B24
:102060001428F7D322E630B5044608461546FFF794
:1020700030FCFF2809D0104A2178002905D04319E7
:10208000641C401CD154C0B2F6E730BDF0B50F4D12
:102090000F4F95F9004004EB8406641C2C700A4C29
:1020A0003E44256835602579357120706170227154
:1020B000A370FBE54CC00720CA02082034000010C2
:1020C000DBD001003AC1072080C1072038C00720BB
:1020D0009802082010B5029CFFF796FFFF48C378CE
:1020E000827841784920FFF7D1FF642094FBF0F01B
:1020F000BDE81040C0B2FFF78CBB00EB800001EBE5
:102100008000F7490870F748027070472DE9FE43D8
:1021100040010D4600F58060044602A9FEF731FE3D
:10212000694604F10800FEF72CFE01A904F10C0039
:10213000FEF727FE2846FFF7CCFBEB4C2026302588
:102140002654401CC0B24FF021082554401CC0B298
:102150002F2104F80080401CC0B24FF040092154E8
:10216000401CC0B24FF0230C04F80090401CC0B2D9
:1021700000222654401CC0B22654401CC0B2215438
:10218000401CC0B221212554401CC0B204F800C03C
:10219000401CC7B29DF80200FFF72BFE9DF800001F
:1021A00000222321FFF725FE9DF80100401E0C2888
:1021B00002D301208DF801009DF80100CB490022D7
:1021C00001EB80004021FFF74EFFE6557F1CF8B27F
:1021D0003A212554401CC0B2002204F80080401C63
:1021E000C0B22154401CC0B22554401CC0B204F8F7
:1021F0000090401CC0B22154401CC0B22121255483
:10220000401CC0B204F800C09DF80400FFF7F1FDC7
:102210009DF8050000224021FFF7EBFD9DF8060028
:1022200000222321FFF7E5FDBDE8FE832DE9FE4FE7
:1022300004460D464FF46060FEF71AFD62424021ED
:1022400000B2FFF7CEFE400100F58060044602A90F
:10225000FEF797FD694604F10800FEF792FD01A91B
:1022600004F10C00FEF78DFD2846FFF732FB064611
:102270009DF8080040273025DFF874B2DFF868A227
:1022800020244FF0210C4FF02309552820D0CF22D5
:10229000D123502873D0422872D0532871D04928B6
:1022A0006BD1C8210AF80610761CF1B2ED220AF8AB
:1022B0000120491CC9B2E2220AF80120491C9DF8FC
:1022C00009205046C9B2092A7ED23132425495E3E0
:1022D0009DF80A0052280ED1C2210AF80610761C79
:1022E000F1B2EA220AF80120491CC9B2EB220AF82D
:1022F0000120491CCEB250460AF80640761CF1B2C5
:102300000AF80140491CC9B226E300BF9DF801202C
:1023100096F838309A4267D19DF8022096F82C3012
:102320009A42F8D14554491CC9B23A2200F801C07A
:10233000491CC9B24254491CC9B24554491CC9B2CE
:102340004754491CC9B24254491CC9B200224554E1
:10235000491CC9B20AF801909DF804002121FFF739
:1023600048FD9DF8050000224021FFF742FD9DF841
:10237000060000222321FFF73CFDBDE8FE8F0BE0A5
:1023800033E0B6E29DF801105848002200EB8100CE
:102390004021FFF768FEF0E70AF80620761CF1B24C
:1023A00050460AF80130491CC9B20AF80140491CDC
:1023B000C9B20AF80140491CC9B20AF80140491CD7
:1023C000C9B20AF8014000E005E3491CC9B284E241
:1023D0009DF8013092F83860B3429CD19DF80230EC
:1023E00092F82C2093429DD0C4E29DF80A00432825
:1023F00073D1C1210AF80610761CF1B2E0220AF866
:102400000120491CC9B2F2220AF80120491C9DF89A
:102410000900C9B24FF0C00E09280BD231300AF8BA
:102420000100491CC8B20AF800E0401CC0B20AF81A
:10243000004016E0A0F109025A2A15D2401C0A23D6
:10244000B0FBF3F2904630320AF80120491C03FB3E
:102450001800C9B230300AF80100491CC8B20AF8A5
:1024600000E0401CC1B20BE00AF80140491CC9B2AF
:102470000AF80140491CC9B20AF80140491CC9B216
:1024800050460AF80140491C9DF80020BBF83C303A
:10249000C9B25E469A4247D19DF8012096F838307D
:1024A0009A4241D19DF8022096F82C309A423BD1B5
:1024B0004554491CC9B23A2200F801C0491CC9B2AE
:1024C0004254491CC9B24554491CC9B24754491C1D
:1024D000C9B24254491CC9B20CE05CE080C107207B
:1024E0004DC007204EC00720CA02082020D101009D
:1024F000004002404554491CC9B200220AF801902C
:10250000491CCEB29DF804002121FFF772FC9DF812
:10251000050000224021FFF76CFC9DF80600002218
:102520002321FFF766FC36E04454491CC9B200225F
:102530004554491CC9B200F801C0491CC9B24754EE
:10254000491CC9B24454491CC9B24454491CC9B2BB
:102550004554491CC9B20AF80190491CCEB29DF8F5
:1025600002002121FFF745FC9DF8000000222321F5
:10257000FFF73FFC9DF80100401E0C2802D301200C
:102580008DF801009DF80110FF48002200EB81004A
:102590004021FFF768FD9DF80A005A285CD1C2214E
:1025A0000AF80610761CF1B2C7220AF80120491C6D
:1025B000C9B250460AF80140491CC9B25E460AF841
:1025C0000140491CC9B20AF80140491CC9B244542F
:1025D000491CC9B24454491C9DF80020BBF83C304A
:1025E000C9B29A4239D19DF8012096F838309A4202
:1025F00033D19DF8022096F82C309A422DD14554C3
:10260000491CC9B23A2200F801C0491CC9B242545F
:10261000491CC9B24554491CC9B24754491CC9B2E6
:102620004254491CC9B200224554491CC9B20AF897
:102630000190491CCEB29DF804002121FFF7D9FB7F
:102640009DF8050000224021FFF7D3FB9DF806000E
:1026500000222321FFF7CDFB36E04454491CC9B2C8
:1026600000224554491CC9B200F801C0491CC9B236
:102670004754491CC9B24454491CC9B24454491C6A
:10268000C9B24554491CC9B20AF80190491CCEB2DE
:102690009DF802002121FFF7ACFB9DF8000000220D
:1026A0002321FFF7A6FB9DF80100401E0C2802D352
:1026B00001208DF801009DF80110B348002200EBC5
:1026C00081004021FFF7CFFC9DF80A0057287DD1FB
:1026D000C1210AF80610761CF1B2E0220AF80120A6
:1026E000491CC9B2F2220AF80120491CCEB29DF859
:1026F000091050464FF0F00E092906D231318155AC
:10270000761CF1B200F801E019E0A1F109025A2AA1
:1027100011D2491C0A23B1FBF3F2904630328255A4
:10272000761C03FB1811F6B230318155761CF1B2DC
:1027300000F801E006E08455761CF1B24454491CCF
:10274000C9B24454491CC9B25E464454491C9DF860
:102750000020BBF83C30C9B29A423BD19DF8012021
:1027600096F838309A4235D19DF8022096F82C30F0
:102770009A422FD14554491CC9B23A2200F801C0EF
:10278000491CC9B24254491CC9B24554491CC9B27A
:102790004754491CC9B24254491CC9B2002245548D
:1027A000491CC9B20AF80190491CCEB29DF8040038
:1027B0002121FFF71EFB9DF8050000224021FFF7B5
:1027C00018FB00229DF80600232100E039E0FFF706
:1027D00010FB36E04454491CC9B200224554491C40
:1027E000C9B200F801C0491CC9B24754491CC9B25A
:1027F0004454491CC9B24454491CC9B24554491CEB
:10280000C9B20AF80190491CCEB29DF802002121FC
:10281000FFF7EFFA9DF8000000222321FFF7E9FA05
:102820009DF80100401E0C2802D301208DF8010004
:102830009DF801105448002200EB81004021FFF771
:1028400012FC9DF80A004B287FF4A5ADC1210AF8BF
:102850000610761CF1B2E0220AF80120491CC9B228
:10286000F2220AF80120491C9DF80900C9B2092882
:102870000BD231300AF80100491CC8B2EA210AF82B
:102880000010401CC0B2E52115E0A0F109025A2A4F
:1028900016D2401C0A23B0FBF3F2904630320AF8FD
:1028A0000120491C03FB1800C9B230300AF80100AE
:1028B000491CC8B2EA210AF80010401CC1B20BE062
:1028C0000AF80140491CC9B20AF80140491CC9B2C2
:1028D0000AF80140491CC9B250465A464454491CA2
:1028E0009DF80030BBF83C60C9B2B3423FF470AD14
:1028F00040E0C1210AF80610761CF1B20AF8012066
:10290000491CC9B20AF80130491CC8B29DF8091027
:10291000092903D231310AF8001016E0A1F10902A9
:102920005A2A10D2491C4FF00A08B1FBF8F606F1FA
:1029300030020AF80020401C08FB1611C0B23031EA
:102940000AF8001005E00AF80040401CC0B20AF87E
:102950000040401CC1B250465E464454491CC9B2B6
:102960004454491C9DF80020BBF83C30C9B29A423F
:102970003FF4CCAC4454491CC9B24554491CC9B2BB
:1029800000F801C0491C01E020D10100C9B20022B9
:102990004754491CC9B24454491CC9B24454491C47
:1029A000C9B24554491CC9B20AF801909DF8020009
:1029B0002121FFF71EFA9DF8000000222321FFF7D6
:1029C00018FA9DF80100401E0C28FFF4DBAC012032
:1029D0008DF80100D6E4A2F109035A2B0DD2521C46
:1029E0000A25B2FBF5F303F130064654491C05FBFA
:1029F0001322C9B23032425403E04454491CC9B2D4
:102A00004454491CC9B20AF80140B6E42A4B1A786A
:102A1000521E104440B21870002801DA00201870CD
:102A200093F90000254A00EB800002442448136813
:102A3000036012790271427811444170704730B5D9
:102A40001F4901231F4D91F9012091F9041000EB5A
:102A500080048A4202D105F8243030BD194D4C1C47
:102A600000EB800005EB8000A24201D1037530BD70
:102A70008C1CA24202D180F8283030BDCC1CA2426E
:102A800002D180F83C3030BD0C1DA24202D180F84A
:102A9000503030BD4C1DA24202D180F8643030BDB0
:102AA0008C1DA24202D180F8783030BDC91D8A4207
:102AB000FBD180F88C3030BD38C007209802082048
:102AC00080C10720CA02082090F900308B4200DA4A
:102AD000027090F90030934200DD0170704790F968
:102AE00000308B4200DA017090F90010914200DD55
:102AF00002707047B0F900308B4200DA0180B0F903
:102B00000010914200DD02807047B0F900308B4226
:102B100000DA0280B0F90030934200DD0180704796
:102B200003688B4201DB194600E00160914200DD41
:102B30000260704703688B4200DA026003689342C8
:102B400000DD0160704700002DE9F84F9E460A9BAA
:102B5000202931D2CC1701EB5475EC1026466FF0CA
:102B60003C077C4325F0070500EB44044D1BDFF8D0
:102B70004CA704F5B774002A34D0A0B2C5F1070100
:102B8000C9B24FF0010404FA01F40244514611DCC9
:102B900025E023B1012B05D0022B06D008E00D5C07
:102BA000254304E00D5C654001E00D5C25400D54BB
:102BB000401C80B28242ECDCBDE8F88F23B1012BCF
:102BC00005D0022B06D008E00D5C254304E00D5C27
:102BD000654001E00D5C25400D54401E80B28242EC
:102BE000ECDBE9E7BEF1000FE6D0B2B201EB0E0676
:102BF0004FEAE67406EB5477ADB2A94627F0070515
:102C0000C7F3CF04A6EB0505AFB277DDA24244D1EE
:102C1000C8463FE023B1012B13D0022B24D035E06E
:102C2000C2F1030101EB4105C5EB811100EB410647
:102C3000C8F1070C1AF80610012505FA0CF529430E
:102C40000FE0C2F1030101EB4105C5EB811100EB7F
:102C50004106C8F1070C1AF80610012505FA0CF513
:102C600069400AF8061011E0C2F1030101EB4105C9
:102C7000C5EB811100EB4105C8F1070C1AF805609E
:102C8000012101FA0CF18E430AF8056008F10108F0
:102C90001FFA88F8B845BDD38CE0CD1701EB557C01
:102CA000CCF3CF05C5F1030505EB4506C6EB85154D
:102CB00000EB45082CF007054E1BFF25F54071443D
:102CC000CE1701EB56760096C6F3CF06C6F1030683
:102CD00006EB460CCCEB861600EB4606B346009E90
:102CE00026F00706891B89B2C1F10806FF21B14011
:102CF0002BB1012B0ED0022B19D023E05EE01AF885
:102D000008C04CEA050C0AF808C01AF80BC04CEAD7
:102D1000010C09E01AF808C08CEA050C0AF808C092
:102D20001AF80BC08CEA010C0AF80BC00AE01AF87A
:102D300008C02CEA050C0AF808C01AF80B608E438C
:102D40000AF80B60A11A01297FF74BAF511C1FFA3B
:102D500081FC2DE023B1012B0DD0022B19D023E0F3
:102D6000CCF1030101EB4105C5EB811100EB4105FD
:102D70004FF0FF360AE0CCF1030101EB4105C5EB52
:102D8000811100EB41051AF80560F6430AF8056069
:102D90000AE0CCF1030505EB4506C6EB851500EB13
:102DA000450600210AF806100CF1010C1FFA8CFCF4
:102DB000A445CFD3BEF1000FBFF613AFA24240D15E
:102DC000A9F1010139E023B1012B12D0022B22D04D
:102DD00032E0C2F1030404EB4405C5EB841400EBBC
:102DE000440CC1F107061AF80C400125B5402C43EC
:102DF0000EE0C2F1030404EB4405C5EB841400EBC0
:102E0000440CC1F107061AF80C400125B5406C408E
:102E10000AF80C4010E0C2F1030404EB4405C5EBD2
:102E2000841400EB440CC1F107061AF80C5001247D
:102E3000B440A5430AF80C50491E89B2B942C2D227
:102E4000BAE623B1012B26D0022B43D062E0C2F1B7
:102E5000030101EB4105C5EB811100EB410CC9F108
:102E600008061AF80C504FF0FF0909FA06F10D4355
:102E70000AF80C50C4F1030101EB4105C5EB8111C7
:102E800000EB410129FA07F91AF8015045EA090552
:102E90000AF801503EE0C2F1030101EB4105C5EB28
:102EA000811100EB410CC9F108061AF80C50FF2102
:102EB00001FA06F675400AF80C50C4F1030505EB5B
:102EC0004506C6EB851500EB4505F9401AF8056087
:102ED0004E401DE0C2F1030101EB4105C5EB81113C
:102EE00000EB410CC9F108061AF80C50FF2101FA59
:102EF00006F6B5430AF80C50C4F1030505EB450688
:102F0000C6EB851500EB4505F9401AF805608E43C0
:102F10000AF80560111B012992DD521E91B22BE0C7
:102F200023B1012B0DD0022B19D023E0C1F10302F4
:102F300002EB4205C5EB821200EB42054FF0FF3673
:102F40000AE0C1F1030202EB4205C5EB821200EB7D
:102F500042051AF80560F6430AF805600AE0C1F177
:102F6000030505EB4506C6EB851500EB450600227B
:102F70000AF80620491E89B2A142D1D81CE62DE9E3
:102F8000F8470446DDE9090517468A469946E619D9
:102F900048B90CE04B460022514620460095FFF709
:102FA000D3FD641C24B2A642F4DABDE8F8870022FF
:102FB00020460095FFF7C8FD0AEB09008046401E39
:102FC00001B200233A4620460095FFF7BDFD761E6C
:102FD000C9F1000034B203B20FFA88F10022204692
:102FE0000095FFF7B1FD784202B20023514620461A
:102FF0000095FFF7A9FDD8E72DE9F84381460E4675
:103000001D46002022B1022A1AD1002480462CE05D
:103010000024804612E03719621B002339464846D7
:10302000CDF80080FFF790FD2A1B00233946484663
:10303000CDF80080FFF788FD641CE4B2AC42EAD30F
:10304000BDE8F883371B621B002339464846CDF89C
:103050000080FFF779FD2A1B002339464846CDF84A
:103060000080FFF771FD641CE4B2AC42EAD3E7E7ED
:103070002DE9F8474FF0FF35C3F120039D4005EAE5
:10308000020323FA01F200929DF80210DFF82C826D
:1030900089469DF80310099C8A4608EB00019DF8BB
:1030A00000709DF801C018F8002091F87A3091F86E
:1030B000F45091F86E6184B17A4008F8002083EAF8
:1030C0000C0381F87A3085EA090581F8F45086EA24
:1030D0000A0600BF81F86E6167E73A4308F80020EE
:1030E00043EA0C0381F87A3045EA090581F8F45087
:1030F00046EA0A06EEE72DE9FC4F07460CA88A4689
:10310000B0E8100316469B4600251CE005FB048032
:10311000611E5B46415C8DF80710A11E415C8DF875
:103120000610E11E415C8DF80510211F405C8DF8F2
:103130000400781900B2CDF800905146019AFFF7CB
:1031400097FF6D1C2DB2B542E0DBBDE8FC8F2DE989
:10315000FF4F9AB08346DDE928592B240020DDF883
:103160009CC0202614A90E54401C00B20A28FADB89
:1031700000208A4604E0175C0AF80070401C00B288
:103180009842F8DBBCF1000F04DACCF100000FFA32
:1031900080FC2D2400204FF00A0811AF9CFBF8F1B1
:1031A00008FB11C23A54401C40B20FFA81FC0A28B5
:1031B000F4DB01220020092100E042B117F801C030
:1031C000BCF1000F03D1A94201DD7E5405E07A5C19
:1031D00030327A540022401CC0B2491E49B2002944
:1031E000EBDA2D2C02D13C54401CC0B26DB141B27F
:1031F00005E07A1812F8012C7A54491E49B2A94206
:10320000F7DC2E21401C7955C0B20021D44607E0DE
:10321000A9EB01057A5C6544491C05F8012C49B20B
:103220008142F5DB2D2C06D1A9EB010060445B1C2B
:1032300000F8014C1BB2002002AD1AE01CF800108F
:103240001F4F01EB410600EB400217F8161005F87E
:10325000121007EB460105EB42024E7856708E784D
:103260009670CE78D6700E7916714979401C5171DE
:1032700000B29842E2DB2D2C06D1A9EB00005044AD
:103280005B1C00F8014C1BB2002403EB43060EE06C
:10329000285D8DF863002A9800900BEB040000B2C3
:1032A0000823189A1B99FFF7E3FE641C24B2B4EBC1
:1032B000460FEDDB1EB0BDE8F08F00009203082042
:1032C000DBCA0100002801DA404200B2704710B5A5
:1032D000FF48016821F0E06101604168C1F30B1310
:1032E000FC498A1E0B80118802F18004491C118060
:1032F000FE3AD17F24F81130491CC9B2D177032995
:1033000003D2016841F08071016010BD10B54FF427
:103310000270FDF7ADFCF04C207040F20A20FDF782
:10332000A7FC60704FF40370FDF7A2FCA07040F2A0
:103330000E20FDF79DFCE0704FF40470FDF798FC43
:10334000207240F21220FDF793FC60724FF405707A
:10335000FDF78EFCA07240F21620FDF789FCE072AA
:103360004FF41170FDF784FC207140F24620FDF708
:103370007FFC60714FF41270FDF77AFCA07140F28F
:103380004A20FDF775FCE07110BDD24A516C536CB8
:103390005B1A8342FBD37047D049112008727047F3
:1033A000CF48C16941F44021C161C16941F4401174
:1033B000C161CC480021C1604FF44061C164022169
:1033C00041614FF47A7282614FF4487202624FF4A5
:1033D0009672426201220265416009214160704794
:1033E000C149012081F8320070472DE9F04F0020DB
:1033F000BE4A85B04FF4F47104461454401C00B228
:103400008842FADBB848417871B100214FF0140CC2
:103410007A2301FB03F001EB81039B0001EB8104A4
:103420001BB20CEB84046CE2804690F820004FF055
:103430000205C0074FF003061BD098F814000028BF
:1034400016D0AB483227CDE90204CDE9007603213E
:1034500018233A460846FFF74EFEA648CDE9020477
:10346000CDE900760321182332220846FFF743FEF8
:10347000B8E0B8F96A00DFF85C92DFF87CA20F27A9
:10348000DFF878B2A9F11009012853DB14230021D9
:1034900000941A4608460194FFF771FD122301219A
:1034A00000941A4608460194FFF769FD99F8000058
:1034B00010F03C0F0BD0C10611D598F81400F0B1F4
:1034C0000F23CDE902A402211A46032013E08C4801
:1034D000CDE902040F2302211A4603200BE010F06D
:1034E0000C0F0CD098F8140048B10F23CDE902B4AA
:1034F00002211A460846CDE90075FFF7FCFD814818
:103500004069C00516D40B23002214210920009421
:10351000FFF71AFB00235B221F2109200094FFF70D
:1035200013FB98F8050004231330C1B200220920D0
:10353000FFF762FDB8F96A00022853DB14230094F8
:103540001A46002117200194FFF719FD1223009459
:103550001A46012118200194FFF711FD99F8010086
:1035600010F03C0F0BD0C10611D598F81400F0B143
:103570000F23CDE902A402211A46192013E0624864
:10358000CDE902040F2302211A4619200BE010F0A6
:103590000C0F0CD098F8140048B10F23CDE902B4F9
:1035A00002211A461920CDE90075FFF7A4FD554800
:1035B0004069800516D40B2300221421202000949A
:1035C000FFF7C2FA002344221F2120200094FFF7B6
:1035D000BBFA98F8050004231330C1B20022202062
:1035E000FFF70AFDB8F86800DFF8E8A0C1464FF021
:1035F0000A0B4FF00108AAF1800A00282CD0009491
:1036000014232322002132200194FFF7B8FC0094F8
:1036100002230322142135200194FFF7B0FC00940B
:103620000223032214214F200194FFF7A8FC99F8EC
:1036300020004F46800710D599F8140000280BD0C1
:1036400032212C48CDE90016CDE902040A461823A0
:1036500000212B20FFF74FFD8AE00B2300221421CD
:1036600042200094FFF770FA002322221F214220FB
:103670000094FFF769FABAF96C00002805DA787946
:10368000042300221330C1B205E078790423C0F18D
:103690002200C1B202224220FFF7AEFC387A0A288B
:1036A0007ED2B7F97000A0F5AA41553960D097F9DC
:1036B0002100052190FBF1F0ADF81000B94614226D
:1036C000002104A8FFF716FACDE9008447461DE063
:1036D0000040034038C1072038520010004002402B
:1036E00000C002400080014038C00720920308203B
:1036F00037C90100CDC901009FCA0100BDCA010040
:1037000063CA010000C0092081CA0100BDF9103060
:10371000202200213320FFF732FC99F921000A28EA
:1037200011DACDE9007509230C2205213D20FFF7B0
:1037300026FC99F9210002238DE891000521FFA2C2
:103740003D20039712E064284FF009035EDACDE9CB
:103750000075122205213A20FFF711FC99F921008A
:1037600003238DE8B100F6A205217BE0FFF7EFFC13
:1037700000940E231B2202215C200194FFF7FFFB23
:1037800000231A1F08215C200094FFF7DDF90023B5
:103790000422082176200094FFF7D6F9002300E0E8
:1037A00044E027221F2143200094FFF7CDF96FF05A
:1037B0000F0300221F2169200094FFF7C5F999F833
:1037C00007004D46C0F12200C1B204230222692045
:1037D000FFF712FC4746BAF976000421CDE900074D
:1037E000CDE90217D0460523D6A216214620FFF7C1
:1037F000AEFCB8F97400642836DACDE9000704237A
:103800000521D2A25D20CDE9026736E0CDE9007541
:10381000182205213720FFF7B2FB99F92100042374
:103820008DE8D1000521CBA237209FE7BAF96C00C3
:10383000B0F57A7F02DA10F57A7F09DC642190FB1B
:10384000F1F000B28DE851010423C0A2052109E086
:1038500090FBFBF001B2CDE90018CDE9026804232A
:10386000BAA205213A2081E790FBFBF000B28DE877
:10387000D1000423B5A205215A20FFF768FC28795E
:10388000401CC0B2287103281CD32C716879401CDD
:10389000C0B268710D2800D36C71A879401CC0B209
:1038A000A871202800D3AC71E879401CC0B2E8713F
:1038B000112800D3EC71287A401CC0B22872142859
:1038C00000D32C7205B0BDE8F08FA44DA44FED5C81
:1038D00005EB450517F81560165407EB4505401C28
:1038E0006E781654401CAE781654401CEE78165470
:1038F000401C2E791654401C6D791554401C5B1CDD
:103900001BB29C42E1DC491C09B20429FFF680ADE0
:10391000D8E72DE9F04F934ACDB005211278002069
:10392000012525AF4892052A02D0212A02D005E0C0
:103930008DA000E092A0259001200621964C94F8DD
:1039400020204592D20708D094A247F8202000F109
:10395000010001F10101C0B2C9B2459A920706D532
:1039600094A247F82020401C491CC0B2C9B28A4A20
:10397000F032137813F01C0F06D094A347F82030D0
:10398000401C491CC0B2C9B2834AF032527812F0CE
:103990001C0F06D093A247F82020401C491CC0B23F
:1039A000C9B2964A13786732012BB2F9002002D0CF
:1039B000022B03D00AE04AB991A201E032B996A2E3
:1039C00047F82020401C491CC0B2C9B28B4A921D46
:1039D0001378552B0AD102F191031B8833B994A3B4
:1039E00047F82030401C491CC0B2C9B25278552A51
:1039F00008D1824A9732528822B993A2491C47F8CB
:103A00002020C9B2A07A4FF0000A401CC0B2A072B8
:103A1000142809D384F80AA0627A5046521CD2B204
:103A200062728A4200D36072DFF8D0810DF108091A
:103A300008F13D08424698F8000092F9046092F9B6
:103A4000011009EB8602A8F1C80B96462A2870D00F
:103A500000286FD0504A042892F814C06BD0434617
:103A600093F9042093F9017093F90280BA1A05289A
:103A700062D0112801F04080022801F052801F46D8
:103A80005B789B1E4FFA83FC0C2801F06A80142897
:103A900001F07E82102801F08C82152801F0AA82A4
:103AA000422801F0BD82452801F03083462801F00C
:103AB0009A836B4B35281B889BB24893364BB3F9DE
:103AC000783002F0B381372802F09484032802F0A2
:103AD000F785314B2528DB7C459303F0A4802E4BE2
:103AE00028285B7E03F0DA800BF1C8077F787F1E01
:103AF0007FB2BE46292803F055810BF1C8071A286A
:103B000003F0A7831F2803F0FC83202803F03084F0
:103B1000212803F05684222803F09B84232803F0F5
:103B2000DF84172803F04C853F2803F0FD864728E3
:103B300098E0F7E0FEE3FEE3FEE30000202500004E
:103B400020202500202020204200000020202041AD
:103B5000000000002020202500000000CA020820EC
:103B6000DBCA01008BC2072020C2FBF0E0E2ED2E91
:103B7000E7E0F0FFE420207A3A305A20000000000D
:103B80002020CAEEEDF2F0EEEBFC20E5ECEAEEF1DF
:103B9000F2E820200000000038C00720202020C0CC
:103BA000E2E0F0E8FF20F1E5F2E8212121202020E9
:103BB0000000000020C0E2E0F0E8FF20E1E0F2E0D9
:103BC000F0E5E821212120200000000020C0E2E0F3
:103BD000F0E8FF20E8F1F2EEF7EDE8EAE0204E3100
:103BE0000000000020C0E2E0F0E8FF20E8F1F2EE83
:103BF000F7EDE8EAE0204E320000000043C1072064
:103C0000C2EDE5F82EF2E5ECEF2E4E31E7E0E2FBF7
:103C1000F8E5EDE000000000C2EDE5F82EF2E5EC7D
:103C2000EF2E4E31E7E0EDE8E6E5EDE000000000C4
:103C300020D1F0E0E1EEF2E0EB20F8EBE5E9F42052
:103C40004E3120200000000020D1F0E0E1EEF2E053
:103C5000EB20F8EBE5E9F4204E32202000000000D4
:103C6000A031040003F08486402804F0E381412859
:103C700004F08382272804F0E4830A2804F0E68312
:103C80001C2804F003841B2804F06F841E2804F011
:103C90002B851D2804F04985382804F0B586A7F542
:103CA000A4732B28DB7E04F00687B846FF4F2C2830
:103CB00004F04D874B2804F05587ABF1800307F2E1
:103CC000844BB3F93C300BF101079C465B1E39284D
:103CD00004F070873A2804F08E873B2805F0468070
:103CE0003C2805F085813D2805F0368246463E2871
:103CF00005F07282072805F02B830828FBD01228D4
:103D0000F9D01328F7D03628F5D01928F3D0092890
:103D100005F043832D2805F045834A2805F0DE830E
:103D200005F008BC81B101294BD002297ED00329BE
:103D30007DD04FF4806504297AD0052979D00629F1
:103D400078D0072977D0EBE7D9A00290D8A00390CC
:103D5000D7A00490D6A002AD0346059007CDFEF78C
:103D600053F9D94D0023042228881946FDF742FF54
:103D70000023688809221946FDF73CFF0023A88824
:103D80000E221946FDF736FF0023E8881322194654
:103D9000FDF730FF2889002304220121FDF72AFFC7
:103DA0006889002309220121FDF724FFA889002347
:103DB0000E220121FDF71EFF00231322E8890121B5
:103DC00046E3BBA3BAA2BAA1B9A0FEF71DF998F9C0
:103DD0000200002380B21A461946FDF70BFF98F93E
:103DE0000200BA4D002305EB40100422008819465A
:103DF000FDF700FF98F90200002305EB40100422B4
:103E000040880121FDF7F6FE98F90200002305EB3A
:103E10004010042280880221FDF7ECFE98F9020090
:103E2000002305EB40100422C08805E07BE0E1E0C0
:103E3000EBE091E140E2E0E20321FDF7DBFE98F9DF
:103E40000200002305EB4010092200891946FDF706
:103E5000D1FE98F90200002305EB401009224089A9
:103E60000121FDF7C7FE98F90200002305EB401081
:103E7000092280890221FDF7BDFE98F90200002386
:103E800005EB40100922C0890321FDF7B3FE98F924
:103E90000200002305EB40100E22008A1946FDF7B0
:103EA000A9FE98F90200002305EB40100E22408A7B
:103EB0000121FDF79FFE98F90200002305EB401059
:103EC0000E22808A0221FDF795FE98F90200002358
:103ED00005EB40100E22C08A0321FDF78BFE98F9F6
:103EE0000200002305EB40101322008B1946FDF75A
:103EF00081FE98F90200002305EB40101322408B4D
:103F00000121FDF777FE98F90200002305EB401030
:103F10001322808B0221FDF76DFE98F9020005EB5C
:103F20004010C08B62E062A361A261A160A0FEF7B5
:103F30006BF8654D00232E3D042228881946FDF7B5
:103F400059FE6888002304220121FDF753FEA8884A
:103F5000002304220221FDF74DFEE88800230422FD
:103F60000321FDF747FE0023288909221946FDF7A2
:103F700041FE6889002309220121FDF73BFEA88943
:103F8000002309220221FDF735FEE88900230922DA
:103F90000321FDF72FFE0023288A0E221946FDF784
:103FA00029FE688A00230E220121FDF723FEA88A3C
:103FB00000230E220221FDF71DFEE88A00230E22B7
:103FC0000321FDF717FE0023288B13221946FDF766
:103FD00011FE688B002313220121FDF70BFEA88B35
:103FE000002313220221FDF705FEE88B0023132294
:103FF00003212DE22EA32EA22DA12DA0FEF704F861
:1040000000231A461946092022E229A328A228A142
:1040100027A0FDF7F9FF4FF460673846FCF728FE4C
:1040200006463846FCF724FE05EB40152846FCF70B
:10403000E4FDC0B203220021FDF758FF681CFCF725
:10404000DCFDC0B206220021FDF750FFA81CFCF7E2
:10405000D4FDC0B209220021FDF748FFE81CFCF79F
:10406000CCFDC0B20C220021FDF740FF281DFCF75B
:10407000C4FDC0B20F220021FDF738FF681DFCF718
:10408000BCFDC0B212220021FDF730FFA81DFCF7D5
:10409000B4FDC0B203220121FDF728FFE81DFCF7A3
:1040A000ACFD0622C0B2012112E000000E03082080
:1040B0002020202020202020202020202020202000
:1040C000202020200000000080090820D2070820BE
:1040D000FDF70CFF05F10800FCF78FFDC0B20922C7
:1040E0000121FDF703FF05F10900FCF786FDC0B2D1
:1040F0000C220121FDF7FAFE05F10A00FCF77DFD17
:10410000C0B20F220121FDF7F1FE05F10B00FCF713
:1041100074FDC0B212220121FDF7E8FE05F10C008A
:10412000FCF76BFDC0B203220221FDF7DFFE05F1B3
:104130000D00FCF762FDC0B206220221FDF7D6FE9B
:1041400005F10E00FCF759FDC0B209220221FDF76E
:10415000CDFE05F10F009DE0AFF2AC03AFF2B0026F
:10416000AFF2B401AFF2B800FDF74EFF4FF4606755
:104170003846FCF77DFD06463846FCF779FD05EB31
:10418000401505F11000FCF738FDC0B203220021F4
:10419000FDF7ACFE05F11100FCF72FFDC0B20622C1
:1041A0000021FDF7A3FE05F11200FCF726FDC0B2C9
:1041B00009220021FDF79AFE05F11300FCF71DFD11
:1041C000C0B20C220021FDF791FE05F11400FCF7AE
:1041D00014FDC0B20F220021FDF788FE05F1150085
:1041E000FCF70BFDC0B212220021FDF77FFE05F1A6
:1041F0001600FCF702FDC0B203220121FDF776FE96
:1042000005F11700FCF7F9FCC0B206220121FDF709
:104210006DFE05F11800FCF7F0FCC0B20922012187
:10422000FDF764FE05F11900FCF7E7FCC0B20C22B3
:104230000121FDF75BFE05F11A00FCF7DEFCC0B2C0
:104240000F220121FDF752FE05F11B00FCF7D5FC02
:10425000C0B212220121FDF749FE05F11C00FCF756
:10426000CCFCC0B203220221FDF740FE05F11D0087
:10427000FCF7C3FCC0B206220221FDF737FE05F1B0
:104280001E00FCF7BAFCC0B209220221FDF72EFE87
:1042900005F11F00FCF7B1FCC0B20C220221FDF7B2
:1042A00025FE00230A220321B0B2FDF7A3FC002360
:1042B00012220321A8B2CBE0DDA00290E2A003907D
:1042C000E7A00490ECA00590F1A00690F6A007905E
:1042D000FBA00890D368DEE9011259F82600FDF72B
:1042E00093FE02223F21BBF96C00FDF793FBFA4DD0
:1042F00068690022C0F300202421FDF77AFDF74E03
:1043000023213078FDF7E0FD68690022C0F34020EA
:104310004021FDF76EFD70782121FDF7D5FD06F1F6
:104320004005002228884A21FDF763FD00226888A5
:104330006A2102E08FE068E152E3FDF75AFDE84DA3
:10434000002259212878FDF754FD68780022792150
:10435000FDF74FFDE34D00226821286880B2FDF78C
:1043600048FDE14800226D21006880B2FDF741FD63
:10437000DE4E002251213088FDF73BFDDC4F00224C
:1043800071213888FDF735FD708800225A21FDF72C
:1043900030FD788800227A21FDF72BFDD54E0022D2
:1043A00041213078FDF725FDD34F00226121387877
:1043B000FDF71FFD707800224221FDF71AFD787885
:1043C00000226221FDF715FD2868002280B24321FA
:1043D000FDF70FFD6868002280B24421FDF709FD5A
:1043E000C64D00226321286880B2FDF702FD68688F
:1043F000002280B2642104F0A8BFC14B1A461146C6
:104400000846FDF701FEBF4D28784FF000034FF03E
:1044100006021946FDF7EEFB002306220121A07ECD
:10442000FDF7E8FB6820FCF723FC80B2002306229E
:104430000221FDF7DFFBA888002310221946FDF7B3
:10444000D9FB6A20FCF714FC80B200231022022161
:10445000FDF7D0FB64E4ACA00290A0484030B0F976
:104460000020B0F90200C82A05DDC82801DDACA093
:104470000AE0B1A008E0C82801DDB5A004E0BBF95E
:104480006A00C82801DDB8A00290BDA00390C2A0B8
:104490000490C7A00590CCA00690D1A00790D6A00C
:1044A0000890DBA00990E0A00A90E5A00B90EAA09C
:1044B0000C90EFA00D90F4A00E90F9A00F90FEA02C
:1044C00010908F481530119021B1721A022A04DD24
:1044D000891C04E088F804A003E0B14201DD88F8FB
:1044E0000410607A052807D298F9041009EB8100BE
:1044F000001D0EC8029809E098F9042007EB80001F
:1045000009EB8201091D50F8140C0EC9FDF77CFD62
:1045100098F90410A1B198F9010088B1814203D142
:10452000EB4880F83C500BE0081A012802D0022822
:1045300004D005E0E64880F8285001E0E44805751D
:104540000BF16A05012228886C2180B2FDF751FC2D
:1045500002224021B5F90200FDF75CFAA889012288
:10456000232180B2FDF745FC68890122242180B215
:10457000FDF73FFCD74D28784FF000024FF02601A1
:10458000FDF737FC287900225E21FDF732FC287AFE
:1045900000222521FDF72DFC287B00223C21FDF780
:1045A00028FC297E564800222A3000EB81003E215B
:1045B000FDF759FDA88B00227B21FDF71AFC207D19
:1045C00068B13A20FDF785F9C14E202535543A20CF
:1045D000FDF77FF935543A20FDF77BF93554BE4D90
:1045E0004FF4616100222868B0FBF1F080B27A21BB
:1045F000FDF7FFFB29683C20B1FBF0F1B1FBF0F2C5
:1046000000FB121000225A21F5E6B4F8680058B1F8
:104610004598800709D53A4BBCF1000F06D0AFA2F0
:10462000B4A1BAA004F0C2BE7CE184E17FE1000045
:10463000202020203F202020202020202024202354
:1046400020402021000000002020202020202020C9
:10465000202020202020204A2020206A0000000066
:104660002020202020202020202020202020205911
:104670002020207900000000202020682020206DCC
:104680002020202020512071205A207A0000000094
:104690002020207320202053202020202020204371
:1046A00020202044000000002020206620202046FA
:1046B00020202020202020632020206400000000F3
:1046C0002020202020202020202020202041206188
:1046D000204220620000000000C0092028C10720FD
:1046E000A8C20720E0C207207C000010CCC207202F
:1046F000C8C207206E00001070000010E8C207203A
:10470000F6D00100384002402020CDE5EEEFF0E584
:10471000E4E5EBE5EDEDEEF1F2FC20200000000019
:1047200020C220F0E0E1EEF2E520C1CFD1312CC172
:10473000CFD132200000000020202020C220F0E055
:10474000E1EEF2E520C1CFD13120202000000000B1
:1047500020202020C220F0E0E1EEF2E520C1CFD100
:1047600032202020000000002020D0E0E1EEF2E026
:1047700020EEF220E1E0F2E0F0E5E82000000000A9
:104780002055E13D2020206CC22049E13D20202021
:104790002040C020000000002055ED3D20202023B7
:1047A000C22049ED3D2020202024C0200000000030
:1047B0002030253A305E3A302620303C2F3E2020F3
:1047C0002F307B200000000020C1E0F2E0F0E5FF88
:1047D0002020202020202020202020200000000059
:1047E00020C1CFD1312020202020202020202020B7
:1047F000202020200000000020C1CFD13220202026
:104800002020202020202020202020200000000028
:1048100020CDE0E3F0F3E7EAE02020202020202074
:10482000202020200000000020D1E5F2FC202020E4
:1048300020202020202020202020202000000000F8
:1048400020D1EFE5F6F4F3EDEAF6E8E820202020A9
:10485000202020200000000020C6F3F0EDE0EB2037
:10486000F1EEE1FBF2E8E92020202020000000002A
:1048700020C1E0F2E0F0E5E9EDFBE920E6F3F0ED40
:10488000E0EB20200000000020C2E5F0F1E8FF206E
:10489000CFCE20202020202020202020000000003B
:1048A00020D3F1F2E0EDEEE2EAE820202020202003
:1048B000202020200000000020D1E1F0EEF120E0D7
:1048C000E2E0F0E8E9202020202020200000000085
:1048D000CA02082020400240D0C207202020202009
:1048E000EDE520EFEEE4EAEBFEF7E5EDE020202039
:1048F0002020000020202020202020C1E0F2E0F035
:10490000E5FF202020202020202000002020202043
:10491000202020C0C2C0D0C8DF212120202020209C
:10492000202000009EA3A4A2A9A1AFA07AE6B44AC9
:104930001146084676E6B3A00290B848007850B118
:10494000B7A00390BCA00590C1A0049094F82400E7
:1049500028B1C5A004E0CAA00390CFA0F3E7D4A07B
:104960000690D9A00790DEA00890A54815300990C0
:1049700009EB8100001D0EC8A2A0FDF745FB0BF15D
:10498000680601227088402180B2FDF732FA0222C7
:104990002121B6F90400FDF73DF8308800222421DA
:1049A00080B2FDF726FA94F921000022772180B227
:1049B000FDF71FFAB4F97000A0F5AA41553905D1E9
:1049C0004A1E5121CCA0FDF74EFB04E001225121EB
:1049D00080B2FDF70EFA98F8010004287DD039E581
:1049E000C848DFF81CC3B8F1000F406905D0C0F318
:1049F0004020B8F1010F03D006E0C0F3002003E02F
:104A0000B4F86A30012B02D048B1BFA008E0CAA3B5
:104A10000293CFA303937A4BC1A004932CE0D2A0BE
:104A2000459BDB0701D0D6A313E0B54B583B13F8E9
:104A30000830DF0601D5D8A30BE01F0701D5DCA3A2
:104A400007E05F0701D5E0A303E013F03C0F0CD0B3
:104A5000E3A30293E8A30393EDA30493A84B563B6F
:104A600013F808301BB1F0A302E0F5A3F1E7FAA3B5
:104A70000593634B153306936746002A01DCB14268
:104A800000DA397197F9046009EB8602121D59F8B2
:104A900026100CCAFDF7B8FA97F902000022401C54
:104AA00080B22121FDF7A5F9954897F90210183831
:104AB000012230F811004021FDF79BF9904897F949
:104AC00002101438012230F811002321FDF791F96A
:104AD0008B4897F902101C3800E009E030F811000B
:104AE00000222421FDF785F97878022844F02285F8
:104AF000DF4880F83C50ADE4DEA3E4A2E9A1EFA0DA
:104B0000FDF782FADA480122212180F83C500BF1AE
:104B10007405688880B2FDF76CF90122402103F02A
:104B200071BF4598C00718D0BCF1000F01D0E9A0B3
:104B300000E03348CFA3ECA2F1A10290FDF764FAA4
:104B4000CB480022232180F83C50608F80B2FDF7D3
:104B500050F901224021E08E01E0EFA0EAE780B2A7
:104B600049E4F3A00290F8A00390FDA0049024482B
:104B700015300590AFF6C82006903846022A02DDAF
:104B800080F804C002E0B14200DA017197F9041024
:104B9000F9A009EB8102121D59F821100CCA01E29B
:104BA000E220E1E0F2E0F0E5E9EDEEEC20E6F3F002
:104BB000EDE0EBE5000000002020202020E2E2E50F
:104BC000E4E8F2E520E5B8202020202000000000E5
:104BD00020CFF0E82020EDE5EEE1F5EEE4E8ECEEA4
:104BE000F1F2E8200000000020C1C0D2C0D0C5DF33
:104BF00020CDC520C2C2C5C4C5CDC0200000000064
:104C0000F6D00100202020202020C1C0D2C0D0C575
:104C1000DF20202020202020000000009AC2072052
:104C2000202020F0E0E7F0FFE6E0E5F2F1FF2020B1
:104C3000202020200000000020202049F0E0E7F0A4
:104C40003D2020202021C020202020200000000026
:104C500020202055E1E0F23D202020202040C220ED
:104C6000202020200000000020202020C4D22E2060
:104C7000EDE5E8F1EFF0E0E2E5ED202000000000D6
:104C800020202020E7E0F0FFE6E0E5F2F1FF202021
:104C9000202020200000000020202049E7E0F03DF7
:104CA000202020202021C0202020202000000000E3
:104CB00020202074E1E0F2203D20202024B0432079
:104CC0002020202000000000202020C7E0F0FFE48A
:104CD0003D202020207725202020202000000000DB
:104CE00020202043E1E0F23D202020202051C02A56
:104CF000F7202020000000002D2D2D2D2D2D00004F
:104D000080C1072000C0092020202020C1CFD12150
:104D100020C2DBCACBDED7C5CD202020000000009A
:104D20002020202020202020C1CFD1322020202070
:104D3000202020200000000020202020CED2D1D32F
:104D4000D2D1D2C2D3C5D220202020200000000022
:104D50002020C220D1D2D0D3CAD2D3D0C520C8C13E
:104D6000DDCF20200000000020202020C1CFD12155
:104D700020C2CACBDED7C5CD2020202000000000F5
:104D800020E0E2E0F0E8FF20F1E5F2E8202020203A
:104D9000202020200000000020E0E2E0F0E8FF20DA
:104DA000EFE5F0E5E3F0E5E2202020200000000040
:104DB00020E0E2E0F0E8FF2055E2FBF53C55ECE8AE
:104DC000ED2020200000000020E0E2E0F0E8FF20DD
:104DD00055E2FBF53E55ECE0EAF120200000000032
:104DE00020E7E0E1EBEEEAE8F0EEE2E0ED20E8E7D4
:104DF000E2EDE520000000002055E8F1F2203D2022
:104E000020202040C2202020202020200000000060
:104E10002049E8F1F2203D2020202023C02020203E
:104E2000202020200000000020C4D220EDE5E8F181
:104E3000EFF0E0E2E5ED202020202020000000003F
:104E400020F1EEF1F2EEFFEDE8E5202D20EDEEF0A1
:104E5000ECE02020000000002074E8F1F2203D206A
:104E6000202024B04320202020202020000000000B
:104E7000CA02082020C2FBF5EEE4202020202020DA
:104E80002020202020202020000000002049EDE0EC
:104E9000E3F03D2020202020202040412020202021
:104EA000000000002055EDE0E3F03D202020202010
:104EB000202021C2202020200000000020202020CF
:104EC0002020CDC0C3D0D3C7CAC02020202020209E
:104ED00000000000202020C0C2C0D0C8DF20D1C503
:104EE000D2C82121212020002046F1E5F2E83D2012
:104EF00020202020202040C3F62020200000000099
:104F00002055F1E5F2E83D2020202020202023C27A
:104F1000202020200000000020202020202020D160
:104F2000C5D2DC20202020202020202000000000EE
:104F300020CAEEEDF2F0EEEBFC20E5ECEAEEF1F249
:104F4000E82020200000000020C2FBF0E0E2EDE8B5
:104F5000E2E0FEF9E8E920E7E0F0FFE4000000000D
:104F600020C0E2F22EE2FBF0E0E2EDE8E22E20E7E4
:104F7000E0F0FFE40000000020202020D1CFC5D6C3
:104F8000D4D3CDCAD6C8C8202020202000000000DD
:104F9000489821280BD0B7A0BC4B0146029003F1E2
:104FA0001502BBA0FDF730F8012001F07BBFBEA0C9
:104FB000F2E7C3480290C3A0039031B1012908D0A1
:104FC00002290AD003290CD00FE0C4A00290C9A086
:104FD0000AE0CEA00290D3A006E0D8A00290DDA007
:104FE00002E0D6A00290E1A003900346B5A1B44828
:104FF000029A9BE44898052810D09EA0A34B024635
:1050000002901533DFA1E5A0FCF7FEFF0120FDF7BC
:1050100016FD00222121B4F86400A0E5A2A0EDE76E
:10502000DEA3DEA2DDA1DDA0FCF7EEFF04202076EA
:10503000A07E012821D0022821D003282CD00628C8
:105040002CD00C282CD0DBA002909048257615306F
:10505000039097F904103D4609EB8102E1A05368E3
:1050600059F82120D9A1FCF7CFFF95F9010095F956
:105070000410884216DA287119E0E0A000E0E5A0EB
:105080000290EAA00390EFA00490AFF6DC00059038
:105090007E4815300690DCE7F0A0F1E7F5A0EFE7D9
:1050A000FAA0EDE7411A012901DD411E297102280C
:1050B00000D128710220FDF7C2FC002225215D46A7
:1050C000BBF80200FCF795FE00225E21A888FCF7E1
:1050D00090FE00222621E888FCF78BFE00223C216E
:1050E0002889FCF786FE694869892A3000EB81002F
:1050F00000223E21FCF7B7FF00227B21A889FCF7A4
:1051000078FE00222821E88929E500BF40F60260E8
:10511000FBF7AEFD00B2A087402801DDA4F83CA05B
:10512000B4F93C1069B1012910D0022918D045DD2D
:1051300097F9012097F9043038469A422BDA027128
:105140002EE0524BD7A103F1150203E04F4ADBA337
:105150001532E0A1E5A0FCF757FF87F804A02DE089
:1051600097F9011097F904203846914201DA01714C
:1051700004E08A1A022A01DD891EF8E797F9040083
:1051800010B1012803D019E0404B153311E03F4A1C
:10519000CAA315320EE0D31A022B01DD921ECEE710
:1051A00097F904004A1E9042F1D0891E8842EBD044
:1051B000D4A3DAA2C7A1CDA0FCF726FF0120FDF7FA
:1051C0003EFC3D4638792821FDF730F828795B21EF
:1051D000401CC0B2FDF72AF828797B21801CC0B2A0
:1051E000FDF724F887E4294B1A4611460846FCF7D8
:1051F0000BFF4FF46060FBF73BFD97F902103E4652
:105200004A42402100B2FCF7ECFE400100F580600C
:1052100087B24AA93846FBF7B4FD4BA9381DFBF706
:10522000B0FD694607F10800FBF7ABFD01A907F1E6
:105230000C00FBF7A6FD43A907F11000FBF7A1FD49
:1052400044A907F11400FBF79CFD4CA907F11800D5
:10525000FBF797FD9DF82801552806D0502805D06A
:10526000422804D0532803D045E463E19EE162E282
:1052700039E3000020C2FBEAEBFEF7E5ED20202039
:10528000202020202020202000000000F6D0010057
:105290002020CACECDD2D0CECBDC20C5CCCACED138
:1052A000D2C820200000000020C2EAEBFEF7E5EDA6
:1052B000202020202020202020202020000000006E
:1052C000803B0000202020EDE5E2EEE7ECEEE6E595
:1052D000ED2121212020202000000000202020207E
:1052E000CEF2F1F3F2F1F2E2F3E5F22020202020F9
:1052F00000000000202020202020E1E0F2E0F0E586
:10530000FF2020202020202000000000202020203E
:10531000202020C0E2E0F0E8FF20202020202020F4
:10532000000000002020202020202020F1E5F2E8CD
:1053300020202020202020200000000020202020ED
:105340002020C1E0F2E0F0E5FF20202020202020F6
:105350000000000020202020F0E0E7F0FFE6E0E57C
:10536000F2F1FF202020202000000000202020203B
:1053700020E7E0F0FFE6E0E5F2F1FF20202020202A
:105380000000000020E4EBE8F2E5EBFCEDEEF1F2CA
:10539000FC202D202021F72E0000000020C2DBD0B1
:1053A000C0C2CDC8C2C0DED9C8C920C7C0D0DFC402
:1053B0000000000020E2FBEAEBFEF7E5ED202020F4
:1053C000202020202020202000000000C2DBD0C0B0
:1053D000C2CDC8C2C0DED9C8C920C7C0D0DFC42072
:1053E00000000000202020C0C2D2CECCC0D2C8D73E
:1053F000C5D1CAC8C92020200000000020F0E0E785
:1054000020E220ECE5F1FFF62020202020202020C3
:105410000000000020F0E0E720E2203220ECE5F17F
:10542000FFF6E020202020200000000020E4EBE830
:10543000F2E5EBFCEDEEF1F2FC20202028F72E2027
:105440000000000020EEF7E5F0E5E4EDEEE520E2F7
:10545000EAEBFEF7E5EDE8E50000000020F0E0E70C
:1054600020E2203320ECE5F1FFF6E0202020202090
:105470000000000020F0E0E720E220EFEEEBE3EE9A
:10548000E4E02020202020200000000020F0E0E7C1
:1054900020E220E3EEE420202020202020202020F5
:1054A0000000000020C6F3F0EDE0EB20EFF3F1F296
:1054B00020202020202020200000000020CEF7E81F
:1054C000F1F2E8F2FC20E6F3F0EDE0EB2020202002
:1054D0000000000020282020202020202020202044
:1054E000202020202020202000000000202020C696
:1054F000D3D0CDC0CB20D1CEC1DBD2C8C920202093
:1055000000000000207B20202020202020202020C0
:10551000202020202020202000000000205B2020D0
:10552000202020202020202020202020202020207B
:10553000000000009DF82A01522843F0FB87EAA3EF
:10554000EFA2F5A1FAA0FCF75FFD9DF80400002290
:105550004021FCF74EFC9DF8050000222321FCF7BA
:1055600048FC9DF8060000222421FCF742FC9DF82F
:10557000020000222521FCF73CFC9DF800000022DF
:105580005E21FCF736FC9DF80100401E0C2801D37B
:105590008DF801509DF80110EB48002200EB8100CE
:1055A0002821FCF760FDA4F83CA01BE69DF82A0129
:1055B000412802D0422853D014E6E4A00290E9A08A
:1055C00003909DF80C01412803D19DF80D0141285D
:1055D0007ED001220021301DFDF781FAE7A0049062
:1055E000ECA00590F1A0069096F9046009EB860105
:1055F000091D59F826000EC951E000BF8DF80D5164
:1056000074E000BFFCF7F5FB9DF804000022402188
:10561000FCF7EFFB9DF8050000222321FCF7E9FBD6
:105620009DF8060000222421FCF7E3FB9DF8020010
:1056300000222521FCF7DDFB9DF8000000225E2101
:10564000FCF7D7FB9DF80100401E0C2870D200BF6C
:105650009DF80110BC48002200EB81006621D2E0D9
:10566000D8A00290BFA003909DF80C01412803D15F
:105670009DF80D0141284CD001220021301DFDF77D
:105680002EFABEA00490C3A00590D4A0069096F96F
:10569000047009EB8700001D0EC859F82700FCF7BD
:1056A000B3FC9DF8100100223E21FCF7A2FB9DF8FF
:1056B000110100223D21FCF79CFB9DF81201002204
:1056C0004621FCF796FB00229DF80E015B2100E0CD
:1056D0001FE0FCF78EFB9DF80C0100223C21FCF73B
:1056E00088FB9DF80D01401E0C2887D29DF80D11F6
:1056F0009548002200EB81005D21FCF7B4FC9DF889
:1057000030019DF83111002200EB012080B22B21E5
:1057100078E7B8A00490BDA002AE0346059007CE7E
:10572000FCF772FC208F00222B2180B26AE7FFE792
:105730008DF801508CE79DF82A01432808D05A289B
:1057400065D04FF0050857287ED04B287DD049E51D
:10575000AFF248400290B3A0039063A004909DF87C
:105760000C01412803D19DF80D01412811D00122DF
:105770000021301DFDF7B3F980A00590AFA0069081
:1057800096F9047009EB8700001D0EC859F8270030
:105790005FE098A08EE000BF8DF80D517FE000BF64
:1057A0009DF829010022401C2B21FCF722FB9DF8CB
:1057B000040000224021FCF71CFB9DF8050000229C
:1057C0002321FCF716FB9DF8060000222421FCF79C
:1057D00010FB9DF8020000222521FCF70AFB9DF832
:1057E000000000225E21FCF704FB9DF80100401E32
:1057F0000C2801D38DF801509DF801105248002269
:1058000000EB81002821FCF72EFCA587EAE491A09B
:10581000029096A003909BA004909DF80C01412853
:1058200003D19DF80D01412843D001220021301DF4
:10583000FDF755F999A005909EA0069096F9046091
:1058400009EB8601091D01E03BE0D1E10EC959F8E1
:105850002600FCF7D9FB9DF8100100223E21FCF741
:10586000C8FA9DF8110100223D21FCF7C2FA9DF80B
:10587000120100222921FCF7BCFA9DF80E0100223A
:105880005B21FCF7B6FA9DF80C0100223C21FCF7E5
:10589000B0FA9DF80D01401E0C28BFF47DAF9DF8B5
:1058A0000D112948002200EB81005D21FCF7DBFB94
:1058B00076E786A002AE0346059007CEFCF7A4FB70
:1058C0006EE788A002908DA0039092A004906DA036
:1058D000059096A006909BA00790A0A00890A5A078
:1058E0000990AAA09AE1FEE120203025282020304E
:1058F0005E2030403A30233A30242020000000005F
:105900002020202020202020C8C1DDCF20202020E2
:105910002020202000000000202020E8EBE820E2EA
:10592000EAEBFEF7E5EDE8E520202020000000008E
:1059300020202020CFE5F0E5E7E0E3F0F3E7EAE020
:10594000202020200000000020D10100C0E2E0F073
:10595000E8FF20F1E5F2E82128E7E0EDE8E62E296E
:105960000000000020203025662020305E203040DE
:105970003A30233A3024202000000000202020204C
:105980002020F3F1F2F0E0EDE5EDE02020202020F2
:10599000000000002020305B5D2020303C20303EA5
:1059A0003A303D3A304620200000000020202020E0
:1059B0002055ECE8ED3D20202BC220202020202087
:1059C00000000000C0E2E0F0E8FF20F1E5F2E8218D
:1059D00028E7E0E2FBF82E2900000000202020202C
:1059E0002055ECE0EAF13D20202BC2202020202091
:1059F0000000000020202020EDE520F3F1F2F0E08F
:105A0000EDE5EDE0202020200000000020202020F7
:105A10002055F1E5F2E83D20202BC2202020202057
:105A200000000000202020202020E1E0F2E0F0E54E
:105A3000E820202020202020000000002020305BD3
:105A40005D2020303C20303E3A303D3A3029202045
:105A500000000000202020C2FBF0E0E2EDE8E2E0E0
:105A6000FEF9E8E92020202000000000202020206E
:105A7000202020E7E0F0FFE420202020202020202C
:105A8000000000002030252F2820202F305E2030FD
:105A9000403A30233A30242000000000202020200B
:105AA0002020E7E0E2E5F0F8E5ED202020202020AE
:105AB0000000000020305B2F5D20202F303C203084
:105AC0003E3A303D3A3029200000000020202020BE
:105AD000EDE520E7E0E2E5F0F8E5ED2020202020EC
